:020000040800F2
:1000000000A0002025310008753100087531000876
:1000100075310008753100087531000800000000D6
:100020000000000000000000000000007531000822
:1000300075310008000000007531000875310008B6
:1000400075310008753100087531000875310008F8
:1000500075310008753100087531000875310008E8
:1000600075310008753100087531000875310008D8
:1000700075310008753100087531000875310008C8
:1000800075310008753100087531000875310008B8
:1000900075310008753100087531000875310008A8
:1000A0007531000875310008753100087531000898
:1000B0007531000875310008753100087531000888
:1000C0007531000875310008753100087531000878
:1000D0007531000875310008753100087531000868
:1000E0007531000875310008753100087531000858
:1000F0007531000875310008753100087531000848
:100100000000000000000000000000007531000841
:100110007531000875310008753100087531000827
:100120007531000875310008753100087531000817
:100130007531000875310008000000000000000063
:1001400075310008753100087531000800000000A5
:10015000000000000000000000000000000000009F
:100160000000000000000000753100087531000833
:1001700075310008000000000000000000000000D1
:080180000000000075310008C9
:100188000348044B834202D0034B03B1184770471E
:100198001000002010000020000000000548064B59
:1001A8001B1AD90F01EBA301491002D0034B03B16D
:1001B80018477047100000201000002000000000C1
:1001C80010B5064C237843B9FFF7DAFF044B13B197
:1001D8000448AFF300800123237010BD10000020F5
:1001E800000000009C49000808B5044B1BB10449F5
:1001F8000448AFF30080BDE80840CFE700000000E6
:10020800140000209C49000853B94AB9002908BFC6
:1002180000281CBF4FF0FF314FF0FF3001F03AB912
:10022800ADF1080C6DE904CE00F006F8DDF804E045
:10023800DDE9022304B070472DE9F047089D0E461A
:1002480004460F46002B4AD194468C45B2FA82F2F6
:1002580060D942B1C2F12003974020FA03F30CFAA7
:1002680002FC1F4394404FEA1C4E1FFA8CF6B7FB62
:10027800FEF1230C0EFB117743EA074301FB06F05E
:1002880098420AD91CEB030301F1FF3780F015816E
:10029800984240F21281023963441B1AA4B2B3FB9C
:1002A800FEF00EFB103344EA034400FB06F6A642B8
:1002B8000AD91CEB040400F1FF3380F00081A64248
:1002C80040F2FD806444023840EA0140A41B00214A
:1002D8001DB1D4400023C5E90043BDE8F0878B4237
:1002E80005D90DB1C5E9000100210846F5E7B3FAC3
:1002F80083F1002946D1B34202D3824200F2F5804D
:10030800841A66EB030201201746002DE5D0C5E9E3
:100318000047E2E7002A40F09380A1EB0C034FEA84
:100328001C471FFA8CFE0121B3FBF7F607FB1630BA
:10033800230C43EA00430EFB06F0984208D91CEB55
:10034800030306F1FF3802D2984200F2D0804646F5
:100358001B1AA4B2B3FBF7F007FB103344EA0344BB
:100368000EFB00FEA64508D91CEB040400F1FF3380
:1003780002D2A64500F2B6801846A4EB0E0440EA65
:100388000640A5E7C1F120078B4022FA07FC4CEA9A
:10039800030C06FA01FE20FA07F426FA07F344EAEA
:1003A8000E0400FA01F84FEA1C404FEA1449B3FB67
:1003B800F0FE1FFA8CF600FB1E3349EA03430EFBDE
:1003C80006F9994502FA01F20BD91CEB03030EF169
:1003D800FF3A80F08580994540F28280AEF1020EA6
:1003E8006344A3EB0909A4B2B9FBF0F300FB13992A
:1003F80044EA094403FB06F6A64208D91CEB0404A8
:1004080003F1FF3068D2A64266D9023B644443EA4E
:100418000E40A41BA0FB02E6B4427346B14652D379
:100428004FD05DB1B8EB030264EB090404FA07F797
:1004380022FA01F31F43CC40C5E9007400214CE7C0
:10044800C2F1200120FA01F30CFA02FC26FA01F1AC
:10045800964033434FEA1C471FFA8CFEB1FBF7F076
:1004680007FB1016190C41EA064100FB0EF68E42F6
:1004780004FA02F408D91CEB010100F1FF382DD26F
:100488008E422BD902386144891B9BB2B1FBF7F627
:1004980007FB161143EA014306FB0EF1994208D9FE
:1004A8001CEB030306F1FF3814D2994212D9023E1D
:1004B80063445B1A46EA004136E73946EDE61846DA
:1004C80002E7F045ADD2BEEB020366EB0C0601383D
:1004D800B146A6E74646ECE7034698E74046D3E729
:1004E800D6467EE76444023847E708460DE7023EF1
:1004F80063442DE703685A004CBF43F0004323F0E0
:1005080000431844704700BF2DE9F04759B301F183
:10051800FF380546164647464FF0000A0AEB070122
:1005280001EBD171491005EBC1094846FFF7E2FF1D
:1005380088454FEAC104034610D004F10800B342CD
:10054800284407D8FFF7D6FF0138B04208D201F196
:10055800010AE3E78A4506D04F1EDFE7B042F9D823
:100568004846BDE8F0874FF000094846BDE8F087E7
:10057800012809D0022805D0044B00280CBF1846D2
:10058800002070470248704702487047550C000821
:100598005D0C0008590C000830B5224B83B00446A6
:1005A8008D1E43B301A92846AFF30080F0B101992D
:1005B8002A46FFF7A9FF0146C0B1FFF79BFF4B682A
:1005C800A064012B2BD0002B01F1040025DBFFF7E1
:1005D80091FF002323650368E064002B12DBFFF71B
:1005E80089FF03460020236103B030BD00230920A2
:1005F800236103B030BD0C4B0C49C91AC910184609
:100608000191D5E7C3F30360FFF7B2FF031E0CBFE8
:1006180009200020236103B030BD0123DAE700235D
:100628000520E0E7000000000C4C00084C4D0008D5
:100638000368DA0710B5044606D49B0700F150009A
:1006480009D500F095FC2368590709D51A070ED576
:10065800DB0613D510BD00F083FC23685907F5D4D9
:1006680004F1D80000F08CFC23681A07F0D404F5D4
:10067800AC7000F08DFC2368DB06EBD404F5EC705D
:10068800BDE8104000F0C8BC0346006800B118443B
:10069800704700BF09207047704700BF70B5044617
:1006A8000E46316C2046FFF777FF054688B9326C55
:1006B8006261236932462146012098470828F0D014
:1006C800072806D12846316CFFF7E6FF301D00F0F9
:1006D8003BFCFFDE2DE9F04701F1040CC768D0F8B8
:1006E800188006469146BCE80F00ADF5767D03AC50
:1006F8000FC4BCE80F000FC4BCE80F000FC49CE88F
:100708000F0002AD4FF0000E84E80F00C5F800E0BE
:1007180021E02B6C73614FF4F47229467CA800F039
:100728000DFF33697CAA3146504698478A9BAB64D3
:100738004946CDE900588246334601203246B8473B
:10074800814630BB4FF4F4727CA9284600F0F6FECF
:10075800BAF1080F1AD1296C3046FFF71DFF09F1CD
:10076800090904465FFA89FA0028D2D0AB6BAB645A
:100778003246CDE9005833464AF010010120B84707
:1007880038B920460DF5767DBDE8F087BAF1070F38
:1007980005D0092420460DF5767DBDE8F08748464A
:1007A800296CFFF779FF03A800F0CEFB806C704737
:1007B800F0B5CB6B0B6401F1040C0E460546BCE8A2
:1007C8000F00FBB001AC0FC4BCE80F000FC4BCE8BD
:1007D8000F000FC49CE80F004FF0FF3784E80F00AC
:1007E800009706E02B696A46294698470828044678
:1007F80008D110992846FFF7CFFE0028F2D009202B
:100808007BB0F0BD6846FFF713FF062CF7D13146E1
:100818002846FFF743FF00BFC160D96B82611964A6
:100828000022194656E700BF70B5C66843690B64D5
:10083800AEB903690A4604460D46014602209847A8
:10084800072805D008280ED129462046FFF726FF9D
:100858003046296CFFF720FF281D00F075FB0122A8
:10086800FFF738FFFFDEFFDEC2681AB1CA6B0A6401
:1008780000222FE79CE700BF704700BF836801464E
:100888000BB1012018477047052915D8DFE801F09A
:100898000A031403030501207047009A436C136090
:1008A8000020704743B90F2A06D800EB82020020C7
:1008B8005368009A136070470220704700B585B0EE
:1008C8000A46002303A900911946FFF7DDFF0398A4
:1008D80005B05DF804FB00BF052915D8DFE801F075
:1008E8000A031403030501207047009B1B68436437
:1008F8000020704743B90F2A06D8009B00EB8202FC
:100908001B685360002070470220704710B584B000
:10091800002303AC039200940A461946FFF7DCFF54
:1009280004B010BD70B5D36B136402F1040C054616
:100938000C46BCE80F00ADF5107D0DF15C0EAEE87D
:100948000F00BCE80F00AEE80F00BCE80F00AEE8EF
:100958000F009CE80F004FF0FF368EE80F00169648
:1009680010E0FFF7D3FF214616A8A847034616AAAA
:100978000820694683B9049B9847052806460CD089
:10098800092809D026996846FFF706FE03460C2178
:100998006A4616A8002BE4D0092616A8FFF748FED9
:1009A80030460DF5107D70BD2DE9F04F1646CA6C26
:1009B80089B00D4652F8041B069200F0030C002B78
:1009C80079D00C0C8DF81D400904E4B2059102EBB6
:1009D800840202218DF81C10296DBCF1020F08BF9A
:1009E800AA6B11F0010809D005A9304600F0AEFB4A
:1009F800002856D1082009B0BDE8F08F1768002FED
:100A0800F2D000F00801CDE90118E3469A46BAF1A0
:100A1800020F4CD01788548802F10409AA6C24F0FC
:100A280001030F21304603EB0208FFF747FF80451B
:100A38003BD827F0010202EB0803834294BF00234E
:100A48000123640004F0020407F001072743012F83
:100A58004ED0022F35D027BBBBF1000F02D0002BA0
:100A680040F0D38009F104021768002FCFD105A9FF
:100A78003046DDF8088000F069FB90B9B8F1000F46
:100A8800B8D00F213046FFF719FF0E210246304635
:100A9800FFF73CFF6C4A0F213046FFF737FF07206E
:100AA80000E0092009B0BDE8F08F0023C9E75468C9
:100AB80002F10809B2E7090205918DF81D300321FA
:100AC80088E7D9F8004024F00048BBF1000F47D16F
:100AD8002BB1019B002B5CD0B8F1000F59D0002C32
:100AE80001DA09F1040908F1010209EB8202BBE706
:100AF800BBF1000F1CD1C3B1D9F80430D9F80020DC
:100B0800991C4FEAD272CCD005F1580401330494F1
:100B180000F08E8009F10400FFF7B6FD04AB014632
:100B28002846AFF30080002859D109F108029BE755
:100B38000D213046FFF7C2FE2C6A8442F5D1AB6A1C
:100B48009945F2D14846FFF7D5FC0F2102463046B9
:100B5800FFF7DCFE2A4600213046FFF7D7FE9EE766
:100B68000D213046FFF7AAFE2F6A8742B7D1AB6A3C
:100B78009945B4D100240423C5E90B434B44C5F877
:100B880028806B63D9F80030A34258DB0123029315
:100B9800A9E705F15803CDF80CB009F10407B346ED
:100BA80000241E460BE038460496FFF76DFD002230
:100BB800014604AB2846AFF300800437F8B9444532
:100BC80004F10104EFD10D215846FFF777FE049B8D
:100BD800C5F828900246C5E90823062062E70446BE
:100BE8000D213046FFF76AFE049E2862022C04BFDE
:100BF800EE6205F12C06C5E90969062052E75E4652
:100C0800D9F80040DDF80CB069E74846FFF772FCF8
:100C180009F104030446AB632846AFF300800028BB
:100C28003FF43FAF22460F213046FFF76FFE36E70D
:100C380030460D21FFF742FE26462862DBE708F121
:100C4800010209EB82007EE7000000000023ABE60A
:100C58000123A9E60223A7E62DE9F0410646C4B020
:100C68001446052900F2D880DFE811F012002D00A3
:100C7800D6006C0091000600836B002C40F0CC80FD
:100C880053F8042B42648363002044B0BDE8F0812C
:100C9800002B40F0C180856B1FFA84FC012006F10F
:100CA800040E00FA03F111EA0C0F2A4604D052F898
:100CB800041B4EF8231015460133102BF1D1A7045D
:100CC800E2D4B563E0E7012B4FEA1447A4B200F081
:100CD8008380052B40F0A08007EB0408B8F1200FB3
:100CE80000F29A800F2F40F29980002CCCD0026835
:100CF800500700F11881019302AD284600F044F92D
:100D08004FEA440CA7F11000B16B019B0CF1FF3CBA
:100D180005EBC0000CF1010C043801EB8C0251F812
:100D2800044B40F8044F9142F9D1012B00F0DE80CA
:100D38000F2FB16302D822A800F01AF9284600F054
:100D48001FF9A1E7032B67D1A7B207EB1443102BB8
:100D58004FEA144460D80368190700F1BF8022AD38
:100D6800284600F037F97A00B06B05EBC404531E2F
:100D780042B1011B625844F8042B013B5A1CF9D1BB
:100D880000EBC700B063284600F002F97CE7002BAF
:100D980042D1102C40D80368DD0600F1978022ADBF
:100DA800284600F043F9B76B294600234FF0010CA1
:100DB8000CFA03F22242384603F1010303D050F83B
:100DC800042B0A600746042B01F10401F0D1B76334
:100DD800284600F021F957E73A19102A1CD8102F95
:100DE8001AD00268D00708D5304622F0030240F82E
:100DF800502B019300F0B8F8019B019322AD2846CF
:100E080000F0B2F8B26B019B002C58D10432B263E7
:100E1800284600F0A5F837E7022036E7B8F1100FAA
:100E2800026865D9D40772D522F0010242F00202A5
:100E380040F8502B019300F09FF83268019B12F0A4
:100E4800040F66D122AD2846019300F095F802A858
:100E580000F09AF8C7F110014900B26B019BA8F1A4
:100E6800100C4C1E05EBC7000134043802EB84015A
:100E780052F8044B40F8044F8A42F9D1BCF1000FF4
:100E88005AD0102F384638BF10204FEA4C0C103873
:100E980002AD0CF1FF3C05EBC0003BE7304622F009
:100EA800010242F0020240F8502B22AD019300F0FB
:100EB80063F8284600F060F8B26B24B3019B640025
:100EC800013C05EBC7004FF0000CCDE723F0100301
:100ED800036000F5EC7000F0A9F860E723F0080360
:100EE800036000F5AC7000F075F838E722AD8DE7C7
:100EF800D107D3D422AD2846019300F03DF8B26B58
:100F0800019B002CDBD1284600F032F8BCE65407E0
:100F180098D5304622F0040240F8D82B019300F00F
:100F280033F8019B8EE7304622F0040240F8D82BB4
:100F3800019300F029F8DFE6012B3FF467AF0F2F8C
:100F4800B2633FF6A1AEDEE700F1340191E8380064
:100F58009C46A6464CF8045D90E8FF0FE54600BDA8
:100F680090EC210B704700BF80EC210B704700BF4D
:100F780090EC200B704700BF80EC200B704700BF3F
:100F8800D0EC200B704700BFC0EC200B704700BFAF
:100F9800F0EC0201F0EC0211F0EC0221F0EC02316D
:100FA800F0EC0241F0EC0251F0EC0261F0EC02715D
:100FB800F0EC0281F0EC0291F0EC02A1F0EC02B14D
:100FC800F0EC02C1F0EC02D1F0EC02E1F0EC02F13D
:100FD800704700BFE0EC0201E0EC0211E0EC0221F6
:100FE800E0EC0231E0EC0241E0EC0251E0EC02619D
:100FF800E0EC0271E0EC0281E0EC0291E0EC02A18D
:10100800E0EC02B1E0EC02C1E0EC02D1E0EC02E17C
:10101800E0EC02F1704700BFB0FC0181B0FC019127
:10102800B0FC01A1B0FC01B1704700BFA0FC018178
:10103800A0FC0191A0FC01A1A0FC01B1704700BF78
:10104800EC4600B52DE900502DE9FF1F4FF00003D5
:101058002DE90C0001A9FFF7ABFBDDF840E012B069
:10106800704700BFEC4600B52DE900502DE9FF1F81
:101078004FF000032DE90C0001A9FFF7D5FBDDF8BF
:1010880040E012B0704700BFEC4600B52DE90050B3
:101098002DE9FF1F4FF000032DE90C0001A9FFF710
:1010A800E3FBDDF840E012B0704700BFEC4600B546
:1010B8002DE900502DE9FF1F4FF000032DE90C002A
:1010C80001ABFFF7A9FBDDF840E012B0704700BFA5
:1010D800EC4600B52DE900502DE9FF1F4FF0000345
:1010E8002DE90C0001AAFFF71DFCDDF840E012B065
:1010F800704700BF027A03467AB9427AA2B14168C2
:10110800013A10B44272086803220C1D1A720202D6
:101118005C60000E10BC1A6070470068013A1A72D1
:1011280002021A60000E7047B020704700B585B003
:1011380003AA0023009219460C22FFF7A5FB039887
:1011480005B05DF804FB00BFF0E700BF2DE9F043F0
:10115800064685B00D464FF000082846FFF7CAFF3F
:10116800B028044600F01C8107065BD500F0F003A8
:10117800A02B1AD030D8802B00F08280902B27D15A
:1011880000F00D030D2B23D002AF002300F00F0257
:10119800194600973046FFF777FB002300970D228A
:1011A80019463046FFF798FBD7E7C34303F0070318
:1011B8004FF47F621A41010702F47F6201D542F4BD
:1011C8008042002319463046FFF746FD0028C4D068
:1011D800092005B0BDE8F083B02B68D0C02B3DD105
:1011E800C62800F0CA80C72800F0DF8000F0F803A6
:1011F800C02B00F0EC80C82800F0F780C928E7D1A0
:101208002846FFF777FF020300F00F0002F4702270
:1012180001300243012105233046FFF71DFD002858
:101228009BD0D5E78300DBB21F1D0DF10809002311
:101238001946CDF800900D223046FFF725FB029B9A
:10124800CDF8009060064CBFDF1BFF1800230D226D
:10125800194630460297FFF73FFB7EE700F0F80398
:10126800D02BB5D100F007020132052342F4002249
:1012780001213046FFF7F0FC00283FF46EAFA7E7E6
:101288002846FFF737FF24022043B0F5004F9FD0D0
:1012980004010023A2B219463046FFF7DDFC0028FE
:1012A80096D114F4004F18BF4FF0010855E7A0F18C
:1012B800B103042B00F2B580DFE803F05529160CC2
:1012C800030003AA0023009219460D223046FFF7B7
:1012D800DBFA42E700231A4605213046FFF7BCFC3B
:1012E80000283FF43AAF73E72846FFF703FF0203ED
:1012F80000F00F00013002F4702201230243194666
:101308003046FFF7A9FC00283FF427AF60E7002329
:101318000DF108090D221946CDF800903046FFF767
:10132800B3FA2846FFF7E6FE0206029C4FF00207D2
:101338000BD500F07F00B840044428460294FFF71C
:10134800D9FE030607F10707F3D4B840002304F5D4
:1013580001740444CDF800900D22194630460294D9
:10136800FFF7BAFAF9E62846FFF7C4FE431EDBB2D8
:101378000E2B02467FF625AF2AE72846FFF7BAFE6E
:10138800020300F00F00013002F47022032302432D
:1013980019463046FFF760FC00283FF4DEAE17E739
:1013A800B8F1000F2DD0002013E72846FFF7A2FE62
:1013B800431EDBB20E2B02463FF60AAF0023042180
:1013C8003046FFF749FC00283FF4C7AE00E700F0BD
:1013D8000F020132032342F4202219463046FFF758
:1013E8003BFC00283FF4B9AEF2E62846FFF782FE40
:1013F80000F0F00200F00F031032013343EA02322A
:1014080008E702AC4346414600940E223046FFF7F7
:101418003BFA0F220094434641463046FFF75CFAF8
:10142800C1E700F0FC03B42B3FF4D2AE00F0070292
:101438000132012342F4002219463046FFF70CFC22
:1014480000283FF48AAEC3E610B5C26C536884B076
:101458004FF0030C08321C0208461B0E01A9019428
:1014680002928DF80CC08DF80D30FFF76FFE04B0B6
:1014780010BD00BF08B5FFF767FE806C08BD00BF50
:1014880008B5FFF761FEC06CC37900EB8300083034
:1014980008BD00BF704700BF830730B547D0541E52
:1014A800002A3ED0CAB2034601E0013C39D303F812
:1014B800012B9D07F9D1032C2CD9CDB205EB0525BD
:1014C8000F2C05EB054535D9A4F1100222F00F0CBD
:1014D80003F1100EE6444FEA121C1A46C2E9005501
:1014E800C2E9025510327245F8D10CF1010214F02C
:1014F8000C0F03EB021204F00F0C13D0ACF1040331
:1015080023F003030433134442F8045B9342FBD1F2
:101518000CF003042CB1C9B21C4403F8011BA3420C
:10152800FBD130BD64461346002CF4D1F9E70346DD
:101538001446C0E71A46A446E0E700BF844641EADD
:10154800000313F003036DD1403A41D351F8043B33
:1015580040F8043B51F8043B40F8043B51F8043B85
:1015680040F8043B51F8043B40F8043B51F8043B75
:1015780040F8043B51F8043B40F8043B51F8043B65
:1015880040F8043B51F8043B40F8043B51F8043B55
:1015980040F8043B51F8043B40F8043B51F8043B45
:1015A80040F8043B51F8043B40F8043B51F8043B35
:1015B80040F8043B51F8043B40F8043B51F8043B25
:1015C80040F8043B51F8043B40F8043B403ABDD294
:1015D800303211D351F8043B40F8043B51F8043B36
:1015E80040F8043B51F8043B40F8043B51F8043BF5
:1015F80040F8043B103AEDD20C3205D351F8043BC5
:1016080040F8043B043AF9D2043208D0D2071CBF90
:1016180011F8013B00F8013B01D30B8803806046B9
:10162800704700BF082A13D38B078DD010F003032F
:101638008AD0C3F10403D21ADB071CBF11F8013B9F
:1016480000F8013B80D331F8023B20F8023B7BE7EE
:10165800043AD9D3013A11F8013B00F8013BF9D219
:101668000B7803704B7843708B78837060467047B3
:1016780070B50F4B0F4DAB42A3EB050607D0B61064
:10168800002455F8043B01349847A642F9D803F0E2
:1016980081F9094D094B5E1BAB424FEAA60606D0FD
:1016A800002455F8043B01349847A642F9D870BD88
:1016B8004C4D00084C4D00084C4D0008544D000896
:1016C800002301461A46184600F014B838B5074DED
:1016D800074C2C1BA41005D0013C55F8043D984735
:1016E800002CF9D1BDE8384003F05AB9584D00082C
:1016F800544D000870B4164D2C681CB365681F2D36
:1017080023DC38B9AB1C0135656044F82310002090
:1017180070BC704704EB850C0228CCF88820D4F8FC
:1017280088614FF0010202FA05F246EA0206C4F89F
:101738008861CCF80831E5D1D4F88C311343C4F86A
:101748008C31DFE7034C2C60D8E74FF0FF30DFE740
:101758002C000020300000202DE9F04FCDB00DF115
:101768002C0983461BAF0CA84A464B780E78CD78D7
:101778008C781B0443EA06632B4343EA042342F8AC
:10178800043FBA4201F10401EFD10CAE1A9B1B9C35
:1017980056F8C01B1F46D0F824C00D4650F8041F49
:1017A8004FEAF74282EA77424FEAB14382EA972248
:1017B80083EAF113624483EAD1031A442746B0420C
:1017C80005EB0204C463E6D1DBE90012DBF808305C
:1017D800DBF81C50DBF80C400395DBF81000DBF855
:1017E8001470DBF8186005940194CDE90912314DA5
:1017F800DDF80CA004930690079708969E461446B9
:101808008C46CDF82CB005E03E46A6460746644611
:1018180040469C4655F8042F59F8041F4FEAF02318
:1018280083EAB0130A4483EA7063134426EA000883
:1018380000EA070288EA02084FEA7C3282EABC0220
:1018480082EABC5202924344019ACDF804E0534420
:101858001A4484EA0E0101EA0C01904604EA0E0BD0
:10186800029A81EA0B010A441344134A9542B2468C
:10187800CAD1DDE909121944049B059DDDF82CB095
:1018880023441C46069B434462449C46079B0344EE
:101898001846089B3B441F46039B75443344CBE9D9
:1018A8000012CBE90245CBE904C0CBE906734DB081
:1018B800BDE8F08FC04A0008C04B00082DE9F04190
:1018C8001C4D2B7806460F469046A3B1B8F1000F81
:1018D8002DD007EB0801184C7A1E0139304612F852
:1018E800013F4340DBB28A4254F8233083EA102098
:1018F800F5D1BDE8F081114811499E4600F5806494
:101908007246082342F3000C013B0CEA010C13F069
:10191800FF038CEA5202F5D140F8042F84420EF1FD
:10192800010EEDD101232B70B8F1000FD1D1304653
:10193800BDE8F081080A00200C0A0020080A0020EF
:101948002083B8ED00B585B0014632234FF0000C76
:1019580000938DF80D10022303AA782103488DF80F
:101968000CC002F0F5FA05B05DF804FB0C0E00207F
:101978002DE9F04716460746884601F06BFF234BD2
:101988003422DA60002E3DD008F10109CA4600254C
:1019980001E0AE421CD96B1C9E421AF8012C88BF8C
:1019A8009AF8003007EB05018CBF42EA032242F4A3
:1019B8007F420023012001F097FF023504460AF117
:1019C800020A0028E5D001F059FF0020BDE8F087A1
:1019D80001F054FF2046431C9E4218F8002084BFA3
:1019E80019F8003042EA03223B5A98BF42F47F427A
:1019F8009BB29A4200F10200E7D18642EBD801205F
:101A0800BDE8F08701F03AFFF9E700BF0020024087
:101A1800F8B5866E82190D46372E4FF080010446C0
:101A280006F1010382F8281045D8382B07D006F1B3
:101A38002900C6F1370220440021FFF72DFD04F1EB
:101A48002807D4E908230820E6FB0023226212BAFB
:101A58001E0E6266002266F307021E0C66F30F2252
:101A68001E0A66F3174263F31F6239466362204613
:101A78002266FFF771FE1823691E2268DA4001F812
:101A8800012F6268DA400A71A268DA400A72E268D5
:101A9800DA400A732269DA400A746269DA400A7520
:101AA800A269DA400A76E269DA40083B13F1080FC6
:101AB8000A77E2D1F8BD3F2B07D806F12900C6F115
:101AC8003F0220440021FFF7E7FC04F128073946CC
:101AD8002046FFF741FE382200213846FFF7DCFC9C
:101AE800AFE700BF30B5144D87B001230024CDE91E
:101AF80002450493054601F0ADFE104B3422DA602E
:101B080001A902A801F046FF044601F0B7FE74B926
:101B1800019B013302D0204607B030BD3C22294644
:101B28000548FFF725FF0446204607B030BD0024CE
:101B3800204607B030BD00BF0078000800200240F2
:101B480010B5044688B0124801F042FDB8B19FEDC7
:101B58000E7B052140F2F57202234FF0000C8DF840
:101B68000010029206930A488DF8014001AB6A46BC
:101B780002A98DED047B8DF81CC001F0D7FC08B0DC
:101B880010BD00BFAFF3008000000000000000009F
:101B9800700E0020D0B5304A3048D2F80048D2F84C
:101BA8000818D2F80C38D2F81028844292B030D0F5
:101BB80000231C46194618461E461F461A468DF82D
:101BC80013008DF8141040F2F97008218DF81720D1
:101BD80001228DF811708DF812608DF815408DF87E
:101BE800163006900DEB01030A918DF810201C4861
:101BF80000260027002404AA06A9CDE908678DF865
:101C08002C4001F093FC164801F0E2FC60B912B0D8
:101C1800D0BD0F0EC1F30746C1F30720C3F3072455
:101C2800D2B2C9B2DBB2CAE70E4B8DF844401B688A
:101C3800ADF80430180C032140F2FA728DF8060052
:101C48000C92109103AB01AA0CA90548CDE90E67C7
:101C580001F06CFC12B0D0BD007000084150415535
:101C6800700E0020B449000810B5044688B010482A
:101C780001F0AEFCA0B19FED0C7B40F2F5710122A2
:101C88004FF0000C0291069209488DF8004001AB14
:101C98006A4602A98DED047B8DF81CC001F046FC54
:101CA80008B010BDAFF30080000000000000000085
:101CB800700E0020000000002DE9F047D4B00DF1AF
:101CC800A008DFF8FCA11446054640220F4640460E
:101CD8000021FFF7E1FBBAE80F00C146A9E80F00B1
:101CE8009AE80F0089E80F000DF19C0E0DF11C0C0D
:101CF80018AE5EF8043F83F0363283F05C334CF85C
:101D0800042F46F8043B4645F3D100220023CDE9D1
:101D1800402363A3D3E90023CDE9382362A3D3E9A1
:101D28000023CDE93A2362A3D3E90023CDE93C237C
:101D380061A3D3E900230DF11F06CDE93E2300235B
:101D4800B2460DF15F08994602E0C2451BD0529B8E
:101D58001AF8011F03F5A8726A440133402B529305
:101D680002F8481CF1D142A938A8FFF7F5FCDDE9D3
:101D7800403213F5007342F10002C245CDE940320A
:101D8800CDF84891E3D10FB305EB0709002702E02E
:101D98000135A9451AD0529B297803F5A8726A44DF
:101DA8000133402B02F8481C5293F1D142A938A8BC
:101DB800FFF7D2FCDDE94032013513F5007342F13B
:101DC8000002A945CDE940325297E4D1694638A8C6
:101DD800FFF71EFE00220023CDE9402330A3D3E9FC
:101DE8000023CDE9382330A3D3E90023CDE93A23F2
:101DF8002FA3D3E90023CDE93C232FA3D3E9002364
:101E0800CDE93E23002345461F460DF19F0801E01A
:101E1800A8451BD003F5A8726A44013315F8011FC1
:101E280002F8481C402B5293F2D142A938A8FFF778
:101E380093FCDDE9402112F5007241F10001A8454B
:101E4800CDE940214FF000035297E3D10DF1FF3562
:101E5800002702E0AE421AD0529B15F8011F03F585
:101E6800A8726A440133402B529302F8481CF1D1FE
:101E780042A938A8FFF770FCDDE9403213F500737A
:101E880042F10002AE42CDE940325297E4D12146F8
:101E980038A8FFF7BDFD54B0BDE8F087AFF3008068
:101EA80067E6096A85AE67BB72F36E3C3AF54FA5E3
:101EB8007F520E518C68059BABD9831F19CDE05B0F
:101EC800B8490008F0B5C5B08022002103A8FFF783
:101ED800E3FA1C4EB02432250027022323AA7821D6
:101EE800009530468DF88C708DF88D4002F030F8F2
:101EF8000223782123AA00953046ADF88C7002F0B1
:101F080027F84FF48057022323AA782100953046FA
:101F1800ADF88C70013402F01BF84023802203A92D
:101F28000DF18D008DF88C30E4B2FFF707FB8123AB
:101F38007821009523AA304602F00AF8B82CCAD1B5
:101F480045B0F0BD0C0E00202DE9F041642805468F
:101F580028BF6425C5EBC503744AC3EB03135C199A
:101F6800A2FB0424CAB000230646C4F347140DAAF2
:101F780018464FF0410C7F2708E06D2B0BD08C42A0
:101F88002CBF177082F800C001330132D9B2002B80
:101F9800F3D10120F8E710B17F238DF834303224D3
:101FA8004FF07F0C4FF43547022329AA7821604867
:101FB80000948DF8A1C0ADF8A47001F0C9FF4FF4EA
:101FC8008067022329AA782159480094ADF8A470A3
:101FD80001F0BEFF4FF48057022329AA7821544804
:101FE8000094ADF8A47001F0B3FF40236E220DA950
:101FF8000DF1A5008DF8A430FFF7A0FA4C48009425
:102008006F2329AA782101F0A3FF632E00F28380B1
:10201800092E6FD8303503AEEFB237700222012196
:102028000025252305AC73542046B55429461E22A5
:10203800FFF732FADFF800C1DFF800E129464FF078
:102048000508253FFFB2302F94BF1EF80720002255
:1020580002EB820262442B4618460133DBB212F8C7
:10206800017B27544345F7D10131C9B20635775C66
:102078000633EDB25FFA83F8002FE2D132264FF42F
:102088003343ADF8A4300096022329AA78212848C2
:1020980001F05EFF4FF480630096ADF8A43029AAE2
:1020A80002237821224801F053FF4FF48052009612
:1020B8000223ADF8A4201E4829AA782101F048FF80
:1020C800802D2A4628BF80224023561C8DF8A43034
:1020D800B6B225B121460DF1A500FFF72FFA32233C
:1020E800009329AA33467821114801F031FF4AB0FC
:1020F800BDE8F0810F4BA3FB0523DB0803F1300794
:1021080003EB8303A5EB4303303303AE0322022121
:102118003770737084E703AE43F2310230233280A4
:10212800B3703127042203217AE700BF1F85EB51E2
:102138000C0E0020CDCCCCCC304A0008FC4900085D
:10214800F0B5274D274E2868326800F580304830B2
:10215800B2F5006F89B04FEAC02406D22248FF21A9
:102168001044C2F50062FFF797F920461E494FF464
:102178000062FFF7FDFB044610B9204609B0F0BD28
:102188002B681A481FBA01F023FAB8B92A68184808
:10219800002701322A60376001F0E0FF154A164B2C
:1021A80011681A6864203B46A1FB0001FEF72CF871
:1021B800C0B2FFF7C9FE204609B0F0BD002340F2C7
:1021C800F3720421CDE9043302928DF81C30069194
:1021D80001AB6A4602A90548009701F0A7F9D5E7BF
:1021E800D0010020D4010020D8010020700E00206A
:1021F800600E0020FC090020040A00202DE9F04FA1
:1022080000F2FF7E5FEADE2E8FB069D04FF0000A41
:102218004FEACE238346009364245546CDF804E064
:1022280033E0039B013357D1FFF7A2FB002853D0BB
:102238002D4801F093FF019A334620465146FDF799
:10224800E3FFC7B23846FFF77FFE284801F0C0F920
:10225800A8B140F2F6720723089202228DF80830DE
:102268008DF809708DF834600C92002600271F48FD
:1022780004AB02AA08A9CDE90A6701F057F9009B47
:1022880064344AF1000A9D422AD005F10067A84645
:1022980007F50047002105F50065AB45CDE90517B1
:1022A8004FF0010134BFABEB08094FF40069079107
:1022B80001F0D0FA0E4B3421D96005A803A901F02A
:1022C80069FB064601F0DAFA08F100614A4601F5B1
:1022D80010313846002EA4D000200FB0BDE8F08F92
:1022E80001200FB0BDE8F08F600E0020700E0020B6
:1022F800002002402DE9F04FE7B005AC904603906E
:1023080080228B462046002125ADFFF7C5F8002125
:1023180080222846FFF7C0F898F8001000295ED000
:10232800DFF8A891DFF8A8A15B460BF10A0703269E
:102338005A462539C9B2302900F2C1801AF801106D
:1023480001EB81004FEA810B19F800C002938B441E
:10235800CB449E46002319464CFA03F010F0010FB7
:102368004FEA430003F1010303D006FA00F00843E3
:10237800C1B2042BF0D14FF0000361F3070361F3FE
:102388000F231CF0100118BF03211CF0200F18BFE9
:1023980041F00C011CF0400F18BF41F0300124F847
:1023A8000E3018BFC9B24FF0000361F3070361F3A1
:1023B8000F2325F80E300EF1020E1FFA8EFEBE45D1
:1023C80002D01BF801CFC5E7029B18F8011F0A339A
:1023D8009BB219B10A37772BBFB2AAD99346039B90
:1023E80039483226503B00278DF8153145AA00960A
:1023F800022378210BF00F098DF814714FEA1B188E
:1024080001F0A6FD45AA0096022378212E488DF8F2
:10241800147108F110088DF8159101F099FD022347
:1024280045AA0096782128488DF814718DF81581F1
:1024380001F08EFD2146802240240DF215108DF802
:102448001441FFF77BF845AA0096812378211E489E
:1024580001F07EFD039B00964F3B8DF8153145AA90
:102468000223782118488DF8147101F071FD45AAEE
:1024780000960223782114488DF815918DF814716F
:1024880001F066FD022345AA009678210E488DF8D2
:1024980014718DF8158101F05BFD29460DF21510B8
:1024A80080228DF81441FFF749F88123009645AA48
:1024B8007821054801F04CFD67B0BDE8F08F4FF07A
:1024C800000C6146E34641E70C0E0020304A000844
:1024D800FC4900082DE9F04303686F4C42686F49D6
:1024E8001BBA2360013B10BAB3F5E03F89B008601E
:1024F80075D26B4B9A4205D0042009B0BDE8F04371
:10250800FFF71EBBFFF7DEFC664A10210020FFF72D
:10251800F1FE0020FFF718FD2668634806F2FF76F3
:10252800F60A01F055F8002873D1002E38D006F5C8
:10253800803648365D4DDFF8A0815D4FF6024FF0DA
:10254800000908E0019B013318D105F5006501F089
:1025580005FEB54224D001230493CDE9029501F08C
:1025680079F93423C8F80C3001A902A801F012FA4D
:10257800044601F083F93846002CE3D04A4801F0BC
:1025880027F8002871D14B4B01221A70FFF79AFCEB
:10259800494A0421022009B0BDE8F043FFF7AABE6A
:1025A800464A4749474D484B484800241460414A29
:1025B8000C7047492C60147001254FF0FF321A60E7
:1025C80004600D7000F02AFE424B024636481A603D
:1025D80000F0FEFF002832D109B0BDE8F083324890
:1025E80000F0F6FF0028F7D0FF2040F2F571012235
:1025F800002400258DF800000291069201AB6A467E
:1026080002A929488DF81C40CDE9044500F08EFF49
:10261800E2E7022040F2F5720123002100240025A0
:102628008DF80000029206938DF81C1001AB6A46E3
:1026380002A91D48CDE9044500F078FF75E703229B
:1026480040F2F5738DF8002002930026002701ABB5
:102658006A4602A914480695CDE904678DF81C401E
:1026680000F064FF09B0BDE8F083FF2040F2F57286
:102678008DF800000292002600270125002401ABF6
:1026880002A96A4608480695CDE904678DF81C40FA
:1026980000F04CFF77E700BF040A0020000A002082
:1026A8000303CC01DC490008700E0020004002083A
:1026B800600E0020C4010020E8490008D001002075
:1026C800D8090020FC09002000000020D4010020C7
:1026D800CC010020C80100200020024030B591B094
:1026E8002022002107A8FEF7D7FE10210120002490
:1026F8000225CDE90A014FF4601306A80F93CDE92E
:102708000244CDE90444019406950D9501F0A0FD1D
:102718000F224FF4806301A82946CDE90125CDE9B0
:102728000343059402F07EF811B030BD2DE9F04F57
:10273800C24CC34DC3B000F05FFDFFF7CFFF636924
:1027480043F400336361636903F400330893089B1F
:10275800E36943F00073E361E36903F000730993ED
:1027680000264FF4C0524FF0030824A9099BCDF866
:102778009C8009234FF002094FF09040CDE92429AD
:102788002893269601F068F9AE4BAE834FF0040A01
:10279800C5E9003A4FF4402B4FF48013C5E904B360
:1027A80028464FF00123AB610127C5E9026600F016
:1027B8004FFD0E2333A928463C93CDE93866CDE971
:1027C8003366CDE93566CDE93A77379600F0C2FD34
:1027D800284600F037FE636943F400336361636998
:1027E800CDF8D88003F4003333A94FF4C062122522
:1027F8000A934FF09040CDE934570A9B3392CDF8B5
:10280800DCA001F029F99048904AC0E90267C0E9C4
:102818000466C0E90766E36943F40013E361E3690A
:1028280003F400130B930B9B894BC0E9002301F0C1
:1028380035FB322000F0F8FCAE20FFF783F8D520F6
:10284800FFF780F88020FFF77DF8A820FFF77AF8D7
:102858003F20FFF777F8D320FFF774F83046FFF7EB
:1028680071F84020FFF76EF88D20FFF76BF8142001
:10287800FFF768F82020FFF765F84846FFF762F889
:10288800A120FFF75FF8C820FFF75CF8DA20FFF710
:1028980059F82846FFF756F88120FFF753F8CF205C
:1028A800FFF750F8D920FFF74DF8F120FFF74AF865
:1028B800DB20FFF747F84020FFF744F8A420FFF794
:1028C80041F8A620FFF73EF8AF20FFF73BF8614834
:1028D800614B624D036040F2E733C0F804808360C7
:1028E80001F00EFC0FCD24AC0FC40FCD0FC40FCDDB
:1028F8000FC495E8070084E80700DFF87881249B77
:10290800434500F00F83564C236803F16043B3F549
:10291800404F40F2C682002400F080FC514EDFF8A0
:102928003481474D07464FF0000900F077FCC31B80
:10293800B3F5167F40D2404601F010FC002128462E
:1029480000F0DEFE80B11CAB33AA0021284600F05F
:1029580053FE48B9339B40F2F172934200F0A280D3
:10296800B3F5FF6F00F0948200F058FC3368C31A87
:10297800B3F57A7FD9D300F051FC3060284600F0D7
:1029880027FE0028D1D04FF60173ADF83C3040F255
:10299800F6732493022328930FAA15AB24A928467B
:1029A800CDE926998DF8A49000F0C0FD00F036FC22
:1029B800C31BB3F5167FBED3002C40F094820120D0
:1029C800FFF752F9284DDFF8B0B0DFF8B090DFF824
:1029D80084A0DFF86C80504601F0C0FB002140461F
:1029E80000F08EFE002865D100F018FC3368C01A8C
:1029F800B0F57A7F80F052819BF80030002BEAD046
:102A080099F80040002CE6D100F008FC174B1B6831
:102A180042F21072C31A9342DDD98BF8004089F84C
:102A28000040FFF74FFA0220114A0421FFF762FC29
:102A3800404600F0CDFD0028CDD021E00010024036
:102A4800700E0020006400400C0E0020005400406E
:102A58002A231000600E0020003000400078000893
:102A680000800008C0010020080E0020C8010020D6
:102A7800E849000841504155CC010020C40100201C
:102A880001238DF87030379340F2F57333931CAA05
:102A980024AB33A94046CDE935448DF8E04000F039
:102AA80045FD98E7379B082B7FF45EAF1CA8FFF71E
:102AB80011FD84E70DAB15AA0021404600F09CFDEE
:102AC800002891D1159B40F2F172934200F01981D0
:102AD80040F2F772934200F01C8140F2F272934286
:102AE80000F0398140F2F472934240F0C481199B9E
:102AF800082B7FF479AF9BF80030002B3FF474AFBC
:102B080099F80040002C7FF46FAF00F087FB9E4BD4
:102B180018609E4B1B68002B40F046829C4B1A683D
:102B28009C4B1B689A4240F02E829B4B1B78042BCF
:102B380040F029820D9B99481BBA0393984B1F6854
:102B4800BDF838300193BDF83A300293FF4300F0E6
:102B58003FFD002840F0C582FFF7B4F9914A1021E3
:102B68000020FFF7C7FB039BBB4240F06482894B00
:102B78008D48196803911CAAFFF79EF8DFF834C244
:102B8800039900231CA810F8012B1CF801EB013352
:102B980082EA0E02202B44EA0204F4D1002C40F011
:102BA8006682019B5ABA029B5BBA9BB228937F4B01
:102BB80024937F4B1B68269392B202230DF1700C6D
:102BC800CDE9291727922593BCE80F002BAF0FC733
:102BD8009CE80F0087E80F0024A8FEF783FF002871
:102BE80000F02D826D4800F0F3FC88B107238DF8C2
:102BF800303040F2F57333930123379367488DF8EB
:102C0800E0400FAB0CAA33A9CDE9354400F08EFCA7
:102C1800FFF758F9634A04210020FFF76BFB0020F7
:102C2800FFF792F95B4B1868FFF7E8FA04460028AB
:102C380000F005826420FFF787F90DF1900CBCE8DD
:102C48000F0033AC0FC4BCE80F000FC4BCE80F0082
:102C58000FC49CE80700012784E8070033A83497CD
:102C6800FEF740FF0446002840F020824B4800F061
:102C7800AFFC002800F08A81FF238DF81C3040F259
:102C8800F5730F9307AA0CAB0FA944481397CDE926
:102C980011448DF8504000F049FC77E100F0BEFA8D
:102CA8009BF8003030604BB399F8003033BB394A99
:102CB80012681AB3364909686420A1FB0001FDF7C0
:102CC800A3FA0327C4B2404600F082FC00283FF470
:102CD80093AE0023CDE935338DF8E03040F2F6733A
:102CE8003393022337931CAA24AB33A940468DF8AB
:102CF80070708DF8714000F019FC7DE60127FF2403
:102D0800E1E7199B082B7FF46FAE0DA8FFF7E2FBF4
:102D18006AE6199B082B7FF467AE9BF80030002BFE
:102D28003FF462AE99F80030002B7FF45DAE1A498B
:102D38000B78032B3FF658AE1E4A02EBC302013351
:102D48000B700DAB93E8030082E8030000F066FA0D
:102D58000D4B186048E69BF80030199C002B3FF497
:102D680043AE99F80030002B7FF43EAE00F056FADF
:102D7800054B1860002C3FF437AE0DAB23440DA96A
:102D8800CDE901130C4F2EE0C8010020D40100202A
:102D9800FC090020040A0020D8090020700E002039
:102DA80000000020DC49000800400208415041555D
:102DB800000A0020DC0900202083B8EDAE4C013267
:102DC8008EEA0001C9B22260AC4A52F82120AC490F
:102DD80082EA1022B3F5006F0A603CD0DDE90123D6
:102DE8009A423FF401AEA44B1A68A64B1B689A425C
:102DF800BFF4FAAD019CA44814F801EB03680194F0
:102E0800A24CA34904F803E00133036009789C4805
:102E180000680029D2D1DFF890C2019C0593CDE962
:102E2800032E8E467146082341F30002013B3A40C7
:102E380013F0FF0382EA5101F6D14CF8041F6545EF
:102E48000EF1010EEED10194914C059B0121DDE9B3
:102E5800032E2170B2E7FFF773F90028BED10446AC
:102E68008C4800F0B5FB002800F09380CDE935448C
:102E78008DF8E040A7E0B3F5FF6F7FF4B5AD4046AD
:102E880000F0A6FB00283FF4AFADFEF783FEABE5EC
:102E9800804800F09DFB00283FF466ADFEF77AFEFF
:102EA80062E531462C2237A8FEF7F6FA4FF4E035F2
:102EB800794BCDF8CC8021462A464FF0FF30CDE93A
:102EC800347336973895FEF7F9FC2946C3433AAA76
:102ED80020463993FEF7F0FE33A8FEF703FE841B65
:102EE80018BF012418E56D4C2568676805F1604333
:102EF800B3F5404F3FF663AD142000F061FC654820
:102F080000F0FEFA01F030F900F040F94FF0E0234C
:102F1800634900221A615A619A618C6085F30888B6
:102F2800B8474CE5259B022B5CD05B4B269A9A420E
:102F38007FF4F1AC299C631EB3F5E03FBFF4EBAC22
:102F4800224656494FF0FF30FEF7B8FC2A9AC34391
:102F580093427FF4E0AC2146504833AA0024FEF7A0
:102F6800ABFE234633A80DF1AB0110F8012B11F885
:102F7800015F01336A40202B44EA0204F5D1B4FA18
:102F880084F46409C8E40120FEF7DAFD00238BF815
:102F98000030012389F80030FEF794FF414A0421EC
:102FA8000220FFF7A7F91FE5FFF7CAF80746002830
:102FB8007FF4B4AD374800F00BFB0028E9D0CDE929
:102FC80035778DF8E070FF238DF8703040F2F57397
:102FD8003393012337931CAA24AB33A92D4800F05F
:102FE800A5FAD6E70720FEF73FFE2998FFF706F96E
:102FF80000283FF490AC24AD0FCD33AC0FC40FCDF7
:103008000FC40FCD0FC495E8070084E8070033A864
:103018003497FEF767FD00283FF47DAC33AD0FCD44
:1030280024AC0FC40FCD0FC40FCD0FC495E8070013
:1030380084E8070079E70220FEF782FDA6E7154835
:1030480000F0C6FA0028A1D0FF238DF8303040F2F6
:10305800F5733393012337930CAA0FAB33A90D48AB
:103068008DF8E040CDE9354400F060FA8EE70320A2
:10307800FEF766FD8AE700BFFC0900200C0A002065
:1030880000000020040A0020D4010020D8010020FC
:10309800080A0020700E002001CC030300800008FD
:1030A80000ED00E0E8490008080A0020FEF70AFFE2
:1030B800164A10210220FFF71DF90420FEF7D4FD5F
:1030C8004FF4167000F0B0F8BFF34F8F1049114B52
:1030D800CA6802F4E0621343CB60BFF34F8F00BFAE
:1030E800FDE70023CDE935338DF8E03006238DF870
:1030F800703040F2F5733393012337931CAA24AB45
:1031080033A9054800F012FA26E500BFF049000887
:1031180000ED00E00400FA05700E0020DFF834D05E
:1031280000F026F80C480D490D4A002302E0D45857
:10313800C4500433C4188C42F9D30A4A0A4C0023F9
:1031480001E013600432A242FBD3FEF791FAFFF7C5
:10315800EDFAFEE700A0002000000020100000208B
:10316800584D000810000020C00E0020FEE70000A7
:10317800034AD2F8883043F47003C2F888307047A5
:1031880000ED00E0704700BF704700BF10B5074B67
:103198004FF0FF3200241A611C61DA60DC609A6229
:1031A8009C62FFF7F1FF204610BD00BF00100240EF
:1031B80038B50E4A0E4B1278054618684FF47A73E4
:1031C800B3FBF2F3B0FBF3F000F00CFB08B90F2DE2
:1031D80001D9012038BD0446024629464FF0FF3088
:1031E80000F0B2FA034B20461D6038BD08000020ED
:1031F800040000200C000020074A08B5136843F0BB
:1032080010031360032000F08DFA0F20FFF7D0FFA2
:10321800FFF7B8FF002008BD00200240014B1868E6
:10322800704700BF980E002038B50446FFF7F6FF38
:10323800631C054602D0044B1B781C44FFF7EEFFC5
:10324800401BA042FAD338BD08000020704700BFD9
:1032580000287BD038B590F820300446002B72D077
:103268002268136843F001031360FFF7D7FF054690
:1032780004E0FFF7D3FF401B0A285BD823685A688D
:10328800D107F6D51A6822F002021A60FFF7C6FFC6
:10329800054604E0FFF7C2FF401B0A284AD8236806
:1032A8005A689207F6D4227E012A1A680CBF42F0A7
:1032B800800222F080021A60627E012A1A680CBF1E
:1032C80042F0400222F040021A60A27E012A1A68E7
:1032D8000CBF42F0200222F020021A60E27E012A8E
:1032E8001A680CBF22F0100242F010021A60227F06
:1032F800012A1A680CBF42F0080222F008021A607C
:10330800627F012A1A680CBF42F0040222F004020C
:103318001A60D4E90220216902430A43606961689E
:10332800024301390A4300200121DA61606284F80E
:10333800201038BD636A052243F40033636284F8C1
:103348002020012038BDFFF781FF89E70120704761
:10335800704700BF70B490F820200468013A012A31
:1033680007D9426A034642F48022012070BC5A629F
:103378007047D4F800324A69CD6943F00103C4F8B4
:10338800003202F01F0001238340D4F81C0220EA17
:103398000300C4F81C02D843002D3DD1D4F80C52C8
:1033A800CE680540C4F80C528D8804EBC20245EA89
:1033B8000645C2F840528E680D8845EA0645C2F8AF
:1033C80044528A6912BBD4F804220240C4F8042289
:1033D8000A69AAB9D4F814221040C4F814020A6A77
:1033E800012A04D1D4F81C221343C4F81C32D4F89F
:1033F800003223F001030020C4F8003270BC70478B
:10340800D4F814221A43C4F81422E8E7D4F80422A2
:103418001A43C4F80422DBE7012DD2D1D4F80C52A8
:103428000E681D43C4F80C528D8804EBC20245EAAD
:103438000645C2F840528E688D8945EA0645C2F8AD
:103448004452BEE738B590F82030012B044605D029
:10345800436A43F400234362012038BD0268022313
:1034680080F82030136823F001031360FFF7D6FEBD
:10347800054604E0FFF7D2FE431B0A2B07D8236852
:103488005B6813F00103F5D16362184638BD636ABF
:10349800052243F40033636284F82020DCE700BF90
:1034A80038B590F82030022B044605D0436A43F41F
:1034B80080134362012038BD0268136843F001039A
:1034C8001360FFF7ABFE054604E0FFF7A7FE431BBA
:1034D8000A2B0CD823685A68D207F6D51A68012136
:1034E80022F002021A6084F82010002038BD636AB6
:1034F800052243F40033636284F82020DAE700BF32
:1035080088B110B50446FFF7CBFF2046FFF720FF30
:1035180021680A68002342F400420A60636284F862
:103528002030184610BD0120704700BF30B490F815
:1035380020C005680CF1FF3CBCF1010FAC6839D81C
:1035480014F0E05F06D1436A43F40013436201209C
:1035580030BC7047C4F301640120A04018608B6838
:103568006BB3C8680343486843EAC00304F1180012
:1035780000012B5005EB041C0B69CCF884310B7D42
:10358800012B4FEA041105D1DCF8843143F4807330
:10359800CCF884316B185168C3F88C111268C3F8E1
:1035A8008821DCF8803143F00103002030BCCCF8DE
:1035B80080317047436A43F480234362C7E7CB688E
:1035C800086843EA405004F118031B01E850D1E7AA
:1035D80090F82030013B012B01D900207047036887
:1035E80098689A689B681201C0F3806048BF0130F0
:1035F800DB00F3D50130704790F820C00CF1FF3C98
:10360800BCF1010F6BD870B5046841B9E568AD0726
:1036180008D1436A43F400134362012070BD256951
:10362800AE07F6D004EB011C4FEA011EDCF8B051DE
:1036380005F004059560002D57D0DCF8B051ED0871
:103648005560DCF8B05105F00205D560DCF8B451DE
:103658002D0758BFDCF8B451DCF8B46154BF05F04D
:103668000F05082515617444DCF8B451C6F3072624
:1036780096612D0CD4F8B86155611E7002687244C9
:10368800D2F8B821120A5A7002687244D2F8B821E6
:10369800120C9A7002687244D2F8B821120EDA70CD
:1036A80002687244D2F8BC211A7102687244D2F8D6
:1036B800BC21120A5A7102687244D2F8BC21120C59
:1036C8009A7102687244D2F8BC21120EDA7102684B
:1036D80081B9D36843F02003D360002070BD436AEA
:1036E80043F48023436201207047DCF8B0516D0D2C
:1036F8001560A6E7136943F020031361EDE700BFE7
:1037080090F82030013B012B01D900207047036855
:1037180019B9D86800F003007047186900F0030071
:10372800704700BF0749CA6803024FF6FF0003F459
:10373800E0630240134343F0BF6343F40033CB60BC
:10374800704700BF00ED00E01B4BDB68C3F30223AA
:1037580000B5C3F1070EBEF1040F03F1040C28BF36
:103768004FF0040EBCF1060F1CD9A3F1030C4FF067
:10377800FF3303FA0CF322EA03024FF0FF3303FA94
:103788000EF321EA030303FA0CF313431B01002889
:10379800DBB20ADB00F1604000F5614080F80033DD
:1037A8005DF804FB00229446E7E7044A00F00F00A6
:1037B800024413765DF804FB00ED00E0FCEC00E049
:1037C80000280CDB4309064900F01F0020330122C2
:1037D800824041F82320BFF34F8FBFF36F8F7047AC
:1037E80000E100E00138B0F1807F01D3012070478B
:1037F80010B44FF0E023074C58614FF0F00C84F8F8
:1038080023C00022072110469A615DF8044B196114
:10381800704700BF00ED00E00C4BDB6813F01003AD
:1038280005D00B49CA6942F002021023CA61074A4F
:10383800D268520706D50649CA6942F0010243F028
:103848000403CA61014AD360704700BF00200240E8
:10385800A00E0020064B186910F0800006D005491C
:10386800054A59605A601869C0F3C010704700BF14
:103878000020024023016745AB89EFCD034A136955
:1038880043F0800300201361704700BF002002400E
:1038980070B50446FFF7C2FC124E0546F368D80718
:1038A80005D5631C12D10F4AD368DC07FCD40D4B35
:1038B800DA68910644BF2022DA600A4BDA68D20639
:1038C8000CD4D86810F0040008D170BD24B1FFF7FB
:1038D800A5FC401BA042E1D9032070BDFFF79CFF67
:1038E800012070BD002002402DE9F84F274E1C46EC
:1038F800337E012B47D0054601234CF250308A46CF
:1039080017463376FFF7C4FFC8BB012D03D0022D3D
:1039180014BF042502254FF00009DFF874B00AEB44
:103928004505C84601E0AA4529D0C9F12003C6F8D3
:103938001C80A9F1200227FA09FC04FA03F34CEAD7
:10394800030C24FA02F2DBF810304CEA020C43F0C4
:1039580001031FFA8CFCCBF810304CF25030AAF857
:1039680000C0FFF795FFDBF8103023F001030AF1E0
:10397800020A09F11009CBF810300028D3D000232F
:103988003376BDE8F88F0220BDE8F88FA00E00203E
:10399800002002402DE9F8432D4E337E012B54D0F0
:1039A800012333760368012B814631D04CF2503025
:1039B8008846FFF76DFF074678BB4FF0FF33C8F81E
:1039C8000030D9E9015305EBC3239D4225D2214C90
:1039D80007E0D9E9013205F5006503EBC223AB42E4
:1039E8001CD9F761236943F00203236165612369E8
:1039F80043F0400323614CF25030FFF749FF23693D
:103A080023F0020323610028E3D0C8F8005005E042
:103A18004CF25030FFF73CFF20B1012000233376F1
:103A2800BDE8F8830B4CF061236943F0040323617C
:103A3800236943F0400323614CF25030FFF728FF1D
:103A4800236923F004032361E8E70220BDE8F88333
:103A5800A00E0020002002402DE9F04F0C6885B030
:103A6800002C00F0828000234FF0010B0BFA03FEBC
:103A78001EEA040A75D04D6805F0030C5A000326A7
:103A88000CF1FF3806FA02F7B8F1010F6FEA0707E1
:103A98006ED9BCF1030F40F0BF800CFA02F2D0F8E7
:103AA80000C00CEA07073A4315F4403F026058D0BB
:103AB8005F4FBA6942F00102BA61BA6902F00102C5
:103AC8000392039A23F0030202F1804202F5803246
:103AD80003F0030C97684FEA8C0C0F2606FA0CFECD
:103AE800B0F1904F27EA0E0717D0524EB04200F0BF
:103AF8008580514EB04200F08880DFF844E170457F
:103B080075D0DFF840E170450CBF4FF0040E4FF060
:103B1800050E0EFA0CFC47EA0C079760474A9268B4
:103B2800EE026FEA0A07454E54BF3A404AEA0202DB
:103B3800B260F268AE02414E54BF3A404AEA02020D
:103B4800F2607268AE033D4E54BF3A404AEA020240
:103B580072603268ED03394D54BF3A404AEA0202B6
:103B68002A60013334FA03F280D105B0BDE8F08F42
:103B7800D0F80890CE6809EA070906FA02F848EA78
:103B88000908C0F80880D0F804808E6828EA0E0872
:103B9800C5F3001E0EFA03FE4EEA080EC0F804E054
:103BA800D0F80C8006FA02FE08EA07084EEA080E6A
:103BB800BCF1020FC0F80CE07FF46FAF0E694FEA5A
:103BC800D30803F0070E00EB88084FEA8E0E06FABA
:103BD8000EF6D8F8209001960F2606FA0EFE019EE2
:103BE80029EA0E0946EA090EC8F820E055E74FF021
:103BF800030E0EFA0CFC47EA0C078EE74FF0010E95
:103C08000EFA0CFC47EA0C0787E74FF0020E0EFA93
:103C18000CFC47EA0C0780E7D0F80C808E6808EAAD
:103C2800070806FA02FE4EEA080EC0F80CE034E770
:103C38000010024000040048000800480004014049
:103C4800000C004800100048F8B503689C6914F09F
:103C5800100C054641D0164610220F46DA619C69C1
:103C680014F0200479D1781C4DD19A699106FCD5BD
:103C78002022DA619A6944F0040CD4054FF001005F
:103C88002FD457053AD54FF48061D9614CF0080C10
:103C9800960504D54FF400724CF0020CDA619A696B
:103CA800910744BF00229A629A69D20703D49A699D
:103CB80042F001029A615A6829490A405A606B6CBD
:103CC800002243EA0C0320216B6485F8402085F824
:103CD800411085F842200120F8BD9A69D405604654
:103CE800CFD54FF48071D96151054CF0010CCFD577
:103CF8004FF48061D9614CF0080CC9E79405C9D428
:103D08000028CCD1F8BDFFF789FA801BB8422B6890
:103D180004D81FB19A699206A5D5A9E7586895F8FD
:103D2800422099690C04D2B20BD5410409D4202A47
:103D380007D05A6842F480425A60FFF76FFA2B683E
:103D480006469A6992068AD4FFF768FA831B192BEC
:103D58002B68F6D99A6920248CE7002488E700BFED
:103D680000E800FE70B5036804460D46164605E0F7
:103D7800FFF76AFF00BB6A1C08D123689B699B0791
:103D8800324629462046F3D5002070BDFFF746FA93
:103D9800801BA842236801D8002DEFD19A6912F040
:103DA8000202EBD1636C84F8402020210B4363644A
:103DB80084F8411084F84220012070BD2DE9F843B1
:103DC800DDF820901E46054603688846174605E03C
:103DD800FFF73AFF68BB731C0ED12B689C6938EA61
:103DE80004040CBF01230023BB424A46314628463F
:103DF800EED00020BDE8F883FFF710FAA0EB090029
:103E0800B0422B6801D8002EE8D19A6938EA02023C
:103E18000CBF01220022BA42E0D16B6C002243F0B1
:103E2800200320216B6485F8402085F8411085F82F
:103E380042200120DEE700BF03689B699B0629D466
:103E480070B505460C4616460DE0FFF7E7F9801BEE
:103E5800A042296800D81CB98B6913F020030DD043
:103E68008B699B0608D4324621462846FFF7ECFEAC
:103E78000028EAD0012070BD002070BD6A6C85F86A
:103E8800403020210A436A64012085F8411085F8F2
:103E98004230F0E700207047704700BF002854D038
:103EA80010B590F84130044603F0FF02002B47D0CC
:103EB8002368242284F841201968626821F00101EE
:103EC80022F0706219601A619A68E16822F400426F
:103ED80001299A60A26809D042F4044202299A6032
:103EE80007D15A6842F400625A6006E042F4004280
:103EF8009A605A6822F400625A605968226941F04F
:103F0800007141F4004159606169D8680A43A169A8
:103F180020F4004042EA0122E169D860206ADA60B0
:103F280001431960196841F001011960002220233A
:103F3800626484F84130226384F84220104610BD40
:103F480080F84020FFF7A8FFB2E70120704700BFC4
:103F58002DE9F047994690F8413082B0202B0A9E0F
:103F680040F0908090F84030012B044600F08A80A1
:103F78004FF0010A80F840A00F469046FFF74EF92F
:103F880052460546009019234FF400412046FFF79A
:103F980015FF002872D1212384F84130102384F8BA
:103FA80042306064A4F82A90638D2268C4F82480A3
:103FB8009BB2FF2B6063C7F3090767D8638D9BB279
:103FC8002385002B40F08D8053684A490B403B43C2
:103FD80043F0007343F400535360638D9BB22A4649
:103FE80031462046002B38D0FFF7BCFE002845D1CB
:103FF800616A236811F8012B9A62638D228D6162D0
:10400800013B9BB26385638D013A92B29BB22285D4
:10401800002BE2D0002AE0D18021009533462046CB
:10402800FFF7CCFEFF2148BB638DDFF8D0C02268C4
:104038009BB28B42604647D95368218503EA0C033B
:104048003B4343F0FF7343F480335360638D9BB26B
:104058002A4631462046002BC6D1FFF7EDFE68B947
:104068002368254D2021D9615A682A405A6084F86E
:10407800411084F8400084F8420000E0012002B0BA
:10408800BDE8F087022002B0BDE8F087FF23238552
:10409800FE214FF47F034FF0807018F801CBC2F86F
:1040A80028C02185618DDFF84CC0C4F8248001390F
:1040B80089B2618551683B4301EA0C010B43034314
:1040C80043F40053536088E7638D51689BB223859E
:1040D800DBB247EA034301400B4343F000735360EC
:1040E8007BE7013B99B24B1CDBB21B044FF000701D
:1040F800D3E700BF009800FC00E800FE009C00FC2D
:1041080028B338B5D0E90031826804464CF6CC4073
:10411800186045F25550186059609A60FFF77EF8AC
:1041280023680546DA6851070AD0FFF777F8401B7D
:1041380027282368F6D9DA685207F3D0032038BD58
:104148001969E268914204D01A61002038BD012043
:1041580070474AF6AA221A60F7E700BF03684AF6D2
:10416800AA2200201A60704770B5334C236843F0C8
:1041780001032360FFF752F8054604E0FFF74EF805
:10418800401B022828D823689B07F7D523682B4AA9
:10419800294D23F0F80343F08003236063681A4035
:1041A8006260FFF73BF841F28836044604E0FFF707
:1041B80035F8001BB0420FD86B6813F00C0FF6D11E
:1041C8001F49204B204A08681A60FEF7F1FF044691
:1041D80028B10124204670BD0324204670BD2B68F9
:1041E80023F0847323F480332B602B6823F480231B
:1041F8002B60FFF713F8104D064604E0FFF70EF8A2
:10420800831B022BE8D82B6813F00073F6D16B6080
:10421800EB622B63A96841F41F01A9604FF080721B
:10422800AB6092FAA2F2094BB2FA82F213449B00F5
:1042380001221A60D1E700BF001002400CC0FFF84D
:104248000C0000200400002000127A002081901049
:10425800002800F0BB822DE9F0430368D90783B03A
:1042680004464BD5AC494A6802F00C02042A00F017
:104278005D814A6802F00C02082A00F05381D4E9F3
:104288000132B3F5803F15D0002B00F08981B3F5DA
:10429800A02F00F03682A04B196821F480311960F4
:1042A800196821F480211960D96A21F00F010A43A5
:1042B800DA6209E098490B6843F480330B60CB6AF3
:1042C80023F00F031343CB62FEF7A8FF924F054676
:1042D8004FF40038012605E0FEF7A0FF401B6428D4
:1042E80000F25A8198FAA8F33A6898FAA8F3B3FA50
:1042F80083F306FA03F31342EED023689F073FD5F2
:10430800854A516811F00C0F00F0CB80516801F01C
:104318000C01082900F0C1802269002A00F094816C
:10432800012595FAA5F3B3FA83F303F1845303F552
:1043380084139B00784F1D60FEF770FF4FF0020852
:10434800064605E0FEF76AFF801B022800F224817A
:1043580098FAA8F33A6898FAA8F3B3FA83F305FA37
:1043680003F31342EED03968F82292FAA2F2636995
:10437800B2FA82F2934021F0F80213433B602368BB
:104388001D0729D4580753D5634BDA69D10000F1CA
:10439800C180DA6942F08052DA61DB6903F0805348
:1043A8000193019B01255D4E3368DA0540F1E480F5
:1043B800E368012B00F06C81002B00F01781052BBE
:1043C800554B1A6A00F0A98122F001021A621A6A92
:1043D80022F004021A6260E1A269002A74D0012660
:1043E80096FAA6F24E4BDFF83081B2FA82F2134405
:1043F8009B0002251E60FEF711FF074605E0FEF749
:104408000DFFC01B022800F2C78095FAA5F395FAA4
:10441800A5F395FAA5F3D8F8242095FAA5F3B3FAED
:1044280083F306FA03F31342E9D023685807ABD4A1
:10443800E36973B3384D6A6802F00C02082A00F089
:104448004F81022B4FF0807300F06F8193FAA3F332
:10445800B3FA83F303F1845303F584139B0000221A
:104468001A60FEF7DBFE4FF000770446012605E0F0
:10447800FEF7D4FE001B022800F28E8097FAA7F3FD
:104488002A6897FAA7F3B3FA83F306FA03F31342F9
:10449800EED1002003B0BDE8F0835268D6033FF5A3
:1044A8003BAF022292FAA2F11B49086892FAA2F2E3
:1044B8000121B2FA82F201FA02F202424BD02269D9
:1044C8008A4248D00120E5E7012797FAA7F1144B63
:1044D800DFF84480B1FA81F10B449B0002251A6091
:1044E800FEF79CFE064604E0FEF798FE801B0228B5
:1044F80052D895FAA5F395FAA5F395FAA5F3D8F845
:10450800242095FAA5F3B3FA83F307FA03F31342C9
:10451800EAD18AE7002546E7001002400070004013
:10452800208190104A68D2037FF5A9AE4FF400327B
:1045380092FAA2F1A649086892FAA2F20121B2FA07
:1045480082F201FA02F202423FF4D8AE6268002A0F
:104558007FF4D4AEB6E79E4DF821286891FAA1F110
:104568006269B1FA81F120F0F8008A4002432A60BA
:104578001D077FF507AF2FE7336843F48073336077
:10458800FEF74CFE07463368DB053FF511AFFEF733
:1045980045FEC01B6428F6D9032003B0BDE8F083AC
:1045A8008B4D2B6823F480332B602B6823F48023F6
:1045B8002B60EB6A23F00F031343EB62FEF72EFE2A
:1045C8004FF400380646012704E0FEF727FE801B5B
:1045D8006428E1D898FAA8F32A6898FAA8F3B3FAF5
:1045E80083F307FA03F31342EFD186E6784E336A72
:1045F80023F001033362336A23F004033362FEF7C6
:104608000DFE4FF0020907464FF0010806E0FEF7DD
:1046180005FE41F28833C01B9842BDD899FAA9F328
:1046280099FAA9F3326A99FAA9F3B3FA83F308FA63
:1046380003F31342EBD1002D3FF4FAAE644AD36979
:1046480023F08053D361F3E6012696FAA6F3B3FA72
:1046580083F303F1845303F584139B005C4F1A60C2
:10466800FEF7DCFD4FF00208054604E0FEF7D6FD34
:10467800401B022890D898FAA8F33A6898FAA8F349
:10468800B3FA83F306FA03F31342EFD1236877E60C
:104698004F4A136A43F001031362FEF7BFFDDFF8C8
:1046A800308106464FF00209012707E0FEF7B6FD04
:1046B80041F28833801B98423FF66EAF99FAA9F30E
:1046C80099FAA9F3D8F8202099FAA9F3B3FA83F351
:1046D80007FA03F31342E9D0002D3FF4A9AEADE782
:1046E800012B3FF4EFAE6B68226A03F480319142EC
:1046F8007FF4E8AE606A03F47013181A18BF01203B
:10470800C8E603F18043A3F53C33196841F48021DE
:104718001960196841F48031C5E542F004021A6253
:104728001A6A42F001021A62B7E793FAA3F3B3FADE
:1047380083F303F1845303F584139B0000221A606A
:10474800FEF76CFD4FF000780646012705E0FEF7FE
:1047580065FD801B02283FF61FAF98FAA8F32A6868
:1047680098FAA8F3B3FA83F307FA03F31342EED1E6
:10477800D4E908136A680B4322F4741213436B607C
:104788004FF0807393FAA3F3B3FA83F303F18453DE
:1047980003F584139B000E4E1F60FEF73FFD4FF09C
:1047A80000770446012505E0FEF738FD001B0228C6
:1047B8003FF6F2AE97FAA7F3326897FAA7F3B3FA7F
:1047C80083F305FA03F31342EED062E60120704743
:1047D800001002400E4A536803F00C01082901D06A
:1047E8000C487047C3F383410B48D26A405CDB0333
:1047F80009D50A49074B02F00F028A5CB3FBF2F3B2
:1048080003FB00F07047064B03FB00F0704700BF46
:104818000010024000127A00E44B0008D44B000854
:1048280000093D00002800F08D80504A136803F00D
:1048380007038B422DE9F0410D4604460CD213685C
:1048480023F007030B431360136803F007038B423D
:1048580002D00120BDE8F0812368980706D54449B5
:10486800A0684A6822F0F00202434A60D9072CD5B2
:104878006268012A68D0022A0CBF4FF00073022335
:1048880093FAA3F13A49086893FAA3F30121B3FA1A
:1048980083F301FA03F30342DBD0354E736823F048
:1048A800030313437360FEF7B9FC41F288380746E7
:1048B80004E0FEF7B3FCC01B404554D87368626837
:1048C80003F00C03B3EB820FF3D1284A136803F00B
:1048D8000703AB4209D9136823F007032B4313607E
:1048E800136803F00703AB42B3D123685A0706D510
:1048F8001F49E0684A6822F4E06202434A601B07E5
:1049080007D51B4A2169536823F4605343EAC1035E
:104918005360FFF75FFF164BF0225B6892FAA2F232
:10492800B2FA82F203F0F003124C1349D340134A4F
:10493800E35C20FA03F308681360FEF739FC0020F3
:10494800BDE8F081012070474FF4003393FAA3F1DA
:104958000749096893FAA3F3B3FA83F302FA03F356
:104968000B429AD175E7032074E700BF002002408C
:1049780000100240C44B00080C0000200400002076
:10498800024B13B10248FCF79BBE704700000000C1
:10499800D5160008F8B500BFF8BC08BC9E4670479D
:0C49A800F8B500BFF8BC08BC9E46704784
:1049B40001000000555254432D48594452412D558D
:1049C4004D432D323032362D4348414E47452D4D0F
:1049D400452D2121000000005550444154494E47C3
:1049E400000000004552524F52000000464C415313
:1049F40048204F4B000000000100000000000000B0
:104A0400000200030405060708090A0B0C00000055
:104A1400000000000D00000E0F10111213001415F9
:104A24000016171800191A1B1C00000000000000D3
:104A3400002313086462006060000000427F4000AD
:104A440000447E400000625149460022494936181C
:104A540014127F100027454539003E494932006150
:104A64001109070036494936002649493E7E11118D
:104A7400117E7F4141221C7F494949417F0909092F
:104A8400013E4141493A7F0808087F00417F4100C7
:104A94007F081422417F404040407F0408107F3E3D
:104AA4004141413E7F09090F007F0919294600262B
:104AB40049493201017F01013F4040403F0000006D
:104AC400982F8A4291443771CFFBC0B5A5DBB5E975
:104AD4005BC25639F111F159A4823F92D55E1CABE9
:104AE40098AA07D8015B8312BE853124C37D0C5577
:104AF400745DBE72FEB1DE80A706DC9B74F19BC1BF
:104B0400C1699BE48647BEEFC69DC10FCCA10C24AE
:104B14006F2CE92DAA84744ADCA9B05CDA88F97692
:104B240052513E986DC631A8C82703B0C77F59BFFC
:104B3400F30BE0C64791A7D55163CA066729291428
:104B4400850AB72738211B2EFC6D2C4D130D3853C5
:104B540054730A65BB0A6A762EC9C281852C729287
:104B6400A1E8BFA24B661AA8708B4BC2A3516CC7B5
:104B740019E892D1240699D685350EF470A06A10EE
:104B840016C1A419086C371E4C774827B5BCB0343D
:104B9400B30C1C394AAAD84E4FCA9C5BF36F2E68DB
:104BA400EE828F746F63A5781478C8840802C78C6A
:104BB400FAFFBE90EB6C50A4F7A3F9BEF27871C66D
:104BC40000000000000000000102030406070809B9
:104BD4000102030405060708090A0B0C0D0E0F1049
:104BE40002030405060708090A0B0C0D0E0F10102A
:104BF40008B10181B0B000840000000008B1018157
:084C0400B0B0008400000000C4
:104C0C0034B6FF7F010000008CB9FF7FB0A9028091
:104C1C001CBAFF7FB0B0A8806CBAFF7F0100000007
:104C2C0078BAFF7FB0B0AA80A8BAFF7FAE75B28009
:104C3C0078BBFF7F0100000074BBFF7FAB3F3A8065
:104C4C00D4BBFF7F01000000DCBBFF7FB0B0AA80AB
:104C5C0014BCFF7F01000000C8BCFF7FAA0FB2800C
:104C6C0044BDFF7FB0AF0880E0BFFF7F01000000B4
:104C7C00E4BFFF7FAC3F0380CCC2FF7F010000008C
:104C8C00A8C4FF7F00840480BCC4FF7F0100000027
:104C9C00B8C4FF7FB0AD0480ACC7FF7FB0A8038061
:104CAC00D0C7FF7F44FFFF7FD4C7FF7F48FFFF7F44
:104CBC00E0C7FF7F0100000088CCFF7F00840480E8
:104CCC00ACCCFF7FB0B0AE8044CDFF7F01000000C4
:104CDC0010CEFF7FB0A9068064CEFF7FB0A80780FE
:104CEC00B0CEFF7F0D8411807CCFFF7FB0A80780F2
:104CFC00C4CFFF7F01000000C8D1FF7FAB3F048011
:104D0C0044D2FF7FAC3F098034D4FF7FB0AB088026
:104D1C00E8D4FF7FB0AF0E80D8D5FF7FAF3F2680A1
:104D2C00B0D7FF7FB0AD0880B0D9FF7FB0A910809D
:104D3C00F8D9FF7FAF3F0280E0E3FF7F0100000066
:084D4C0089490008F10100088B
:044D5400C901000889
:104D5800FFFFFFFF00127A000100000010000000B2
:040000050800312599
:00000001FF
