:020000040800F2
:1050000000A0002059780008A9780008A9780008B5
:10501000A9780008A9780008A97800080000000015
:10502000000000000000000000000000A978000857
:10503000A978000800000000A9780008A9780008F5
:10504000A9780008A9780008A9780008A9780008BC
:10505000A9780008A9780008A9780008A9780008AC
:10506000A9780008A9780008A9780008A97800089C
:10507000A9780008A9780008A9780008A97800088C
:10508000A9780008A9780008A9780008A97800087C
:10509000A9780008A9780008A9780008A97800086C
:1050A000A9780008A9780008A9780008A97800085C
:1050B000A9780008A9780008A9780008DD9A0008F6
:1050C000E99A0008A9780008A9780008A9780008DA
:1050D000A9780008A9780008A9780008A97800082C
:1050E000A9780008A9780008A9780008A97800081C
:1050F000A9780008A9780008A9780008A97800080C
:10510000000000000000000000000000A978000876
:10511000A9780008A9780008A9780008A9780008EB
:10512000A9780008A9780008A9780008A9780008DB
:10513000A9780008A978000800000000000000001D
:10514000A9780008A9780008A978000800000000E4
:10515000000000000000000000000000000000004F
:105160000000000000000000A9780008A9780008ED
:10517000A978000800000000000000000000000006
:0851800000000000A9780008FE
:1051880010B5054C237833B9044B13B10448AFF379
:1051980000800123237010BD74000020000000006F
:1051A800D4D2000808B5034B1BB103490348AFF339
:1051B800008008BD0000000078000020D4D200085C
:1051C8002DE9F04F97B000F11E03039300F27E63C0
:1051D80011930023099316ABC3F111060DF157077C
:1051E8001D460496039A049E32F8023F03920DF17D
:1051F8004701012203EA02007418204101F8010F57
:105208005200B94292B2F5D19DF948209DF9490062
:105218000496CDE9052082EA000A9DF95020029201
:105228009DF94A209DF94C609DF94B4001960C92DE
:105238001646059A9DF94E109DF95290079182EAFB
:105248000400484089EA000006999DF94DB09DF98F
:1052580051800A9432467040029E9DF94FE06140A9
:10526800714089EA0101164651408BEA00009DF918
:1052780054200D9288EA00005040089086EA0B00FE
:10528800019E88EA000084EA060C079C019E5040B3
:10529800029A84EA0C0C7440544082EA0C0C88EAA6
:1052A80001019DF955200E9289EA04048EEA000056
:1052B8008EEA01018BEA04045040514088EA040454
:1052C8009DF956200F928EEA0404504054409DF9EF
:1052D80053200B9289EA0C0C82EA0C0C9DF957209A
:1052E80010925040089A8AEA00008CEA00008AEA84
:1052F8000C0A42EA010C4AEA0C0C44EA0C0C50EA8B
:105308000C060FD0890001EB4201514401EBC401A6
:1053180001EB001080B2A0F110010F290ED96FF037
:1053280009020992039AC3F30A031380119B9A4254
:105338007FF458AF099817B0BDE8F08F11380E28E0
:1053480079D8DFE800F0726C645E58524C46403BF6
:1053580035302A250800C9F101038DF85230099B20
:10536800002B08BF6FF008030993DDE904620DF113
:1053780049000121002301E010F9012B12FB01F281
:105388001344490085429BB289B2F5D10496C9E716
:10539800C8F101038DF85130E1E7029BC3F1010325
:1053A8008DF85030DBE7CEF1010E8DF84FE0D6E7EF
:1053B800079BC3F101038DF84E30D0E7CBF1010311
:1053C8008DF84D30CBE7019BC3F101038DF84C30CC
:1053D800C5E70F9BC3F101098DF85690BFE70A9BFB
:1053E800C3F101038DF84B30B9E70C9BC3F10103FE
:1053F8008DF84A30B3E7069BC3F101038DF84930B5
:10540800ADE70E9BC3F101088DF85580A7E7059B12
:10541800C3F1010253B205938DF848309FE70D9B05
:10542800C3F101038DF8543099E70B9BC3F10103D5
:105438008DF8533093E7109BC3F101038DF8573073
:105448008DE700BF10B50B460C464FF450724FF471
:10545800105104F09FF800B110BD2046BDE810407F
:10546800FFF7AEBE10B5302282B04FF400410446BB
:1054780004F0C8F8421C0CD00DF1060301224FF4C9
:105488000041204604F086F818B9BDF806301B071D
:10549800F2D502B010BD00BF10B582B00DF1060301
:1054A800012248F20D01044604F074F808B102B074
:1054B80010BDBDF8062048F20D0142F40042204616
:1054C800ADF8062004F09EF80028F0D104F04AF860
:1054D8000028ECD10DF10603012248F20D01204607
:1054E80004F058F80028E2D1BDF90630002BB8BF07
:1054F8006FF00A00DBE700BF002347F6FF7130F8C2
:1055080013208A4203F1100303D0C02BF7D10020E7
:1055180070476FF007007047038847F6FF718B42AA
:105528002BD000F10E0300F1240C33F8022F8A422D
:1055380023D06345F9D1038D8B421ED0438D8B4216
:105548001BD0838D8B4218D000F12E0300F1400C44
:1055580047F6FF7133F8022F8A420ED06345F9D11E
:1055680000F14E0347F6FF715E3033F8022F8A428E
:1055780003D09842F9D1002070476FF007007047B8
:10558800F0B505469BB00E460DF1060301224FF417
:105598000041284603F0FEFF0446C8B9BDF806706E
:1055A8003A07F1D530224FF40041284604F02AF892
:1055B800431C07F0010704460AD03346202257B996
:1055C8004FF48061284603F0E5FF0446002871D0B7
:1055D80020461BB0F0BD4FF48461284603F0DAFF83
:1055E80004460028F4D106F1400320224FF48C61D0
:1055F800284603F0CFFF04460028E9D106F18003CE
:1056080020224FF49461284603F0C4FF0446002882
:10561800DED106F1C00320224FF49C61284603F036
:10562800B9FF04460028D3D106F5807320224FF431
:10563800A461284603F0AEFF04460028C8D106F549
:10564800A07320224FF4AC61284603F0A3FF044660
:105658000028BDD102AB30224FF4B061284603F0D8
:1056680099FF04460028B3D101AB2846012248F22D
:105678000D0103F08FFFBDF80430A6F8E031A6F85D
:10568800E27104460028A3D102A8FFF745FF28B914
:10569800602202A906F5C07007F002FE47F6FF7205
:1056A80036F81430934204F110043ED0C02CF7D1E0
:1056B8003C468DE706F1400320224FF488612846D6
:1056C80003F068FF0446002882D106F180032022F7
:1056D8004FF49061284603F05DFF044600287FF4EC
:1056E80077AF06F1C00320224FF49861284603F0F3
:1056F80051FF044600287FF46BAF06F58073202223
:105708004FF4A061284603F045FF044600287FF4C3
:105718005FAF06F5A07320224FF4A861284603F076
:1057280039FF0446002895D052E76FF007044FE789
:1057380030B583B00C460DF10603012248F20D0185
:10574800054603F027FF08B103B030BDBDF80620B9
:10575800A10222F4406201F4406192B20A43284651
:1057680048F20D0103F04EFF03B030BD00B583B021
:105778000DF10603012248F20D0103F00BFF18B9E1
:10578800BDF80600C0F3812003B05DF804FB00BF3C
:1057980030B583B00C460DF10603012248F20D0125
:1057A800054603F0F7FE08B103B030BDBDF806208A
:1057B800E10122F4607201F4607192B20A43284652
:1057C80048F20D0103F01EFF03B030BD00B583B0F1
:1057D8000DF10603012248F20D0103F0DBFE18B9B2
:1057E800BDF80600C0F3C21003B05DF804FB00BFAB
:1057F800D0B5B0F8D431B0F8E0612DED028B07EEEA
:10580800903A1B04B8EE678A48BFDFED277A91F813
:10581800240048BF38EE678A0C4601F057FC9FED1C
:105828001E0B41EC110B06F0D7FCC6F3812630465F
:1058380057EC106B01F05AFC9FED170B41EC110B64
:1058480006F0CAFC304653EC102B394601F0E2FD55
:1058580001F0AEFFB4F9023007EE903A06EE900A76
:10586800B4F90030F8EEE77A07EE103AD8EE267A67
:10587800B8EEC77AC7EE877A17EE900A01F048FCAF
:1058880007A3D3E9002301F0E5FA01F091FFBDEC8D
:10589800028B00EE100AD0BD00000000000000409E
:1058A8006666666666660A40000080472DE9F8432A
:1058B80005460C46FFF79CFFB5F8C03194ED046A25
:1058C80007EE903A1A04B8EE677AB5F8803144BF0B
:1058D800DFED2D7A37EE677A07EE903A1B0448BF62
:1058E800DFED296AF8EE677A10EE109A48BF77EE76
:1058F800E67ADFED266AE6EE077A87EE276A66EE35
:10590800267A17EE900A01F003FC064660680F46F7
:1059180001F0FEFB024648469046894601F0F8FB36
:1059280017A3D3E9002301F093FA02460B46404639
:10593800494601F045FC164B002201F08BFA02465D
:105948000B463046394601F065FD0646A0890F46EC
:1059580001F0CCFB02460B463046394601F078FA96
:1059680001F026FF94ED027A06EE900A86EE870A89
:10597800F3EE097A30EE270ABDE8F883AFF300802A
:105988006666666666660A400000804700008048D2
:105998000000F03F2DE9F04F2DED108B8DB00C4637
:1059A80010EE907A83461546B0F8E2619FEDAEDAC4
:1059B800B0EE40AAFFF71CFF5846214610EE108AA9
:1059C800FFF774FF10EE100AF0EE409A01F0A0FB0A
:1059D8009DA3D3E9002301F03DFA01F0E9FE08EEAA
:1059E800100A384601F094FB97A3D3E9002301F08D
:1059F80031FA01F0DDFE08EE900A68EEA88A28EE7A
:105A0800088A68EEA88A94F89E05B0EE687AA8EE2F
:105A1800487A06EB4606B7EE008AC7EE0A7A78EEB1
:105A2800E78A01F053FB9FED8A0B41EC110B06F05E
:105A3800D3FB51EC100B01F0BBFE0BEE100A94F8EF
:105A48005F0601F043FB9FED820B41EC110B06F062
:105A5800C3FB51EC100B01F0ABFE0BEE900A94F86F
:105A6800DC0101F033FB9FED7A0B41EC110B06F0E2
:105A7800B3FB51EC100B01F09BFED4ED0B3A94ED07
:105A88000C6AB4F95230B4F95420D4ED0D4A94EDAF
:105A98000E5AD4ED0F5AF7EE007AB3EE047AF0EE10
:105AA800676AB0EE674AA3EE874A07464046E6EEC5
:105AB800076A07EE103AB8EEC77AD31AB0EE67EA6B
:105AC800A4EE87EA07EE103AB4F9563094ED106A5E
:105AD800B8EEC77A9A1AF0EE67EAE5EE07EA07EE3B
:105AE800102AB4F95820B8EEC77AD31AB0EE67FA7C
:105AF800A5EE87FA07EE103AB4F95A30B8EEC77A2D
:105B08009B1AF0EE67FAE6EE07FA07EE103AC7EED0
:105B1800A6DABBF894311904D4ED116AB8EEC77A45
:105B28006EEE2EEAE6EE877A6EEE8F5ACDEE84CAD6
:105B380025EEAF6ACDED095A66EE277A8DED0A6A31
:105B4800CDED0B7A07EE903AB4F91430B8EE677AD7
:105B580044BFDFED457A37EE677A07EE903AF8EE04
:105B6800E77ABBF8903187EE87CA1A0407EE903AB5
:105B7800B8EE679A44BFDFED3C7A39EE679AF3EEE8
:105B8800097A79EEE79AD4ED087AABF10203A7EE29
:105B9800A98ACDE9013501F0BBFA04F15A03009353
:105BA80004F5ED7308932CA3D3E9002301F050F911
:105BB80069EE0C7A41EC1F0BCDE9040117EE900A4F
:105BC80001F0A6FAB4F9643607EE903AF8EEE77AEF
:105BD800824667EE887A8B4617EE900A01F098FAAB
:105BE8008046E069894601F093FA53EC1F2B01F0D7
:105BF800E7FA1E4B002201F02DF902460B464046FB
:105C0800494601F0DDFA02460B465046594601F076
:105C18001FF901F0CDFD0AEE900A384601F078FA36
:105C28000FA3D3E9002301F0CBFA04EBC61303F565
:105C3800EE73CDE906010FF2100BDBE900AB04F2BD
:105C4800DD45039350E000BF6666666666127140E4
:105C580000000000000000406666666666660A404E
:105C68008DEDB5A0F7C6B03E000080470000F03FBC
:105C7800B4F94C3006EE903A6FEEACFAF8EEE66AFC
:105C8800002304EB830337EE667A93ED0B6AF7EE95
:105C9800006AE6EE076A66EEAF7A88EE270A70EECB
:105CA800287AF5EE407AF1EE10FA00F18181B1EE32
:105CB800E70AB5EE400AF1EE10FA00F17481F1EE50
:105CC800C07A17EE900A01F023FA52465B4601F0BB
:105CD800BFF801F06DFD029B009A43F8040B029394
:105CE800089B934200F04F81019A013532F8023F38
:105CF800019207EE903A1B0495F90030B8EE677AE6
:105D080007EE903AF8EEE77A95F9C13087EE8B6A9C
:105D180048BF37EE4D7A07EE903A27EE0C7AF8EE48
:105D2800E77AB7EE009A17EE100A87EEAB8AB0EE64
:105D380049FAA9EE86FA01F0EBF9039B33F9022F31
:105D4800039307EE902AF8EEE77A064667EE8F7A15
:105D58000F4617EE900A01F0DBF9804618EE100A9C
:105D6800894601F0D5F9DDE9042301F029FA954BBC
:105D7800002201F06FF802460B464046494601F002
:105D88001FFA02460B463046394601F061F801F029
:105D98000FFD94ED067A009B07EE900AE7EE6A7A0B
:105DA80033F8020F009387EE8A8A01F09FF90246C2
:105DB8000B46DDE9060101F02DFB01F0F9FCD4EDFD
:105DC8000A7AA9EEA79A07EE900A69EE27FAB0EECA
:105DD800480AA8EEAF0A2FEEAF7A27EE2F7A27EE01
:105DE800007AB5EE407AF1EE10FA00F1D780B1EE04
:105DF800C70AB5EE400AF1EE10FA00F1DE80B1EE06
:105E0800C0FA18EE100A01F083F994ED0D9A0646CF
:105E180019EE100A0F4601F07BF952465B4601F075
:105E2800CFF902460B460020664901F011F880467A
:105E38001FEE900A894601F06BF902460B46404670
:105E4800494601F0BDF969EE0F7A804617EE900ACF
:105E5800894601F05DF902460B464046494600F086
:105E6800F9FF02460B463046394601F0D3FA06469A
:105E780018EE900A0F4601F04BF902460B463046E1
:105E8800394600F0E7FF41EC100B06F01DFA06F06A
:105E98001BFA5B4651EC100B524600F0D9FF01F09B
:105EA80087FCB4F94E3006EE103A07EE100AB8EE49
:105EB800C66AB4EEC76AF1EE10FA3FF7D9AEB4F984
:105EC800503006EE903AF8EEE66AF4EEC76AF1EE64
:105ED80010FA05DD6FEEADFAF0EE466A0123D0E662
:105EE800B4F9523006EE103AB8EEC66AB4EEC76A94
:105EF800F1EE10FA10DCB4F9543006EE903AF8EEF0
:105F0800E66AF4EEC76AF1EE10FA07DD6FEE8EFA74
:105F1800F0EE466A0323B4E60223B2E6B4F956303B
:105F280006EE103AB8EEC66AB4EEC76AF1EE10FA99
:105F380003DD6FEEAEFA0423A3E6B4F9583005EE9C
:105F4800903AF8EEE55AF4EEC75AF1EE10FA07DD8A
:105F5800DDED097AF0EE466A6FEEA7FA052390E6C2
:105F6800B4F95A3006EE903AF8EEE66AF4EEC76AEB
:105F7800F1EE10FA0CDDDDED0A7AF0EE656A6FEEEF
:105F8800A7FA06237DE60DB0BDEC108BBDE8F08FB7
:105F9800DDED0B7A07236FEEA7FA72E6B0EE470A3B
:105FA80006F0C6F925E706F0C3F910EE100A8AE6EE
:105FB800B0EE670A06F0BCF97BE606F0B9F9B0EE78
:105FC80040FA1EE70000F03F2DE9F04F2DED0E8B53
:105FD80085B08B4615460446B0F8E2619FED90BA4D
:105FE800FFF706FC2046594610EE107AFFF75EFCD4
:105FF8009BF89E05B0EE408A01F068F89FED840B8F
:1060080041EC110B06F0E8F851EC100B01F0D0FB55
:1060180009EE100A9BF85F0601F058F89FED7C0B1B
:1060280041EC110B06F0D8F851EC100B01F0C0FB55
:10603800B4F89431029507EE903A1904B8EE677AED
:10604800BBF9143044BFDFED767A37EE677A07EE96
:10605800903AF8EEE77AB4F8903187EE87AA1A04F6
:1060680006EB46060BEBC61A0BF15A050AF5EE7A53
:1060780007EE903AF8EE678A44BFDFED697A78EE6A
:10608800E78AF3EE097A38EE678AF7EE00AADBEDC5
:10609800087A09EE900AF0EE6ABA3846E7EE88BA4E
:1060A80001F036F80BF5ED730BF5CC620193039212
:1060B80059A3D3E9002300F0CBFE68EE8A7A41ECBD
:1060C8001C0B41EC1E0B17EE900A01F021F841EC75
:1060D8001D0BBBF9641607EE901AF8EEE77AA71EB7
:1060E80067EEAB7A0BF2DD4417EE900A01F010F878
:1060F8008046DBF81C00894601F00AF853EC1C2B9B
:1061080001F05EF8474B002200F0A4FE02460B4661
:106118004046494601F054F802460B4651EC1D0B27
:1061280000F096FE01F044FBDDE9018608EE900AD6
:10613800DDF80C9037F8023F013407EE903A1B0463
:1061480094F9003007EE103AB8EEC77A94F9C130E6
:1061580087EE096AF8EE676A07EE903A48BF76EE6E
:10616800CB6AF8EEE77AB0EE6ACAC7EEA9BA66EE6D
:106178008A7AA8EE06CA17EE900A00F0C9FF3AF923
:10618800023F07EE903AF8EEE77A41EC1D0B67EE16
:106198008C7A17EE900A00F0BBFF02460B461BEE06
:1061A800900A43EC1C2B00F0B3FF53EC1E2B01F0BC
:1061B80007F81C4B002200F04DFE02460B4651EC3E
:1061C8001C0B00F0FDFF0B46024651EC1D0B00F0C6
:1061D8003FFE01F0EDFA35F8023FDBED066A99ED76
:1061E800006A07EE103A07EE900AB8EEC77AE6EEB4
:1061F800E87AA845A6EEC67A67EE877AE6EC017AD1
:1062080098D105B0BDEC0E8BBDE8F08FAFF30080E0
:1062180000000000000000406666666666660A4088
:10622800000080470000F03FB0F8E201704700BF6F
:10623800BF282CD810F00F0307D1013080B201EB32
:1062480080010B6841F8043C7047012B20D00E2BCD
:106258001ED00F2B33D0013001EB8001D1ED006A45
:10626800D1ED017A11ED026A11ED037A76EEE77A43
:1062780036EE477AB0EEE75AF0EEC75AB4EEE55A72
:10628800F1EE10FA16DC76EEA77A41ED017A704746
:1062980000F18040013801EB8001D1ED027AD1EDA7
:1062A800006A77EEA67AB6EE007A67EE877AC1EDD5
:1062B800017A704736EE077A01ED017A704700F1EE
:1062C8008040013801EB80010B684B60704700BFCC
:1062D800B0F94E20B0F84E30B0F94CC0B2F5806F2E
:1062E800A8BFA3F50063B0F84C20A8BF9BB2BCF5CB
:1062F800806FA8BFA2F500624FEA4313A8BF92B20D
:106308001BB252010B804A80704700BFB0F856306C
:10631800B0F8502007EE903AB3F5806FF8EE677A40
:1063280028BF9FED167AB0F8543028BF77EEC77AA9
:106338009FED137A27EE877A07EE903AB3F5806FD0
:10634800F8EE677AB0F8583024BFDFED0C6A77EEC4
:10635800E67A06EE903AB4EE006AB0F8523081ED73
:10636800017AFAEEEC6A67EE867A03EB4213C1ED26
:10637800027A8B81C1ED046A704700BF00000045B6
:1063880000008039B0F84820B0F84A3003EB4213D7
:106398008B827047B0F866309FED0B7AC3F3080321
:1063A80007EE903AF8EEE77AF4EEC77AF1EE10FAD3
:1063B800C4BF9FED067A77EEC77A9FED057A67EE40
:1063C800877AC1ED067A704700007F4300000044D9
:1063D8000000803CB0F8463007EE903AB3F5806F85
:1063E800F8EE677A24BF9FED067A77EEC77A9FEDBD
:1063F800057A67EE877A01F5CD61C1ED007A7047BD
:10640800000000450000003BB0F86630C3F34123AC
:1064180081F82430704700BFB0F8443007EE903A56
:10642800B3F5806FF8EE677A24BF9FED057A77EEB3
:10643800C77A9FED047A67EE877AC1ED0A7A7047CA
:10644800000000450000003810B43D4C9FED3D6A47
:10645800DFED3D5A4FF4A002C1E913427823A1F8B9
:106468005430B0F87430A1F85630B0F87830A1F84C
:106478005830B0F87C30A1F85A30B0F86A30B0F82B
:10648800682007EE903AB0F86C3002EE903AB0F817
:106498006E3003EE103AB0F8703003EE903AB0F870
:1064A800723004EE103AB0F8763004EE903AB0F854
:1064B8007A3005EE103AB0F87E3007EE103A012334
:1064C800934006EE903AF8EE677AF8EE622AB8EE54
:1064D800433AF8EE633AB8EE444AF8EE644AB8EE46
:1064E800455AB8EE477AC1ED0B7AC1ED0C2A81ED19
:1064F8000D3AC1ED0E3A81ED0F4AC1ED104A81ED1A
:10650800115A81ED127A01F12C0301F13002F8EEF3
:10651800E66A4C3101E0F2EC017AF4EEC67AF1EE6B
:1065280010FAC8BF77EEE57A87EEA67AC8BFC3ED42
:10653800007AA3EC017A8B42EDD15DF8044B7047E9
:10654800D8FFECFF00C07F44000000452DE9F04F64
:106558002DED048B438E9FED7C9AADF54D7D5D0945
:1065680003F01F031433ADF80E30838E01915A09DE
:10657800804603F01F031433ADF8123038F8363F65
:106588001432ADF810205A0903F01F0314350DF129
:10659800180B143214339FED668B8246ADF8142025
:1065A800ADF8163003AF5E46A94601E037F8029F02
:1065B80038F8020F00F09AFD044648460D4600F0F0
:1065C80085FDB0EE480AF0EE680A41EC110B05F0C3
:1065D80003FE204653EC102B294600F01BFF01F068
:1065E800E7F807EE900AC7EE897A0CABE6EC017A79
:1065F8009E42DBD1019A02F5CC63D2ED067AD3ED47
:10660800008A4DA7D7E9006768EEE78A0AF23E28B4
:106618000DF130090AF2BE3ABBEC018AA8F1400438
:106628004D4634F8023F07EE903AF8EEE77AB0EEBE
:10663800687AA7EE887A17EE100A00F069FD02461C
:106648000B463046394600F0E5FE01F0B1F8444506
:1066580045F8040BE5D104F14008C24509F1800969
:10666800DAD1DDF830A00DAC07EE90AA0DF54C7824
:106678002346B3EC017AB4EE677AF1EE10FAC8BF9C
:10668800F0EE477A9845F4D19FED307AF4EEC77A68
:10669800F1EE10FA45D54FF0000977EEA77A09F127
:1066A8000109F4EEC77AF1EE10FA5FFA89F9F4D429
:1066B800484600F00BFD41EC180B019B244F9FED61
:1066C8001C9B03F15A05002601E054F804ABB0EE18
:1066D800481AF0EE681AB0EE490AF0EE690A05F0B9
:1066E8007BFD50465BEC10AB00F012FD52465B465A
:1066F80000F066FD01F05CF800F00AFD32463B460A
:1067080000F0A8FB01F034F8A04525F8020FDCD111
:10671800019B83F8DC910DF54D7DBDEC048BBDE844
:10672800F08F9FED078B4FF00009C6E7AFF30080AD
:1067380000000000000000408DEDB5A0F7C6B03E97
:10674800000000000000000000E0FF4400000047D7
:106758000000E03F038C428C10B5B0F824E05B09E0
:106768004FF0010C0EEB421E0CFA03FC1FFA8EFED2
:106778001FFA8CFC00F17E0201F5EE7100F5FF7442
:1067880032F8023F18B2B0F5806FA4BFA3F50063DA
:106798009BB21CFB03E321F8023FB2F98004B2F874
:1067A8008034B0F5806FA4BFA3F500639BB21CFBD7
:1067B80003E3A242A1F88031E2D110BD2DE9F04FE8
:1067C800B0F92A30428DB0F82C902DED068BB3F538
:1067D800806FA4BFA2F500631BB2ADF5437D07EE41
:1067E800903A00F27E3809F01F00B8EEE7AA01914E
:1067F80000F06CFC9FED608B41EC190BC9F3471955
:1068080002ADC2AC38F8023FB0EE491AF0EE691A90
:10681800B3F5806F4FEA531628BF403EB0EE480AE2
:10682800F0EE680A28BFB6B205F0D6FC48465BEC25
:1068380010AB00F04BFCB0EE480AF0EE680A41ECF1
:10684800110B05F0C9FC30B257EC106B00F04EFC90
:1068580052465B4600F0B4FC00F0AAFF07EE900A2F
:1068680077EE8A7A17EE900A00F052FC32463B46E1
:1068780000F0D0FD00F09CFF45F8040BA542C1D103
:10688800DDF808B007EE90BA03ADB0EEE77A2B4614
:10689800F3EC017AF0EEE77AF4EE477AF1EE10FACB
:1068A800C8BFB0EE677AA342F2D1DFED377AB4EE13
:1068B800E77AF1EE10FA5AD54FF0000937EE077A69
:1068C80009F10109B4EEE77AF1EE10FA5FFA89F9F5
:1068D800F4D4484600F0FAFB41EC180B019B2B4F0F
:1068E8009FED259B03F2DD4800260EE000F010FC2A
:1068F80032463B4600F0AEFA00F012FFA54240B225
:1069080008F8010F2AD055F804BBB0EE481AF0EE8B
:10691800681AB0EE490AF0EE690A05F05DFC5846BF
:106928005BEC10AB00F0F4FB52465B4600F048FC11
:1069380000F03EFF07EE900AF5EEC07AF1EE10FA8D
:10694800D4D500F0E5FB32463B4600F081FA00F072
:10695800E7FEA54240B208F8010FD4D1019B83F8A5
:106968009E950DF5437DBDEC068BBDE8F08F9FED40
:10697800048B4FF00009B1E7000000000000004060
:106988000000000000000000000080420000E03F1E
:106998002DE9F04FB0F92E30C28DB0F830902DEDC2
:1069A800068BB3F5806FA4BFA2F500631BB2ADF5EB
:1069B800437D07EE903A00F27E3809F01F00B8EEEA
:1069C800E7AA019100F082FB9FED5F8B41EC190B68
:1069D800C9F3471902ADC2AC38F9023FB0EE491A03
:1069E800F0EE691A03F01F06B0EE480AF0EE680AE6
:1069F800DB0648BF203E05F0EFFB48465BEC10ABDA
:106A080000F064FBB0EE480AF0EE680A41EC110BA6
:106A180005F0E2FB304657EC106B00F067FB52467E
:106A28005B4600F0CDFB00F0C3FE07EE900A77EE60
:106A38008A7A17EE900A00F06BFB32463B4600F06C
:106A4800E9FC00F0B5FE45F8040BA542C4D1DDF819
:106A580008B007EE90BA03ADB0EEE77A2B46F3EC38
:106A6800017AF0EEE77AF4EE477AF1EE10FAC8BF51
:106A7800B0EE677AA342F2D1DFED377AB4EEE77A67
:106A8800F1EE10FA5AD54FF0000937EE077A09F1FE
:106A98000109B4EEE77AF1EE10FA5FFA89F9F4D455
:106AA800484600F013FB41EC180B019B2B4F9FED60
:106AB800269B03F29E5800260EE000F029FB324682
:106AC8003B4600F0C7F900F02BFEA54240B208F89B
:106AD800010F2AD055F804BBB0EE481AF0EE681A38
:106AE800B0EE490AF0EE690A05F076FB58465BEC11
:106AF80010AB00F00DFB52465B4600F061FB00F066
:106B080057FE07EE900AF5EEC07AF1EE10FAD4D5EA
:106B180000F0FEFA32463B4600F09AF900F000FE1B
:106B2800A54240B208F8010FD4D1019B83F85F96C3
:106B38000DF5437DBDEC068BBDE8F08F9FED048B12
:106B48004FF00009B1E700BF00000000000000405E
:106B58000000000000000000000080420000E03F4C
:106B68002DE9F843B0F85A30B0F85E20B0F860600C
:106B780007EE903AB3F5806F2DED028BB8EE678A79
:106B880028BFDFED437A044690F85C0028BF38EE52
:106B9800678A06EB42160D4600F098FA9FED3A0B0D
:106BA80041EC110B05F018FB59EC108B18EE100A8C
:106BB80000F0AEFA42464B4600F02CFC00F0F8FD1F
:106BC800B4F8623003F03F0208EE102AB8EEC88A23
:106BD800F3EE0F7AB4EEE78AF1EE10FAC8BFDFEDF4
:106BE8002D7A0746C3F38710C8BF38EE678A00F0CE
:106BF8006DFA9FED250B41EC110B05F0EDFA59EC00
:106C0800108B18EE100A00F083FA42464B4600F04B
:106C180001FC00F0CDFDB4F86430286203F03F02B7
:106C280008EE102AB8EEC88AF3EE0F7AB4EEE78AB7
:106C3800F1EE10FAC8BFDFED177AC3F38710C8BFAB
:106C480038EE678A00F042FA9FED0F0B41EC110B0A
:106C580005F0C2FA59EC108B18EE100A00F058FA39
:106C68004B46424600F0D6FB00F0A2FDBDEC028B7D
:106C780005F5CC6336B2E8611F60A5F86466BDE827
:106C8800F88300BFAFF30080000000000000004060
:106C9800000000450000804200F5CD6090ED000A3C
:106CA800704700BF4FF6FF7310B50024A1F86C368B
:106CB8007E30234630F8022F03F1010EBAB9B0F83E
:106CC80080215AB9B0F8002342B9B0F8802404F101
:106CD800010C1AB9A1F86C361FFA8CF41FFA8EF35E
:106CE800C02B08D0022CE5D16FF0020010BD1FFAAE
:106CF8008EF3C02BDED1022C0CBF6FF002000020F7
:106D080010BD00BF38B5838A5B0640F18680B0F9B4
:106D18004E20B0F84E300D46B2F5806FB0F94C10E9
:106D2800B0F84C20A4BFA3F500639BB2B1F5806F07
:106D3800A4BFA2F5006292B25B011BB252012946C0
:106D48002B806A80FFF7E2FAB0F84820B0F84A30A2
:106D58009FED337A03EB4213AB82B0F86630C3F38E
:106D6800080207EE902AF8EEE77AB0F84620F4EE2B
:106D7800C77AF1EE10FAC4BF9FED2A7A77EEC77A88
:106D88009FED297A67EE877A07EE102AB2F5806FB1
:106D9800C5ED067AB8EE477A24BFDFED247A37EEE0
:106DA800677ADFED237A27EE277A05F5CD62C3F3FC
:106DB800412382ED007A85F82430B0F8443007EE9C
:106DC800903AB3F5806F28BF9FED187AF8EE677A8E
:106DD800044628BF77EEC77A9FED167A67EE877A62
:106DE800C5ED0A7AFFF730FB2946FFF7B9FE2946B9
:106DF8002046FFF7ABFB29462046FFF7ABFC2946A8
:106E08002046FFF7DBFC29462046FFF7C1FD29464F
:106E18002046BDE83840FFF745BF6FF0060038BD93
:106E280000007F43000000440000803C0000004553
:106E38000000003B00000038838A13F0400F0CBFAD
:106E48006FF006000020704781F0004102E000BFAB
:106E580083F0004330B54FEA41044FEA430594EA12
:106E6800050F08BF90EA020F1FBF54EA000C55EA4D
:106E7800020C7FEA645C7FEA655C00F0E2804FEA1E
:106E88005454D4EB5555B8BF6D420CDD2C4480EA00
:106E9800020281EA030382EA000083EA010180EA30
:106EA800020281EA0303362D88BF30BD11F0004F7E
:106EB8004FEA01314FF4801C4CEA113102D04042B4
:106EC80061EB410113F0004F4FEA03334CEA1333EF
:106ED80002D0524263EB430394EA050F00F0A78007
:106EE800A4F10104D5F1200E0DDB02FA0EFC22FA02
:106EF80005F2801841F1000103FA0EF2801843FAF6
:106F080005F359410EE0A5F120050EF1200E012AE6
:106F180003FA0EFC28BF4CF0020C43FA05F3C01824
:106F280051EBE37101F0004507D54FF0000EDCF19D
:106F3800000C7EEB00006EEB0101B1F5801F1BD346
:106F4800B1F5001F0CD349085FEA30004FEA3C0C4A
:106F580004F101044FEA445212F5800F80F09A8040
:106F6800BCF1004F08BF5FEA500C50F1000041EB44
:106F7800045141EA050130BD5FEA4C0C404141EB48
:106F88000101013C28BFB1F5801FE9D291F0000F43
:106F980004BF01460020B1FA81F308BF2033A3F1F2
:106FA8000B03B3F120020CDA0C3208DD02F1140CE9
:106FB800C2F10C0201FA0CF021FA02F10CE002F124
:106FC8001402D8BFC2F1200C01FA02F120FA0CFC1D
:106FD800DCBF41EA0C019040E41AA2BF01EB045166
:106FE800294330BD6FEA04041F3C1CDA0C340EDC64
:106FF80004F11404C4F1200220FA04F001FA02F3A7
:1070080040EA030021FA04F345EA030130BDC4F164
:107018000C04C4F1200220FA02F001FA04F340EA59
:107028000300294630BD21FA04F0294630BD94F00A
:10703800000F83F4801306BF81F480110134013DF1
:107048004EE77FEA645C18BF7FEA655C29D094EA62
:10705800050F08BF90EA020F05D054EA000C04BFE0
:107068001946104630BD91EA030F1EBF00210020CB
:1070780030BD5FEA545C05D14000494128BF41F06A
:10708800004130BD14F580043CBF01F5801130BDCE
:1070980001F0004545F0FE4141F470014FF0000059
:1070A80030BD7FEA645C1ABF194610467FEA655C0A
:1070B8001CBF0B46024650EA013406BF52EA0335AC
:1070C80091EA030F41F4002130BD00BF90F0000F9A
:1070D80004BF0021704730B54FF4806404F13204D6
:1070E8004FF000054FF0000150E700BF90F0000F8F
:1070F80004BF0021704730B54FF4806404F13204B6
:1071080010F0004548BF40424FF000013EE700BF85
:1071180042004FEAE2014FEA31014FEA02701FBF15
:1071280012F07F4393F07F4F81F06051704732F047
:107138007F4208BF704793F07F4F04BF41F400219E
:10714800704730B54FF4607401F0004521F00041FC
:107158001CE700BF50EA010208BF704730B54FF086
:1071680000050AE050EA010208BF704730B511F087
:10717800004502D5404261EB41014FF4806404F1BF
:1071880032045FEA915C3FF4D8AE4FF003025FEA45
:10719800DC0C18BF03325FEADC0C18BF033202EBC9
:1071A800DC02C2F1200300FA03FC20FA02F001FA23
:1071B80003FE40EA0E0021FA02F11444BDE600BFC6
:1071C80070B54FF0FF0C4CF4E06C1CEA11541DBF75
:1071D8001CEA135594EA0C0F95EA0C0F00F0DEF840
:1071E8002C4481EA030621EA4C5123EA4C5350EA25
:1071F800013518BF52EA033541F4801143F4801376
:1072080038D0A0FB02CE4FF00005E1FB02E506F006
:107218000042E0FB03E54FF00006E1FB03569CF05B
:10722800000F18BF4EF0010EA4F1FF04B6F5007F61
:1072380064F5407404D25FEA4E0E6D4146EB0606D3
:1072480042EAC62141EA55514FEAC52040EA5E505C
:107258004FEACE2EB4F1FD0C88BFBCF5E06F1ED806
:10726800BEF1004F08BF5FEA500E50F1000041EB3D
:10727800045170BD06F0004646EA010140EA0200EA
:1072880081EA0301B4EB5C04C2BFD4EB0C0541EA0C
:10729800045170BD41F480114FF0000E013C00F321
:1072A800AB8014F1360FDEBF002001F0004170BD45
:1072B800C4F10004203C35DA0C341BDC04F114045E
:1072C800C4F1200500FA05F320FA04F001FA05F2EA
:1072D80040EA020001F0004221F0004110EBD370B7
:1072E80021FA04F642EB06015EEA430E08BF20EAE3
:1072F800D37070BDC4F10C04C4F1200500FA04F386
:1073080020FA05F001FA04F240EA020001F0004117
:1073180010EBD37041F100015EEA430E08BF20EA8A
:10732800D37070BDC4F1200500FA05F24EEA020ED2
:1073380020FA04F301FA05F243EA020321FA04F001
:1073480001F0004121FA04F220EA020000EBD370B8
:107358005EEA430E08BF20EAD37070BD94F0000FB8
:107368000FD101F00046400041EB010111F4801FEC
:1073780008BF013CF7D041EA060195F0000F18BF9D
:10738800704703F00046520043EB030313F4801FD9
:1073980008BF013DF7D043EA0603704794EA0C0F93
:1073A8000CEA135518BF95EA0C0F0CD050EA4106A9
:1073B80018BF52EA4306D1D181EA030101F0004126
:1073C8004FF0000070BD50EA410606BF104619464E
:1073D80052EA430619D094EA0C0F02D150EA01365A
:1073E80013D195EA0C0F05D152EA03361CBF10469B
:1073F80019460AD181EA030101F0004141F0FE413A
:1074080041F470014FF0000070BD41F0FE4141F4BD
:10741800780170BD70B54FF0FF0C4CF4E06C1CEABD
:1074280011541DBF1CEA135594EA0C0F95EA0C0F72
:1074380000F0A7F8A4EB050481EA030E52EA03352D
:107448004FEA013100F088804FEA03334FF080554E
:1074580045EA131343EA12634FEA022245EA11157B
:1074680045EA10654FEA00260EF000419D4208BF2C
:10747800964244F1FD0404F5407402D25B084FEAD9
:107488003202B61A65EB03055B084FEA32024FF485
:1074980080104FF4002CB6EB020E75EB030E22BFE2
:1074A800B61A754640EA0C005B084FEA3202B6EBA2
:1074B800020E75EB030E22BFB61A754640EA5C0051
:1074C8005B084FEA3202B6EB020E75EB030E22BFE1
:1074D800B61A754640EA9C005B084FEA3202B6EBE2
:1074E800020E75EB030E22BFB61A754640EADC00A1
:1074F80055EA060E18D04FEA051545EA16754FEA03
:1075080006164FEAC30343EA52734FEAC2025FEA20
:107518001C1CC0D111F4801F0BD141EA00014FF0AF
:1075280000004FF0004CB6E711F4801F04BF014380
:107538000020B4F1FD0C88BFBCF5E06F3FF6AFAE9C
:10754800B5EB030C04BFB6EB020C5FEA500C50F12C
:10755800000041EB045170BD0EF0004E4EEA1131AF
:1075680014EB5C04C2BFD4EB0C0541EA045170BDB6
:1075780041F480114FF0000E013C90E645EA060EFA
:107588008DE60CEA135594EA0C0F08BF95EA0C0F28
:107598003FF43BAF94EA0C0F0AD150EA01347FF470
:1075A80034AF95EA0C0F7FF425AF104619462CE747
:1075B80095EA0C0F06D152EA03353FF4FDAE1046AA
:1075C800194622E750EA410618BF52EA43067FF4FB
:1075D800C5AE50EA41047FF40DAF52EA43057FF48B
:1075E800EBAE12E74FF0FF3C06E000BF4FF0010C96
:1075F80002E000BF4FF0010C4DF804CD4FEA410CFA
:107608007FEA6C5C4FEA430C18BF7FEA6C5C1BD0C6
:1076180001B050EA410C0CBF52EA430C91EA030F47
:1076280002BF90EA020F0020704710F1000F91EAA4
:10763800030F58BF994208BF90422CBFD8176FEA72
:10764800E37040F0010070474FEA410C7FEA6C5C40
:1076580002D150EA013C07D14FEA430C7FEA6C5C47
:10766800D6D152EA033CD3D05DF8040B704700BF73
:107678008446104662468C461946634600E000BFC1
:1076880001B5FFF7B7FF002848BF10F1000F01BD93
:107698004DF808EDFFF7F4FF0CBF012000205DF85E
:1076A80008FB00BF4DF808EDFFF7EAFF34BF0120E3
:1076B80000205DF808FB00BF4DF808EDFFF7E0FF7C
:1076C80094BF012000205DF808FB00BF4DF808EDCD
:1076D800FFF7CEFF94BF012000205DF808FB00BF34
:1076E8004DF808EDFFF7C4FF34BF012000205DF816
:1076F80008FB00BF4FEA410C7FEA6C5C02D150EAFC
:10770800013C0AD14FEA430C7FEA6C5C02D152EA91
:10771800033C02D14FF0000070474FF00100704762
:107728004FEA410212F5001215D211D56FF47873A1
:10773800B3EB625212D94FEAC12343F0004343EA44
:10774800505311F0004F23FA02F018BF404270471F
:107758004FF00000704750EA013005D111F00040A9
:1077680008BF6FF0004070474FF00000704700BF3F
:107778004A0011D212F5001211D20DD56FF47873A8
:10778800B3EB62520ED44FEAC12343F0004343EAFD
:10779800505323FA02F070474FF00000704750EA48
:1077A800013002D14FF0FF3070474FF000007047B2
:1077B8004FEA4102B2F1E04324BFB3F5001CDCF10B
:1077C800FE5C0DD901F0004C4FEAC0024CEA507043
:1077D800B2F1004F40EB830008BF20F00100704772
:1077E80011F0804F21D113F13872BCBF01F0004075
:1077F800704741F480114FEA5252C2F11802C2F1A7
:10780800200C10FA0CF320FA02F018BF40F0010027
:107818004FEAC1234FEAD32303FA0CFC40EA0C00D9
:1078280023FA02F34FEA4303CCE77FEA625307D116
:1078380050EA01331EBF4FF0FE4040F4400070474D
:1078480001F0004040F0FE4040F40000704700BFE7
:10785800DFF834D000F026F80C480D490D4A002313
:1078680002E0D458C4500433C4188C42F9D30A4AED
:107878000A4C002301E013600432A242FBD305F056
:10788800EBFC02F033F9FEE700A000200000002026
:107898007400002024D3000874000020604B0020EE
:1078A800FEE70000034AD2F8883043F47003C2F8B8
:1078B8008830704700ED00E02DE9F04F2DED088B82
:1078C800B0F84030ADF6045D064604468946180B0C
:1078D80003F00F01C3F3031BC3F30323059336F827
:1078E800423F06931E3004F14E0508AA36F8023FBF
:1078F800103203F00F0742F8107CC3F3031742F865
:107908000C7CB542C3F303274FEA133342F8087CD3
:1079180042F8043CEAD11FAE07AB0796049353F82C
:10792800042F072AC4BF103A1A609E42F7D104F107
:107938005E0620AA35F8023F103203F00F0742F81E
:10794800107CC3F3031742F80C7CAE42C3F3032741
:107958004FEA133342F8087C42F8043CEAD11FABE3
:107968003FAD53F8042F072AC4BF103A1A609D424E
:10797800F7D104F17E03039301238B4007EE903A7D
:10798800F8EEE78AFFF7A2FB9FED75AB00239FEDAA
:107998007CBA029341EC190B09F580570DF5807AF2
:1079A800049A039E52F8043F0492059A03FA02F8D7
:1079B800069B9844029B40AA02EB830520AC36F84C
:1079C800023FB0EE491AF0EE691AC3F3051307EE49
:1079D800903AB0EE4A0AF0EE6A0A54F8043BF8EE20
:1079E800E77A03FA0BF34344B3EE0F7AF4EEC77A5F
:1079F80007EE103AF1EE10FAC8BF77EECB7AB8EE80
:107A0800C78AC5ED007AA8EEA78A04F0E5FBD7ED92
:107A1800956A97ED947AD9ED067A37EE267A18EEBC
:107A2800100A8DED000B27EEC78AFFF771FBDDE921
:107A38000023FFF7EFFCFFF7BBFE07EE100AF6EE98
:107A4800007AA8EE277A17EE100AFFF761FB0246C4
:107A58000B4645A1D1E90001FFF7DCFCFFF7A8FEC2
:107A6800A24545F8040BAAD1039B079A4033039318
:107A7800029B20330293049B934291D1DDF800814D
:107A880041AC08EE108A0DF550652346F3EC017AF7
:107A9800F4EE487AF1EE10FAC8BFB0EE678A9D425C
:107AA800F4D118EE100AFFF733FB31A3D3E9002312
:107AB800FFF7F8FD00284FD02DA7D7E900674FF052
:107AC800000A38EE088A0AF1010A18EE100AFFF7D0
:107AD8001FFB32463B465FFA8AFAFFF7E3FD0028B0
:107AE800EFD15046FFF7F2FA41EC180B9FED1C9BC3
:107AF800244FCDF8009009F1480B002601E054F816
:107B0800048BB0EE481AF0EE681AB0EE490AF0EEAF
:107B1800690A04F061FB404659EC108BFFF7F8FA4C
:107B280042464B46FFF74CFBFFF742FEFFF7F0FAE1
:107B380032463B46FFF78EF9FFF71AFEA5422BF8AF
:107B4800020FDCD1DDF8009089F84AA60DF6045D35
:107B5800BDEC088BBDE8F08F9FED078B8246C5E72B
:107B680000000000000000408DEDB5A0F7C6B03E53
:107B78009A999999D9FFDF400000000000000000A1
:107B8800000080420000E03F2DE9F04F2DED088B0A
:107B9800B0F86E20ADF61C4D0746130A8DF8153067
:107BA800B7F87030B0F86C008DF8172003F00F02AA
:107BB800C3F303138DF8160003F108000123934063
:107BC80007EE903A97F96D208DF814200392B8EEDD
:107BD800E7BA0291FFF77AFA9FED77AB06AB41EC73
:107BE800190B039A01930DF11408F2EE00BABE378F
:107BF8004FF00009019EA7F1400509F10104F0EEDC
:107C0800088A02E018F90320013435F8023FB0EE83
:107C1800491AF0EE691AC3F3420307EE903AB0EE40
:107C28004A0AF0EE6A0AF8EEE77A07EE102AF4EE4E
:107C3800E87AF1EE10FAC8BF77EEEB7AB8EEC78AA9
:107C4800C6ED007AABEE278A04F0C6FA5BEC10ABFF
:107C580018EE100AFFF75CFA52465B46FFF7DAFBAC
:107C6800FFF7A6FDC4F3401204F00103AF4246F843
:107C7800040B03EB4203C5D1019B09F120098033B2
:107C8800B9F5407F07F14007019308D009F00102D8
:107C9800C9F3401302EB430318F90320AAE7DDF800
:107CA800188007EE908A07ACB0EEE78A0DF6184503
:107CB8002346F3EC017AF0EEE77AF4EE487AF1EE37
:107CC80010FAC8BFB0EE678A9D42F2D118EE100ACA
:107CD800FFF71EFA3DA3D3E90023FFF7E3FC0028D2
:107CE80064D03AA7D7E900674FF0000A38EE088A4F
:107CF8000AF1010A18EE100AFFF70AFA32463B4663
:107D08005FFA8AFAFFF7CEFC0028EFD15046FFF75A
:107D1800DDF941EC180B029B2B4F9FED279B03F6D7
:107D28004B4B002640460EE0FFF7F2F932463B4641
:107D3800FFF790F8FFF7F4FCA54240B20BF8010FEB
:107D48002BD054F8040BB0EE481AF0EE681AB0EED7
:107D5800490AF0EE690A019004F03EFA59EC108BDA
:107D68000198FFF7D5F942464B46FFF729FAFFF786
:107D78001FFD07EE900AF5EEC07AF1EE10FAD3D5A2
:107D8800FFF7C6F932463B46FFF762F8FFF7C8FC33
:107D9800A54240B20BF8010FD3D1029B83F84CAF38
:107DA8000DF61C4DBDEC088BBDE8F08F9FED048BE4
:107DB8008246B0E7AFF300800000000000000040FA
:107DC80000000000000000000000E03F33333333C0
:107DD80033B34F40000000002DE9F04F2DED048B28
:107DE800B0F86830B0F87000ADF61C4D4FEA133BA0
:107DF800B3F5004FC3F3032205AF28BFABF1100B57
:107E08001C0548BF103A8A46BA701906C3F3031214
:107E180048BF103A7A7003F00F021B0748BF103AA8
:107E28004FFA8BFB87F800B0FA70C0F30320FFF716
:107E38004DF99FED699B41EC180B26AE0DF698495C
:107E48004FF00008A6F1800508F1010402E017F9D7
:107E580003B00134B0EE481AF0EE681AB0EE490AE1
:107E6800F0EE690A04F0B8F907EE90BAF8EEE77A8E
:107E78008DED000B17EE900AFFF74AF9DDE90023B4
:107E8800FFF7C8FAFFF794FC45F8040BC4F3401257
:107E980004F00103AE4203EB4203D8D18036B1456A
:107EA80008F1200808D0C8F3401308F0010202EBDB
:107EB800430317F903B0C5E7DDF8188007EE908A89
:107EC80007ACB0EEE78A0DF618452346F3EC017AC5
:107ED800F0EEE77AF4EE487AF1EE10FAC8BFB0EEA9
:107EE800678A9D42F2D118EE100AFFF711F93FA3F5
:107EF800D3E90023FFF7D6FB0090002867D03BA703
:107F0800D7E900670023994638EE088A09F1010984
:107F180018EE100AFFF7FCF832463B465FFA89F97B
:107F2800FFF7C0FB0028EFD14846CDF80C90FFF7CB
:107F3800CDF841EC180B9FED289B2B4F0AF64C7B94
:107F4800002640460EE0FFF7E3F832463B46FEF7D0
:107F580081FFFFF7E5FBA54240B20BF8010F2BD0DC
:107F680054F8040BB0EE481AF0EE681AB0EE490A5D
:107F7800F0EE690A009004F02FF959EC108B009884
:107F8800FFF7C6F842464B46FFF71AF9FFF710FC11
:107F980007EE900AF5EEC07AF1EE10FAD3D5FFF7A6
:107FA800B7F832463B46FEF753FFFFF7B9FBA54249
:107FB80040B20BF8010FD3D1039B0AF5805A8AF817
:107FC8004D320DF61C4DBDEC048BBDE8F08F9FEDD6
:107FD800048B0390AFE700BF0000000000000040E2
:107FE80000000000000000000000E03F333333339E
:107FF80033B34F400B464FF450724FF4105101F019
:1080080067BB00BF10B582B00DF10603012248F22C
:108018000D01044601F05CFB08B102B010BDBDF8CB
:10802800062048F20D0142F400422046ADF8062031
:1080380001F076FA0028F0D101F05AFA0028ECD1C4
:108048000DF10603012248F20D01204601F040FB24
:108058000028E2D1BDF90630002BB8BF6FF0080048
:10806800DBE700BF30B50546A3B00C460DF10603AB
:1080780001224FF40041284601F02AFBA0B9BDF8BF
:1080880006201207F2D530224FF40041284601F0AD
:1080980047FA431C08D023464FF440724FF48061DE
:1080A800284601F015FB08B123B030BD02AB4022D1
:1080B8004FF4E061284601F00BFB0028F4D101AB36
:1080C8002846012248F20D0101F002FBBDF80650D6
:1080D800BDF80430A4F8803605F00105A4F88256EE
:1080E8000028E1D1BDF8082047F6FF70824253D03E
:1080F8000DF116030DF12C0C33F8021F81424BD001
:108108006345F9D1BDF83030834245D0BDF83230EF
:10811800834241D0BDF8343083423DD00DF136035F
:108128000DF1480C47F6FF7033F8021F814233D037
:108138006345F9D10DF156030DF16C0C47F6FF704C
:1081480033F8021F814227D06345F9D1BDF870305A
:10815800834221D0BDF8723083421DD0BDF87430FF
:10816800834219D00DF176030DF1860C47F6FF70A6
:1081780033F8021F81420FD09C45F9D104F2FE5119
:108188000DF10A0322A801E033F8022B21F8022F8F
:108198008342F9D1B4F88256002347F6FF7001E014
:1081A800182B0DD09901DAB2615A814203F101030B
:1081B800F6D102F00102AA42F2D16FF0070073E78C
:1081C800284671E7000000002DE9F04FB0F866304E
:1081D800DFEDE56A63F0FF02520143F30723A2F5DE
:1081E80000525B012DED028B4A800B80B0F86430A1
:1081F8009A0A07EE902AF8EEE77AB3EE0F7AF4EED1
:10820800C77AF1EE10FAC8BF9FEDDF7AC3F309030E
:10821800C8BF77EEC77A07EE103AB8EEC78A9FED67
:10822800D37AB4EEC78A0546F1EE10FA008CC8BFBF
:108238009FEDCF7AB5F86260BFB000F470400C468D
:1082480067EEA68AC8BF38EE478AFEF74FFFC94BCC
:108258000022FEF7B5FFC84B0022FEF7FBFDFFF733
:10826800A7FAA681B5F86030A38295F97820B5F809
:10827800783006EE902AB5F87020B4EE007A43F311
:10828800072328EE078A07EE103AC2F3013384F871
:1082980024304FF6D873B5F87E202364B5F87E30C5
:1082A800C4ED018AC3F30313C2F30132A4F84430C6
:1082B80002EB8202B5F87E1084ED028A520013FBAD
:1082C80002F39BB2C1F30321A4F8443001FB02334B
:1082D8004FF4C872A4F84630A4F84820B5F87E30A8
:1082E80095F97A10B5F87A202061FAEEED6A03F074
:1082F8000F03C4ED066A06EE901A03F10801012384
:108308008B4007EE903AF8EEE66AF8EEE77ABAEEB6
:10831800E97AC6EEA75A42F30722B5F87C3043F350
:10832800072384ED0A7A07EE102AB8EEC77AC4ED5F
:108338000B5AC7EE276A914AB5F84000000B1B306C
:1083480007EE103A95F97C30C4ED0C6AB8EEC77A9E
:1083580087EE276A07EE103AB5F97430E263B8EE93
:10836800C77AC3F30907B5F8742084ED0E6A9B0534
:10837800C7EE276A48BFA7F580674FEA92234ABF2E
:10838800BEB2BEB23FB2B2F5004F24BF403B9BB273
:1083980033441EB2B5F87230C3F3090307EE103A3E
:1083A800DFED727AC4ED0D6AB8EEC78AB4EEE78ADB
:1083B800F1EE10FAC4BFDFED6E7A38EE678AFEF789
:1083C80085FE9FED670B41EC110B03F005FF59EC9F
:1083D800108B18EE100AFEF79BFE42464B46FFF73D
:1083E80019F8FFF7E5F9B5F872309B0A07EE903AED
:1083F800F8EEE77AB3EE0F7A08EE900A95F9760070
:10840800F4EEC77AF1EE10FA06EE900AC8BF9FEDB7
:108418005E7AF8EEE66AC8BF77EEC77A9FED587ABB
:1084280016EE900AB7EE008AA7EE878AFEF770FE6E
:108438008046B5F87000C0F3031008308946FEF78F
:1084480045FE9FED470B41EC110B03F0C5FE40467E
:1084580053EC102B4946FEF7DDFFFFF7A9F9206220
:1084680095F9770007EE900AF8EEE77A17EE900A8A
:10847800FEF74EFE8046B5F87000C0F3032089462B
:10848800FEF724FE9FED360B41EC110B03F0A4FE22
:10849800494653EC102B4046FEF7BCFFFFF788F91E
:1084A80028EE888A04F58053E0612146A3F85872C3
:1084B800C3ED948A83ED958AA3F85A6228460393FC
:1084C800FFF7FAF9288C294600F00F03019331F8D9
:1084D800229FC0F303130293C0F3032005F12E0774
:1084E80006AA31F8023F103203F00F0642F8106C6A
:1084F800C3F3031642F80C6C8F42C3F303264FEA0A
:10850800133342F8086C42F8043CEAD105AA1DA9C5
:10851800134653F8046F072EC4BF103E1E609942DD
:10852800F7D105F13E0C1EAE964637F8023F1036DD
:1085380003F00F0246F8102CC3F3031246F80C2C74
:10854800BC45C3F303224FEA133346F8082C46F818
:10855800043CEAD172461DAB3DAF19E0AFF3008091
:108568000000000000000040000080390080FF4348
:10857800000080440000103F0000204017B751B9A8
:108588000000003C0000803D0000804200000042E6
:1085980053F8046F072EC4BF103E1E609F42F7D1E8
:1085A80005F17E0A3EABCDE9043A04F24A6ED446A0
:1085B80052F8043F83404B449BB276461EAFE046D8
:1085C800009338F802AF019B4FEA9A2BBAF5004F97
:1085D8000FFA8BFA24BFABF1400B0FFA8BFA0AFAA9
:1085E80003FBA6F802A0029B57F804AB0AFA03FAA9
:1085F800009B9A44049BDA44BB4226F802AFE0D1C0
:1086080091420CF1400C0EF1400ED1D12846214682
:10861800DDF814A0FFF7B8FA21462846FFF7DCFB7F
:10862800B5F86A305FED296AAA8A03F03F0107EEC0
:10863800901AF8EEE77AB3EE0F7AF4EEC77AF1EE15
:1086480010FAC8BF1FED307AC3F38411C8BF77EEA4
:10865800C77A07EE101AB8EEC77AB2EE0E6AB4EE11
:10866800C67AF1EE10FA67EEA66AC8BF5FED397AEE
:108678004FEAD323C8BF37EE677A07EE903AF8EE91
:10868800E77AB2EE0E6AF4EEC67AF1EE10FAC8BFD7
:108698001FED426A039BC8BF77EEC67AF6EE005A12
:1086A800B4EE006A41F2682127EE257A67EE867AF1
:1086B8006FEA1212661802F0800284F8252000255D
:1086C800C3ED976A83ED987AC3ED997A4FF0FF333B
:1086D80063502A467360B360F36033612B460BE046
:1086E80024F8173082B201339BB2B3F5407F19D01A
:1086F800052A77D0052D7CD03AF8021F02F63417E8
:10870800501C0029ECD011F0010F05F63811EAD001
:1087180004EB410101354B8001339BB2B3F5407F37
:10872800ADB2E5D1052A5DD0052D62D05319042BD1
:1087380000F39C80002A63D002F1010904F59358E4
:108748001FFA89F908F106084FF0010E72457146C3
:108758001ADD38F81E704FEA571C07F01F0736F865
:1087680011304FEA531AACEB5310A3EB4A13013004
:108778009BB2FB1A022801F1010103F1010301D8A0
:10878800022B70D98A42EADC0EF1010EF145DDD1E7
:10879800BDBB04F593510C46531E9BB20A311234EB
:1087A80001EB430104EB450CBDB1308827464FEA85
:1087B800501E00F01F0037F8022B5309A2EB431399
:1087C800AEEB52129BB20132C31A022A03F1010323
:1087D80001D8022B47D96745EDD10236B142E3D122
:1087E800002001E06FF002003FB0BDEC028BBDE855
:1087F800F08F6FF003003FB0BDEC028BBDE8F08F47
:10880800BDB305F1010904F5935804F5935E1FFA09
:1088180089F908F110080EF1120E0127BD423946F8
:108828001BDD38F817C04FEA5C1A0CF01F0C3EF835
:1088380011304FEA531BAAEB5310A3EB4B13013033
:108848009BB2ACEB0303022801F1010103F1010320
:1088580001D8022B07D98D42E9DC0137B945DDD1B2
:10886800002A96D1BCE76FF00500BDE76FF0040061
:10887800BAE72846B8E700BFF8B52DED028BB0F887
:108888008066054691F824009FED258B0C46FEF77F
:108898001DFCB0EE480AF0EE680A41EC110B03F03B
:1088A8009BFCC6F38126304657EC106BFEF70EFC96
:1088B800B0EE480AF0EE680A41EC110B03F08CFCAC
:1088C800B5F9541653EC102B08EE101A30463946F9
:1088D800FEF7A0FDFEF76CFFB4F9023007EE903A00
:1088E80006EE900AB4F90030B8EEC88AF8EEE77AD6
:1088F80007EE103AD8EE267AB8EEC77AC7EE877A2E
:1089080017EE900AFEF704FC07A3D3E90023FEF74D
:10891800A1FAFEF74DFFBDEC028B00EE100AF8BD80
:1089280000000000000000406666666666660A4051
:108938002DE9F84305460C46FFF79EFFB5F940368A
:1089480094ED046ADFED2A6A07EE103AB5F90036AD
:1089580007EE903AB8EEC77AF8EEE77A10EE105ABA
:10896800E7EE067A87EE276A66EE267A17EE900A11
:10897800FEF7CEFB064660680F46FEF7C9FB804649
:1089880028468946FEF7C4FB17A3D3E90023FEF760
:108998005FFA02460B4640464946FEF711FC154B66
:1089A8000022FEF757FA02460B4630463946FEF7D4
:1089B80031FD0646A0890F46FEF798FB02460B4696
:1089C80030463946FEF744FAFEF7F2FE94ED027A95
:1089D80006EE900A86EE870AF3EE097A30EE270A49
:1089E800BDE8F883AFF300806666666666660A408F
:1089F800000080480000F03F2DE9F04F2DED108B6E
:108A08008DB0B0F8823608938B4610EE905A044623
:108A180017460390F0EE409AFFF72EFF204659467E
:108A2800A04610EE104AFFF783FF10EE100AB0EED2
:108A3800409AFEF76DFB94A3D3E90023FEF70AFAE8
:108A4800FEF7B6FE08EE100A2846FEF761FB8EA375
:108A5800D3E90023FEF7FEF9FEF7AAFE08EE900A16
:108A680068EEA88A28EE088A68EEA88A9BF84C0F58
:108A7800B0EE687AA8EE487A0BF58056B7EE00CAD1
:108A8800C7EE297AB0EE4C8A78EEE78AFEF71EFB2D
:108A98009FED770B41EC110B03F09EFB51EC100B93
:108AA800FEF786FE0AEE100A96F84D020996FEF7C2
:108AB8000DFB9FED6F0B41EC110B03F08DFB51EC9F
:108AC800100BFEF775FE0AEE900A9BF84A06FEF7B1
:108AD800FDFA9FED670B41EC110B03F07DFB51ECA8
:108AE800100BFEF765FEDBED0B5A9FED657ABBF9BF
:108AF80014209BED0C6ADBED0D6AB8F88066F0EE89
:108B08004C7AE5EE877A03467609B3EE097A39EEB0
:108B1800479A9BED087AA7EE098A2046444607EE55
:108B2800102AB8F91426CCEE27BA07EE902AB8EE28
:108B3800C77AF8EEE77ABBF9442087EE27BA07EE42
:108B4800902A0DEE903ABBF94630F8EEE77A9B1A78
:108B5800F0EE4CCAE6EE27CAB8F9502607EE903A6E
:108B6800F8EEE77AA6EEA7CA07EE902AF8EEE77ABB
:108B78002CEE8CCA27EE8BDAFEF7CAFA06F08002D2
:108B880007923DA3D3E90023FEF762F980468946A0
:108B9800DBF81C00FEF7BCFA42464B46FEF710FB1A
:108BA8000022384BFEF756F949EC1F8B8946B4F979
:108BB800101607EE901AF8EEE77A804667EE8B7A81
:108BC80017EE900AFEF7A4FA099BB3F9583207EE9C
:108BD800903AF8EEE77A044667EE887A0D4617EE83
:108BE800900AFEF795FA42464B46FEF7E9FA024626
:108BF8000B4620462946FEF72BF9FEF7D9FD9BF8D0
:108C08002530079A0A9093421DEE100A00F0E7817A
:108C1800FEF77EFA099B93ED977AB3F95A3207EE7D
:108C2800903AF8EEE77A044677EE877A0D4667EED3
:108C3800887A4FF0000A17EE900AFEF769FA424662
:108C48004B46FEF7BDFA0B46024629462046FEF77C
:108C5800FFF8FEF7ADFD73B201970BF64C460BF12A
:108C68004A070B900693029600971FE0AFF3008027
:108C780000000000000000406666666666660A40FE
:108C8800000020420000F03F66666666661271408A
:108C9800019B04330193009B02330093029BBAF5B6
:108CA800407F03F10103029300F09481069A002AA1
:108CB800039ACAF34018D1464346B2F88226BCBF8D
:108CC80009F0010388EA03039A4254460AF1010AAB
:108CD800DED1029B93F9002093F9013307EE902A25
:108CE800F8EEE77AB7EE008A87EE8A7AA9EE078A65
:108CF80007EE103A039B33F9193007EE903AF8EE75
:108D0800E77AB8EEC77A67EE8B7A87EE2ADA17EE3B
:108D1800900AFEF7FDF9009BB3F9023607EE903A88
:108D2800F8EEE77A41EC1E0B67EE887A17EE900AA8
:108D3800FEF7EEF906461DEE100A0F46FEF7E8F9B3
:108D480053EC1F2BFEF73CFAAF4B0022FEF782F8DC
:108D580002460B4630463946FEF732FA02460B46C3
:108D680051EC1E0BFEF774F8FEF722FD9BF8253038
:108D7800079A934207EE900A07EE100A2FD0099B34
:108D88004FEA4808D3ED995AD3ED986A08F1FF33B2
:108D980006EE103AE21C04F1020348BFA21DB8EE29
:108DA800C66A9B10B9F1000FA3EBA203E5EE867A21
:108DB80003EBAA03B8BF09F10309A3EBA909C8F19A
:108DC800010819FB08F84FFA88F8B0EE677A07EE41
:108DD800908AF8EEE77AF1EE666AA6EEA77A089B23
:108DE8000CAA02EB8303DBED066A53ED027AA6EECA
:108DF800E77A1DEE900A87EE29DAFEF789F97EA355
:108E0800D3E90023FEF7DCF9009B044618880D46D9
:108E1800FEF76CF902460B4620462946FEF7FAFA99
:108E2800FEF7C6FCB7EE008A9BED0A7AF0EE487AA8
:108E3800E9EE077A07EE100A27EE878AB0EE4D7A38
:108E4800A8EE887A68EE087A67EE887A67EE877AFD
:108E580017EE900AFEF75CF941EC100B03F034FAB8
:108E680003F032FADBF830008DED040BFEF750F911
:108E780004461DEE100A0D46FEF74AF960A3D3E931
:108E880000238046894620462946FEF799F902467E
:108E98000B4600205C49FDF7DBFF064618EE100A7A
:108EA8000F46FEF735F902460B4630463946FEF7BF
:108EB80087F922462B4606460F46DDE90401FEF7F0
:108EC8007FF9FEF775FCFEF723F902460B4630469C
:108ED8003946FDF7BFFF02460B4640464946FEF7B6
:108EE80099FA044618EE900A0D46FEF711F9024663
:108EF8000B4620462946FDF7ADFF41EC100B03F069
:108F0800E3F903F0E1F93EA3D3E9002351EC100B98
:108F1800FDF79EFFFEF74CFCBBF9423007EE103A16
:108F280007EE900AB8EEC77AB4EEE77AF1EE10FAD7
:108F38002EDDBBF9403007EE103A28EE2B8AB8EE4A
:108F4800C77A00230BEB8303D3ED0B6A77EEC77A5E
:108F5800B7EE007AA6EEA77A27EE088ACDEE087A51
:108F680077EEA87A17EE900AFEF7D2F841EC100BCC
:108F780003F0AAF903F0A8F921A3D3E9002351ECDF
:108F8800100BFDF765FFFEF713FC019B18607FE6E9
:108F9800BBF9443006EE903AF8EEE66AF4EEE76A7A
:108FA800F1EE10FA10DCBBF9463007EE103AB8EED5
:108FB800C77AB4EEE77AF1EE10FA07DD28EE2C8ACC
:108FC800B0EE667A0223BDE70123BBE728EE0C8AE0
:108FD8000323B7E70DB0BDEC108BBDE8F08FFEF7AB
:108FE80097F8099BB3F95A3207EE903A0446F8EE1F
:108FF800E77A0D461BE600BF8DEDB5A0F7C6B03E7B
:1090080066666666661271400000F03F70B521F42E
:10901800006384B023B16FF00105284604B070BD29
:109028000C460DF10603012241F2F411064600F048
:1090380017FB051EF1DBBDF8061021F400610C4397
:109048002E22A4B28DF809201121F422230A8DF8CA
:109058000A108DF80B2002A906223A2530468DF811
:1090680008508DF80C30ADF806408DF80D4000F032
:1090780031FB05460F2000F043FB284604B070BDC5
:1090880070B521F4807384B023B16FF001052846D0
:1090980004B070BD0C460DF10603012241F2F41133
:1090A800064600F0DDFA051EF1DBBDF8061021F4D6
:1090B80080710C432E22A4B28DF809201121F422CC
:1090C800230A8DF80A108DF80B2002A906223A25EA
:1090D80030468DF808508DF80C30ADF806408DF804
:1090E8000D4000F0F7FA05460F2000F009FB28466E
:1090F80004B070BD00B583B00DF10603012243F63C
:10910800144100F0ADFA0028A4BFBDF80600C0F372
:10911800002003B05DF804FB10B582B001AB01225A
:1091280043F22C41044600F09BFA00280DDB0DF1B8
:109138000603012243F61441204600F091FA002864
:10914800A4BFBDF80600C0F3002002B010BD00BFE8
:1091580000B583B00422002101234FF0800C8DF864
:1091680006100DEB02018DF804308DF805C08DF85E
:10917800073000F0AFFA03B05DF804FB70B51E4687
:1091880015460B46142242F60261044600F068FABE
:10919800002813DB2B464FF4407242F62A61204622
:1091A80000F05EFA002809DB3346204640F201321F
:1091B800BDE8704043F22C4100F052BA70BD00BFC8
:1091C800014801F0F1BC00BF4C4A0020012919D028
:1091D80010B52A4B1B78013B0446212B18D8DFE831
:1091E80003F0231717171717171717171717171736
:1091F80017172B31383F1717171717171717171780
:10920800171717451E494FF00073082201F048BC94
:109218001C4B00221A70012220461A49BDE8104052
:109228004FF0007301F0B8BB164B17490122C3E990
:1092380000121A810A22EFE700F010FB114B0122FD
:109248001870E9E7114B0F49187800F043FB20220A
:10925800E2E70E4B0B49187800F092FB2022DBE77F
:109268000B4A084B12781A700122D5E700F01EF954
:10927800044B40BA18800222CEE700BF0400002049
:1092880098000020A0000020000303CB94000020D9
:10929800504B002030B5438D9BB2D3F1080483B006
:1092A80001D103B030BD00F051FE574D574B022C91
:1092B80018602B785AD0012C61D0022B6AD0203B41
:1092C800DAB2122AEDD8122BEBD801A252F823F009
:1092D8005F930008AB920008AB920008AB920008BD
:1092E800AB920008AB920008AB920008AB92000862
:1092F800AB920008AB920008AB920008AB92000852
:10930800AB920008AB920008AB920008AB92000841
:10931800499300083593000825930008022CC0D112
:10932800687803B0BDE8304000F076BD042CB8D1B1
:10933800EA78A978687803B0BDE8304000F036BD17
:10934800042CAED16988687849BA89B203B0BDE8FF
:10935800304000F005BD032CA3D1B5F8010040BA98
:1093680080B203B0BDE8304000F064B8A3F1120247
:10937800012A39D9142B3DD0022BA0D191E7244AD8
:10938800102B13703AD0212B8BD103B0BDE830409D
:1093980000F06EB8052C84D16B78B02B81D1AB78F6
:1093A800072B7FF47EAFEB781D2B7FF47AAF2B79F8
:1093B8005A2B7FF476AF00F047FD0023154A01933E
:1093C80002E0019B01330193019B9342F9D9BFF35A
:1093D8004F8F1149114BCA6802F4E0621343CB6006
:1093E800BFF34F8F00BFFDE709480D4A6978037046
:1093F800117056E70B4B6A781A7052E703B0BDE854
:10940800304000F0B9B900BF98000020900000205B
:1094180004000020FFE1040000ED00E00400FA056C
:1094280094000020504B0020704700BF01F0BCBBE7
:1094380001F0BABB00B5844685B00B488DF80EC064
:109448004FEA1C213223012200938DF80C20A0F84A
:1094580000C08DF80D10032303AA9021034801F0E2
:10946800E9F805B05DF804FB06000020A04A0020DA
:1094780000B50C4A118885B041F40041080A32232E
:109488004FF0010C00938DF80D008DF80E1003239A
:1094980003AA902104488DF80CC001F0CBF805B060
:1094A8005DF804FB06000020A04A002010B584B037
:1094B800002132248DF80B100C48009401230DF183
:1094C8000B02902101F0B6F810B1002004B010BDD5
:1094D80006480094022303AA902101F08FF900287E
:1094E800F3D1BDF80C00C0BA04B010BDA04A0020EA
:1094F80000B585B032234FF0060C00930DF10F0232
:109508000123002105488DF80FC001F093F80038B9
:1095180018BF0120404205B05DF804FBA04A0020B6
:1095280000B585B094460A0A8DF80C2032234FEA1C
:109538001C228E46009341008DF80E20042303AAB6
:1095480007488DF80DE08DF80FC001F073F800287A
:1095580014BF6FF00100002005B05DF804FB00BFE8
:10956800A04A002000B585B032234FF0060C0093C6
:109578000DF10F020123002105488DF80FC001F0FD
:1095880059F8003818BF0120404205B05DF804FBC7
:10959800A04A00202DE9F04184B046003227080A8D
:1095A80014461D468DF808008DF8091014480097D8
:1095B800022302AA314601F03DF8C0B9E4B1013CEA
:1095C800A3B2DFF83C80AC1E05EB430506E0BDF80E
:1095D8000C305BBA24F8023FA5420DD00097022355
:1095E80003AA3146404601F009F90028EFD04FF0B0
:1095F800FF3004B0BDE8F081002004B0BDE8F08180
:10960800A04A002070B584B015460A0A06463223DF
:109618008DF80C202A0A0C4600938DF80D108DF851
:109628000E200E488DF80F50042303AA710001F094
:1096380001F878B90DF10A03012221463046FFF7F7
:10964800A9FF38B9BDF80A30AB4218BF6FF0010066
:1096580004B070BD4FF0FF30FAE700BFA04A002009
:109668002DE9F04184B046003227080A14461D4609
:109678008DF808008DF8091014480097022302AAF3
:10968800314600F0D7FFC0B9E4B1013CA3B2DFF81E
:109698003C80AC1E05EB430506E0BDF80C305BBA18
:1096A80024F8023FAC420DD00097022303AA3146AA
:1096B800404601F0A3F80028EFD04FF0FF3004B087
:1096C800BDE8F081002004B0BDE8F081A04A002088
:1096D800FFF7C6BF00B583B0844613463222009216
:1096E80006480A464FEA4C0100F0A4FF003818BFAC
:1096F8000120404203B05DF804FB00BFA04A0020EF
:1097080000F02ABC08B5174B1B78012B04D0022B9C
:109718001BD0032B0CD008BD13493320FEF76AFC7D
:109728000028F8D1BDE8084010490F48FEF74CBDA5
:109738004FF400616620FFF769FC0028EBDBBDE809
:10974800084000216620FFF79BBC09493320FBF73E
:1097580079FE0028DFD1BDE8084006490448FDF736
:10976800D1BA00BF504B00204007002048200020FD
:10977800C0000020AC37002038B52D4B1C78012CD8
:1097880004D0022C34D0032C22D038BD294D3320EC
:109798002C70FEF737FC002817DB27493320FEF72B
:1097A80061FC002811DB25492348FFF7C1F8F2EED8
:1097B800000A70EE600A224A9FED220A1F491E48DD
:1097C800FFF71AF902232B7038BDFF232B7038BD21
:1097D8001D4C012366202370FFF79EFC002804DB44
:1097E8006620FFF7B5FC0028CFDAFF23237038BDC9
:1097F800164D012333202B70FBF74EFE0028E4DBC7
:1098080013493320FBF7BCFE0028DEDB1149104862
:10981800FCF74CF8F2EE000A70EE600A0E4A9FED73
:10982800090A0C490A48FCF7B5F82C7038BD00BF86
:10983800504B0020C0190020C419002048200020E7
:10984800C00D00203333733F443E0020C435002050
:10985800C8350020AC370020C432002038B5164B7C
:109868001B78012B06D0022B08D0032B0AD0FF242B
:10987800204638BD114B1C78204638BD104B1C784B
:10988800204638BD0F4D2C78012CF1D16620FFF70A
:1098980031FC00280CDB0128EAD10B4B0B4A0C49A0
:1098A8006620FFF76BFC002802DB02242C70DFE740
:1098B800FF242C70DCE700BF504B0020C0190020AB
:1098C800C4350020443E0020483E00204C4400207F
:1098D8001C3E0020264B1B78012B8C4608D0022BFF
:1098E8001BD0032B2ED020220021604603F0E6BCBB
:1098F8002F28F8D81F4901EB4011002302390CF139
:10990800010031F8022F120A0CF813200A8800F817
:1099180013200133102BF4D170470B28E3D81649D4
:1099280001EB4011002302390CF1010031F8022F3C
:10993800120A0CF813200A8800F813200133102BA0
:10994800F4D170472F28CED80C4901EB40110023E1
:1099580002390CF1010031F8022F120A0CF8132019
:109968000A8800F813200133102BF4D1704700BF88
:10997800504B0020C4190020C83500204C4400205A
:1099880010B54D4B1B78012B8C460AD0022B3FD0CB
:10999800032B6DD0BDE8104020220021604603F063
:1099A8008DBC2F28F6D8454BDFED456A9FED457AEB
:1099B8009FED456A03EB801E002201310DE0FDEEAC
:1099C800E77A17EE903AC3F30720DBB20CF81200DF
:1099D80001F812300132102A19D0FEEC017A67EE34
:1099E800A67AFF23F4EEC77AF1EE10FA4FF07F0063
:1099F800ECDCF4EEC67AF1EE10FAE0D50023802014
:109A08000CF8120001F812300132102AE5D110BD0D
:109A18000B28BFD82D4BDFED2A6A9FED2A7A9FEDE0
:109A28002A6A03EB801E002201310DE0FDEEE77A81
:109A380017EE903AC3F30720DBB20CF8120001F8D6
:109A480012300132102AE2D0FEEC017A67EEA67AD3
:109A5800FF23F4EEC77AF1EE10FA4FF07F00ECDC4A
:109A6800F4EEC67AF1EE10FAE0D500238020E4E7A0
:109A78002F288FD8164A02EB40100023A0F1020EBF
:109A880001310CE012F5004F13DBC2F30724D0B20A
:109A98000CF8134001F813000133102BB7D03EF92E
:109AA800022F5200B2F5004F4FF0FF00EADB7F248F
:109AB800EEE700208024EBE7504B0020C00D00208B
:109AC8000000C84200FEFF46000000C7C432002064
:109AD800483E0020014801F07BB800BF4C4A0020F6
:109AE800014801F0A1BB00BF4C4A002080B55C4B87
:109AF8005C4A9A6090B000F017FA2022002107A86B
:109B080003F0DCFB0127102300250224CDE90A73AA
:109B180006A84FF46013544E0D94CDE905540F93E5
:109B2800CDE90155CDE9035501F0EEFB0F232146A0
:109B3800019301A84FF4806302940493039505955B
:109B480001F012FF73694948494C43F4802373615B
:109B58007369089503F480234FF0030801934FF0CD
:109B6800120AC0234FF0040906A9019A0693CDF8FA
:109B78002480CDF81CA0CDF8289000F09DFA4FF471
:109B880040633A48069306A9CDE90858CDF81CA0C9
:109B9800CDF8289000F090FA40F2E733A360204611
:109BA800344BC4F804802360DFF8E08001F07AFBCE
:109BB8003148324B4561C0E900388423C0E9037558
:109BC800C0E90755836000F0DBFC00B1FEE7F369EC
:109BD80043F40013F361F36903F4001305460246E6
:109BE800394600931F20009B00F0DAF91F2000F08F
:109BF80015FA2A463946202000F0D2F9202000F034
:109C08000DFA1F481F4B4561C0E90185C0E903757E
:109C1800C0E90755036000F0B3FCF3691A4D43F43B
:109C28008003F361F36903F480030693069B00F055
:109C38002FF8FFF767FDFFF7C3FA204601F05EFB38
:109C480000F026F900F082F92B68C01AB0F57A7F87
:109C580001D900F0F9F8012000F07EF9EDE700BF26
:109C680000ED00E000500008001002400004004829
:109C7800F44A0020003000404C4A002000540040C4
:109C8800A04A002000580040900000200E09002043
:109C98002E4B30B59A6942F400629A619A698FB086
:109CA80002F400620092009A5A6942F400325A6142
:109CB8005B6903F4003301934FF4706202230025BB
:109CC800CDE9022302A9032206234FF09040CDE9F3
:109CD8000523019C049500F0EFF91D4B1D4A1B68F4
:109CE8001D4C1E49A2FB03239B0C013BC4E9001336
:109CF80040F2E73280232046C4E90252A361C4E956
:109D0800045502F067F960232A4607A92046CDE9E1
:109D18000735CDE90955CDE90B550D9502F0CCF97C
:109D280007A90422204602F0C7F907A908222046FD
:109D380002F0C2F90C2207A9204602F0BDF92268F8
:109D4800536C43F4004353640FB030BD001002401D
:109D58000000002083DE1B43044B0020002C014040
:109D680003281BD8D1B110B40D4C0023DAB29042AD
:109D780001D0E25C7AB90133042BF7D1094A0A4BC6
:109D8800B3FBF1F14FF6FF7401391068A14228BF07
:109D98002146C162D1605DF8044B7047704700BF2F
:109DA800544B0020044B002040420F00032827D8C2
:109DB80038B5154B15461A686429D36A28BF64213B
:109DC80003FB0111114B0328A3FB013104464FEAA1
:109DD800511302D113640C2109E0810008B95363BF
:109DE80005E004290DD008290CBFD363D3650648C4
:109DF80002F088F80649074B0D5501221A5538BD5F
:109E080070479363F3E700BF044B00201F85EB51B5
:109E1800584B0020544B002003280ED818BF81004F
:109E280010B508BF0C210446044802F06DF8044937
:109E3800044A00230B55135510BD7047044B0020EE
:109E4800584B0020544B0020F8B50E4F0E4E0F4DC6
:109E580000213846002402F057F8042138463470AF
:109E68002C7002F051F80821384674706C7002F0BA
:109E78004BF80C213846B470AC7002F045F8F47019
:109E8800EC70F8BD044B0020584B0020544B0020C8
:109E98002DE9F04100240E4DDFF83C800D4F264699
:109EA8002B5D2BB12B5D013BDBB22B552B5D23B119
:109EB8000134042CF4D1BDE8F081032C14BFA100B7
:109EC8000C21404602F020F82E553E55F0E700BF21
:109ED800584B0020544B0020044B0020704700BF13
:109EE80038B50E4A0E4B12781B6805464FF47A7047
:109EF800B0FBF2F0B3FBF0F000F09EF808B90F2DBC
:109F080001D9012038BD0446024629464FF0FF30EA
:109F180000F046F8034B20461D6038BD08000020BD
:109F2800000000200C000020074A08B5136843F021
:109F380010031360032000F021F80F20FFF7D0FF73
:109F4800FFF7CCFF002008BD00200240014B186835
:109F5800704700BF5C4B002038B50446FFF7F6FF9A
:109F6800631C054602D0044B1B781C44FFF7EEFF28
:109F7800431BA342FAD338BD080000200749CA682A
:109F880003024FF6FF0003F4E0630240134343F07B
:109F9800BF6343F40033CB60704700BF00ED00E0BF
:109FA8001C4BDB68C3F3022300B5C3F1070EBEF1F7
:109FB800040F03F1040C28BF4FF0040EBCF1060F88
:109FC8001BD9033B4FF0FF3C0CFA03FC22EA0C02BE
:109FD8004FF0FF3C0CFA0EFC21EA0C0199400028D6
:109FE80041EA02010CDB00F16040090100F5614023
:109FF800C9B280F800135DF804FB00221346E7E7B6
:10A00800054B00F00F0009010344C9B219765DF849
:10A0180004FB00BF00ED00E0FCEC00E0002808DBDA
:10A02800044A4109012300F01F0003FA00F042F836
:10A038002100704700E100E00138B0F1807F10D2C4
:10A0480010B44FF0E023084C58614FF0F00C84F83E
:10A0580023C00022072110469A615DF8044B19615C
:10A0680070470120704700BF00ED00E090F8212004
:10A07800022A03D004228263012070470268116813
:10A0880021F00E0110B5C46B1160116821F00101B7
:10A098001160026C01219140426B61604FF4807C39
:10A0A800A0F820C012B19047002010BD104610BD86
:10A0B80090F82100704700BF2DE9F04F0C6885B07B
:10A0C800002C7ED04FF0000CDFF8BCA163464FF0A7
:10A0D800010B89460BFA03F515EA04086BD0D9F889
:10A0E800047007F00302511E01296DD9032A40F0BC
:10A0F800AC8002FA0CF2D143056829400A4317F4F0
:10A10800403F026057D0DAF8182042F00102CAF83E
:10A118001820DAF8182002F001020392039A23F0BB
:10A12800030202F1804202F5803203F003019568D0
:10A1380089000F2606FA01FEB0F1904F25EA0E05B8
:10A1480015D04C4EB04200F08B804B4EB04200F020
:10A158008B804A4EB0427DD0494EB0420BBF4FF083
:10A16800040E05260EFA01F106FA01F10D43956079
:10A17800444A444992686FEA0805FE0254BF2A40DF
:10A1880048EA02028A60CA68B9023E4954BF2A40B6
:10A1980048EA0202CA6049683A4ABE0354BF2940E5
:10A1A80048EA010151601268F903364954BF2A4050
:10A1B80048EA02020A60013334FA03F20CF1020C95
:10A1C80088D105B0BDE8F08F8168D9F80C604FF0F0
:10A1D800030E0EFA0CFE21EA0E0106FA0CF63143C4
:10A1E80081606FEA0E01D0F804E02EEA050EC7F38D
:10A1F80000159D4045EA0E054560C56805EA010E53
:10A20800D9F8085005FA0CF545EA0E05022AC5608A
:10A2180002FA0CF27FF470AFDD0800EB85050195BA
:10A228002E6AD9F81050009603F0070E4FEA8E0EEA
:10A238000F2605FA0EF506FA0EFE009E26EA0E0E09
:10A24800019E45EA0E05356256E7032101FA0CF135
:10A25800C943D2E74FF0030E0EFA01F10D4386E72A
:10A268000BFA01F10D4382E74FF0020E0EFA01F1ED
:10A278000D437CE70004004800080048000C004833
:10A28800001000480004014000100240F8B50368BF
:10A298009D6915F01005064640D0174610220C4659
:10A2A800DA619A69950604D4621C4DD19A699706B9
:10A2B800FCD52022DA6100259A69D40545F0040509
:10A2C8004FF001002ED4510539D54FF48061D96182
:10A2D80045F00805970504D54FF4007245F00205CE
:10A2E800DA619A69910744BF00229A629A69D20793
:10A2F80003D49A6942F001029A615A6826490A40D1
:10A308005A60736C00221D432023756486F8402030
:10A3180086F8413086F842200120F8BD9A69D405B4
:10A328002846D0D54FF480715005D96145F0010514
:10A33800D0D54FF48061D96145F00805CAE7940586
:10A34800CAD40028CDD1F8BDFFF700FEC01BA0423B
:10A35800336801D8002CA4D1586896F8422099692E
:10A368000D04D2B20BD5410409D4202A07D05A686B
:10A3780042F480425A60FFF7E9FD3368074699695D
:10A388008A068ED4FFF7E2FDC31B192B3368F6D972
:10A398009A69202590E700BF00E800FE70B50368C1
:10A3A80004460D46164605E0FFF770FF50B96A1CD3
:10A3B8000AD123689B699B07324629462046F3D574
:10A3C800002070BD012070BDFFF7C0FD801BA842B2
:10A3D800236801D8002DEDD19A6912F00202E9D163
:10A3E800636C84F8402020210B43636484F8411097
:10A3F80084F84220012070BD2DE9F041DDF8188075
:10A408001D46044603680F46164605E0FFF73EFF63
:10A4180080B96B1C11D123689B6937EA03030CBF11
:10A4280001230023B342424629462046EED00020AD
:10A43800BDE8F0810120BDE8F081FFF787FDA0EBC2
:10A448000800A842236801D8002DE5D19A6937EAA7
:10A4580002020CBF01220022B242DDD1636C00224D
:10A4680043F020032021636484F8402084F84110DD
:10A47800012084F84220DBE703689B699B0629D406
:10A4880070B505460C4616460DE0FFF75FFD801BCC
:10A49800A042296800D81CB98B6913F020030DD09D
:10A4A8008B699B0608D4324621462846FFF7EEFE04
:10A4B8000028EAD0012070BD002070BD6A6C85F8C4
:10A4C800403020210A436A6485F8411085F84230FB
:10A4D800012070BD0020704703689B6970B5044671
:10A4E80058070D46164631D4324629462046FFF70E
:10A4F800CDFE2368E8B99A6991061DD59A699A69CB
:10A5080012F0100217D0202110250422DD616264A8
:10A51800D9615A68184D2A405A6084F8411084F865
:10A52800400084F84200FFF711FD236801209B6971
:10A5380070BD9B69F7E76264FFF708FD801B8542E1
:10A5480006D32DB123689B695B07CDD5002070BD6C
:10A558002268936913F0040303D093695A07C3D59B
:10A56800F4E7616C84F8403020200143616484F88A
:10A5780041009369012070BD00E800FE704700BFEC
:10A58800002854D010B590F84130044603F0FF027B
:10A59800002B47D02368242284F841201968626878
:10A5A80021F0010122F0706219601A619A68E1686D
:10A5B80022F4004201299A60A26809D042F40442B8
:10A5C80002299A6007D15A6842F400625A6006E08C
:10A5D80042F400429A605A6822F400625A6059684C
:10A5E800226941F0007141F4004159606169D868FD
:10A5F8000A43A16920F4004042EA0122E169D860D7
:10A60800206ADA6001431960196841F00101196094
:10A6180000222023626484F84130226384F84220B7
:10A62800104610BD80F84020FFF7A8FFB2E70120D0
:10A63800704700BF2DE9F047994690F8413082B045
:10A64800202B0A9E40F0958090F84030012B04465C
:10A6580000F08F804FF0010A80F840A08846174626
:10A66800FFF774FC52460546009019234FF4004149
:10A678002046FFF7C1FE002877D1212384F8413016
:10A68800102384F842306064A4F82A90638D6762CE
:10A698009BB2FF2B606370D8638D9BB22385002B20
:10A6A80040F09B802168514A4B681A40C8F309035F
:10A6B800134343F0007343F400534B60C8F3090796
:10A6C800638D9BB2002B3CD0DFF82881DFF82891FE
:10A6D80003E0638D9BB2002B33D02A4631462046D7
:10A6E800FFF75CFE002840D1616A236811F8012B4E
:10A6F8009A62638D228D6162013B9BB26385638D93
:10A70800013A92B29BB22285002BE2D0002AE0D116
:10A718000095334680212046FFF76EFE28BB638DE7
:10A728009BB2FF2B4AD92268FF232385536803EA8B
:10A7380008033B4343EA09035360638D9BB2002B34
:10A74800CBD12A4631462046FFF796FE68B92368E2
:10A75800274D2021D9615A682A405A6084F841104F
:10A7680084F8400084F8420000E0012002B0BDE80F
:10A77800F087022002B0BDE8F087FF2323854FF45D
:10A788007F0EFE214FF0807C206817F8013B836222
:10A79800628D6762013A92B262854368134A2185E5
:10A7A8001A40C8F3090343EA0E03134343EA0C03B0
:10A7B80043F400534360C8F3090781E7638D2168B8
:10A7C8009BB24A682385DBB247EA034302EA0802E0
:10A7D800134343F000734B607BE7013B99B24B1C7A
:10A7E800DBB24FEA034E4FF0007CCDE7009800FC47
:10A7F80000E800FE009C00FC0000FF012DE9F04786
:10A80800984690F8413082B0202B0A9E40F09780FD
:10A8180090F84030012B044600F091804FF0010A77
:10A8280080F840A00F469146FFF790FB1923054694
:10A83800009052464FF400412046FFF7DDFD002806
:10A8480079D1222384F84130102384F8423060649F
:10A85800A4F82A80638DC4F824909BB2FF2B606310
:10A8680071D8638D206848499BB22385DAB2436862
:10A878001940C7F3090343EA02430B4343F000734B
:10A8880043F410534360C7F30907638D9BB2002B51
:10A898003DD0DFF8FC80DFF8FC9003E0638D9BB2CD
:10A8A800002B34D02A4631462046FFF715FE0028F3
:10A8B80041D12268636A526A1A70638D228D616A77
:10A8C800013B9BB26385638D013A92B201319BB221
:10A8D80061622285002BE1D0002ADFD10095334642
:10A8E80080212046FFF788FD28BB638D9BB2FF2B94
:10A8F8003AD92268FF232385536803EA08033B43B8
:10A9080043EA09035360638D9BB2002BCAD12A46E0
:10A9180031462046FFF7B0FD68B923681B4D20215A
:10A92800D9615A682A405A6084F8411084F8400076
:10A9380084F8420000E0012002B0BDE8F087022060
:10A9480002B0BDE8F08721680F4A4B68A4F828A038
:10A958001A40C7F30903134343F0807343F4923357
:10A968004B60C7F3090790E7638D21689BB24A687B
:10A978002385DBB247EA034302EA0802134343F0A4
:10A9880000734B608AE700BF009800FC00E800FEF7
:10A99800009C00FC0000FF0130B5044690F841001F
:10A9A80000F02800282885B03AD100293BD0002A99
:10A9B80039D0256894F84100286820F0FA0028600A
:10A9C80094F84000012834D094F841004FF0010C6D
:10A9D8002A2884F840C02ED0292084F8410020205D
:10A9E80084F8420000206064686820F400406860D1
:10A9F8006285608DE3626162A969AB69264A626318
:10AA0800DA03208503D50B0744BF0823EB61002038
:10AA180084F840002B6843F0FA032B6005B030BD82
:10AA2800012005B030BD4FF400730120636405B008
:10AA380030BD0220F5E794F8410000F028002828EE
:10AA480028680CBF6FF0440C6FF0F40C00EA0C009F
:10AA5800286028680004BFD5286820F400402860D2
:10AA6800E06B0028B8D00D4D4563CDE90223019174
:10AA7800FFF7FCFADDE90112039B08B92568ABE78B
:10AA8800E06B0191456BCDE90223A847DDE902237C
:10AA980025680199A0E700BFE1B0000859AD00089A
:10AAA80030B5044690F8410000F02800282885B009
:10AAB8003AD100293BD0002A39D0256894F84100C2
:10AAC800286820F0FC00286094F84000012859D03C
