:020000040800F2
:1080000000A0002025C7000875C7000875C7000834
:1080100075C7000875C7000875C700080000000094
:1080200000000000000000000000000075C700080C
:1080300075C700080000000075C7000875C7000874
:1080400075C7000875C7000875C7000875C7000820
:1080500075C7000875C7000875C7000875C7000810
:1080600075C7000875C7000875C7000875C7000800
:1080700075C7000875C7000875C7000875C70008F0
:1080800075C7000875C7000875C7000875C70008E0
:1080900075C7000875C7000875C7000875C70008D0
:1080A00075C7000875C7000875C7000875C70008C0
:1080B00075C7000875C7000875C7000875C70008B0
:1080C00075C7000875C7000875C7000875C70008A0
:1080D00075C7000875C7000875C7000875C7000890
:1080E00075C7000875C7000875C7000875C7000880
:1080F00075C7000875C7000875C7000875C7000870
:1081000000000000000000000000000075C700082B
:1081100075C7000875C7000875C7000875C700084F
:1081200075C7000875C7000875C7000875C700083F
:1081300075C7000875C700080000000000000000B7
:1081400075C7000875C7000875C700080000000063
:10815000000000000000000000000000000000001F
:10816000000000000000000075C7000875C7000887
:1081700075C70008000000000000000000000000BB
:088180000000000075C70008B3
:108188000348044B834202D0034B03B1184770479E
:108198001400002014000020000000000548064BD1
:1081A8001B1AD90F01EBA301491002D0034B03B1ED
:1081B8001847704714000020140000200000000039
:1081C80010B5064C237843B9FFF7DAFF044B13B117
:1081D8000448AFF300800123237010BD180000206D
:1081E8000000000030F5000808B5044B1BB1044935
:1081F8000448AFF30080BDE80840CFE70000000066
:108208001C00002030F5000853B94AB9002908BFFE
:1082180000281CBF4FF0FF314FF0FF3001F03AB992
:10822800ADF1080C6DE904CE00F006F8DDF804E0C5
:10823800DDE9022304B070472DE9F047089D0E469A
:1082480004460F46002B4AD194468C45B2FA82F276
:1082580060D942B1C2F12003974020FA03F30CFA27
:1082680002FC1F4394404FEA1C4E1FFA8CF6B7FBE2
:10827800FEF1230C0EFB117743EA074301FB06F0DE
:1082880098420AD91CEB030301F1FF3780F01581EE
:10829800984240F21281023963441B1AA4B2B3FB1C
:1082A800FEF00EFB103344EA034400FB06F6A64238
:1082B8000AD91CEB040400F1FF3380F00081A642C8
:1082C80040F2FD806444023840EA0140A41B0021CA
:1082D8001DB1D4400023C5E90043BDE8F0878B42B7
:1082E80005D90DB1C5E9000100210846F5E7B3FA43
:1082F80083F1002946D1B34202D3824200F2F580CD
:10830800841A66EB030201201746002DE5D0C5E963
:108318000047E2E7002A40F09380A1EB0C034FEA04
:108328001C471FFA8CFE0121B3FBF7F607FB16303A
:10833800230C43EA00430EFB06F0984208D91CEBD5
:10834800030306F1FF3802D2984200F2D080464675
:108358001B1AA4B2B3FBF7F007FB103344EA03443B
:108368000EFB00FEA64508D91CEB040400F1FF3300
:1083780002D2A64500F2B6801846A4EB0E0440EAE5
:108388000640A5E7C1F120078B4022FA07FC4CEA1A
:10839800030C06FA01FE20FA07F426FA07F344EA6A
:1083A8000E0400FA01F84FEA1C404FEA1449B3FBE7
:1083B800F0FE1FFA8CF600FB1E3349EA03430EFB5E
:1083C80006F9994502FA01F20BD91CEB03030EF1E9
:1083D800FF3A80F08580994540F28280AEF1020E26
:1083E8006344A3EB0909A4B2B9FBF0F300FB1399AA
:1083F80044EA094403FB06F6A64208D91CEB040428
:1084080003F1FF3068D2A64266D9023B644443EACE
:108418000E40A41BA0FB02E6B4427346B14652D3F9
:108428004FD05DB1B8EB030264EB090404FA07F717
:1084380022FA01F31F43CC40C5E9007400214CE740
:10844800C2F1200120FA01F30CFA02FC26FA01F12C
:10845800964033434FEA1C471FFA8CFEB1FBF7F0F6
:1084680007FB1016190C41EA064100FB0EF68E4276
:1084780004FA02F408D91CEB010100F1FF382DD2EF
:108488008E422BD902386144891B9BB2B1FBF7F6A7
:1084980007FB161143EA014306FB0EF1994208D97E
:1084A8001CEB030306F1FF3814D2994212D9023E9D
:1084B80063445B1A46EA004136E73946EDE618465A
:1084C80002E7F045ADD2BEEB020366EB0C060138BD
:1084D800B146A6E74646ECE7034698E74046D3E7A9
:1084E800D6467EE76444023847E708460DE7023E71
:1084F80063442DE703685A004CBF43F0004323F060
:1085080000431844704700BF2DE9F04759B301F103
:10851800FF380546164647464FF0000A0AEB0701A2
:1085280001EBD171491005EBC1094846FFF7E2FF9D
:1085380088454FEAC104034610D004F10800B3424D
:10854800284407D8FFF7D6FF0138B04208D201F116
:10855800010AE3E78A4506D04F1EDFE7B042F9D8A3
:108568004846BDE8F0874FF000094846BDE8F08767
:10857800012809D0022805D0044B00280CBF184652
:10858800002070470248704702487047558C000821
:108598005D8C0008598C000830B5224B83B0044626
:1085A8008D1E43B301A92846AFF30080F0B10199AD
:1085B8002A46FFF7A9FF0146C0B1FFF79BFF4B68AA
:1085C800A064012B2BD0002B01F1040025DBFFF761
:1085D80091FF002323650368E064002B12DBFFF79B
:1085E80089FF03460020236103B030BD0023092022
:1085F800236103B030BD0C4B0C49C91AC910184689
:108608000191D5E7C3F30360FFF7B2FF031E0CBF68
:1086180009200020236103B030BD0123DAE70023DD
:108628000520E0E700000000A01201086814010816
:108638000368DA0710B5044606D49B0700F150001A
:1086480009D500F095FC2368590709D51A070ED5F6
:10865800DB0613D510BD00F083FC23685907F5D459
:1086680004F1D80000F08CFC23681A07F0D404F554
:10867800AC7000F08DFC2368DB06EBD404F5EC70DD
:10868800BDE8104000F0C8BC0346006800B11844BB
:10869800704700BF09207047704700BF70B5044697
:1086A8000E46316C2046FFF777FF054688B9326CD5
:1086B8006261236932462146012098470828F0D094
:1086C800072806D12846316CFFF7E6FF301D00F079
:1086D8003BFCFFDE2DE9F04701F1040CC768D0F838
:1086E800188006469146BCE80F00ADF5767D03ACD0
:1086F8000FC4BCE80F000FC4BCE80F000FC49CE80F
:108708000F0002AD4FF0000E84E80F00C5F800E03E
:1087180021E02B6C73614FF4F47229467CA800F0B9
:108728000DFF33697CAA3146504698478A9BAB6453
:108738004946CDE900588246334601203246B847BB
:10874800814630BB4FF4F4727CA9284600F0F6FE4F
:10875800BAF1080F1AD1296C3046FFF71DFF09F14D
:10876800090904465FFA89FA0028D2D0AB6BAB64DA
:108778003246CDE9005833464AF010010120B84787
:1087880038B920460DF5767DBDE8F087BAF1070FB8
:1087980005D0092420460DF5767DBDE8F0874846CA
:1087A800296CFFF779FF03A800F0CEFB806C7047B7
:1087B800F0B5CB6B0B6401F1040C0E460546BCE822
:1087C8000F00FBB001AC0FC4BCE80F000FC4BCE83D
:1087D8000F000FC49CE80F004FF0FF3784E80F002C
:1087E800009706E02B696A462946984708280446F8
:1087F80008D110992846FFF7CFFE0028F2D00920AB
:108808007BB0F0BD6846FFF713FF062CF7D1314661
:108818002846FFF743FF00BFC160D96B8261196426
:108828000022194656E700BF70B5C66843690B6455
:10883800AEB903690A4604460D4601460220984728
:10884800072805D008280ED129462046FFF726FF1D
:108858003046296CFFF720FF281D00F075FB012228
:10886800FFF738FFFFDEFFDEC2681AB1CA6B0A6481
:1088780000222FE79CE700BF704700BF83680146CE
:108888000BB1012018477047052915D8DFE801F01A
:108898000A031403030501207047009A436C136010
:1088A8000020704743B90F2A06D800EB8202002047
:1088B8005368009A136070470220704700B585B06E
:1088C8000A46002303A900911946FFF7DDFF039824
:1088D80005B05DF804FB00BF052915D8DFE801F0F5
:1088E8000A031403030501207047009B1B684364B7
:1088F8000020704743B90F2A06D8009B00EB82027C
:108908001B685360002070470220704710B584B080
:10891800002303AC039200940A461946FFF7DCFFD4
:1089280004B010BD70B5D36B136402F1040C054696
:108938000C46BCE80F00ADF5107D0DF15C0EAEE8FD
:108948000F00BCE80F00AEE80F00BCE80F00AEE86F
:108958000F009CE80F004FF0FF368EE80F001696C8
:1089680010E0FFF7D3FF214616A8A847034616AA2A
:108978000820694683B9049B9847052806460CD009
:10898800092809D026996846FFF706FE03460C21F8
:108998006A4616A8002BE4D0092616A8FFF748FE59
:1089A80030460DF5107D70BD2DE9F04F1646CA6CA6
:1089B80089B00D4652F8041B069200F0030C002BF8
:1089C80079D00C0C8DF81D400904E4B2059102EB36
:1089D800840202218DF81C10296DBCF1020F08BF1A
:1089E800AA6B11F0010809D005A9304600F0AEFBCA
:1089F800002856D1082009B0BDE8F08F1768002F6D
:108A0800F2D000F00801CDE90118E3469A46BAF120
:108A1800020F4CD01788548802F10409AA6C24F07C
:108A280001030F21304603EB0208FFF747FF80459B
:108A38003BD827F0010202EB0803834294BF0023CE
:108A48000123640004F0020407F001072743012F03
:108A58004ED0022F35D027BBBBF1000F02D0002B20
:108A680040F0D38009F104021768002FCFD105A97F
:108A78003046DDF8088000F069FB90B9B8F1000FC6
:108A8800B8D00F213046FFF719FF0E2102463046B5
:108A9800FFF73CFF6C4A0F213046FFF737FF0720EE
:108AA80000E0092009B0BDE8F08F0023C9E7546849
:108AB80002F10809B2E7090205918DF81D3003217A
:108AC80088E7D9F8004024F00048BBF1000F47D1EF
:108AD8002BB1019B002B5CD0B8F1000F59D0002CB2
:108AE80001DA09F1040908F1010209EB8202BBE786
:108AF800BBF1000F1CD1C3B1D9F80430D9F800205C
:108B0800991C4FEAD272CCD005F158040133049471
:108B180000F08E8009F10400FFF7B6FD04AB0146B2
:108B28002846AFF30080002859D109F108029BE7D5
:108B38000D213046FFF7C2FE2C6A8442F5D1AB6A9C
:108B48009945F2D14846FFF7D5FC0F210246304639
:108B5800FFF7DCFE2A4600213046FFF7D7FE9EE7E6
:108B68000D213046FFF7AAFE2F6A8742B7D1AB6ABC
:108B78009945B4D100240423C5E90B434B44C5F8F7
:108B880028806B63D9F80030A34258DB0123029395
:108B9800A9E705F15803CDF80CB009F10407B3466D
:108BA80000241E460BE038460496FFF76DFD0022B0
:108BB800014604AB2846AFF300800437F8B94445B2
:108BC80004F10104EFD10D215846FFF777FE049B0D
:108BD800C5F828900246C5E90823062062E704463E
:108BE8000D213046FFF76AFE049E2862022C04BF5E
:108BF800EE6205F12C06C5E90969062052E75E46D2
:108C0800D9F80040DDF80CB069E74846FFF772FC78
:108C180009F104030446AB632846AFF3008000283B
:108C28003FF43FAF22460F213046FFF76FFE36E78D
:108C380030460D21FFF742FE26462862DBE708F1A1
:108C4800010209EB82007EE7000000000023ABE68A
:108C58000123A9E60223A7E62DE9F0410646C4B0A0
:108C68001446052900F2D880DFE811F012002D0023
:108C7800D6006C0091000600836B002C40F0CC807D
:108C880053F8042B42648363002044B0BDE8F081AC
:108C9800002B40F0C180856B1FFA84FC012006F18F
:108CA800040E00FA03F111EA0C0F2A4604D052F818
:108CB800041B4EF8231015460133102BF1D1A704DD
:108CC800E2D4B563E0E7012B4FEA1447A4B200F001
:108CD8008380052B40F0A08007EB0408B8F1200F33
:108CE80000F29A800F2F40F29980002CCCD00268B5
:108CF800500700F11881019302AD284600F044F9AD
:108D08004FEA440CA7F11000B16B019B0CF1FF3C3A
:108D180005EBC0000CF1010C043801EB8C0251F892
:108D2800044B40F8044F9142F9D1012B00F0DE804A
:108D38000F2FB16302D822A800F01AF9284600F0D4
:108D48001FF9A1E7032B67D1A7B207EB1443102B38
:108D58004FEA144460D80368190700F1BF8022ADB8
:108D6800284600F037F97A00B06B05EBC404531EAF
:108D780042B1011B625844F8042B013B5A1CF9D13B
:108D880000EBC700B063284600F002F97CE7002B2F
:108D980042D1102C40D80368DD0600F1978022AD3F
:108DA800284600F043F9B76B294600234FF0010C21
:108DB8000CFA03F22242384603F1010303D050F8BB
:108DC800042B0A600746042B01F10401F0D1B763B4
:108DD800284600F021F957E73A19102A1CD8102F15
:108DE8001AD00268D00708D5304622F0030240F8AE
:108DF800502B019300F0B8F8019B019322AD28464F
:108E080000F0B2F8B26B019B002C58D10432B26367
:108E1800284600F0A5F837E7022036E7B8F1100F2A
:108E2800026865D9D40772D522F0010242F0020225
:108E380040F8502B019300F09FF83268019B12F024
:108E4800040F66D122AD2846019300F095F802A8D8
:108E580000F09AF8C7F110014900B26B019BA8F124
:108E6800100C4C1E05EBC7000134043802EB8401DA
:108E780052F8044B40F8044F8A42F9D1BCF1000F74
:108E88005AD0102F384638BF10204FEA4C0C1038F3
:108E980002AD0CF1FF3C05EBC0003BE7304622F089
:108EA800010242F0020240F8502B22AD019300F07B
:108EB80063F8284600F060F8B26B24B3019B6400A5
:108EC800013C05EBC7004FF0000CCDE723F0100381
:108ED800036000F5EC7000F0A9F860E723F00803E0
:108EE800036000F5AC7000F075F838E722AD8DE747
:108EF800D107D3D422AD2846019300F03DF8B26BD8
:108F0800019B002CDBD1284600F032F8BCE6540760
:108F180098D5304622F0040240F8D82B019300F08F
:108F280033F8019B8EE7304622F0040240F8D82B34
:108F3800019300F029F8DFE6012B3FF467AF0F2F0C
:108F4800B2633FF6A1AEDEE700F1340191E83800E4
:108F58009C46A6464CF8045D90E8FF0FE54600BD28
:108F680090EC210B704700BF80EC210B704700BFCD
:108F780090EC200B704700BF80EC200B704700BFBF
:108F8800D0EC200B704700BFC0EC200B704700BF2F
:108F9800F0EC0201F0EC0211F0EC0221F0EC0231ED
:108FA800F0EC0241F0EC0251F0EC0261F0EC0271DD
:108FB800F0EC0281F0EC0291F0EC02A1F0EC02B1CD
:108FC800F0EC02C1F0EC02D1F0EC02E1F0EC02F1BD
:108FD800704700BFE0EC0201E0EC0211E0EC022176
:108FE800E0EC0231E0EC0241E0EC0251E0EC02611D
:108FF800E0EC0271E0EC0281E0EC0291E0EC02A10D
:10900800E0EC02B1E0EC02C1E0EC02D1E0EC02E1FC
:10901800E0EC02F1704700BFB0FC0181B0FC0191A7
:10902800B0FC01A1B0FC01B1704700BFA0FC0181F8
:10903800A0FC0191A0FC01A1A0FC01B1704700BFF8
:10904800EC4600B52DE900502DE9FF1F4FF0000355
:109058002DE90C0001A9FFF7ABFBDDF840E012B0E9
:10906800704700BFEC4600B52DE900502DE9FF1F01
:109078004FF000032DE90C0001A9FFF7D5FBDDF83F
:1090880040E012B0704700BFEC4600B52DE9005033
:109098002DE9FF1F4FF000032DE90C0001A9FFF790
:1090A800E3FBDDF840E012B0704700BFEC4600B5C6
:1090B8002DE900502DE9FF1F4FF000032DE90C00AA
:1090C80001ABFFF7A9FBDDF840E012B0704700BF25
:1090D800EC4600B52DE900502DE9FF1F4FF00003C5
:1090E8002DE90C0001AAFFF71DFCDDF840E012B0E5
:1090F800704700BF027A03467AB9427AA2B1416842
:10910800013A10B44272086803220C1D1A72020256
:109118005C60000E10BC1A6070470068013A1A7251
:1091280002021A60000E7047B020704700B585B083
:1091380003AA0023009219460C22FFF7A5FB039807
:1091480005B05DF804FB00BFF0E700BF2DE9F04370
:10915800064685B00D464FF000082846FFF7CAFFBF
:10916800B028044600F01C8107065BD500F0F00328
:10917800A02B1AD030D8802B00F08280902B27D1DA
:1091880000F00D030D2B23D002AF002300F00F02D7
:10919800194600973046FFF777FB002300970D220A
:1091A80019463046FFF798FBD7E7C34303F0070398
:1091B8004FF47F621A41010702F47F6201D542F43D
:1091C8008042002319463046FFF746FD0028C4D0E8
:1091D800092005B0BDE8F083B02B68D0C02B3DD185
:1091E800C62800F0CA80C72800F0DF8000F0F80326
:1091F800C02B00F0EC80C82800F0F780C928E7D120
:109208002846FFF777FF020300F00F0002F47022F0
:1092180001300243012105233046FFF71DFD0028D8
:109228009BD0D5E78300DBB21F1D0DF10809002391
:109238001946CDF800900D223046FFF725FB029B1A
:10924800CDF8009060064CBFDF1BFF1800230D22ED
:10925800194630460297FFF73FFB7EE700F0F80318
:10926800D02BB5D100F007020132052342F40022C9
:1092780001213046FFF7F0FC00283FF46EAFA7E766
:109288002846FFF737FF24022043B0F5004F9FD050
:1092980004010023A2B219463046FFF7DDFC00287E
:1092A80096D114F4004F18BF4FF0010855E7A0F10C
:1092B800B103042B00F2B580DFE803F05529160C42
:1092C800030003AA0023009219460D223046FFF737
:1092D800DBFA42E700231A4605213046FFF7BCFCBB
:1092E80000283FF43AAF73E72846FFF703FF02036D
:1092F80000F00F00013002F47022012302431946E6
:109308003046FFF7A9FC00283FF427AF60E70023A9
:109318000DF108090D221946CDF800903046FFF7E7
:10932800B3FA2846FFF7E6FE0206029C4FF0020752
:109338000BD500F07F00B840044428460294FFF79C
:10934800D9FE030607F10707F3D4B840002304F554
:1093580001740444CDF800900D2219463046029459
:10936800FFF7BAFAF9E62846FFF7C4FE431EDBB258
:109378000E2B02467FF625AF2AE72846FFF7BAFEEE
:10938800020300F00F00013002F4702203230243AD
:1093980019463046FFF760FC00283FF4DEAE17E7B9
:1093A800B8F1000F2DD0002013E72846FFF7A2FEE2
:1093B800431EDBB20E2B02463FF60AAF0023042100
:1093C8003046FFF749FC00283FF4C7AE00E700F03D
:1093D8000F020132032342F4202219463046FFF7D8
:1093E8003BFC00283FF4B9AEF2E62846FFF782FEC0
:1093F80000F0F00200F00F031032013343EA0232AA
:1094080008E702AC4346414600940E223046FFF777
:109418003BFA0F220094434641463046FFF75CFA78
:10942800C1E700F0FC03B42B3FF4D2AE00F0070212
:109438000132012342F4002219463046FFF70CFCA2
:1094480000283FF48AAEC3E610B5C26C536884B0F6
:109458004FF0030C08321C0208461B0E01A90194A8
:1094680002928DF80CC08DF80D30FFF76FFE04B036
:1094780010BD00BF08B5FFF767FE806C08BD00BFD0
:1094880008B5FFF761FEC06CC37900EB83000830B4
:1094980008BD00BF704700BF830730B547D0541ED2
:1094A800002A3ED0CAB2034601E0013C39D303F892
:1094B800012B9D07F9D1032C2CD9CDB205EB05253D
:1094C8000F2C05EB054535D9A4F1100222F00F0C3D
:1094D80003F1100EE6444FEA121C1A46C2E9005581
:1094E800C2E9025510327245F8D10CF1010214F0AC
:1094F8000C0F03EB021204F00F0C13D0ACF10403B1
:1095080023F003030433134442F8045B9342FBD172
:109518000CF003042CB1C9B21C4403F8011BA3428C
:10952800FBD130BD64461346002CF4D1F9E703465D
:109538001446C0E71A46A446E0E700BF844641EA5D
:10954800000313F003036DD1403A41D351F8043BB3
:1095580040F8043B51F8043B40F8043B51F8043B05
:1095680040F8043B51F8043B40F8043B51F8043BF5
:1095780040F8043B51F8043B40F8043B51F8043BE5
:1095880040F8043B51F8043B40F8043B51F8043BD5
:1095980040F8043B51F8043B40F8043B51F8043BC5
:1095A80040F8043B51F8043B40F8043B51F8043BB5
:1095B80040F8043B51F8043B40F8043B51F8043BA5
:1095C80040F8043B51F8043B40F8043B403ABDD214
:1095D800303211D351F8043B40F8043B51F8043BB6
:1095E80040F8043B51F8043B40F8043B51F8043B75
:1095F80040F8043B103AEDD20C3205D351F8043B45
:1096080040F8043B043AF9D2043208D0D2071CBF10
:1096180011F8013B00F8013B01D30B880380604639
:10962800704700BF082A13D38B078DD010F00303AF
:109638008AD0C3F10403D21ADB071CBF11F8013B1F
:1096480000F8013B80D331F8023B20F8023B7BE76E
:10965800043AD9D3013A11F8013B00F8013BF9D299
:109668000B7803704B7843708B7883706046704733
:1096780070B50F4B0F4DAB42A3EB050607D0B610E4
:10968800002455F8043B01349847A642F9D805F060
:109698004BFF094D094B5E1BAB424FEAA60606D0AD
:1096A800002455F8043B01349847A642F9D870BD08
:1096B8006814010868140108681401087014010886
:1096C800002301461A46184600F014B838B5074D6D
:1096D800074C2C1BA41005D0013C55F8043D9847B5
:1096E800002CF9D1BDE8384005F024BF74140108F6
:1096F8007014010870B4164D2C681CB365681F2DD2
:1097080023DC38B9AB1C0135656044F82310002010
:1097180070BC704704EB850C0228CCF88820D4F87C
:1097280088614FF0010202FA05F246EA0206C4F81F
:109738008861CCF80831E5D1D4F88C311343C4F8EA
:109748008C31DFE7034C2C60D8E74FF0FF30DFE7C0
:1097580034000020380000202DE9F043002283B0B7
:1097680002214FF0904004F071F900230193019B0E
:10977800B3F5207F06D2019B01330193019BB3F51A
:10978800207FF8D3454803F071FA4448022103F0DA
:1097980021FB002857D0424E01233370414D3F48EA
:1097A80003F0F4FA2B889BB2B3F5E17F03D90022CA
:1097B80001232A803370337803F0FF04002B5DD136
:1097C800394F97F80080B8F1000F14D0374B38495B
:1097D8001C600A882B889BB292B2023B9A4228DA14
:1097E80001243C70224602214FF0904003B0BDE8AE
:1097F800F04304F02BB9DFF8B490D9F80030002B0F
:109808003ED002F0F7FFD9F800302949C01A40F6D7
:10981800B8339842DDD9274B0A881B8892B20533A2
:109828009A42D6DD0123424602214FF09040337020
:10983800DCE70A882B889BB292B202339A4228DD71
:1098480000233B70CEE7154803F05CFB40F6E97354
:10985800A0F110029A429ED84FF4E17202FB00F088
:10986800154B13490E4E00F2FF70A3FB0023C01ADC
:1098780003EB5003C3F3CF230B808FE70022B2E73B
:1098880002F0B8FF0A490B4B0A88C9F800001A8091
:109898009FE73C78003C18BF0124A3E74803002059
:1098A800F902002014030020E0010020DC01002060
:1098B80016030020DA010020010110002DE9F84309
:1098C8005C4803F0D3F95B48022103F083FA0028CF
:1098D80059D0594E01233370584D564803F056FA63
:1098E8002B889BB2B3F5967F03D9002201232A80E7
:1098F8003370337803F0FF04002B6BD1504F97F887
:109908000090B9F1000F13D04E4B4F491C600A88E4
:109918002B889BB292B2023B9A422ADA01243C700D
:1099280022460221BDE8F8434FF0904004F08EB87B
:10993800DFF81081D8F80030002B53D002F05AFF1E
:10994800D8F800304049C01A40F6B8339842DED9FA
:109958003E4B0A881B8892B205339A42D7DD012311
:1099680033704A460221BDE8F8434FF0904004F0B6
:109978006DB80A882B889BB292B202339A423ADDBC
:1099880000233B70CCE704462A4803F0BBFA40F6B4
:10999800E973A0F110029A429BD883B2742B46D97E
:1099A80040F6C67293422BD8294A05B22346171DA2
:1099B80032F92310A94202EB830603DC37F923406E
:1099C800AC421FDA0133202BF2D100231E491A4E74
:1099D8000B8081E7BDE8F843002202214FF0904058
:1099E80004F034B802F006FF1749184B0A88C8F883
:1099F80000001A808BE73C78003C18BF01248FE7F1
:109A08002346E3E7B6F90250B6F90630641A5B1B41
:109A1800401A03FB00F004EBD4735B100028B8BFB6
:109A28005B42034493FBF4F32B449BB2CEE74FF421
:109A3800A073CBE748030020F9020020140300209C
:109A4800D8010020D401002016030020D0010020F6
:109A5800FCF8000808B50C4803F008F90A48052185
:109A680003F0B8F948B1084803F090F9074808210D
:109A780003F0E6FF064B187008BD034803F042FAEE
:109A8800044B80B21880EEE7480300200004004829
:109A980011030020120300200E4A0F48D16930B488
:109AA80041F40011D161D2690C4C0D4982B002F425
:109AB80000120192019D00230122C0E90041C0E982
:109AC8000232C0E90433C0E90633036202B030BC95
:109AD80004F0F6B800100240F003002000540040E3
:109AE8002A23100030B51A4C1A4D636943F48023B9
:109AF8006361636989B003F4802300934FF4406085
:109B080012210422CDE90201009B069202A901223A
:109B180003231148CDE9042303F09AFEE2690F48B4
:109B28000F4942F48002E261E26902F480020023F4
:109B380001920122C0E90051C0E90323C0E90533BD
:109B4800C0E90733019C836004F0BAF809B030BD5E
:109B5800001002400058004000040048980300200C
:109B68002A231000144B15495A6930B542F00102F6
:109B78005A615B69124C83B003F00103019300251D
:109B88008023019810222046C4E90253C4E9001238
:109B9800C4E90455C4E9065503F0D8FD2A46032153
:109BA8000D2003F06FFD0D2003F0A8FD054B636247
:109BB8005C6503B030BD00BF0010024030000240B9
:109BC8004804002090040020134A1448916930B4D6
:109BD80041F4805191619269114982B002F4805236
:109BE80001924FF48272C0E90012019D4FF4007295
:109BF80000234FF4E064202182610722C0E9023487
:109C0800C0E90433C0E90713C0E90933C26202B0EE
:109C180030BC04F073BF00BF001002409004002065
:109C280000300140F0B5164E85B032275038002577
:109C38008DF80D000C4603AA0097022378213046C0
:109C48008DF80C5004F096F804F00F038DF80D30E1
:109C580003AA009702237821304624098DF80C5076
:109C6800103404F087F80097022303AA30467821BD
:109C78008DF80C508DF80D4004F07CF805B0F0BD5F
:109C8800F00300209A4B70B55A6942F400325A61C9
:109C98005B698AB04FF4C060122103F400330122DB
:109CA800CDE90401039304A94FF090400424032351
:109CB800CDE906230894039B8E4C03F0C9FDFFF7FA
:109CC800EBFE3220322502F09BFD4FF42E42ADF818
:109CD8000820009502AA02237821204604F04AF8B9
:109CE8004FF45542ADF80820022302AA00957821C6
:109CF800204604F03FF84FF40042ADF80820022354
:109D080002AA00957821204604F034F84FF428423E
:109D1800ADF80820022302AA00957821204604F015
:109D280029F84FF47C52ADF80820022302AA0095C6
:109D38007821204604F01EF84FF45342ADF808206D
:109D4800022302AA00957821204604F013F8002285
:109D5800ADF80820022302AA00957821204604F0D5
:109D680009F84FF4804602AA02230095782120467C
:109D7800ADF8086003F0FEFF4FF40D43ADF808306E
:109D880002AA009502237821204603F0F3FF4FF43E
:109D9800A053ADF8083002AA009502237821204686
:109DA80003F0E8FF4FF40053ADF8083002AA00951D
:109DB80002237821204603F0DDFF4FF40073ADF84D
:109DC800083002AA009502237821204603F0D2FF2A
:109DD8004FF42143ADF8083002AA009502237821F8
:109DE800204603F0C7FF4FF44843ADF8083002AAF5
:109DF800009502237821204603F0BCFF4FF45A4314
:109E0800ADF8083002AA009502237821204603F015
:109E1800B1FF4FF49053ADF8083002AA0095022321
:109E28007821204603F0A6FF4FF40143ADF808302F
:109E380002AA009502237821204603F09BFF4FF4E5
:109E48004F43ADF8083002AA009502237821204636
:109E580003F090FF4FF45943ADF8083002AA00957B
:109E680002237821204603F085FF4FF47143ADF8B3
:109E7800083002AA009502237821204603F07AFFD1
:109E88004FF45B43ADF8083002AA0095022378210D
:109E9800204603F06FFF02AA02230095782120468E
:109EA800ADF8086003F066FF4FF42442ADF80820CF
:109EB800022302AA00957821204603F05BFF4FF4A5
:109EC8002642ADF80820022302AA009578212046F0
:109ED80003F050FF4FF42F41ADF80810022300950E
:109EE80002AA2046782103F045FF0AB070BD00BFE2
:109EF80000100240F0030020F0B51C4F85B0054665
:109F08000026A7FB0103DB0806F1100003EB830C16
:109F1800A1EB4C0C0DEB000E084634460CF1300C4E
:109F2800013609280EF80CCCF6B21946E9D8964243
:109F380011D300206EB101AA01341444034614F869
:109F480001CD05F803C0591CA242CBB2F7D1304469
:109F5800C0B205B0F0BD921B02F0FF073A462021BF
:109F68002846FFF799FA3846E4E700BFCDCCCCCCB9
:109F7800F0B5C5B03227503800260D468DF88D0053
:109F88001446022323AA7821364800978DF88C605E
:109F980003F0F0FE05F00F038DF88D3023AA02239D
:109FA8007821304800972D098DF88C60103503F022
:109FB800E1FE23AA2B480097022378218DF88C60B4
:109FC8008DF88D5003F0D6FE2278002A47D030460F
:109FD80003A9254E8C46054610E03B2B24D9CCF826
:109FE80000508CF8045014F8012F8CF805500130FB
:109FF8000CF1060CC0B2CAB115282DD0A2F1610E21
:10A00800A2F12003BEF1190FDBB2E6D8203B03EB27
:10A0180083039BB203EB060EF2589EF804308CF8CB
:10A028000430CCF80020DEE71346EFE700EB4000F1
:10A038004200541CA4B240230DF18D008DF88C30E1
:10A04800FFF77CFA3223009323AA23467821054898
:10A0580003F090FE45B0F0BD7F247E22EBE701249B
:10A0680003A9E8E7F003002000110108F0B5A9B042
:10A0780032255038002602238DF81D0007AA7821C2
:10A088001D4800958DF81C6003F074FE022307AA92
:10A09800782119480095ADF81C6003F06BFE4FF469
:10A0A8008052ADF81C2014480095022307AA782195
:10A0B800114F03F05FFE0824CDE90366CDE905667C
:10A0C80040260DF10C0CBCE80F000095CDF81D00E2
:10A0D800CDF82110CDF82520CDF82930624611237E
:10A0E800782138468DF81C6003F044FE631E13F097
:10A0F800FF04E6D129B0F0BDF00300202DE9F041BE
:10A10800802A144628BF8024642B28BF64230D4668
:10A11800314913FB04F3C4B0A1FB0331C1F3471168
:10A1280003AEDAB1B4460023671E0CE0BB420DD083
:10A1380001335FFA83FE91422CBF5E2242227445AE
:10A148000CF8012B0AD9DAB2002BEFD101335FFAF0
:10A1580083FE7E2274450CF8012BF4D83227503840
:10A168004FF000088DF88D0023AA0097022378216C
:10A178001A488DF88C8003F0FDFD05F00F038DF86B
:10A188008D3023AA00970223782114488DF88C80FB
:10A198002D0903F0EFFD103523AA0097022378213B
:10A1A8000E488DF88C808DF88D5003F0E3FD402328
:10A1B800314622460DF18D008DF88C30FFF7BEF93F
:10A1C800631C78210097DBB223AA044803F0D2FD70
:10A1D80044B0BDE8F08100BF1F85EB51F0030020BB
:10A1E8002DE9F04FDFF810B1414E9BF800300C28F4
:10A1F80028BF0020A9B003EB800306EB43134FF4FC
:10A208003542ADF81C2085000FCB322703AC0097F0
:10A2180084E80F0007AA02237821364803F0AAFD34
:10A228004FF4406A07AA0097022378213148ADF815
:10A238001CA04FF4B05903F09DFD07AA0097022314
:10A2480078212C48ADF81C9003F094FD0097A446A3
:10A25800BCE80F004FF04008CDF81D00CDF82110E4
:10A26800CDF82520CDF829306246112378212148E0
:10A278008DF81C8003F07EFD9BF8003000971D448C
:10A2880006EB45134FF436421033ADF81C200FCBC4
:10A2980084E80F0007AA02237821164803F06AFD14
:10A2A80007AA0097022378211248ADF81CA003F0F2
:10A2B80061FD07AA0097022378210E48ADF81C908B
:10A2C80003F058FD00970FCCCDF81D00CDF82110F4
:10A2D800CDF82520CDF829302246112378210548CC
:10A2E8008DF81C8003F046FD29B0BDE8F08F00BF53
:10A2F800000B0108F0030020AC02002070B5A6B0E6
:10A3080002F078FA9F4B1B68C01AC72849D89E4BA1
:10A3180093E8030003AC84E8030032254FF430428D
:10A328000223ADF81420782105AA9848009503F077
:10A3380021FD00220223ADF81420782105AA9348B4
:10A34800009503F017FD4FF480520223ADF8142056
:10A35800782105AA8D48009503F00CFD224603CA12
:10A368008B4CCDF815000923CDF8191087480095B6
:10A37800402605AA78218DF8146003F0FBFC2378A9
:10A388000B2B00F23282DFE813F00202660066004F
:10A398001A02D901120211001100E101EC01F401C5
:10A3A80022020023CDE9033303ACB6E7794B7A4A9E
:10A3B80019687A4B002908BF1A460A210020FFF7BE
:10A3C800D7FD2478E4B20B2C0DD8DFE814F08B010C
:10A3D8000C000C000C005E0132010C000C000501A1
:10A3E800A50078004C0000256D4953242B466A1CB3
:10A3F80098336B44D5B203F8844C4C5D2B46002C43
:10A40800F5D1644B6749684E05AA50191A688A4203
:10A4180098BF19680522FFF76FFD2844C0B200F104
:10A428009801202200230DEB0105611C2B44CCB2BE
:10A4380003F8842C325D2346002AF6D1204426AB4B
:10A4480053FA80F000F8842C05AA00210120FFF7B8
:10A458008FFD26B070BD4F4B544A19684F4B0029E9
:10A4680008BF1A46A9E70025514948242B466A1C0B
:10A4780098336B44D5B203F8844C4C5D2B46002CC2
:10A48800F5D14C4B47494C4E05AA50191A688A42D7
:10A4980098BF19680522FFF72FFD2844C0B200F1C4
:10A4A8009801202200230DEB0105611C2B44CCB23E
:10A4B80003F8842C325D2346002AF6D1BEE7002437
:10A4C8003E4A48252346013498336B44E4B203F8E6
:10A4D800845C155D2346002DF5D1394B394E19881A
:10A4E80005AB1819032289B2FFF706FD2044C0B254
:10A4F80000F1980220230DEB02046A1C6119D5B201
:10A5080001F8843C735D002BF7D1284426AA52FA3F
:10A5180080F000F8843C97E700252B494C242B4613
:10A528006A1C98336B44D5B203F8844C4C5D2B46B7
:10A53800002CF5D1254B264A1B78264E03EB8303C6
:10A5480003EB8301890005ABA2FB01215819032203
:10A55800C909FFF7D1FC2844C0B200F198022023B2
:10A568000DEB0205621C2919D4B201F8843C335D55
:10A57800002BF7D1204426AA52FA80F000F8843C38
:10A5880062E700BFB802002048F50008F003002089
:10A59800040600201803002030F6000850F50008D3
:10A5A800C8F600089F860100D0F6000870F500087C
:10A5B800B4F60008C0020020BCF600087CF60008CB
:10A5C8001603002088F6000868F60008F802002044
:10A5D8008180808074F600080024854A532523462C
:10A5E800013498336B44E4B203F8845C155D234668
:10A5F800002DF5D17F4B804E198805AB1819042220
:10A6080089B2FFF779FC2044C0B200F198022023F8
:10A618000DEB02046A1C6119D5B201F8843C735D24
:10A62800002BF7D1284426AA52FA80F000F8843C7F
:10A638000AE70024714A52252346013498336B44B3
:10A64800E4B203F8845C155D2346002DF5D16C4B0C
:10A658006C4E196805AB18190522FFF74DFC20440C
:10A66800C0B200F1980220230DEB02046A1C6119A4
:10A67800D5B201F8843C735D002BF7D1284426AA93
:10A6880052FA80F000F8843CDEE600245E4A562543
:10A698002346013498336B44E4B203F8845C155DB7
:10A6A8002346002DF5D1594B534E198805AB18197F
:10A6B800042289B2FFF720FC2044C0B200F19802BE
:10A6C80020230DEB02046A1C6119D5B201F8843C01
:10A6D800735D002BF7D1284426AA52FA80F000F8BF
:10A6E800843CB1E64A4A54250023013498336B442C
:10A6F800E4B203F8845C155D2346002DF5D1454B83
:10A70800454E198805AB1819032289B2FFF7F4FBE7
:10A718002044C0B200F1980220230DEB02046A1C09
:10A728006119D5B201F8843C735D002BF7D1284438
:10A7380026AA52FA80F000F8843C85E6374B384A5E
:10A748001978384B002918BF1A4636E6364B1A785E
:10A75800022A48D01978354A354B012918BF1A46BC
:10A768002BE6344B344A1978314B002908BF1A4676
:10A7780023E6324A13889BB2002B2AD0254B19882E
:10A7880013888AB29BB29A4223D22D4A15E62B49E6
:10A798000B889BB2002B24D01E4B294A18880B88A3
:10A7A80081B228489BB2994228BF024605E6264B4B
:10A7B800264A1978264B002918BF1A46FDE5254B6D
:10A7C800254A19681F4B002908BF1A46F5E5234A90
:10A7D800F3E5204B224A19681A4B002908BF1A468C
:10A7E800EBE5184AE9E51F4AE7E5114AE5E500BF48
:10A7F800A8F60008D2020020A0F6000854F60008C7
:10A80800080300205CF6000894F6000812030020F4
:10A8180040F600081603002048F60008110300203F
:10A8280080F5000800F60008D402002060F5000852
:10A83800C0F50008F802002020F6000814030020E4
:10A84800D0F5000850F500081003002090F5000826
:10A85800F0F5000818030020A0F50008E0F500084E
:10A8680010F60008B0F500082DE9F0476B4EC4B0AB
:10A8780081464FF0B00832254FF0000A022323AA80
:10A888007821009530468DF88CA08DF88D8003F0E6
:10A8980071FA0223782123AA00953046ADF88CA0DE
:10A8A80003F068FA4FF48050ADF88C00022300954D
:10A8B80023AA7821304603F05DFACDE903AACDE951
:10A8C80005AA082440270DF10C0CBCE80F000095E0
:10A8D800CDF88D00CDF89110CDF89520CDF89930B0
:10A8E80023AA1123782130468DF88C7003F042FAA0
:10A8F800631E13F0FF04E6D108F101085FFA88F837
:10A90800B8F1B80FB7D1464E444DB027322431467E
:10A91800802203A8FEF712FE4FF00008022323AAA4
:10A928007821009428468DF88C808DF88D7003F07E
:10A9380021FA0223782123AA00942846ADF88C80B6
:10A9480003F018FA4FF48050022323AA7821ADF8B7
:10A958008C000094284603F00DFA4023802203A9B6
:10A968000DF18D008DF88C30FEF7E8FD81237821FC
:10A97800009423AA284603F0FDF9B02F06F18006BB
:10A9880001D1B127C2E7B9F1040F264F234E28BFE2
:10A99800C14609EB890907EBC917B22432253946A4
:10A9A800802203A8FEF7CAFD4FF00008022323AA5D
:10A9B8007821009530468DF88D408DF88C8003F015
:10A9C800D9F90223782123AA00953046ADF88C8066
:10A9D80003F0D0F94FF4805C022323AA7821009574
:10A9E8003046ADF88CC0013403F0C4F9402380220E
:10A9F80003A90DF18D008DF88C30E4B2FEF79EFDB1
:10AA080081237821009523AA304603F0B3F9B72CA7
:10AA180007F18007C2D144B0BDE8F087F0030020F9
:10AA28000009010880F9000810B5334A334B0021AA
:10AA380011701B78324ADBB213701378012B84B083
:10AA48003FD013780F2B2ED032244FF42E410223FF
:10AA580003AAADF80C102B480094782103F08AF96A
:10AA68004FF40141022303AAADF80C1025480094C5
:10AA7800782103F07FF94FF44F41ADF80C102148CD
:10AA88000094022303AA782103F074F94FF42F4CA1
:10AA98000094022303AA78211A48ADF80CC003F0E9
:10AAA80069F904B010BD322300934FF42E440223F9
:10AAB80003AA78211348ADF80C4003F05BF904B001
:10AAC80010BD32244FF42F41022303AAADF80C1015
:10AAD8000C480094782103F04DF94FF40141ADF88A
:10AAE8000C1008480094022303AA782103F042F9C5
:10AAF8004FF4706CCCE700BFCA020020C9020020E6
:10AB0800CB020020F00300202DE9F047B34D2B784D
:10AB18000C2BC4B036D0FFF7F1FBB14B1B7803F018
:10AB2800FF04002B40F08A812B780B2B12D8DFE82A
:10AB380013F00C00DE03D80315040E040804020405
:10AB4800FC03F603F003EA03E403A64A10210220FB
:10AB5800FFF70EFAA44A00210320FFF709FA2E781E
:10AB6800F6B20B2E00F20F84DFE816F060028E00BA
:10AB78008E008E001002BB018E008E00CF00750182
:10AB8800F0020C01994F9A4E002423AD802207EB66
:10AB9800C41103A8FEF7D2FC00212046FFF742F8B3
:10ABA8004023802203A90DF18D008DF88C30FEF72B
:10ABB800C5FC322300932A4681237821304603F0CE
:10ABC800D9F80CB90124E1E7022420460134E4B2A3
:10ABD800FFF74CFA082CF8D1DFF85892DFF858A2A2
:10ABE800DFF80C82B22438E0FEF7A8FC32270026F2
:10ABF80002232A467821009740468DF88D408DF82B
:10AC08008C6003F0B7F802232A4678210097404663
:10AC1800ADF88C6003F0AEF84FF480520223ADF823
:10AC28008C2078212A460097404603F0A3F8013487
:10AC38004023802203A90DF18D008DF88C30E4B2F9
:10AC4800FEF77CFC812300972A467821404603F0D2
:10AC580091F8B72C09F180090ED09AF8003013F05A
:10AC6800010F4FF08002494603A8BDD08022002181
:10AC780003A8FEF711FCB9E75E4A0421072044B097
:10AC8800BDE8F047FFF774B972B65B4A5B4B1768CB
:10AC9800D3F8008062B6002F00F069835849594BF9
:10ACA800B94228BF394653260022013402F588727A
:10ACB8006A44E4B202F8846C1E5D2246002EF4D188
:10ACC80023AB05221819FFF717F944AA031952FAFA
:10ACD80083F3052103F8846C23AA0846FFF748F993
:10ACE800B8F1000F09D064203346A7FB00014246A3
:10ACF800FDF78AFAC0F16406F6B2334655220521FB
:10AD08000720FFF7FBF9287862E03F4B1A78012A01
:10AD180000F02B8319783D4A3D4B022908BF1A469B
:10AD280005210846FFF724F93A4B3B4A18783B4B74
:10AD38000521002818BF1A460620FFF719F9384AD6
:10AD480050250023013403F588736B44E4B203F8FB
:10AD5800845C155D2346002DF4D1324B198823AB52
:10AD6800042289B21819FFF7C7F844AA031952FA3E
:10AD780083F30720052123AA03F8845CFFF7F8F87A
:10AD8800082025E00521284A0846FFF7F1F8274A58
:10AD980049250023013403F588736B44E4B203F8B2
:10ADA800845C155D2346002DF4D1214B196823AB33
:10ADB80005221819FFF7A0F844AA031952FA83F3D9
:10ADC8000720052123AA03F8845CFFF7D1F80B209C
:10ADD80044B0BDE8F047FFF703BA00BF04060020FF
:10ADE800F902002074F7000834F80008000A010886
:10ADF800F003002038F700081803002004000020A2
:10AE08009F86010050F80008D402002008F70008C7
:10AE180028F70008BC020020ECF60008DCF6000861
:10AE2800C4F80008D2020020D0F80008E0F80008B2
:10AE3800C002002080060108AC020020AC4A0A21AA
:10AE48000220FFF795F8AB4A0A21032044B0BDE879
:10AE5800F047FFF78DB8A84A50250023013403F5C1
:10AE680088736B44E4B203F8845C155D2346002DB7
:10AE7800F4D1A24E23AB181931780322FFF73CF81E
:10AE88000319DBB203F588720DEB0200013344AA03
:10AE980052FA83F30521252400F8844C23AA084696
:10AEA80003F8845CFFF764F8954B964A1878964B3C
:10AEB8000521002818BF1A460620FFF759F83378ED
:10AEC800924803EB830303EB83039B00A0FB03037C
:10AED800552207200521C3F3C713FFF70FF90920EF
:10AEE80076E78B4A52260023013403F588736B44B6
:10AEF800E4B203F8846C165D2346002EF4D1854B2A
:10AF080023AD196805222819FEF7F6FF44AA03198C
:10AF180052FA83F3052108462A4603F8846CFFF7A2
:10AF280027F8774B774A1978774B0620002918BFFE
:10AF38001A460521FFF71CF8774953243346721C3B
:10AF480003F588736B44D6B203F8844C8C5D3346A2
:10AF5800002CF4D1714B03221978A819FEF7CCFF05
:10AF68008319DBB203F588720DEB0201013344AAA1
:10AF780052FA83F3252701F8847C07202A46052105
:10AF880003F8844CFEF7F4FF052021E7644B5626AE
:10AF98000022013402F588726A44E4B202F8846C33
:10AFA8001E5D2246002EF4D15E4B198823AD032284
:10AFB80089B22819FEF7A0FF44AA031952FA83F3AD
:10AFC800052103F8846C08462A46FEF7D1FF564946
:10AFD8004F2306F5887201366A44F6B202F8843CBB
:10AFE8008B5D002BF5D1514A51491278002A514AFC
:10AFF80006F588700ABF11464F2446241A4668444D
:10B0080001330244DBB202F8844CCC5C1A46002CB3
:10B01800F6D144AA334452FA83F307202A4605217D
:10B0280003F8844CFEF7A4FF0420D1E6424A5424D6
:10B038000023013603F588736B44F6B203F8844C99
:10B04800945D3346002CF4D13C4F398823AD89B246
:10B058000322A819FEF750FF0644394AF6B206F54E
:10B06800887311886B440136F6B22F2203F8842CBA
:10B0780089B20322A819FEF73FFF0644F6B206F587
:10B08800887330494FF020080DEB0302631C144409
:10B0980004F8848CDCB211F80480B8F1000FF5D103
:10B0A80044AB264453FA86F6052108462A4606F894
:10B0B800848CFEF75DFF124B124A1978124B06205A
:10B0C800002918BF1A460521FEF752FF3B881E4982
:10B0D80064209BB200FB03F3A1FB03130720552256
:10B0E800C3F307230521FFF709F8404670E600BFC0
:10B0F8004CF7000860F700089CF80008F8020020E8
:10B10800BC020020ECF60008DCF600088180808094
:10B1180084F800080803002090F8000810030020B5
:10B128006CF80008120300207CF8000811030020C6
:10B1380004F70008FCF6000840F600081603002093
:10B14800140300204CF80008C5B3A291904A4E267B
:10B158000023013403F588736B44E4B203F8846C6C
:10B16800165D2346002EF4D18A4B198823AD03229D
:10B1780089B22819FEF7C0FE0444E4B204F58873C6
:10B188006B442F2203F8842C834B01341988E4B2D2
:10B19800032289B22819FEF7AFFE0444E4B204F58D
:10B1A800887344A901346B4451FA84F4432205217D
:10B1B80003F8842C08462A4604F8846CFEF7D8FE67
:10B1C800764A4C2706F5887301366B44F6B203F8C5
:10B1D800847C975D002FF5D1714B724A1B78DFF89C
:10B1E800108203EB830303EB83018900A2FB012197
:10B1F800C9090322A819FEF77FFE0644F6B206F530
:10B2080088736B44252203F8842C0136664BF6B20A
:10B2180019680422A819FEF76FFE0644F6B206F56F
:10B22800887352240DEB03027B1C174407F8844CE7
:10B23800DFB218F80740002CF6D144AB3E4453FA6D
:10B2480086F62A4606F8844C05210620FEF790FE6D
:10B25800564A482604F58871631C0DEB010404F86E
:10B26800846CDCB2165D002EF4D1514B1B7803EBD5
:10B27800830303EB83014B4B8900A3FB0131C9090D
:10B2880003222819FEF738FE0444E4B2494A04F5BB
:10B2980088736B4401341168E4B2252203F8842CC6
:10B2A80028190422FEF728FE0444E4B204F5887243
:10B2B80052230DEB0201721C0E4406F8843CD6B2F0
:10B2C80018F80630002BF6D144AA344452FA84F414
:10B2D80007202A46052104F8843CFEF749FE0A2087
:10B2E80076E5354A10210220FEF742FE32E4334A61
:10B2F80010210220FEF73CFE2CE4314A10210220E6
:10B30800FEF736FE26E42F4A10210220FEF730FE13
:10B3180020E42D4A10210220FEF72AFE1AE42B4AC7
:10B3280010210220FEF724FE14E4294A10210220ED
:10B33800FEF71EFE0EE4274A10210220FEF718FE33
:10B3480008E4254A10210220FEF712FE02E4234AEF
:10B3580010210220FEF70CFEFFF7FCBB204A10214B
:10B368000220FEF705FEFFF7F5BB1E4AD8E40521CB
:10B3780008461D4AFEF7FCFD6423552205210720D7
:10B38800FEF7BCFEBFE4194A0A21052077E400BF96
:10B39800A8F800081603002014030020B0F80008DD
:10B3A8000403002081808080FC020020BCF8000893
:10B3B800E8020020E002002094F7000884F7000863
:10B3C80024F8000814F8000804F80008F4F7000846
:10B3D800E4F70008D4F70008C4F70008B4F7000839
:10B3E800A4F7000818F700085CF80008ECF8000853
:10B3F800B8F800082DE9F843244C254B25786178E6
:10B40800A2781B78EDB2CEB2D7B273B1FF23214A2E
:10B41800237000236370A37013702378AB4226D087
:10B428001D4B01221A70BDE8F883DFF8689099F87F
:10B43800003033B101F0DEF9184B1B68C01A002840
:10B44800EBDB4FF0000889F8008001F0D3F9144BCA
:10B458001B68C01A40F2DB5398420FD8FF2384F8C8
:10B46800008084F80180A3702378AB42D8D1637838
:10B47800B342D5D1A378BB42D2D1D4E7FF2384F815
:10B488000080637084F80280C7E700BF340300209F
:10B49800F9020020B4020020C8020020B0020020F7
:10B4A800B802002038B51A4803F0B2FC012802D0CF
:10B4B8000024204638BD174A174B184D04465078CB
:10B4C8001178927800EB400000EB030C185A2880A2
:10B4D80001EB41019CF80200A870C81802EB420277
:10B4E800595AA5F8031081786971D018995AE980DA
:10B4F80083782B726422002105F10900FDF7CCFF47
:10B508006D222946024803F099FB204638BD00BF4A
:10B51800900400203403002080030108E401002087
:10B5280070B582B072B6824D824A0024022304EBC1
:10B53800440C05EB0C000721467815F80CE090F850
:10B5480002C0F6B25FFA8EFE5FFA8CFC46FA01F092
:10B55800C007936119D500BF00BF00BF00BF00BF7F
:10B5680000BF00BF00BF00BF00BF00BF00BF00BFDB
:10B5780000BF00BF00BF00BF00BF00BF00BF00BFCB
:10B5880000BF00BF00BF00BF00BF00BF00BF00BFBB
:10B5980000BF00BF00BF00BF00BF00BF00BF00BFAB
:10B5A80000BF00BF00BF00BF00BF00BF00BF00BF9B
:10B5B80000BF936200BF00BF00BF00BF00BF00BF55
:10B5C80000BF00BF00BF00BF00BF00BF00BF00BF7B
:10B5D80000BF00BF00BF00BF00BF00BF00BF00BF6B
:10B5E80000BF00BF00BF00BF00BF00BF00BF00BF5B
:10B5F80000BF00BF00BF00BF00BF00BF00BF00BF4B
:10B6080000BF00BF00BF00BF00BF00BF00BF00BF3A
:10B6180000BF00BF00BF00BF013997D207214EFA13
:10B6280001F0C607936119D500BF00BF00BF00BF76
:10B6380000BF00BF00BF00BF00BF00BF00BF00BF0A
:10B6480000BF00BF00BF00BF00BF00BF00BF00BFFA
:10B6580000BF00BF00BF00BF00BF00BF00BF00BFEA
:10B6680000BF00BF00BF00BF00BF00BF00BF00BFDA
:10B6780000BF00BF00BF00BF00BF00BF00BF00BFCA
:10B6880000BF00BF936200BF00BF00BF00BF00BF84
:10B6980000BF00BF00BF00BF00BF00BF00BF00BFAA
:10B6A80000BF00BF00BF00BF00BF00BF00BF00BF9A
:10B6B80000BF00BF00BF00BF00BF00BF00BF00BF8A
:10B6C80000BF00BF00BF00BF00BF00BF00BF00BF7A
:10B6D80000BF00BF00BF00BF00BF00BF00BF00BF6A
:10B6E80000BF00BF00BF00BF00BF013997D20721CC
:10B6F8004CFA01F0C00793611ED500BF00BF00BF20
:10B7080000BF00BF00BF00BF00BF00BF00BF00BF39
:10B7180000BF00BF00BF00BF00BF00BF00BF00BF29
:10B7280000BF00BF00BF00BF00BF00BF00BF03E0F5
:10B738001C0300200004004800BF00BF00BF00BF7A
:10B7480000BF00BF00BF00BF00BF00BF00BF00BFF9
:10B7580000BF00BF00BF00BF00BF00BF00BF00BFE9
:10B76800936200BF00BF00BF00BF00BF00BF00BFA3
:10B7780000BF00BF00BF00BF00BF00BF00BF00BFC9
:10B7880000BF00BF00BF00BF00BF00BF00BF00BFB9
:10B7980000BF00BF00BF00BF00BF00BF00BF00BFA9
:10B7A80000BF00BF00BF00BF00BF00BF00BF00BF99
:10B7B80000BF00BF00BF00BF00BF00BF00BF00BF89
:10B7C80000BF00BF00BF013992D20134082C7FF4BA
:10B7D800AEAE62B600230193019BB3F57A6F06D231
:10B7E800019B01330193019BB3F57A6FF8D302B043
:10B7F80070BD00BF08B50B4B1A784AB11A78052AF4
:10B8080006D01A78092A03D01B78082B00D008BD67
:10B818000548082102F014F9044BB0FA80F04009F9
:10B82800187008BD0406002000040048BC0200206F
:10B838000E4B1B78092B04D110B50D4C23780BB98E
:10B8480010BD704700F0D6FF0A4B1B68C01AFA28D3
:10B85800F6D9094B09481B680022227040215A6317
:10B8680002F0F4F8064B01221A7010BD04060020FD
:10B87800F8020020F40200204005002000040048DF
:10B88800F90200200F4B1B78052B04D110B50E4C84
:10B8980023780BB910BD704700F0ACFF0B4B1B6849
:10B8A800C01AFA28F6D90A4B0A481B6800222270E7
:10B8B8004FF400715A6302F0C9F8074B01221A705D
:10B8C80010BD00BF0406002010030020F002002075
:10B8D8004005002000040048F90200200D4B1B78A9
:10B8E8000A2B04D110B50C4C23780BB910BD704746
:10B8F80000F080FF094B1B68C01AB0F57A7FF5D9B4
:10B90800074B084A1868012100232370436311700C
:10B9180010BD00BF0406002004030020EC02002034
:10B9280040050020F902002008B50E4B1B780A2BB1
:10B9380012D10D4B1B780A2B0FD90C4B1B6863B91E
:10B9480000F058FF0A4A126840F6B833801A984245
:10B9580002D9084B01221A7008BD00F04BFF044BB6
:10B96800186008BD04060020E8020020E00200205C
:10B97800CC010020F902002010B50121244802F072
:10B988005FF80221B0FA80F42148640902F058F8FF
:10B9980008B944F002041F48102102F051F808B910
:10B9A80044F004041B48802102F04AF810B31A48F6
:10B9B8004FF4005102F044F838BB1849184B1548A9
:10B9C8000C240C70012240211A7002F03FF8114833
:10B9D80000224FF4007102F039F80E48002240218D
:10B9E80002F034F8BDE81040002202214FF09040E8
:10B9F80002F02CB808484FF4005102F021F8002852
:10BA0800DBD044F008040B2CD7D8044B1C7010BDB5
:10BA180000140048000400480008004804060020FC
:10BA2800F902002030B5A1B000242022002107A887
:10BA3800FDF732FD21463C2210A8CDE90144CDE9AD
:10BA480003440594FDF728FD01221023CDE90A23BC
:10BA580002254FF4601306A80F9306950D9502F082
:10BA680095FA0F23019329464FF4806301A8CDE985
:10BA780003430295059402F073FD602310A8CDE9F5
:10BA88001744109302F01AFE21B030BD70B500259E
:10BA98008CB0CDE90655CDE908552D4C0A95A3691A
:10BAA80043F00103A361A36903F001030193019B20
:10BAB800636943F400336361636903F400330293F9
:10BAC800029B636943F480236361636903F4802301
:10BAD8000393039B636943F480036361636903F41D
:10BAE80080032A4604934FF400414FF09040049B92
:10BAF800012601F0ABFF4FF4004306A94FF0904038
:10BB0800CDE90636CDE9085501F0A2FE032200234F
:10BB180006A910480896CDE9062301F099FE90235E
:10BB280006A90D48069301F093FE63690B4843F498
:10BB380000236361636903F400234FF40052059303
:10BB480006A9059B069201F083FE0CB070BD00BFEC
:10BB58000010024000140048000400480008004893
:10BB680070B5002486B0624D6248049422462021B4
:10BB7800CDE90044CDE9024401F068FF2B78092B98
:10BB880000F0A8802B78052B00F0AA802B780C2BCE
:10BB980000F0948057480122402101F057FF4FF4EC
:10BBA80018710123CDE90013002203235148694687
:10BBB800CDE9022301F04CFE2B78012B0ED02B7817
:10BBC800022B0BD02B78032B08D02B78062B05D013
:10BBD8002B78072B02D02B780A2B10D1454800224E
:10BBE800082101F033FF08200121CDE900010022DE
:10BBF800032340486946CDE9022301F029FE0022CB
:10BC08003C48022101F022FF022569463948009587
:10BC180001F01EFE002229464FF0904001F016FF69
:10BC280069464FF09040009501F012FE80230024F1
:10BC3800CDE900350326052369464FF0904004936B
:10BC4800CDE9024601F004FE4FF480730093694683
:10BC580006234FF09040CDE90363CDE9015401F08C
:10BC6800F7FD0125224610214FF0904001950494DC
:10BC780001F0ECFE102369464FF09040009301F06C
:10BC8800E7FD4FF40413694608224FF09040CDE9D0
:10BC98000023029501F0DCFD22462146092001F02F
:10BCA800F1FC092001F02AFD22463146172001F057
:10BCB800E9FC172001F022FD06B070BD22460D48B0
:10BCC800402101F0C3FE0B4822464FF4007101F0F9
:10BCD800BDFE64E707482246402101F0B7FE5EE753
:10BCE800044822464FF4007101F0B0FE57E700BF48
:10BCF80004060020000400482F4BF0B5DA692F4CE9
:10BD080042F00072DA61DB6991B003F000730093CE
:10BD180002274FF4C0510126CDE90117009801A967
:10BD2800032209234FF09040CDE90362059301F007
:10BD38008FFD234A04230025C4E900234FF08073B4
:10BD48004FF44022C4E902534FF48013C4E904239A
:10BD58004FF00123A36120464FF48073A38301F0C1
:10BD6800E1FA06A92046CDE90B55CDE90655CDE9FE
:10BD780008550D960A950E9601F054FB204601F0E1
:10BD8800C9FB3946204601F059FC4FF404412046CE
:10BD980001F054FC2A463146142001F073FC1420AB
:10BDA80001F0ACFC2A463146162001F06BFC162047
:10BDB80001F0A4FC11B0F0BD00100240DC05002029
:10BDC80000640040134B1449DA6930B542F00202AE
:10BDD800DA61DB69114C83B003F00203019300259B
:10BDE8004FF47A73019825613F222046C4E9001276
:10BDF800C4E9025303F064FA2A4602211D2001F027
:10BE080041FC1D2001F07AFC204603B0BDE830401B
:10BE180003F020B900100240000400409005002003
:10BE280030B500248BB0CDE90244CDE90444CDE916
:10BE38000644184B08949A69174D42F400629A61B7
:10BE48009B696C6103F40063014601932846134B18
:10BE5800019A2B60C5E90314C5E9014403F062FAAD
:10BE68006023029300220023CDE9062302A922467B
:10BE78002846CDE903440594089403F0C7FA2146FF
:10BE8800284603F0B5F92A68536C43F40043536419
:10BE98000BB030BD0010024040050020002C0140CE
:10BEA80030B500248BB0CDE90244CDE90444CDE996
:10BEB8000644144B0894DA69134D42F00102DA6122
:10BEC800DB696C6003F0010301934FF0804240F698
:10BED800FF132846C5E9024301992A602C6103F043
:10BEE80021FA00236022CDE9022302A9224628462E
:10BEF8000494069403F08AFA2146284603F078F958
:10BF08000BB030BD00100240F4040020F0B500244E
:10BF180089B0CDE90244CDE90444CDE906441A4B81
:10BF28001A4D5A6942F080525A615B692C8303F0BA
:10BF3800805301934FF0A0432B604FF40033012648
:10BF480007466B6028460423019AEE61C5E904435D
:10BF5800C5E9024485F82040AE6285F830406C633C
:10BF680000F03EFD052302A92846CDE90363CDE98B
:10BF780005440297079401F013F82146284600F07B
:10BF8800C5FF09B0F0BD00BF001002404803002003
:10BF98002DE9F04F2DED028BB14BB24AB24C9A60AD
:10BFA800CDB000F015FCFFF73DFDFFF76FFDFFF783
:10BFB800E3FCFFF7D5FDFFF79FFEFFF703FFFDF753
:10BFC800D1FDFDF701FE227800230321CDE90733D7
:10BFD8000593099306917AB12378042B02D023782C
:10BFE8000A2B09D10123A148059305A901F030FCCA
:10BFF8000B20FFF78BFF09E001254FF0904005A9C2
:10C00800059501F025FC2846FFF780FF23780A2BC9
:10C0180000F02E832378052B00F025832378092B45
:10C0280000F021830AAB02932DAD0DF1A80B237804
:10C038000B2B00F044832378012B0FD02378022B9D
:10C048000CD02378032B09D02378062B06D023782D
:10C05800072B03D023780A2B40F040838449DFF86C
:10C0680020A2DFF834820323CAE90013504640F2C5
:10C07800E733CAF8083001F055FFFDF703FEFDF776
:10C0880031FD0020FEF7F0FB002605E064200136B4
:10C0980000F0B6FB322E2ED0504601F071FF1EB1D3
:10C0A8007207F3B200F09080FFF7C2FBFFF7EAFBDC
:10C0B800FFF714FC237803F0FF0523B96D4B1B88A9
:10C0C8009BB2002B73D123780A2B05D1694B1B88AF
:10C0D8009BB2002B40F0E68023780BB9FDF73CFBC0
:10C0E80023780A2BD2D1FDF7E9FB0136642000F052
:10C0F80087FB322ED0D1604B00251D70E8B2013588
:10C10800FDF7B4FF082DF9D19FED538B0026DFF81A
:10C118008CA15A4DDFF88891B0463746584801F04F
:10C128002FFF00F067FB574B1B78002BA0EB070095
:10C138000CBF4FF4FA736423984280F0BD8100F07D
:10C1480059FB801B132800F2838100F053FBA0EBFE
:10C158000800952800F2F3804B4B1B78002B40F029
:10C16800EB80FFF747F99AF80030002B40F0DB80AE
:10C178002378082B00F0A58099F80030002BCDD04B
:10C1880000F038FB414B1B68C01A0028C6DB0022B0
:10C1980089F80020114602EB42030132E9542B448E
:10C1A800082A59709970F6D1FFF7BAF9B6E700F086
:10C1B80021FB374B1B68C01AFA2884D92D4B314A0A
:10C1C8001D80012313707EE7324A0396C3F3C1032F
:10C1D80003EB830302EBC317B225322639468022CC
:10C1E8000298FDF7ABF94FF0000902235A4678216F
:10C1F800009640468DF8A9508DF8A89001F0BAFD38
:10C2080002235A46782100964046ADF8A89001F0DE
:10C21800B1FD4FF48053ADF8A8305A460223782177
:10C228000096404601F0A6FD0135402302998DF89D
:10C23800A83080220DF1A900FDF780F9EDB2009633
:10C2480081235A467821404601F094FDB72D07F125
:10C258008007C2D1039E27E700000000000000000D
:10C2680000ED00E0008000080406002000040048FB
:10C278000030004014030020000000201C030020B0
:10C2880038030020F9020020CA020020CC02002056
:10C29800DC02002080F90008F0030020C80200201A
:10C2A800D002002000F0A6FA9F4B1B68C01AFA289B
:10C2B8007FF612AF9D4A002313809D4A0123137015
:10C2C8000AE79C4B1B78002B3FF456AF994B002292
:10C2D8001A70994B198889B2012938BF0121B1F523
:10C2E800FA7F28BF4FF4FA71944B187802EB420397
:10C2F800C0B2E854924800782B44C0B258709148B4
:10C3080000780132C0B2082A9870EDD10391FFF786
:10C3180007F900F06FFA03998B4B01441960012368
:10C3280089F8003028E7FFF7BDF810B100238AF834
:10C338000030FFF7F5F81BE7FEF776FB11E700F092
:10C3480059FA2378042B804600F0DC80FFF752FA74
:10C358002378052B11D172B67C4900220B680A603C
:10C3680062B67B494FF4C87202FB03F30B600A689C
:10C3780042F20F739A4288BF0B6023780A2B10D1C0
:10C3880072B6744900220B680A6062B67249C82204
:10C3980002FB03F30B600A6842F20F739A4288BFEC
:10C3A8000B6023780A2B10D172B66C4900220B68F7
:10C3B8000A6062B66A49C82202FB03F30B600A6886
:10C3C80042F20F739A4288BF0B60664A13780133B2
:10C3D800DBB2022B07D9644A1378013303F0030355
:10C3E8001370604A00231370FEF78EFB2378002237
:10C3F8008DED2C8B8DF8BC20002B6AD023780A2B6E
:10C4080000F0BC802378042B00F0F1802378052B02
:10C4180000F0FD802378092B00F010812378082B89
:10C428007FF49AAE514B1B788DF8103040F25513BB
:10C438002A934F4801232E9301F0ECF800283FF48B
:10C448008BAE029B4A4804AA594601F091F883E64C
:10C4580000F0D0F9237806460BB9FDF77DF923786B
:10C468000A2B33D0FFF7E4F9FFF70CFAFFF736FA97
:10C47800FFF75AFA237803F0FF0223B92B4B1B88E6
:10C488009BB2002B41D123780A2B7FF45EAE274B59
:10C498001B889BB2002B3FF458AE00F0ABF9224B3F
:10C4A8001B68C01AFA287FF650AE204A0023138072
:10C4B8001F4A0123137048E600F09CF94FF400412D
:10C4C80007464FF0904001F0C7FA38E6FDF7F6F955
:10C4D800C8E7284A1388C3F307238DF81030138858
:10C4E8008DF81130214B1B788DF8123040F235133E
:10C4F8002A931F4803232E9301F08CF800283FF459
:10C508002BAE9EE7FDF7A6FA20E7039200F072F93A
:10C51800194B1B68C01AFA28B5D9044B039A1A801C
:10C52800034A01231370AEE7D80200201403002049
:10C53800F9020020C4020020D2020020C702002015
:10C54800C6020020C5020020CC0200200C030020F7
:10C558000803002000030020FC020020E402002061
:10C56800E0020020C8010020AC020020BC0200202C
:10C57800DC05002016030020DC0200205E4A5F482C
:10C588001388C3F307238DF8103013888DF8113002
:10C5980040F275132A9302232E9301F03BF80028EA
:10C5A8005AD1574A554813681B0A8DF8103013683A
:10C5B8008DF8113040F277132A9302232E9301F05D
:10C5C80029F8002841D14F4A4C4813681B0A8DF8B6
:10C5D800103013688DF8113040F279132A93022332
:10C5E8002E9301F017F800283FF4B6AD29E7464A24
:10C5F8001388C3F307238DF8103013888DF8113092
:10C60800424B1B788DF8123040F2451370E740F228
:10C6180047132A9303232E9372B63D4B1B6862B6C9
:10C628005BBAADF810303B4B34481B788DF81230AC
:10C6380000F0F0FF00283FF48FAD02E7354B1B7880
:10C648008DF8103040F26513F2E6029B2B4804AADD
:10C65800594600F08DFFB6E7029B284804AA5946C0
:10C6680000F086FF9DE740F67F40FFF7D9FBD9E44D
:10C6780040F6FF10FFF7D4FB0AA900262022022368
:10C688002DAD8E600127CDE90A234FF0904003239A
:10C698000DF1A80BCDE90D37029101F0D9F8FFF79C
:10C6A800FFFB2D9640226E604FF4041359464FF05D
:10C6B8009040CDE92A232C9701F0CAF8B7E400236B
:10C6C8002D9308226B604FF40413CDE92A231248F6
:10C6D800012359462C9301F0BBF8BFE40023CDE9B0
:10C6E8002D332B93082201230B482A9259462C9369
:10C6F80001F0AEF8B2E400BF16030020DC0500200C
:10C70800FC020020E0020020120300201103002098
:10C7180008030020BC02002000040048DFF834D0E1
:10C7280000F026F80C480D490D4A002302E0D458C1
:10C73800C4500433C4188C42F9D30A4A0A4C002363
:10C7480001E013600432A242FBD3FCF791FFFFF72C
:10C758001FFCFEE700A000200000002014000020BD
:10C7680074140108180000200C060020FEE70000E1
:10C77800034AD2F8883043F47003C2F8883070470F
:10C7880000ED00E0704700BF38B50E4A0E4B127836
:10C79800054618684FF47A73B3FBF2F3B0FBF3F075
:10C7A80000F0BAFF08B90F2D01D9012038BD0446A1
:10C7B800024629464FF0FF3000F064FF034B204645
:10C7C8001D6038BD0C00002008000020100000206B
:10C7D800074A08B5136843F010031360032000F0FC
:10C7E8003FFF0F20FFF7D0FFFFF7CCFF002008BD69
:10C7F80000200240014B1868704700BF080600205F
:10C8080038B50446FFF7F6FF631C054602D0044B13
:10C818001B781C44FFF7EEFF401BA042FAD338BD3B
:10C828000C000020704700BF026838B5936803F019
:10C838000303012B01D0002038BD1368DC07FAD5AB
:10C84800936803F00D03012B044609D0236C43F0D1
:10C8580010032364636C43F001036364012038BD53
:10C868009368032143F0020393601160FFF7C2FF4E
:10C8780023689B68D9070546DDD5FFF7BBFF401B3A
:10C888000228236802D99A68D207DFD49B68DB079D
:10C89800F3D4D0E703689A6812F00C0F01D1002096
:10C8A8007047DA6870B59501044604D5008B40F2EC
:10C8B8000112904234D060299A6844D0500706D5B6
:10C8C8009A68920703D49A6842F010029A600C2979
:10C8D80035D09A68100706D59A68920703D49A68E3
:10C8E80042F020029A606C2929D10C25FFF782FFBB
:10C8F800236806469B681D4223D0FFF77BFF831BF6
:10C908000B2B2368F6D99A682A42F3D0236C43F09C
:10C9180010032364636C43F001036364012070BD5A
:10C928001A68500606D4124A01E0013AEED0196896
:10C938004906FAD540221A609A6856070FD404258A
:10C94800D4E7002070BD160701D40825CEE79A6801
:10C958009507FAD49A6842F020029A60F5E79A6837
:10C968009507ECD49A6842F010029A60E7E700BF96
:10C9780000940900026838B5936803F00303012B9B
:10C98800044626D09168154B194209D0236C43F010
:10C9980010032364636C43F001036364012038BD12
:10C9A800936843F001039360FFF724FF236805466B
:10C9B8001B68D9070BD4FFF71DFF431B022B236805
:10C9C800F6D91A68D207E1D51B68D907F3D5002034
:10C9D80038BD1368D807D5D50020F9E73F00008097
:10C9E80030B597B000230193D0B1036C13F0100356
:10C9F800044618D1056C002D00F0998002689168F2
:10CA0800CD0040F18280916888007ED4216CC906EF
:10CA180000D463B1236C23F0120343F010032364A2
:10CA2800012017B030BD036CDA06F3D402689368AE
:10CA38005B07EFD4236C23F4817343F00203B2F154
:10CA4800A04F2364814B00F0DE809A4200F0E28020
:10CA580003F540739A4277D07D498A4200F0EC8012
:10CA6800936803F00303012B00F0E880794883689A
:10CA7800616823F440330B438360D4E902130B430A
:10CA8800616B607E013918BF012143EA403343EAF4
:10CA9800013394F82010012900F09980A16A012936
:10CAA8000CD06D48824200F0A28000F5807082426E
:10CAB80000F09D80E06A184340EA0103916811F094
:10CAC8000C0F0CD1D16821F4804121F00201D16012
:10CAD80094F83010207E490041EA80310B43D06839
:10CAE8005E490140206919430128D16077D0136B52
:10CAF80023F00F03136300206064236C23F0030307
:10CB080043F00103236417B030BD236C23F01203F4
:10CB180043F010032364636C43F001036364236CE4
:10CB2800236C23F0120343F01003236478E7C0E971
:10CB38001255456480F83C50FFF774FE22689368EC
:10CB4800DB0012D52B465AE7414B424891680293C5
:10CB580001F00301012958D0996801F00301012966
:10CB680085D11B68DD0788D481E72046FFF75CFE86
:10CB7800226C12F0100F034622687FF440AF0028A1
:10CB88007FF43DAF216C364D21F4885121F002012C
:10CB980041F0020121649068296820F040509060BB
:10CBA800906840F0805090602E48A0FB0101890CED
:10CBB80001EB810149000191019900293FF41FAF60
:10CBC80001990139019101990029F9D117E728BB89
:10CBD800616A013943EA414141F480335EE7116BF0
:10CBE800E36921F00F01013B0B43136383E7B1F5C0
:10CBF800307F1ED0B1F5807F25D0B1F5E07F08BF2A
:10CC08004FF4807156E71848A0E71168C9073FF547
:10CC180034AFA1E714484FF0A04397E7216C21F007
:10CC2800220141F020012164616C41F0010161643D
:10CC380034E74FF4E0713DE7064887E71368DB0700
:10CC48003FF51BAF12E74FF4307133E70001005096
:10CC580000050050000700500004005007C0F0FF16
:10CC68000800002083DE1B430003005038B503682A
:10CC78009D6815F004052BD190F83C30012B044633
:10CC880026D0012380F83C30FFF774FEE8B9226C07
:10CC9800236822F4706222F0010242F48072B3F138
:10CCA800A04F226416D0354A93425DD0344A926828
:10CCB800D10611D033498B420ED0226C42F4801237
:10CCC8002264CA68920114D50DE084F83C5038BD3E
:10CCD800022038BD2C4A9268226C22F48012226409
:10CCE800DA68950105D5226C22F4405242F480524C
:10CCF8002264226C12F480521CBF626C22F006027D
:10CD0800626400211C22B3F1A04F84F83C101A6021
:10CD180018D01A4A934215D0194A9168C9060CD0FE
:10CD2800916801F01F01052907D0926802F01F02DF
:10CD3800092A02D0134A9342C9D19A6842F00402E0
:10CD48009A6038BD104A9168CC06F6D0916801F017
:10CD58001F010529F1D0926802F01F02092AECD0C0
:10CD6800B3F1A04FE9D038BD02F500729268D5063C
:10CD7800B2D0226C4FF0A041A0E700BF00010050E4
:10CD880000070050000400500003005090F83C30A9
:10CD9800012B1DD0012310B56C2180F83C300446CE
:10CDA800FFF778FD18B1002384F83C3010BD204609
:10CDB800FFF73AFD0028F6D1236C23F4885323F0BB
:10CDC800010343F001032364002384F83C3010BDC1
:10CDD800022070472DE9F04144690368082C054694
:10CDE8000E460FD0B3F1A04F5CD04248424A4349A7
:10CDF800834218BF0A469168CC063AD1DA68D00750
:10CE08003BD40C24B3F1A04F49D03A4A934250D0B6
:10CE18003A4A9268D20647D1DF68FFF7EBFC2A68E6
:10CE280080461368234204D1731C16D11368234229
:10CE3800FCD02B6C43F400732B64D36807F40051C7
:10CE480003F440630B4302D11368180739D47B04F9
:10CE580000D414600020BDE8F081C6B913682340EF
:10CE6800DFD12A6C85F83C3042F004022A640320A2
:10CE7800F1E7926812F4404FC3D02B6C43F02003C3
:10CE88002B64002385F83C300120BDE8F081FFF7D2
:10CE9800B1FCA0EB0800B0422A68C2D9DEE7164A06
:10CEA8009268B9E7144AA6E7154A9342B4D0D768FE
:10CEB800B3E702F500729268D106ADD04FF0A042F8
:10CEC800F5E7936813F0040F2B6C0AD123F48073F1
:10CED8002B642B6CD904BAD42B6C43F001032B645C
:10CEE800B5E743F020032B646B6C43F001036B64DC
:10CEF800ADE700BF000100500003005000070050DC
:10CF0800000400500368186C704700BFF8B590F82B
:10CF18003C30012B40D0012780F83C7004460D4678
:10CF2800FFF782FC0646002831D1236827649A68F7
:10CF3800BD4222F080429A6003D19A6842F0804252
:10CF48009A609A6842F000429A60FFF753FC23689F
:10CF580005469B68002B14DAFFF74CFC431B0A2B91
:10CF68002368F6D99A68002AF3DA236C002223F0A2
:10CF7800120343F01003012684F83C202364304652
:10CF8800F8BD236C23F0030343F00103236400235B
:10CF980084F83C303046F8BD02263046F8BD00BF64
:10CFA80070B490F83C2097B00346012A4FF0000077
:10CFB800019000F0EA8001201A6883F83C0090682C
:10CFC80040073ED44D680C6805EB4500042D4FEA38
:10CFD800400000F28D80156B4FF01F0C0CFA00FC1E
:10CFE80025EA0C0504FA00F028431063906810F055
:10CFF8000C0F3AD1092C886804EB440500F28880AC
:10D0080056694FF0070CA8400CFA05F526EA050505
:10D0180028435061D0680D694E69C0F3C1004000D3
:10D02800013D86404FEA846C032D00F23F81DFE822
:10D0380015F013000F010501FB001568ED0740F11D
:10D048008D801A6C42F020021A640120002283F8B5
:10D058003C2017B070BC7047156EA648284040EABF
:10D068000C00304340F000401066906800F0030068
:10D07800012800F08580CD680120012D00FA04F018
:10D0880000F08780D2F8B01021EA0001C2F8B01091
:10D09800B2F1A04F00F0998097498A424FD0102CE6
:10D0A80000F09C809549112C40F089808868C50162
:10D0B8001CD4B2F1A04F904849D0824245D0904844
:10D0C800824200F0F1808F4DAA4240D0906800F073
:10D0D8000300012848D11268D207B2D4102C05D019
:10D0E800112C03D08A6842F480028A600020ADE7E0
:10D0F800092D19D90E2D00F28C80956B3C381F260E
:10D10800864025EA060504FA00F0284390636DE797
:10D1180096691E3D4FF0070CA8400CFA05F526EA63
:10D1280005052843906175E7556B1E381F26864014
:10D1380025EA060504FA00F02843506356E7102C48
:10D148007149B0D188680002D0D44FF0A0409568EA
:10D15800029005F00305012D3FF46FAF856805F0D7
:10D168000305012D00F09B80102C7BD0112CB9D128
:10D17800B2F1A04FBAD18A6842F080728A60B5E7EE
:10D188001068C6077FF577AFB0E7022017B070BC0C
:10D1980070478D68D2F8B010092C41EA0001C2F836
:10D1A800B01021D904EB440091691B38072685404B
:10D1B80006FA00F021EA00012943916168E7122C80
:10D1C80094D18868400291D473E7102C4E497FF4BB
:10D1D8006AAF8868050289D44748B8E7474988682C
:10D1E80006027FF56CAF81E7601C516900EB4000D7
:10D1F8000726854006FA00F021EA00012943B2F12A
:10D20800A04F51613FF472AF3B498A427FF44AAF65
:10D218006CE7D56B5A381F26864025EA060504FABE
:10D2280000F02843D063E1E6D56E3248284040EA52
:10D238000C00304340F00040D06616E7956E2D484C
:10D24800284040EA0C00304340F0004090660CE76C
:10D25800556E2848284040EA0C00304340F0004012
:10D26800506602E7B2F1A04F7FF440AF274A284C3E
:10D2780012688868A4FB0242920C02EB82025200F8
:10D2880040F4000088600192019A002A3FF42EAF12
:10D29800019A013A0192019A002AF9D126E7006819
:10D2A800C6073FF5CEAE5FE7164850E7106E00F0B0
:10D2B800F840604514D0506E00F0F840604514D036
:10D2C800906E00F0F840604524D0D06E00F0F84031
:10D2D80060457FF4CAAED06E20F00040D066C4E648
:10D2E800106E20F000401066E5E7506E20F0004018
:10D2F8005066E5E700F0FF8300010050000700508A
:10D3080000040050000500500003005008000020F1
:10D3180083DE1B43906E20F000409066D5E700BF87
:10D32800704700BF00287BD038B590F820300446FD
:10D33800002B72D02268136843F001031360FFF7D3
:10D3480059FA054604E0FFF755FA401B0A285BD84E
:10D3580023685A68D107F6D51A6822F002021A60C3
:10D36800FFF748FA054604E0FFF744FA401B0A288D
:10D378004AD823685A689207F6D4227E012A1A6886
:10D388000CBF42F0800222F080021A60627E012AFD
:10D398001A680CBF42F0400222F040021A60A27ED6
:10D3A800012A1A680CBF42F0200222F020021A60FB
:10D3B800E27E012A1A680CBF22F0100242F0100225
:10D3C8001A60227F012A1A680CBF42F0080222F074
:10D3D80008021A60627F012A1A680CBF42F0040230
:10D3E80022F004021A60D4E90220216902430A43A8
:10D3F80060696168024301390A4300200121DA614A
:10D40800606284F8201038BD636A052243F4003353
:10D41800636284F82020012038BDFFF781FF89E787
:10D428000120704770B490F820200468013A012A5E
:10D4380007D9426A034642F48022012070BC5A622E
:10D448007047D4F800324A69CD6943F00103C4F843
:10D45800003202F01F0001238340D4F81C0220EAA6
:10D468000300C4F81C02D843002D3DD1D4F80C5257
:10D47800CE680540C4F80C528D8804EBC20245EA18
:10D488000645C2F840528E680D8845EA0645C2F83E
:10D4980044528A6912BBD4F804220240C4F8042218
:10D4A8000A69AAB9D4F814221040C4F814020A6A06
:10D4B800012A04D1D4F81C221343C4F81C32D4F82E
:10D4C800003223F001030020C4F8003270BC70471A
:10D4D800D4F814221A43C4F81422E8E7D4F8042232
:10D4E8001A43C4F80422DBE7012DD2D1D4F80C5238
:10D4F8000E681D43C4F80C528D8804EBC20245EA3D
:10D508000645C2F840528E688D8945EA0645C2F83C
:10D518004452BEE738B590F82030012B044605D0B8
:10D52800436A43F400234362012038BD02680223A2
:10D5380080F82030136823F001031360FFF75AF9CD
:10D54800054604E0FFF756F9431B0A2B07D8236862
:10D558005B6813F00103F5D16362184638BD636A4E
:10D56800052243F40033636284F82020DCE700BF1F
:10D5780030B490F820C005680CF1FF3CBCF1010FF5
:10D58800AC6839D814F0E05F06D1436A43F400135D
:10D598004362012030BC7047C4F301640120A040FD
:10D5A80018608B686BB3C8680343486843EAC003D4
:10D5B80004F1180000012B5005EB041C0B69CCF892
:10D5C80084310B7D012B4FEA041105D1DCF884313D
:10D5D80043F48073CCF884316B185168C3F88C110C
:10D5E8001268C3F88821DCF8803143F00103002079
:10D5F80030BCCCF880317047436A43F480234362DF
:10D60800C7E7CB68086843EA405004F118031B01D8
:10D61800E850D1E790F82030013B012B01D90020D8
:10D628007047036898689A689B681201C0F3806025
:10D6380048BF0130DB00F3D50130704790F8202057
:10D64800013A012A034605D9426A42F480220120A0
:10D658005A627047026853690B4300205361704750
:10D668000749CA6803024FF6FF0003F4E06302406B
:10D67800134343F0BF6343F40033CB60704700BFEC
:10D6880000ED00E01B4BDB68C3F3022300B5C3F1D8
:10D69800070EBEF1040F03F1040C28BF4FF0040E6F
:10D6A800BCF1060F1CD9A3F1030C4FF0FF3303FAAA
:10D6B8000CF322EA03024FF0FF3303FA0EF321EAD8
:10D6C800030303FA0CF313431B010028DBB20ADB44
:10D6D80000F1604000F5614080F800335DF804FB1C
:10D6E80000229446E7E7044A00F00F00024413764C
:10D6F8005DF804FB00ED00E0FCEC00E0002807DB2F
:10D708004109044A00F01F000123834042F82130F8
:10D71800704700BF00E100E00138B0F1807F01D31D
:10D728000120704710B44FF0E023074C58614FF0C8
:10D73800F00C84F823C00022072110469A615DF896
:10D74800044B1961704700BF00ED00E0002833D09A
:10D75800D0E90121034610B4D0E903040A43024387
:10D768005869196822430243D3E906402243024319
:10D778000868124C6FF30D100243A1420A6011D9D8
:10D788000F4A1048104C0A44A0FB020212099200EA
:10D798004FF4807100201984C3E90F425DF8044BEF
:10D7A80098637047094A07480A44A0FB0202120915
:10D7B800A4F207449200EBE70120704707040240F7
:10D7C800F8FBFDBFCDCCCCCC00040240F8FFFDBF78
:10D7D80070B490F82040012C09D090F821C00124A1
:10D7E800A44580F8204005D0002380F8203002208E
:10D7F80070BC7047022580F821500468C66B00256C
:10D808008563256825F001052560056C0CFA05F58A
:10D81800756063604368102BC36A0BBFA260A16088
:10D82800E160E26053B1236843F00E03236023688C
:10D8380043F001030020236070BC7047236843F065
:10D848000A032360236823F004032360EFE700BF83
:10D858002DE9F04F0C6885B0002C00F08280002381
:10D868004FF0010B0BFA03FE1EEA040A75D04D684F
:10D8780005F0030C5A0003260CF1FF3806FA02F7EC
:10D88800B8F1010F6FEA07076ED9BCF1030F40F03A
:10D89800BF800CFA02F2D0F800C00CEA07073A433E
:10D8A80015F4403F026058D05F4FBA6942F0010258
:10D8B800BA61BA6902F001020392039A23F00302E3
:10D8C80002F1804202F5803203F0030C97684FEAB8
:10D8D8008C0C0F2606FA0CFEB0F1904F27EA0E07C3
:10D8E80017D0524EB04200F08580514EB04200F041
:10D8F8008880DFF844E1704575D0DFF840E1704575
:10D908000CBF4FF0040E4FF0050E0EFA0CFC47EA60
:10D918000C079760474A9268EE026FEA0A07454E7D
:10D9280054BF3A404AEA0202B260F268AE02414E7F
:10D9380054BF3A404AEA0202F2607268AE033D4EB2
:10D9480054BF3A404AEA020272603268ED03394D28
:10D9580054BF3A404AEA02022A60013334FA03F219
:10D9680080D105B0BDE8F08FD0F80890CE6809EAFC
:10D97800070906FA02F848EA0908C0F80880D0F84A
:10D9880004808E6828EA0E08C5F3001E0EFA03FE0E
:10D998004EEA080EC0F804E0D0F80C8006FA02FE41
:10D9A80008EA07084EEA080EBCF1020FC0F80CE0BE
:10D9B8007FF46FAF0E694FEAD30803F0070E00EB50
:10D9C80088084FEA8E0E06FA0EF6D8F820900196CF
:10D9D8000F2606FA0EFE019E29EA0E0946EA090EEE
:10D9E800C8F820E055E74FF0030E0EFA0CFC47EAA2
:10D9F8000C078EE74FF0010E0EFA0CFC47EA0C07F5
:10DA080087E74FF0020E0EFA0CFC47EA0C0780E796
:10DA1800D0F80C808E6808EA070806FA02FE4EEA7B
:10DA2800080EC0F80CE034E700100240000400487B
:10DA38000008004800040140000C0048001000489D
:10DA48000369194214BF0120002070470AB181619F
:10DA580070478162704700BF436901EA030221EA07
:10DA6800030141EA02418161704700BFF8B50368CC
:10DA78009C6914F0100C054641D0164610220F463A
:10DA8800DA619C6914F0200479D1781C4DD19A6927
:10DA98009106FCD52022DA619A6944F0040CD40579
:10DAA8004FF001002FD457053AD54FF48061D96162
:10DAB8004CF0080C960504D54FF400724CF0020C9B
:10DAC800DA619A69910744BF00229A629A69D2077B
