:020000040800F2
:1000000000A00020B13200080133000801330008CD
:10001000013300080133000801330008000000002C
:100020000000000000000000000000000133000894
:10003000013300080000000001330008013300080C
:1000400001330008013300080133000801330008C0
:1000500001330008013300080133000801330008B0
:1000600001330008013300080133000801330008A0
:100070000133000801330008013300080133000890
:100080000133000801330008013300080133000880
:100090000133000801330008013300080133000870
:1000A0000133000801330008013300080133000860
:1000B0000133000801330008013300080133000850
:1000C0000133000801330008013300080133000840
:1000D0000133000801330008013300080133000830
:1000E0000133000801330008013300080133000820
:1000F0000133000801330008013300080133000810
:1001000000000000000000000000000001330008B3
:1001100001330008013300080133000801330008EF
:1001200001330008013300080133000801330008DF
:100130000133000801330008000000000000000047
:1001400001330008013300080133000800000000FB
:10015000000000000000000000000000000000009F
:100160000000000000000000013300080133000817
:100170000133000800000000000000000000000043
:0801800000000000013300083B
:100188000348044B834202D0034B03B1184770471E
:100198001000002010000020000000000548064B59
:1001A8001B1AD90F01EBA301491002D0034B03B16D
:1001B80018477047100000201000002000000000C1
:1001C80010B5064C237843B9FFF7DAFF044B13B197
:1001D8000448AFF300800123237010BD10000020F5
:1001E80000000000604C000808B5044B1BB104492E
:1001F8000448AFF30080BDE80840CFE700000000E6
:1002080014000020604C000853B94AB9002908BFFF
:1002180000281CBF4FF0FF314FF0FF3001F03AB912
:10022800ADF1080C6DE904CE00F006F8DDF804E045
:10023800DDE9022304B070472DE9F047089D0E461A
:1002480004460F46002B4AD194468C45B2FA82F2F6
:1002580060D942B1C2F12003974020FA03F30CFAA7
:1002680002FC1F4394404FEA1C4E1FFA8CF6B7FB62
:10027800FEF1230C0EFB117743EA074301FB06F05E
:1002880098420AD91CEB030301F1FF3780F015816E
:10029800984240F21281023963441B1AA4B2B3FB9C
:1002A800FEF00EFB103344EA034400FB06F6A642B8
:1002B8000AD91CEB040400F1FF3380F00081A64248
:1002C80040F2FD806444023840EA0140A41B00214A
:1002D8001DB1D4400023C5E90043BDE8F0878B4237
:1002E80005D90DB1C5E9000100210846F5E7B3FAC3
:1002F80083F1002946D1B34202D3824200F2F5804D
:10030800841A66EB030201201746002DE5D0C5E9E3
:100318000047E2E7002A40F09380A1EB0C034FEA84
:100328001C471FFA8CFE0121B3FBF7F607FB1630BA
:10033800230C43EA00430EFB06F0984208D91CEB55
:10034800030306F1FF3802D2984200F2D0804646F5
:100358001B1AA4B2B3FBF7F007FB103344EA0344BB
:100368000EFB00FEA64508D91CEB040400F1FF3380
:1003780002D2A64500F2B6801846A4EB0E0440EA65
:100388000640A5E7C1F120078B4022FA07FC4CEA9A
:10039800030C06FA01FE20FA07F426FA07F344EAEA
:1003A8000E0400FA01F84FEA1C404FEA1449B3FB67
:1003B800F0FE1FFA8CF600FB1E3349EA03430EFBDE
:1003C80006F9994502FA01F20BD91CEB03030EF169
:1003D800FF3A80F08580994540F28280AEF1020EA6
:1003E8006344A3EB0909A4B2B9FBF0F300FB13992A
:1003F80044EA094403FB06F6A64208D91CEB0404A8
:1004080003F1FF3068D2A64266D9023B644443EA4E
:100418000E40A41BA0FB02E6B4427346B14652D379
:100428004FD05DB1B8EB030264EB090404FA07F797
:1004380022FA01F31F43CC40C5E9007400214CE7C0
:10044800C2F1200120FA01F30CFA02FC26FA01F1AC
:10045800964033434FEA1C471FFA8CFEB1FBF7F076
:1004680007FB1016190C41EA064100FB0EF68E42F6
:1004780004FA02F408D91CEB010100F1FF382DD26F
:100488008E422BD902386144891B9BB2B1FBF7F627
:1004980007FB161143EA014306FB0EF1994208D9FE
:1004A8001CEB030306F1FF3814D2994212D9023E1D
:1004B80063445B1A46EA004136E73946EDE61846DA
:1004C80002E7F045ADD2BEEB020366EB0C0601383D
:1004D800B146A6E74646ECE7034698E74046D3E729
:1004E800D6467EE76444023847E708460DE7023EF1
:1004F80063442DE703685A004CBF43F0004323F0E0
:1005080000431844704700BF2DE9F04759B301F183
:10051800FF380546164647464FF0000A0AEB070122
:1005280001EBD171491005EBC1094846FFF7E2FF1D
:1005380088454FEAC104034610D004F10800B342CD
:10054800284407D8FFF7D6FF0138B04208D201F196
:10055800010AE3E78A4506D04F1EDFE7B042F9D823
:100568004846BDE8F0874FF000094846BDE8F087E7
:10057800012809D0022805D0044B00280CBF1846D2
:10058800002070470248704702487047550C000821
:100598005D0C0008590C000830B5224B83B00446A6
:1005A8008D1E43B301A92846AFF30080F0B101992D
:1005B8002A46FFF7A9FF0146C0B1FFF79BFF4B682A
:1005C800A064012B2BD0002B01F1040025DBFFF7E1
:1005D80091FF002323650368E064002B12DBFFF71B
:1005E80089FF03460020236103B030BD00230920A2
:1005F800236103B030BD0C4B0C49C91AC910184609
:100608000191D5E7C3F30360FFF7B2FF031E0CBFE8
:1006180009200020236103B030BD0123DAE700235D
:100628000520E0E700000000D04E00081050000848
:100638000368DA0710B5044606D49B0700F150009A
:1006480009D500F095FC2368590709D51A070ED576
:10065800DB0613D510BD00F083FC23685907F5D4D9
:1006680004F1D80000F08CFC23681A07F0D404F5D4
:10067800AC7000F08DFC2368DB06EBD404F5EC705D
:10068800BDE8104000F0C8BC0346006800B118443B
:10069800704700BF09207047704700BF70B5044617
:1006A8000E46316C2046FFF777FF054688B9326C55
:1006B8006261236932462146012098470828F0D014
:1006C800072806D12846316CFFF7E6FF301D00F0F9
:1006D8003BFCFFDE2DE9F04701F1040CC768D0F8B8
:1006E800188006469146BCE80F00ADF5767D03AC50
:1006F8000FC4BCE80F000FC4BCE80F000FC49CE88F
:100708000F0002AD4FF0000E84E80F00C5F800E0BE
:1007180021E02B6C73614FF4F47229467CA800F039
:100728003BFF33697CAA3146504698478A9BAB64A5
:100738004946CDE900588246334601203246B8473B
:10074800814630BB4FF4F4727CA9284600F024FFA0
:10075800BAF1080F1AD1296C3046FFF71DFF09F1CD
:10076800090904465FFA89FA0028D2D0AB6BAB645A
:100778003246CDE9005833464AF010010120B84707
:1007880038B920460DF5767DBDE8F087BAF1070F38
:1007980005D0092420460DF5767DBDE8F08748464A
:1007A800296CFFF779FF03A800F0CEFB806C704737
:1007B800F0B5CB6B0B6401F1040C0E460546BCE8A2
:1007C8000F00FBB001AC0FC4BCE80F000FC4BCE8BD
:1007D8000F000FC49CE80F004FF0FF3784E80F00AC
:1007E800009706E02B696A46294698470828044678
:1007F80008D110992846FFF7CFFE0028F2D009202B
:100808007BB0F0BD6846FFF713FF062CF7D13146E1
:100818002846FFF743FF00BFC160D96B82611964A6
:100828000022194656E700BF70B5C66843690B64D5
:10083800AEB903690A4604460D46014602209847A8
:10084800072805D008280ED129462046FFF726FF9D
:100858003046296CFFF720FF281D00F075FB0122A8
:10086800FFF738FFFFDEFFDEC2681AB1CA6B0A6401
:1008780000222FE79CE700BF704700BF836801464E
:100888000BB1012018477047052915D8DFE801F09A
:100898000A031403030501207047009A436C136090
:1008A8000020704743B90F2A06D800EB82020020C7
:1008B8005368009A136070470220704700B585B0EE
:1008C8000A46002303A900911946FFF7DDFF0398A4
:1008D80005B05DF804FB00BF052915D8DFE801F075
:1008E8000A031403030501207047009B1B68436437
:1008F8000020704743B90F2A06D8009B00EB8202FC
:100908001B685360002070470220704710B584B000
:10091800002303AC039200940A461946FFF7DCFF54
:1009280004B010BD70B5D36B136402F1040C054616
:100938000C46BCE80F00ADF5107D0DF15C0EAEE87D
:100948000F00BCE80F00AEE80F00BCE80F00AEE8EF
:100958000F009CE80F004FF0FF368EE80F00169648
:1009680010E0FFF7D3FF214616A8A847034616AAAA
:100978000820694683B9049B9847052806460CD089
:10098800092809D026996846FFF706FE03460C2178
:100998006A4616A8002BE4D0092616A8FFF748FED9
:1009A80030460DF5107D70BD2DE9F04F1646CA6C26
:1009B80089B00D4652F8041B069200F0030C002B78
:1009C80079D00C0C8DF81D400904E4B2059102EBB6
:1009D800840202218DF81C10296DBCF1020F08BF9A
:1009E800AA6B11F0010809D005A9304600F0AEFB4A
:1009F800002856D1082009B0BDE8F08F1768002FED
:100A0800F2D000F00801CDE90118E3469A46BAF1A0
:100A1800020F4CD01788548802F10409AA6C24F0FC
:100A280001030F21304603EB0208FFF747FF80451B
:100A38003BD827F0010202EB0803834294BF00234E
:100A48000123640004F0020407F001072743012F83
:100A58004ED0022F35D027BBBBF1000F02D0002BA0
:100A680040F0D38009F104021768002FCFD105A9FF
:100A78003046DDF8088000F069FB90B9B8F1000F46
:100A8800B8D00F213046FFF719FF0E210246304635
:100A9800FFF73CFF6C4A0F213046FFF737FF07206E
:100AA80000E0092009B0BDE8F08F0023C9E75468C9
:100AB80002F10809B2E7090205918DF81D300321FA
:100AC80088E7D9F8004024F00048BBF1000F47D16F
:100AD8002BB1019B002B5CD0B8F1000F59D0002C32
:100AE80001DA09F1040908F1010209EB8202BBE706
:100AF800BBF1000F1CD1C3B1D9F80430D9F80020DC
:100B0800991C4FEAD272CCD005F1580401330494F1
:100B180000F08E8009F10400FFF7B6FD04AB014632
:100B28002846AFF30080002859D109F108029BE755
:100B38000D213046FFF7C2FE2C6A8442F5D1AB6A1C
:100B48009945F2D14846FFF7D5FC0F2102463046B9
:100B5800FFF7DCFE2A4600213046FFF7D7FE9EE766
:100B68000D213046FFF7AAFE2F6A8742B7D1AB6A3C
:100B78009945B4D100240423C5E90B434B44C5F877
:100B880028806B63D9F80030A34258DB0123029315
:100B9800A9E705F15803CDF80CB009F10407B346ED
:100BA80000241E460BE038460496FFF76DFD002230
:100BB800014604AB2846AFF300800437F8B9444532
:100BC80004F10104EFD10D215846FFF777FE049B8D
:100BD800C5F828900246C5E90823062062E70446BE
:100BE8000D213046FFF76AFE049E2862022C04BFDE
:100BF800EE6205F12C06C5E90969062052E75E4652
:100C0800D9F80040DDF80CB069E74846FFF772FCF8
:100C180009F104030446AB632846AFF300800028BB
:100C28003FF43FAF22460F213046FFF76FFE36E70D
:100C380030460D21FFF742FE26462862DBE708F121
:100C4800010209EB82007EE7000000000023ABE60A
:100C58000123A9E60223A7E62DE9F0410646C4B020
:100C68001446052900F2D880DFE811F012002D00A3
:100C7800D6006C0091000600836B002C40F0CC80FD
:100C880053F8042B42648363002044B0BDE8F0812C
:100C9800002B40F0C180856B1FFA84FC012006F10F
:100CA800040E00FA03F111EA0C0F2A4604D052F898
:100CB800041B4EF8231015460133102BF1D1A7045D
:100CC800E2D4B563E0E7012B4FEA1447A4B200F081
:100CD8008380052B40F0A08007EB0408B8F1200FB3
:100CE80000F29A800F2F40F29980002CCCD0026835
:100CF800500700F11881019302AD284600F044F92D
:100D08004FEA440CA7F11000B16B019B0CF1FF3CBA
:100D180005EBC0000CF1010C043801EB8C0251F812
:100D2800044B40F8044F9142F9D1012B00F0DE80CA
:100D38000F2FB16302D822A800F01AF9284600F054
:100D48001FF9A1E7032B67D1A7B207EB1443102BB8
:100D58004FEA144460D80368190700F1BF8022AD38
:100D6800284600F037F97A00B06B05EBC404531E2F
:100D780042B1011B625844F8042B013B5A1CF9D1BB
:100D880000EBC700B063284600F002F97CE7002BAF
:100D980042D1102C40D80368DD0600F1978022ADBF
:100DA800284600F043F9B76B294600234FF0010CA1
:100DB8000CFA03F22242384603F1010303D050F83B
:100DC800042B0A600746042B01F10401F0D1B76334
:100DD800284600F021F957E73A19102A1CD8102F95
:100DE8001AD00268D00708D5304622F0030240F82E
:100DF800502B019300F0B8F8019B019322AD2846CF
:100E080000F0B2F8B26B019B002C58D10432B263E7
:100E1800284600F0A5F837E7022036E7B8F1100FAA
:100E2800026865D9D40772D522F0010242F00202A5
:100E380040F8502B019300F09FF83268019B12F0A4
:100E4800040F66D122AD2846019300F095F802A858
:100E580000F09AF8C7F110014900B26B019BA8F1A4
:100E6800100C4C1E05EBC7000134043802EB84015A
:100E780052F8044B40F8044F8A42F9D1BCF1000FF4
:100E88005AD0102F384638BF10204FEA4C0C103873
:100E980002AD0CF1FF3C05EBC0003BE7304622F009
:100EA800010242F0020240F8502B22AD019300F0FB
:100EB80063F8284600F060F8B26B24B3019B640025
:100EC800013C05EBC7004FF0000CCDE723F0100301
:100ED800036000F5EC7000F0A9F860E723F0080360
:100EE800036000F5AC7000F075F838E722AD8DE7C7
:100EF800D107D3D422AD2846019300F03DF8B26B58
:100F0800019B002CDBD1284600F032F8BCE65407E0
:100F180098D5304622F0040240F8D82B019300F00F
:100F280033F8019B8EE7304622F0040240F8D82BB4
:100F3800019300F029F8DFE6012B3FF467AF0F2F8C
:100F4800B2633FF6A1AEDEE700F1340191E8380064
:100F58009C46A6464CF8045D90E8FF0FE54600BDA8
:100F680090EC210B704700BF80EC210B704700BF4D
:100F780090EC200B704700BF80EC200B704700BF3F
:100F8800D0EC200B704700BFC0EC200B704700BFAF
:100F9800F0EC0201F0EC0211F0EC0221F0EC02316D
:100FA800F0EC0241F0EC0251F0EC0261F0EC02715D
:100FB800F0EC0281F0EC0291F0EC02A1F0EC02B14D
:100FC800F0EC02C1F0EC02D1F0EC02E1F0EC02F13D
:100FD800704700BFE0EC0201E0EC0211E0EC0221F6
:100FE800E0EC0231E0EC0241E0EC0251E0EC02619D
:100FF800E0EC0271E0EC0281E0EC0291E0EC02A18D
:10100800E0EC02B1E0EC02C1E0EC02D1E0EC02E17C
:10101800E0EC02F1704700BFB0FC0181B0FC019127
:10102800B0FC01A1B0FC01B1704700BFA0FC018178
:10103800A0FC0191A0FC01A1A0FC01B1704700BF78
:10104800EC4600B52DE900502DE9FF1F4FF00003D5
:101058002DE90C0001A9FFF7ABFBDDF840E012B069
:10106800704700BFEC4600B52DE900502DE9FF1F81
:101078004FF000032DE90C0001A9FFF7D5FBDDF8BF
:1010880040E012B0704700BFEC4600B52DE90050B3
:101098002DE9FF1F4FF000032DE90C0001A9FFF710
:1010A800E3FBDDF840E012B0704700BFEC4600B546
:1010B8002DE900502DE9FF1F4FF000032DE90C002A
:1010C80001ABFFF7A9FBDDF840E012B0704700BFA5
:1010D800EC4600B52DE900502DE9FF1F4FF0000345
:1010E8002DE90C0001AAFFF71DFCDDF840E012B065
:1010F800704700BF027A03467AB9427AA2B14168C2
:10110800013A10B44272086803220C1D1A720202D6
:101118005C60000E10BC1A6070470068013A1A72D1
:1011280002021A60000E7047B020704700B585B003
:1011380003AA0023009219460C22FFF7A5FB039887
:1011480005B05DF804FB00BFF0E700BF2DE9F043F0
:10115800064685B00D464FF000082846FFF7CAFF3F
:10116800B028044600F01C8107065BD500F0F003A8
:10117800A02B1AD030D8802B00F08280902B27D15A
:1011880000F00D030D2B23D002AF002300F00F0257
:10119800194600973046FFF777FB002300970D228A
:1011A80019463046FFF798FBD7E7C34303F0070318
:1011B8004FF47F621A41010702F47F6201D542F4BD
:1011C8008042002319463046FFF746FD0028C4D068
:1011D800092005B0BDE8F083B02B68D0C02B3DD105
:1011E800C62800F0CA80C72800F0DF8000F0F803A6
:1011F800C02B00F0EC80C82800F0F780C928E7D1A0
:101208002846FFF777FF020300F00F0002F4702270
:1012180001300243012105233046FFF71DFD002858
:101228009BD0D5E78300DBB21F1D0DF10809002311
:101238001946CDF800900D223046FFF725FB029B9A
:10124800CDF8009060064CBFDF1BFF1800230D226D
:10125800194630460297FFF73FFB7EE700F0F80398
:10126800D02BB5D100F007020132052342F4002249
:1012780001213046FFF7F0FC00283FF46EAFA7E7E6
:101288002846FFF737FF24022043B0F5004F9FD0D0
:1012980004010023A2B219463046FFF7DDFC0028FE
:1012A80096D114F4004F18BF4FF0010855E7A0F18C
:1012B800B103042B00F2B580DFE803F05529160CC2
:1012C800030003AA0023009219460D223046FFF7B7
:1012D800DBFA42E700231A4605213046FFF7BCFC3B
:1012E80000283FF43AAF73E72846FFF703FF0203ED
:1012F80000F00F00013002F4702201230243194666
:101308003046FFF7A9FC00283FF427AF60E7002329
:101318000DF108090D221946CDF800903046FFF767
:10132800B3FA2846FFF7E6FE0206029C4FF00207D2
:101338000BD500F07F00B840044428460294FFF71C
:10134800D9FE030607F10707F3D4B840002304F5D4
:1013580001740444CDF800900D22194630460294D9
:10136800FFF7BAFAF9E62846FFF7C4FE431EDBB2D8
:101378000E2B02467FF625AF2AE72846FFF7BAFE6E
:10138800020300F00F00013002F47022032302432D
:1013980019463046FFF760FC00283FF4DEAE17E739
:1013A800B8F1000F2DD0002013E72846FFF7A2FE62
:1013B800431EDBB20E2B02463FF60AAF0023042180
:1013C8003046FFF749FC00283FF4C7AE00E700F0BD
:1013D8000F020132032342F4202219463046FFF758
:1013E8003BFC00283FF4B9AEF2E62846FFF782FE40
:1013F80000F0F00200F00F031032013343EA02322A
:1014080008E702AC4346414600940E223046FFF7F7
:101418003BFA0F220094434641463046FFF75CFAF8
:10142800C1E700F0FC03B42B3FF4D2AE00F0070292
:101438000132012342F4002219463046FFF70CFC22
:1014480000283FF48AAEC3E610B5C26C536884B076
:101458004FF0030C08321C0208461B0E01A9019428
:1014680002928DF80CC08DF80D30FFF76FFE04B0B6
:1014780010BD00BF08B5FFF767FE806C08BD00BF50
:1014880008B5FFF761FEC06CC37900EB8300083034
:1014980008BD00BF704700BF830730B547D0541E52
:1014A800002A3ED0CAB2034601E0013C39D303F812
:1014B800012B9D07F9D1032C2CD9CDB205EB0525BD
:1014C8000F2C05EB054535D9A4F1100222F00F0CBD
:1014D80003F1100EE6444FEA121C1A46C2E9005501
:1014E800C2E9025510327245F8D10CF1010214F02C
:1014F8000C0F03EB021204F00F0C13D0ACF1040331
:1015080023F003030433134442F8045B9342FBD1F2
:101518000CF003042CB1C9B21C4403F8011BA3420C
:10152800FBD130BD64461346002CF4D1F9E70346DD
:101538001446C0E71A46A446E0E700BF032A30B4C1
:1015480015D941EA0004A40784460B4604D0541E6A
:101558000FE0043A032A08D91946604653F8044BA9
:101568005CF8045BA542F4D0F1E760461946541EC6
:101578007AB1431E0139021901E09A4209D013F8E1
:10158800010F11F801CF6045F7D0A0EB0C0030BC7B
:101598007047002030BC7047844641EA000313F0CE
:1015A80003036DD1403A41D351F8043B40F8043B62
:1015B80051F8043B40F8043B51F8043B40F8043B25
:1015C80051F8043B40F8043B51F8043B40F8043B15
:1015D80051F8043B40F8043B51F8043B40F8043B05
:1015E80051F8043B40F8043B51F8043B40F8043BF5
:1015F80051F8043B40F8043B51F8043B40F8043BE5
:1016080051F8043B40F8043B51F8043B40F8043BD4
:1016180051F8043B40F8043B51F8043B40F8043BC4
:1016280051F8043B40F8043B403ABDD2303211D364
:1016380051F8043B40F8043B51F8043B40F8043BA4
:1016480051F8043B40F8043B51F8043B40F8043B94
:10165800103AEDD20C3205D351F8043B40F8043B64
:10166800043AF9D2043208D0D2071CBF11F8013B62
:1016780000F8013B01D30B8803806046704700BF28
:10168800082A13D38B078DD010F003038AD0C3F137
:101698000403D21ADB071CBF11F8013B00F8013B19
:1016A80080D331F8023B20F8023B7BE7043AD9D3D8
:1016B800013A11F8013B00F8013BF9D20B780370AD
:1016C8004B7843708B7883706046704770B50F4BCA
:1016D8000F4DAB42A3EB050607D0B610002455F812
:1016E800043B01349847A642F9D803F0B5FA094DEE
:1016F800094B5E1BAB424FEAA60606D0002455F8FC
:10170800043B01349847A642F9D870BD1050000830
:101718001050000810500008185000080023014617
:101728001A46184600F014B838B5074D074C2C1B5C
:10173800A41005D0013C55F8043D9847002CF9D178
:10174800BDE8384003F08EBA1C5000081850000855
:1017580070B4164D2C681CB365681F2D23DC38B98E
:10176800AB1C0135656044F82310002070BC70473D
:1017780004EB850C0228CCF88820D4F888614FF057
:10178800010202FA05F246EA0206C4F88861CCF8BA
:101798000831E5D1D4F88C311343C4F88C31DFE734
:1017A800034C2C60D8E74FF0FF30DFE72C00002017
:1017B800300000202DE9F04FCDB00DF12C09834603
:1017C8001BAF0CA84A464B780E78CD788C781B0452
:1017D80043EA06632B4343EA042342F8043FBA4230
:1017E80001F10401EFD10CAE1A9B1B9C56F8C01BEB
:1017F8001F46D0F824C00D4650F8041F4FEAF742A0
:1018080082EA77424FEAB14382EA972283EAF113E8
:10181800624483EAD1031A442746B04205EB020426
:10182800C463E6D1DBE90012DBF80830DBF81C50B2
:10183800DBF80C400395DBF81000DBF81470DBF8DC
:10184800186005940194CDE90912314DDDF80CA01A
:1018580004930690079708969E4614468C46CDF842
:101868002CB005E03E46A6460746644640469C46E0
:1018780055F8042F59F8041F4FEAF02383EAB013F0
:101888000A4483EA7063134426EA000800EA070260
:1018980088EA02084FEA7C3282EABC0282EABC5239
:1018A80002924344019ACDF804E053441A4484EA6E
:1018B8000E0101EA0C01904604EA0E0B029A81EA35
:1018C8000B010A441344134A9542B246CAD1DDE9D2
:1018D80009121944049B059DDDF82CB023441C46CD
:1018E800069B434462449C46079B03441846089B56
:1018F8003B441F46039B75443344CBE90012CBE9B4
:101908000245CBE904C0CBE906734DB0BDE8F08FC2
:10191800844D0008844E00082DE9F0411C4D2B78B9
:1019280006460F469046A3B1B8F1000F2DD007EB3D
:101938000801184C7A1E0139304612F8013F43401D
:10194800DBB28A4254F8233083EA1020F5D1BDE88F
:10195800F081114811499E4600F5806472460823BB
:1019680042F3000C013B0CEA010C13F0FF038CEA74
:101978005202F5D140F8042F84420EF1010EEDD148
:1019880001232B70B8F1000FD1D13046BDE8F081AA
:10199800080A00200C0A0020080A00202083B8ED5D
:1019A8002DE9F04716460746884602F019F8234BFA
:1019B8003422DA60002E3DD008F10109CA4600251C
:1019C80001E0AE421CD96B1C9E421AF8012C88BF5C
:1019D8009AF8003007EB05018CBF42EA032242F473
:1019E8007F420023012002F045F8023504460AF13F
:1019F800020A0028E5D002F007F80020BDE8F087C9
:101A080002F002F82046431C9E4218F8002084BFCA
:101A180019F8003042EA03223B5A98BF42F47F4249
:101A28009BB29A4200F10200E7D18642EBD801202E
:101A3800BDE8F08701F0E8FFF9E700BF00200240A9
:101A480070B5234C234D06460FCC94B00DF1140C01
:101A5800ACE80F000FCCACE80F000FCCACE80F00DF
:101A680094E80700059BAB428CE8070005D13C22AF
:101A7800314605A8FFF762FD28B315490123002068
:101A8800CDE90201049301F0ABFF134B3422DA6075
:101A980001A902A802F044F8044601F0B5FF2CB9E8
:101AA800019B013306D0204614B070BD00242046A7
:101AB80014B070BD3C2231460548FFF771FF04465B
:101AC800204614B070BD0124204614B070BD00BF7C
:101AD800007800084150415500200240F8B5866E54
:101AE80082190D46372E4FF08001044606F1010396
:101AF80082F8281045D8382B07D006F12900C6F1FE
:101B0800370220440021FFF7C7FC04F12807D4E975
:101B180008230820E6FB0023226212BA1E0E626622
:101B2800002266F307021E0C66F30F221E0A66F3F4
:101B3800174263F31F623946636220462266FFF745
:101B480039FE1823691E2268DA4001F8012F6268FD
:101B5800DA400A71A268DA400A72E268DA400A7367
:101B68002269DA400A746269DA400A75A269DA40C1
:101B78000A76E269DA40083B13F1080F0A77E2D1E6
:101B8800F8BD3F2B07D806F12900C6F13F022044D3
:101B98000021FFF781FC04F1280739462046FFF7AA
:101BA80009FE382200213846FFF776FCAFE700BF70
:101BB80000B585B0014605234FF0000C00938DF861
:101BC8000D10022303AA782103488DF80CC002F0F7
:101BD80085FA05B05DF804FB100E0020D0B5304A38
:101BE8003048D2F80048D2F80818D2F80C38D2F8A1
:101BF8001028844292B030D000231C46194618465B
:101C08001E461F461A468DF813008DF8141040F230
:101C1800F97008218DF8172001228DF811708DF8C0
:101C280012608DF815408DF8163006900DEB010303
:101C38000A918DF810201C4800260027002404AAC9
:101C480006A9CDE908678DF82C4001F035FD164846
:101C580001F084FD60B912B0D0BD0F0EC1F3074684
:101C6800C1F30720C3F30724D2B2C9B2DBB2CAE773
:101C78000E4B8DF844401B68ADF80430180C032156
:101C880040F2FA728DF806000C92109103AB01AA8B
:101C98000CA90548CDE90E6701F00EFD12B0D0BDC4
:101CA8000070000841504155740E0020784C00081F
:101CB800F0B5174D174E89B007460524284601F0A0
:101CC8004DFD78B9304602F0ABFB012001F072FB04
:101CD800631E13F0FF04F1D10D4801F03FFD08B970
:101CE80009B0F0BD40F2F57101220024029106927C
:101CF800002501AB6A4602A905488DF80070CDE9B8
:101D080004458DF81C4001F0D7FC09B0F0BD00BFB8
:101D1800740E0020640E0020F0B5184D184E89B0DE
:101D280007460524284601F019FD78B9304602F027
:101D380077FB012001F03EFB631E13F0FF04F1D195
:101D48000E4801F00BFD08B909B0F0BD052140F2BD
:101D5800F572022300248DF80010029206930025E4
:101D680001AB6A4602A905488DF80170CDE9044522
:101D78008DF81C4001F0A0FC09B0F0BD740E0020E5
:101D8800640E0020000000002DE9F04FD7B02AAD06
:101D9800DFF860B29046814640220C462846002172
:101DA800CDF80480FFF778FBBBE80F00AA46AAE845
:101DB8000F009BE80F008AE80F001AAE0DF1A40E81
:101DC8000DF1240C37465EF8043F83F0363283F079
:101DD8005C334CF8042F47F8043BAF42F3D17DA1A4
:101DE800D1E90001CDE93A017CA1D1E90001CDE9B1
:101DF8003C017CA1D1E90001CDE93E017BA1D1E9FB
:101E080000010AAFCDE94001002300200021CDE9FF
:101E18004201DFF8BCA1B8469B4602E0B04516D0A7
:101E2800549B18F8010B03F5AC720DEB020101335A
:101E3800402B549301F8480C00F08A80A8EB070364
:101E4800012BEBD1504602F0EBFAB045E8D10CB3C8
:101E58004FF00008DFF878A1C34603E008F1010855
:101E6800444517D0549B19F8080003F5AC720DEBE4
:101E780002010133402B01F8480C549377D0C8F382
:101E88000B03002BEAD1504608F1010802F0C8FA0A
:101E98004445E7D10DF1080949463AA8FFF71EFE67
:101EA8004CA1D1E90001CDE93A014CA1D1E90001E9
:101EB800CDE93C014BA1D1E90001CDE93E014BA19F
:101EC800D1E900010024CDE9400100200021CDE93D
:101ED8004201DFF8FCA0B046A34601E0454514D016
:101EE80004F5AC730DEB0302013418F8011B02F87A
:101EF800481C402C549449D0A8EB0602012AEDD185
:101F0800504602F08DFA4545EAD1314E4D464FF024
:101F1800000A02E0AF4214D0549C15F8012B04F5D6
:101F2800AC736B440134402C549403F8482C3DD0D6
:101F3800A5EB0903012BEDD1304602F071FAAF424F
:101F4800EAD101993AA8FFF7C9FD57B0BDE8F08F6B
:101F580044A93AA8FFF72EFCDDE9423113F50073D6
:101F680041F10001CDE94231CDF850B166E744A90D
:101F78003AA8FFF71FFCDDE9423113F5007341F180
:101F88000001CDE94231CDF850B178E744A93AA82B
:101F9800FFF710FCDDE9422112F5007241F1000162
:101FA800CDE94221CDF850B10024A5E744A93AA8CB
:101FB800FFF700FCDDE9423213F5007342F100023D
:101FC800CDE94232CDF850A1B2E700BFAFF30080AF
:101FD800640E002067E6096A85AE67BB72F36E3C43
:101FE8003AF54FA57F520E518C68059BABD9831FDC
:101FF80019CDE05B7C4C00082DE9F041C4B080228B
:10200800002103A8FFF748FA274F284EB0244FF0C5
:10201800000897F800C00525022323AA7821304636
:10202800BCF1000F39D000958DF88C808DF88D406B
:1020380002F054F897F800C00223782123AA30460A
:10204800BCF1000F29D00095ADF88C8002F046F85D
:1020580097F800E04FF4805C022323AA78213046E9
:10206800BEF1000F19D00095ADF88CC002F036F81B
:1020780097F800C04023802203A90DF18D00BCF120
:10208800000F0AD08DF88C30FFF786FA812378216B
:10209800009523AA304602F021F80134E4B2B82CA6
:1020A800B7D144B0BDE8F0810C0E0020100E00201E
:1020B800F0B51B4D2B7885B00BB905B0F0BD503885
:1020C80005270C468DF80D00022303AA1548009732
:1020D800002678218DF80C6002F000F82A7804F0C8
:1020E8000F03002AE9D08DF80D30782102230D481E
:1020F800009703AA8DF80C6001F0F0FF2B782109F6
:102108001031002BD9D08DF80D100097022303AAA7
:10211800782104488DF80C6001F0E0FF05B0F0BDAF
:102128000C0E0020100E00202DE9F04FE7B005AE90
:102138009046039080228B463046002125ADFFF75C
:10214800ABF9002180222846FFF7A6F998F800107D
:1021580000295ED0DFF83491DFF834A15B460BF13B
:102168000A0703245A462539C9B2302900F2858066
:102178001AF8011001EB81004FEA810B19F800C031
:1021880002938B44CB449E46002319464CFA03F035
:1021980010F0010F4FEA430003F1010303D004FAE2
:1021A80000F00843C1B2042BF0D14FF0000361F3F3
:1021B800070361F30F231CF0100118BF03211CF063
:1021C800200F18BF41F00C011CF0400F18BF41F060
:1021D800300126F80E3018BFC9B24FF0000361F382
:1021E800070361F30F2325F80E300EF1020E1FFAD4
:1021F8008EFEBE4502D01BF801CFC5E7029B18F83A
:10220800011F0A339BB219B10A37772BBFB2AAD97B
:1022180093461C4C03985946FFF74AFF237883B12D
:102228004023314680220DF215108DF81431FFF746
:10223800B3F9052300931448812345AA782101F0B6
:102248004DFF039801305946C0B2FFF731FF23789C
:1022580083B14023802229460DF215108DF81431E0
:10226800FFF79AF9052300930748812345AA7821A7
:1022780001F034FF67B0BDE8F08F4FF0000C614605
:10228800E3467DE70C0E0020100E0020F44C0008F9
:10229800C04C00082DE9F0476428054628BF64258E
:1022A800C5EBC5038E4AC3EB03135C19A2FB0424D8
:1022B800CAB000238046C4F347140DAA1846412724
:1022C8007F2607E06D2B0AD08C422CBF1670177042
:1022D80001330132D9B2002BF4D10120F8E710B153
:1022E8007F238DF834307F4E33787F228DF8A120FC
:1022F800002B40F0A380B8F1630F4FF0000700F205
:10230800E080B8F1090F00F2858030350DF10C0836
:102318005FFA85F988F8009002220121002525231B
:1023280005AC08F80130204608F8025029461E225C
:10233800FFF7B2F86C48DFF8BCC129464FF0050E2C
:10234800A9F125095FFA89F9B9F1300F94BF1CF892
:102358000920002202EB820202442B4699460133EF
:10236800DBB212F801AB04F809A07345F6D10131CC
:10237800C9B2063518F801900633EDB25FFA83FE4C
:10238800B9F1000FDCD1002F41D04FF433430527BA
:10239800ADF8A43055480097022329AA782101F006
:1023A8009DFE3378002B32D04FF48063ADF8A43013
:1023B8004E480097022329AA782101F08FFE33782E
:1023C8002BB34FF480520223ADF8A420474800975E
:1023D80029AA782101F082FE3378C3B14023802DE9
:1023E8002E468DF8A43028BF80263DB1721E92B2C9
:1023F800013221460DF1A500FFF7CEF80522731C26
:1024080000923A489BB229AA782101F067FE4AB0A7
:10241800BDE8F087364BA3FB0523DB0803F1300941
:1024280003EB8303A5EB430330330DF10C080322C0
:10243800022188F8009088F801306FE74FF435439F
:102448000524ADF8A43029480094022329AA78214C
:1024580001F044FE3378002B3FF44DAF4FF4806316
:10246800ADF8A43021480094022329AA782101F06C
:1024780035FE3378002B3FF43EAF4FF48053ADF870
:10248800A4301A480094022329AA782101F026FED4
:102498003378002B3FF42FAF40230DA96E220DF1A6
:1024A800A5008DF8A430FFF777F8104800946F2343
:1024B80029AA782101F012FEB8F1630F37787FF668
:1024C80020AF0DF10C0843F231023023A8F80020A8
:1024D80088F802304FF03109042203211EE700BFBB
:1024E8001F85EB510C0E0020F44C0008100E002044
:1024F800CDCCCCCCC04C00082DE9F047324D334E42
:102508002868326800F580304830B2F5006F88B02E
:102518004FEAC02406D22E48FF211044C2F50062BB
:10252800FEF7BAFF2A494FF400622046FFF738FA4F
:10253800074618B9384608B0BDE8F0872B68DFF8B9
:102548009480DFF89490052493FA83FA404601F0CA
:1025580005F930BB484601F063FF012000F02AFF6F
:10256800631E13F0FF04F1D11A4801F0F7F8C0B95F
:102578002A681948002401322A60346001F050FFAB
:10258800164A174B11681A6864202346A1FB0001FC
:10259800FDF73AFEC0B2FFF77DFE384608B0BDE849
:1025A800F087002340F2F3720421CDE9043302924C
:1025B8008DF81C30069101AB6A4602A90548CDF892
:1025C80000A001F079F8D3E7D0010020D401002061
:1025D800D8010020740E0020640E0020FC090020A1
:1025E800040A00202DE9F0430368414C4268414940
:1025F8001BBA2360013B10BAB3F5E03F85B0086011
:102608006FD23D4B9A4249D1FFF7F6FC3B4A102165
:102618000020FFF789FD0020FFF73CFE266806F240
:10262800FF76F60A0220FFF743FB002E3CD006F5A2
:1026380080364836324DDFF8F480324FF6024FF0DC
:10264800000908E0009B013318D105F5006501F089
:10265800E7FEB54228D001230393CDE9019501F0A7
:10266800BFF93423C8F80C30694601A801F058FABC
:10267800044601F0C9F93846002CE3D0FF20FFF7E3
:1026880017FB214B01221A70FFF7B6FC1F4A0421E1
:10269800022005B0BDE8F043FFF746BD042005B0B1
:1026A800BDE8F043FFF738BB19491A481A4D1B4CCF
:1026B8001B4A00230B60144903701A482B602360DF
:1026C8000B7001244FF0FF331360047000F06CFEB0
:1026D800154B024603201A6005B0BDE8F043FFF72A
:1026E800E7BAFF2005B0BDE8F043FFF7E1BA00BF45
:1026F800040A0020000A00200303CC01A04C0008B3
:1027080000400208640E0020C4010020AC4C000800
:10271800D0010020D8090020FC090020D4010020A5
:1027280000000020CC010020C80100200020024049
:102738002DE9F04F00F2FF7E5FEADE2E8FB069D000
:102748004FF0000A4FEACE2383460093642455468F
:10275800CDF804E033E0039B013357D1FFF720F9AC
:10276800002853D02D4801F05BFE019A33462046DD
:102778005146FDF749FDC7B23846FFF78BFD28489B
:1027880000F0ECFFA8B140F2F6720723089202228B
:102798008DF808308DF809708DF834600C92002699
:1027A80000271F4804AB02AA08A9CDE90A6700F070
:1027B80083FF009B64344AF1000A9D422AD005F148
:1027C8000067A84607F50047002105F50065AB45F9
:1027D800CDE905174FF0010134BFABEB08094FF401
:1027E8000069079101F0FCF80E4B3421D96005A867
:1027F80003A901F095F9064601F006F908F1006110
:102808004A4601F510313846002EA4D000200FB0FA
:10281800BDE8F08F01200FB0BDE8F08F640E0020F6
:10282800740E00200020024030B591B02022002113
:1028380007A8FEF731FE1021012000240225CDE96A
:102848000A014FF4601306A80F93CDE90244CDE9BD
:102858000444019406950D9501F05CFE0F224FF497
:10286800806301A82946CDE90125CDE903430594F4
:1028780002F03AF911B030BD2DE9F04FAB4DAC4E36
:10288800BBB000F07FFDFFF7CFFF6B6943F4003367
:102898006B616B6903F400330793079BEB6943F0A3
:1028A8000073EB61EB6903F00073089300244FF4A5
:1028B800C0521CA9089B1E9409234FF002084FF030
:1028C800030A4FF09040CDE91C282093CDF87CA056
:1028D80001F088F9974BB4834FF00409C6E9003931
:1028E8004FF440274FF48013C6E9047330464FF085
:1028F8000123B3610127C6E9024400F06FFD0E23EE
:102908002BA930463493CDE93044CDE92B44CDE9A9
:102918002D44CDE932772F9400F0E2FD304600F0E7
:1029280057FE6B69844E43F400336B616B692D97D6
:1029380012224FF4C06103F40033CDE92B1209933E
:102948002BA94FF09040099BCDE92EA901F04AF937
:10295800C6E90247C6E90444C6E90744EB69DFF85B
:1029680008C243F40013EB61EB6903F400130A9304
:102978000A9B724B3046C6E900C301F055FB322072
:1029880000F018FD424630460523782101F07EFC10
:10299800002840F019826A4C0546AE202770FFF7E0
:1029A80007F92378002B40F053826648664A674D42
:1029B800674E0323C0E9002340F2E733836001F048
:1029C80001FD0FCD1CAC0FC40FCD0FC40FCD0FC42C
:1029D80095E8070084E807001C9BB34200F0E282F8
:1029E8005C4C236803F16043B3F5204F40F2EF815C
:1029F800002400F0D9FC584EDFF848814C4D0746BA
:102A08004FF0000900F0D0FCC31BB3F5167F3ED28F
:102A1800404601F005FD0021284600F037FF70B15F
:102A280014AB2BAA0021284600F0ACFE38B92B9B2A
:102A380040F2F17293426AD0B3F5FF6F6ED000F0A6
:102A4800B3FC3368C31AB3F57A7FDBD300F0ACFC70
:102A58003060284600F082FE0028D3D04FF601737C
:102A6800ADF82C3040F2F6731C93022320930BAA86
:102A78000DAB1CA92846CDE91E998DF8849000F06D
:102A88001BFE00F091FCC31BB3F5167FC0D3002CCE
:102A980040F0B9820120FFF70BF9304DDFF8CCA0E8
:102AA800DFF8CC80DFF89C90DFF884B0484601F06E
:102AB800B7FC0021584600F0E9FE00285AD100F082
:102AC80073FC3368C01AB0F57A7F80F09F809AF85B
:102AD8000030002BEAD098F80040002CE6D100F036
:102AE80063FC1F4B1B6842F21072C31A9342DDD974
:102AF8008AF8004088F80040FFF77EFA194A042156
:102B08000220FFF711FB0120FFF7D2F8CEE72F9B39
:102B1800082B94D114A8FFF765FDBBE7044800F023
:102B28001DFE00288BD0FFF759F888E700100240F7
:102B3800740E002000640040100E00202A231000AC
:102B48000C0E0020640E00200030004000780008C1
:102B58004150415500800008C0010020080E0020A7
:102B6800C8010020AC4C000800540040CC010020F3
:102B7800C40100200BAB0DAA0021584600F002FE4C
:102B880000289CD10D9B40F2F172934271D040F223
:102B9800F772934275D040F2F272934200F093803C
:102BA80040F2F472934240F00281119B082B86D1C7
:102BB8009AF80030002B82D098F80040002C7FF45F
:102BC8007EAF00F0F1FB944B1860944B1B68002B10
:102BD80040F00683924B1A68924B1B689A4204D1C4
:102BE800914B1F78042F00F06C820120FFF794F8B6
:102BF80000238AF80030012388F80030FFF7FCF939
:102C08008A4A04210220FFF78FFA58E700F0CCFB2C
:102C18009AF8003030604BB398F8003033BB814AE3
:102C280012681AB37E4909686420A1FB0001FDF708
:102C3800EBFA0327C4B2584600F090FD00283FF491
:102C480046AF0023CDE92D338DF8C03040F2F6733E
:102C58002B9302232F9314AA1CAB2BA958468DF84B
:102C680050708DF8514000F027FD30E70127FF2410
:102C7800E1E7119B082B7FF422AF0BA8FFF7B2FC0A
:102C88001DE7119B082B7FF41AAF9AF80030002B30
:102C98003FF415AF98F80030002B7FF410AF62496D
:102CA8000B78032B3FF60BAF614A02EBC3020133EB
:102CB8000B700BAB93E8030082E8030000F074FB91
:102CC800554B1860FBE69AF80030119C002B3FF436
:102CD800F6AE98F80030002B7FF4F1AE082C3FF6E2
:102CE800EEAE4F4B1A684F4B1B689A42C0F05581A5
:102CF800002C3FF4E4AE0BABE3180BA9CDE90113AC
:102D08004C4F14E0464C01328EEA0001C9B22260F1
:102D1800494A52F82120494982EA1022B3F5006F46
:102D28000A603CD0DDE9012393423FF4C8AE3C4B36
:102D38001A683C4B1B689A42BFF4C1AE019C3748E5
:102D480014F801EB036801943D4C3E4904F803E094
:102D5800013303600978394800680029D2D1DFF8C7
:102D6800ECC0019C0593CDE9032E8E4671460823DD
:102D780041F30002013B3A4013F0FF0382EA51019C
:102D8800F6D14CF8041F65450EF1010EEED1019401
:102D98002C4C059B0121DDE9032E2170B2E7FFF7DA
:102DA800ABFB0028BED1FF20FEF782FF23E7B3F577
:102DB800FF6F7FF484AE584600F0D0FC00283FF443
:102DC8007EAEFEF70BFF7AE61F4B1C70EDE52C225A
:102DD80000212FA8FEF760FB01234FF4E035CDE971
:102DE8002B632E9303F1407303F5733321462A4670
:102DF8004FF0FF302D933095FEF78EFD2946C343E3
:102E080032AA20463193FEF7BFFF2BA8FEF718FE23
:102E1800041E18BF0124ECE5C8010020D4010020DD
:102E2800FC090020040A0020D8090020AC4C000846
:102E3800DC0900202083B8ED0C0A002000000020E7
:102E4800D8010020080A00200C0E0020080A0020E3
:102E5800D520FEF7ADFE2378002B3FF4A6AD8020E9
:102E6800FEF7A6FE2378002B3FF49FADA820FEF7BF
:102E78009FFE2378002B3FF498AD3F20FEF798FE85
:102E88002378002B3FF491ADD320FEF791FE2378F1
:102E9800002B3FF48AAD2846FEF78AFE2378002BE4
:102EA8003FF483AD4020FEF783FE2378002B3FF4E8
:102EB8007CAD8D20FEF77CFE2378002B3FF475ADAA
:102EC8001420FEF775FE2378002B3FF46EAD20200A
:102ED800FEF76EFE2378002B3FF467AD0220FEF765
:102EE80067FE2378002B3FF460ADA120FEF760FE5B
:102EF8002378002B3FF459ADC820FEF759FE2378FC
:102F0800002B3FF452ADDA20FEF752FE2378002B57
:102F18003FF44BAD1220FEF74BFE2378002B3FF415
:102F280044AD8120FEF744FE2378002B3FF43DADED
:102F3800CF20FEF73DFE2378002B3FF436ADD92095
:102F4800FEF736FE2378002B3FF42FADF120FEF775
:102F58002FFE2378002B3FF428ADDB20FEF728FE58
:102F68002378002B3FF421AD4020FEF721FE237883
:102F7800002B3FF41AADA420FEF71AFE2378002B8D
:102F88003FF413ADA620FEF713FE2378002B3FF481
:102F98000CADAF20FEF70CFE07E500F005FAB24BCA
:102FA8001860A5E61D9B022B61D0B04B1E9A9A4271
:102FB8007FF41EAD219C631EB3F5E03FBFF418AD4E
:102FC8002246AB494FF0FF30FEF7A6FC229AC343D6
:102FD80093427FF40DAD2146A5482BAA0024FEF7A5
:102FE800D3FE23462BA80DF18B0110F8012B11F805
:102FF800015F01336A40202B44EA0204F5D1B4FA98
:1030080084F46409F5E49A4F3C687D6804F16043F0
:10301800B3F5204F3FF63EAD14F003087FF43AAD08
:10302800E9077FF537AD05F17843A3F50043B3F51C
:10303800E03FBFF42FAD142000F088FC8D4800F06D
:1030480025FB01F0F3F900F067F94FF0E023C3F82E
:103058001080C3F81480C3F81880C3F8087DBFF344
:103068004F8FBFF36F8F84F30888A84712E50720B6
:10307800FEF71EFE2198FFF75BFB00283FF4B8AC73
:103088001CAD0FCD2BAC0FC40FCD0FC40FCD0FC48B
:1030980095E80700012684E807002BA82C96FEF780
:1030A800CFFC00283FF4A4AC2BAD0FCD1CAC0FC453
:1030B8000FCD0FC40FCD0FC495E8070084E80700B3
:1030C80073E70B9B1BBA05936B4B1A680C9B029317
:1030D800BDF830300393D243BDF832300493062054
:1030E8000192FEF7E5FDFEF787FF644A10210020F4
:1030F800FFF71AF8019A059B934240F0A480604BB1
:103108006048196814AAFEF73FFE5F48002314A917
:1031180011F8012B10F8017B01337A40202B44EA87
:103128000204F5D1002C7CD1049A039B574852BA6B
:103138001FFA82FE564AD2F800C8D2F80478D2F8AC
:103148000C18D2F810285BBA84459BB201D1012F24
:103158006BD0CDE91F3E019B22934C4B1C934D4BEA
:103168001B681E93464B1B68219314AF02231D93C3
:103178000FCF23AC0FC497E80F0084E80F001CA8FA
:10318800FEF75EFC40B30720FEF792FDFEF734FF22
:103198003A4A04210020FEF7C7FF0020FFF77AF81B
:1031A800374B1868FFF7C4FAB0B164201CAFFFF7BB
:1031B80071F80FCF2BAC0FC40FCF0FC40FCF0FC4B4
:1031C80097E807004FF0010C84E807002BA8CDF81A
:1031D800B0C0FEF735FC48B9FF20FEF769FD07E5EA
:1031E800FFF78AF900287FF4F5ACDCE5FEF704FF69
:1031F800294A10210220FEF797FF0420FEF758FD08
:103208004FF4167000F0D6F8BFF34F8F2349244BC4
:10321800CA6802F4E0621343CB60BFF34F8F00BF6C
:10322800FDE70320FEF778FDE2E442EA0142029955
:1032380009BA8A428DD90520FEF76EFD8AF800404A
:1032480088F80070DAE40220FEF766FD00238AF8A9
:103258000030012388F80030FEF7CEFE114A3946C7
:103268000220FEF761FF2AE4C801002001CC030315
:1032780000800008740E002000000020A04C000808
:10328800040A002000400208DC0900204150415592
:1032980000700008000A0020B44C000800ED00E0AF
:1032A8000400FA05AC4C0008DFF834D000F026F82A
:1032B8000C480D490D4A002302E0D458C450043389
:1032C800C4188C42F9D30A4A0A4C002301E013605F
:1032D8000432A242FBD3FEF7F9F9FFF7CDFAFEE775
:1032E80000A0002000000020100000201C50000852
:1032F80010000020C00E0020FEE70000034AD2F8AC
:10330800883043F47003C2F88830704700ED00E05D
:10331800704700BF704700BF10B5074B4FF0FF3232
:1033280000241A611C61DA60DC609A629C62FFF713
:10333800F1FF204610BD00BF0010024038B50E4A0C
:103348000E4B1278054618684FF47A73B3FBF2F304
:10335800B0FBF3F000F00CFB08B90F2D01D90120E8
:1033680038BD0446024629464FF0FF3000F0B2FA55
:10337800034B20461D6038BD0800002004000020D3
:103388000C000020074A08B5136843F010031360C7
:10339800032000F08DFA0F20FFF7D0FFFFF7B8FFEA
:1033A800002008BD00200240014B1868704700BF8C
:1033B8009C0E002038B50446FFF7F6FF631C05464F
:1033C80002D0044B1B781C44FFF7EEFF401BA042C1
:1033D800FAD338BD08000020704700BF00287BD012
:1033E80038B590F820300446002B72D02268136854
:1033F80043F001031360FFF7D7FF054604E0FFF72A
:10340800D3FF401B0A285BD823685A68D107F6D532
:103418001A6822F002021A60FFF7C6FF054604E0A8
:10342800FFF7C2FF401B0A284AD823685A68920748
:10343800F6D4227E012A1A680CBF42F0800222F0DC
:1034480080021A60627E012A1A680CBF42F04002AC
:1034580022F040021A60A27E012A1A680CBF42F0CC
:10346800200222F020021A60E27E012A1A680CBFAC
:1034780022F0100242F010021A60227F012A1A6814
:103488000CBF42F0080222F008021A60627F012A8B
:103498001A680CBF42F0040222F004021A60D4E950
:1034A8000220216902430A436069616802430139C5
:1034B8000A4300200121DA61606284F8201038BDD7
:1034C800636A052243F40033636284F820200120F4
:1034D80038BDFFF781FF89E701207047704700BFBB
:1034E80070B490F820200468013A012A07D9426A8A
:1034F800034642F48022012070BC5A627047D4F817
:1035080000324A69CD6943F00103C4F8003202F081
:103518001F0001238340D4F81C0220EA0300C4F8EA
:103528001C02D843002D3DD1D4F80C52CE6805407A
:10353800C4F80C528D8804EBC20245EA0645C2F86D
:1035480040528E680D8845EA0645C2F844528A6999
:1035580012BBD4F804220240C4F804220A69AAB9AA
:10356800D4F814221040C4F814020A6A012A04D1BB
:10357800D4F81C221343C4F81C32D4F8003223F0C8
:1035880001030020C4F8003270BC7047D4F814223C
:103598001A43C4F81422E8E7D4F804221A43C4F8FA
:1035A8000422DBE7012DD2D1D4F80C520E681D435A
:1035B800C4F80C528D8804EBC20245EA0645C2F8ED
:1035C80040528E688D8945EA0645C2F84452BEE7E6
:1035D80038B590F82030012B044605D0436A43F4EF
:1035E80000234362012038BD0268022380F820309E
:1035F800136823F001031360FFF7D6FE054604E0C5
:10360800FFF7D2FE431B0A2B07D823685B6813F029
:103618000103F5D16362184638BD636A052243F495
:103628000033636284F82020DCE700BF38B590F8E7
:103638002030022B044605D0436A43F480134362CA
:10364800012038BD0268136843F001031360FFF7D7
:10365800ABFE054604E0FFF7A7FE431B0A2B0CD878
:1036680023685A68D207F6D51A68012122F00202A7
:103678001A6084F82010002038BD636A052243F4DC
:103688000033636284F82020DAE700BF88B110B500
:103698000446FFF7CBFF2046FFF720FF21680A68A2
:1036A800002342F400420A60636284F8203018461E
:1036B80010BD0120704700BF30B490F820C00568E5
:1036C8000CF1FF3CBCF1010FAC6839D814F0E05F95
:1036D80006D1436A43F400134362012030BC7047AB
:1036E800C4F301640120A04018608B686BB3C868FC
:1036F8000343486843EAC00304F1180000012B5053
:1037080005EB041C0B69CCF884310B7D012B4FEAC7
:10371800041105D1DCF8843143F48073CCF884318A
:103728006B185168C3F88C111268C3F88821DCF84B
:10373800803143F00103002030BCCCF88031704761
:10374800436A43F480234362C7E7CB68086843EAC7
:10375800405004F118031B01E850D1E790F82030DD
:10376800013B012B01D900207047036898689A68CB
:103778009B681201C0F3806048BF0130DB00F3D5BD
:103788000130704790F820C00CF1FF3CBCF1010FEC
:103798006BD870B5046841B9E568AD0708D1436ACC
:1037A80043F400134362012070BD2569AE07F6D0CB
:1037B80004EB011C4FEA011EDCF8B05105F00405CA
:1037C8009560002D57D0DCF8B051ED085560DCF855
:1037D800B05105F00205D560DCF8B4512D0758BF8B
:1037E800DCF8B451DCF8B46154BF05F00F050825C6
:1037F80015617444DCF8B451C6F3072696612D0CA4
:10380800D4F8B86155611E7002687244D2F8B821C4
:10381800120A5A7002687244D2F8B821120C9A70CF
:1038280002687244D2F8B821120EDA700268724443
:10383800D2F8BC211A7102687244D2F8BC21120A6B
:103848005A7102687244D2F8BC21120C9A7102684B
:103858007244D2F8BC21120EDA71026881B9D368B9
:1038680043F02003D360002070BD436A43F48023F3
:10387800436201207047DCF8B0516D0D1560A6E772
:10388800136943F020031361EDE700BF90F820307F
:10389800013B012B01D900207047036819B9D8688A
:1038A80000F003007047186900F00300704700BF7C
:1038B8000749CA6803024FF6FF0003F4E0630240B9
:1038C800134343F0BF6343F40033CB60704700BF3A
:1038D80000ED00E01B4BDB68C3F3022300B5C3F126
:1038E800070EBEF1040F03F1040C28BF4FF0040EBD
:1038F800BCF1060F1CD9A3F1030C4FF0FF3303FAF8
:103908000CF322EA03024FF0FF3303FA0EF321EA25
:10391800030303FA0CF313431B010028DBB20ADB91
:1039280000F1604000F5614080F800335DF804FB69
:1039380000229446E7E7044A00F00F000244137699
:103948005DF804FB00ED00E0FCEC00E000280CDB77
:103958004309064900F01F0020330122824041F844
:103968002320BFF34F8FBFF36F8F704700E100E054
:103978000138B0F1807F01D30120704710B44FF0B7
:10398800E023074C58614FF0F00C84F823C0002264
:10399800072110469A615DF8044B1961704700BF12
:1039A80000ED00E00C4BDB6813F0100305D00B4969
:1039B800CA6942F002021023CA61074AD268520754
:1039C80006D50649CA6942F0010243F00403CA61F8
:1039D800014AD360704700BF00200240A00E0020BB
:1039E800064B186910F0800006D00549054A596051
:1039F8005A601869C0F3C010704700BF0020024029
:103A080023016745AB89EFCD034A136943F080036F
:103A180000201361704700BF0020024070B50446C3
:103A2800FFF7C2FC124E0546F368D80705D5631C9C
:103A380012D10F4AD368DC07FCD40D4BDA68910623
:103A480044BF2022DA600A4BDA68D2060CD4D86860
:103A580010F0040008D170BD24B1FFF7A5FC401B8D
:103A6800A042E1D9032070BDFFF79CFF012070BD83
:103A7800002002402DE9F84F274E1C46337E012BCB
:103A880047D0054601234CF250308A461746337614
:103A9800FFF7C4FFC8BB012D03D0022D14BF0425B6
:103AA80002254FF00009DFF874B00AEB4505C84657
:103AB80001E0AA4529D0C9F12003C6F81C80A9F164
:103AC800200227FA09FC04FA03F34CEA030C24FA4F
:103AD80002F2DBF810304CEA020C43F001031FFA43
:103AE8008CFCCBF810304CF25030AAF800C0FFF72D
:103AF80095FFDBF8103023F001030AF1020A09F1FF
:103B08001009CBF810300028D3D000233376BDE855
:103B1800F88F0220BDE8F88FA00E00200020024098
:103B28002DE9F8432D4E337E012B54D001233376F3
:103B38000368012B814631D04CF250308846FFF79C
:103B48006DFF074678BB4FF0FF33C8F80030D9E95E
:103B5800015305EBC3239D4225D2214C07E0D9E947
:103B6800013205F5006503EBC223AB421CD9F761AE
:103B7800236943F0020323616561236943F040032D
:103B880023614CF25030FFF749FF236923F0020309
:103B980023610028E3D0C8F8005005E04CF250300B
:103BA800FFF73CFF20B1012000233376BDE8F883FE
:103BB8000B4CF061236943F004032361236943F04C
:103BC800400323614CF25030FFF728FF236923F0AC
:103BD80004032361E8E70220BDE8F883A00E002073
:103BE800002002402DE9F04F0C6885B0002C00F051
:103BF800828000234FF0010B0BFA03FE1EEA040A31
:103C080075D04D6805F0030C5A0003260CF1FF38F7
:103C180006FA02F7B8F1010F6FEA07076ED9BCF18F
:103C2800030F40F0BF800CFA02F2D0F800C00CEA93
:103C380007073A4315F4403F026058D05F4FBA690E
:103C480042F00102BA61BA6902F001020392039AD2
:103C580023F0030202F1804202F5803203F0030CE4
:103C680097684FEA8C0C0F2606FA0CFEB0F1904FBD
:103C780027EA0E0717D0524EB04200F08580514E09
:103C8800B04200F08880DFF844E1704575D0DFF875
:103C980040E170450CBF4FF0040E4FF0050E0EFAD0
:103CA8000CFC47EA0C079760474A9268EE026FEAF5
:103CB8000A07454E54BF3A404AEA0202B260F26827
:103CC800AE02414E54BF3A404AEA0202F2607268BC
:103CD800AE033D4E54BF3A404AEA0202726032686F
:103CE800ED03394D54BF3A404AEA02022A600133D3
:103CF80034FA03F280D105B0BDE8F08FD0F808900F
:103D0800CE6809EA070906FA02F848EA0908C0F87D
:103D18000880D0F804808E6828EA0E08C5F3001ED3
:103D28000EFA03FE4EEA080EC0F804E0D0F80C8044
:103D380006FA02FE08EA07084EEA080EBCF1020F6E
:103D4800C0F80CE07FF46FAF0E694FEAD30803F0B8
:103D5800070E00EB88084FEA8E0E06FA0EF6D8F822
:103D6800209001960F2606FA0EFE019E29EA0E09FA
:103D780046EA090EC8F820E055E74FF0030E0EFAA0
:103D88000CFC47EA0C078EE74FF0010E0EFA0CFC0C
:103D980047EA0C0787E74FF0020E0EFA0CFC47EAD9
:103DA8000C0780E7D0F80C808E6808EA070806FA46
:103DB80002FE4EEA080EC0F80CE034E7001002409C
:103DC800000400480008004800040140000C0048B6
:103DD80000100048F8B503689C6914F0100C0546FB
:103DE80041D0164610220F46DA619C6914F020046F
:103DF80079D1781C4DD19A699106FCD52022DA61D7
:103E08009A6944F0040CD4054FF001002FD45705EB
:103E18003AD54FF48061D9614CF0080C960504D569
:103E28004FF400724CF0020CDA619A69910744BFB2
:103E380000229A629A69D20703D49A6942F0010271
:103E48009A615A6829490A405A606B6C002243EA11
:103E58000C0320216B6485F8402085F8411085F813
:103E680042200120F8BD9A69D4056046CFD54FF4A9
:103E78008071D96151054CF0010CCFD54FF48061A8
:103E8800D9614CF0080CC9E79405C9D40028CCD1F5
:103E9800F8BDFFF789FA801BB8422B6804D81FB118
:103EA8009A699206A5D5A9E7586895F842209969B4
:103EB8000C04D2B20BD5410409D4202A07D05A6881
:103EC80042F480425A60FFF76FFA2B6806469A69F7
:103ED80092068AD4FFF768FA831B192B2B68F6D948
:103EE8009A6920248CE7002488E700BF00E800FED8
:103EF80070B5036804460D46164605E0FFF76AFFED
:103F080000BB6A1C08D123689B699B073246294677
:103F18002046F3D5002070BDFFF746FA801BA84263
:103F2800236801D8002DEFD19A6912F00202EBD173
:103F3800636C84F8402020210B43636484F84110AB
:103F480084F84220012070BD2DE9F843DDF8209067
:103F58001E46054603688846174605E0FFF73AFF00
:103F680068BB731C0ED12B689C6938EA04040CBF2B
:103F780001230023BB424A4631462846EED00020A2
:103F8800BDE8F883FFF710FAA0EB0900B0422B68F0
:103F980001D8002EE8D19A6938EA02020CBF012242
:103FA8000022BA42E0D16B6C002243F020032021AA
:103FB8006B6485F8402085F8411085F8422001207F
:103FC800DEE700BF03689B699B0629D470B50546E8
:103FD8000C4616460DE0FFF7E7F9801BA04229685A
:103FE80000D81CB98B6913F020030DD08B699B0690
:103FF80008D4324621462846FFF7ECFE0028EAD0CE
:10400800012070BD002070BD6A6C85F84030202109
:104018000A436A64012085F8411085F84230F0E7C8
:1040280000207047704700BF002854D010B590F8A2
:104038004130044603F0FF02002B47D023682422B6
:1040480084F841201968626821F0010122F0706249
:1040580019601A619A68E16822F4004201299A609D
:10406800A26809D042F4044202299A6007D15A682A
:1040780042F400625A6006E042F400429A605A68CC
:1040880022F400625A605968226941F0007141F4D3
:10409800004159606169D8680A43A16920F4004069
:1040A80042EA0122E169D860206ADA6001431960B6
:1040B800196841F00101196000222023626484F824
:1040C8004130226384F84220104610BD80F8402019
:1040D800FFF7A8FFB2E70120704700BF2DE9F047BE
:1040E800994690F8413082B0202B0A9E40F090808B
:1040F80090F84030012B044600F08A804FF0010A06
:1041080080F840A00F469046FFF74EF95246054604
:10411800009019234FF400412046FFF715FF0028AF
:1041280072D1212384F84130102384F8423060642E
:10413800A4F82A90638D2268C4F824809BB2FF2BD0
:104148006063C7F3090767D8638D9BB22385002B8B
:1041580040F08D8053684A490B403B4343F000735D
:1041680043F400535360638D9BB22A463146204680
:10417800002B38D0FFF7BCFE002845D1616A2368C0
:1041880011F8012B9A62638D228D6162013B9BB20B
:104198006385638D013A92B29BB22285002BE2D0EF
:1041A800002AE0D18021009533462046FFF7CCFE57
:1041B800FF2148BB638DDFF8D0C022689BB28B42D9
:1041C800604647D95368218503EA0C033B4343F013
:1041D800FF7343F480335360638D9BB22A463146A4
:1041E8002046002BC6D1FFF7EDFE68B92368254DA0
:1041F8002021D9615A682A405A6084F8411084F80D
:10420800400084F8420000E0012002B0BDE8F087D9
:10421800022002B0BDE8F087FF232385FE214FF47A
:104228007F034FF0807018F801CBC2F828C02185B1
:10423800618DDFF84CC0C4F82480013989B26185EA
:1042480051683B4301EA0C010B43034343F4005319
:10425800536088E7638D51689BB22385DBB247EAD8
:10426800034301400B4343F0007353607BE7013B7A
:1042780099B24B1CDBB21B044FF00070D3E700BFB0
:10428800009800FC00E800FE009C00FC2DE9F047C7
:1042980084B004460020039094F84100202867D198
:1042A800174622689946936913F4004360D194F83D
:1042B800400001285CD0C1F30906012184F84010B0
:1042C80046F00078242184F8411048F420586364AB
:1042D800E368012B06BF46F0007343F400534346DE
:1042E8005360FFF761F8054620688369826903F027
:1042F800200302F0100213431CD1B9F1FF3F11D083
:10430800FFF752F8401B484545D8B9F1000F08D1CE
:1043180041E0B9F1FF3F05D0FFF746F8401B48459B
:1043280039D820688169836901F0200103F01003FE
:104338001943EED0836913F0100A1DD100954B463E
:10434800524620212046FFF7FFFD002831D0636C3C
:10435800042B04D123682022DA61C4F844A0039B0B
:1043680001330393039B039BBB4214D22268AFE73C
:10437800022004B0BDE8F0871023C3610022009535
:104388004B4620212046FFF7DFFD0028E7D12368B0
:104398002022DA61E3E7202384F84130636C43F09C
:1043A800200363640120002384F8403004B0BDE892
:1043B800F08722682023D36184F8413084F84000D4
:1043C800D7E700BF28B338B5D0E900318268044682
:1043D8004CF6CC40186045F25550186059609A6008
:1043E800FEF7E2FF23680546DA6851070AD0FEF7B0
:1043F800DBFF401B27282368F6D9DA685207F3D079
:10440800032038BD1969E268914204D01A6100207E
:1044180038BD012070474AF6AA221A60F7E700BFA4
:1044280003684AF6AA2200201A60704770B5334C18
:10443800236843F001032360FEF7B6FF054604E056
:10444800FEF7B2FF401B022828D823689B07F7D540
:1044580023682B4A294D23F0F80343F08003236097
:1044680063681A406260FEF79FFF41F2883604468F
:1044780004E0FEF799FF001BB0420FD86B6813F0F9
:104488000C0FF6D11F49204B204A08681A60FEF726
:1044980055FF044628B10124204670BD0324204658
:1044A80070BD2B6823F0847323F480332B602B6852
:1044B80023F480232B60FEF777FF104D064604E0B7
:1044C800FEF772FF831B022BE8D82B6813F00073EA
:1044D800F6D16B60EB622B63A96841F41F01A960F8
:1044E8004FF08072AB6092FAA2F2094BB2FA82F2F4
:1044F80013449B0001221A60D1E700BF001002405C
:104508000CC0FFF80C0000200400002000127A0004
:1045180020819010002800F0BB822DE9F043036849
:10452800D90783B004464BD5AC494A6802F00C025F
:10453800042A00F05D814A6802F00C02082A00F0A3
:104548005381D4E90132B3F5803F15D0002B00F038
:104558008981B3F5A02F00F03682A04B196821F4A9
:1045680080311960196821F480211960D96A21F015
:104578000F010A43DA6209E098490B6843F4803373
:104588000B60CB6A23F00F031343CB62FEF70CFFDB
:10459800924F05464FF40038012605E0FEF704FF68
:1045A800401B642800F25A8198FAA8F33A6898FAEE
:1045B800A8F3B3FA83F306FA03F31342EED02368A1
:1045C8009F073FD5854A516811F00C0F00F0CB804A
:1045D800516801F00C01082900F0C1802269002A05
:1045E80000F09481012595FAA5F3B3FA83F303F15A
:1045F800845303F584139B00784F1D60FEF7D4FEA7
:104608004FF00208064605E0FEF7CEFE801B0228A2
:1046180000F2248198FAA8F33A6898FAA8F3B3FA52
:1046280083F305FA03F31342EED03968F82292FABD
:10463800A2F26369B2FA82F2934021F0F8021343BE
:104648003B6023681D0729D4580753D5634BDA69A3
:10465800D10000F1C180DA6942F08052DA61DB6989
:1046680003F080530193019B01255D4E3368DA0501
:1046780040F1E480E368012B00F06C81002B00F02E
:104688001781052B554B1A6A00F0A98122F0010207
:104698001A621A6A22F004021A6260E1A269002A08
:1046A80074D0012696FAA6F24E4BDFF83081B2FAA2
:1046B80082F213449B0002251E60FEF775FE074632
:1046C80005E0FEF771FEC01B022800F2C78095FACC
:1046D800A5F395FAA5F395FAA5F3D8F8242095FA49
:1046E800A5F3B3FA83F306FA03F31342E9D0236878
:1046F8005807ABD4E36973B3384D6A6802F00C020B
:10470800082A00F04F81022B4FF0807300F06F8170
:1047180093FAA3F3B3FA83F303F1845303F58413F1
:104728009B0000221A60FEF73FFE4FF00077044618
:10473800012605E0FEF738FE001B022800F28E80F5
:1047480097FAA7F32A6897FAA7F3B3FA83F306FA56
:1047580003F31342EED1002003B0BDE8F0835268A2
:10476800D6033FF53BAF022292FAA2F11B49086833
:1047780092FAA2F20121B2FA82F201FA02F202429C
:104788004BD022698A4248D00120E5E7012797FAF1
:10479800A7F1144BDFF84480B1FA81F10B449B0078
:1047A80002251A60FEF700FE064604E0FEF7FCFD4F
:1047B800801B022852D895FAA5F395FAA5F395FA25
:1047C800A5F3D8F8242095FAA5F3B3FA83F307FAEA
:1047D80003F31342EAD18AE7002546E700100240B6
:1047E80000700040208190104A68D2037FF5A9AE7E
:1047F8004FF4003292FAA2F1A649086892FAA2F29E
:104808000121B2FA82F201FA02F202423FF4D8AE72
:104818006268002A7FF4D4AEB6E79E4DF821286876
:1048280091FAA1F16269B1FA81F120F0F8008A40A9
:1048380002432A601D077FF507AF2FE7336843F46B
:1048480080733360FEF7B0FD07463368DB053FF53C
:1048580011AFFEF7A9FDC01B6428F6D9032003B0E9
:10486800BDE8F0838B4D2B6823F480332B602B68D5
:1048780023F480232B60EB6A23F00F031343EB62CE
:10488800FEF792FD4FF400380646012704E0FEF7D4
:104898008BFD801B6428E1D898FAA8F32A6898FA57
:1048A800A8F3B3FA83F307FA03F31342EFD186E6CA
:1048B800784E336A23F001033362336A23F004032A
:1048C8003362FEF771FD4FF0020907464FF0010809
:1048D80006E0FEF769FD41F28833C01B9842BDD857
:1048E80099FAA9F399FAA9F3326A99FAA9F3B3FAEA
:1048F80083F308FA03F31342EBD1002D3FF4FAAE29
:10490800644AD36923F08053D361F3E6012696FA0B
:10491800A6F3B3FA83F303F1845303F584139B00DE
:104928005C4F1A60FEF740FD4FF00208054604E0B0
:10493800FEF73AFD401B022890D898FAA8F33A6887
:1049480098FAA8F3B3FA83F306FA03F31342EFD104
:10495800236877E64F4A136A43F001031362FEF7B0
:1049680023FDDFF8308106464FF00209012707E0F2
:10497800FEF71AFD41F28833801B98423FF66EAF6E
:1049880099FAA9F399FAA9F3D8F8202099FAA9F382
:10499800B3FA83F307FA03F31342E9D0002D3FF487
:1049A800A9AEADE7012B3FF4EFAE6B68226A03F4C2
:1049B800803191427FF4E8AE606A03F47013181AEC
:1049C80018BF0120C8E603F18043A3F53C331968FA
:1049D80041F480211960196841F48031C5E542F03D
:1049E80004021A621A6A42F001021A62B7E793FADD
:1049F800A3F3B3FA83F303F1845303F584139B0001
:104A080000221A60FEF7D0FC4FF000780646012716
:104A180005E0FEF7C9FC801B02283FF61FAF98FA95
:104A2800A8F32A6898FAA8F3B3FA83F307FA03F30A
:104A38001342EED1D4E908136A680B4322F47412C6
:104A480013436B604FF0807393FAA3F3B3FA83F3C5
:104A580003F1845303F584139B000E4E1F60FEF789
:104A6800A3FC4FF000770446012505E0FEF79CFC07
:104A7800001B02283FF6F2AE97FAA7F3326897FABE
:104A8800A7F3B3FA83F305FA03F31342EED062E611
:104A980001207047001002400E4A536803F00C01D1
:104AA800082901D00C487047C3F383410B48D26AE8
:104AB800405CDB0309D50A49074B02F00F028A5C08
:104AC800B3FBF2F303FB00F07047064B03FB00F067
:104AD800704700BF0010024000127A00A84E00087C
:104AE800984E000800093D00002800F08D80504ACB
:104AF800136803F007038B422DE9F0410D46044685
:104B08000CD2136823F007030B431360136803F0F8
:104B180007038B4202D00120BDE8F0812368980783
:104B280006D54449A0684A6822F0F00202434A6068
:104B3800D9072CD56268012A68D0022A0CBF4FF029
:104B48000073022393FAA3F13A49086893FAA3F38E
:104B58000121B3FA83F301FA03F30342DBD0354EA4
:104B6800736823F0030313437360FEF71DFC41F2DF
:104B78008838074604E0FEF717FCC01B404554D8A8
:104B88007368626803F00C03B3EB820FF3D1284A11
:104B9800136803F00703AB4209D9136823F007032E
:104BA8002B431360136803F00703AB42B3D12368A8
:104BB8005A0706D51F49E0684A6822F4E0620243B2
:104BC8004A601B0707D51B4A2169536823F46053C1
:104BD80043EAC1035360FFF75FFF164BF0225B689F
:104BE80092FAA2F2B2FA82F203F0F003124C1349DD
:104BF800D340134AE35C20FA03F308681360FEF716
:104C08009DFB0020BDE8F081012070474FF4003380
:104C180093FAA3F10749096893FAA3F3B3FA83F364
:104C280002FA03F30B429AD175E7032074E700BF39
:104C38000020024000100240884E00080C000020AE
:104C480004000020024B13B10248FCF767BD70470F
:104C58000000000031170008F8B500BFF8BC08BC18
:104C68009E467047F8B500BFF8BC08BC9E46704722
:104C780001000100555254432D48594452412D55C5
:104C88004D432D323032362D4348414E47452D4D48
:104C9800452D2121000000005550444154494E47FC
:104CA800000000004552524F52000000464C41534C
:104CB80048204F4B000000000100000000000000E9
:104CC800000200030405060708090A0B0C0000008F
:104CD800000000000D00000E0F1011121300141533
:104CE8000016171800191A1B1C000000000000000D
:104CF800002313086462006060000000427F4000E7
:104D080000447E4000006251494600224949361855
:104D180014127F100027454539003E494932006189
:104D28001109070036494936002649493E7E1111C6
:104D3800117E7F4141221C7F494949417F09090968
:104D4800013E4141493A7F0808087F00417F410000
:104D58007F081422417F404040407F0408107F3E76
:104D68004141413E7F09090F007F09192946002664
:104D780049493201017F01013F4040403F000000A6
:104D8800982F8A4291443771CFFBC0B5A5DBB5E9AE
:104D98005BC25639F111F159A4823F92D55E1CAB22
:104DA80098AA07D8015B8312BE853124C37D0C55B0
:104DB800745DBE72FEB1DE80A706DC9B74F19BC1F8
:104DC800C1699BE48647BEEFC69DC10FCCA10C24E8
:104DD8006F2CE92DAA84744ADCA9B05CDA88F976CC
:104DE80052513E986DC631A8C82703B0C77F59BF36
:104DF800F30BE0C64791A7D55163CA066729291462
:104E0800850AB72738211B2EFC6D2C4D130D3853FE
:104E180054730A65BB0A6A762EC9C281852C7292C0
:104E2800A1E8BFA24B661AA8708B4BC2A3516CC7EE
:104E380019E892D1240699D685350EF470A06A1027
:104E480016C1A419086C371E4C774827B5BCB03476
:104E5800B30C1C394AAAD84E4FCA9C5BF36F2E6814
:104E6800EE828F746F63A5781478C8840802C78CA3
:104E7800FAFFBE90EB6C50A4F7A3F9BEF27871C6A6
:104E880000000000000000000102030406070809F2
:104E98000102030405060708090A0B0C0D0E0F1082
:104EA80002030405060708090A0B0C0D0E0F101063
:104EB80008B10181B0B000840000000008B1018190
:084EC800B0B0008400000000FE
:104ED00070B3FF7F01000000C8B6FF7FB0A9028059
:104EE00058B7FF7FB0B0A880A8B7FF7F01000000CF
:104EF000B4B7FF7FB0B0AA80E4B7FF7FAE75B280D1
:104F0000B4B8FF7F01000000B0B8FF7FAB3F3A802C
:104F100010B9FF7F0100000018B9FF7FB0B0AA8070
:104F200050B9FF7F0100000004BAFF7FAA0FB280D2
:104F300080BAFF7FB0AF08801CBDFF7F010000007A
:104F400020BDFF7FAC3F038008C0FF7F0100000051
:104F5000E4C1FF7F00840480F8C1FF7F01000000EE
:104F6000F4C1FF7FB0AD0480E8C4FF7FB0A8038028
:104F70000CC5FF7F44FFFF7F10C5FF7F48FFFF7F09
:104F80001CC5FF7F0100000020CAFF7FB0B0AE80CB
:104F9000B8CAFF7FB0AA13804CCBFF7F010000008E
:104FA00018CCFF7F008404803CCCFF7F0D841180EF
:104FB00008CDFF7FB0AB0880D8CDFF7FAF3F168014
:104FC00040D0FF7FAC3F0380F0D0FF7FB0AB0480C8
:104FD00060D1FF7FAF3F2680C4D2FF7FAE3F098004
:104FE00020D5FF7FB0AE078004D6FF7FB0AD048030
:104FF00048D7FF7FB0AF0E8038D8FF7FB0A91080B0
:1050000080D8FF7FB0AF3A80A8E2FF7F01000000A8
:085010004D4C0008F1010008FD
:04501800C9010008C2
:10501C00FFFFFFFF00127A000100000010000000EB
:04000005080032B10C
:00000001FF
