:020000040800F2
:1000000000A00020CD0400081D050008F91000081C
:100010001D0500081D0500081D0500080000000062
:100020000000000000000000000000001D050008A6
:100030001D050008000000001D0500081111000842
:100040001D0500081D0500081D0500081D05000808
:100050001D0500081D0500081D0500081D050008F8
:100060001D0500081D0500081D0500081D050008E8
:100070001D0500081D0500081D0500081D050008D8
:100080001D0500081D0500081D0500081D050008C8
:100090001D0500081D0500081D0500081D050008B8
:1000A0001D0500081D0500081D0500081D050008A8
:1000B0001D0500081D0500081D0500081D05000898
:1000C0001D0500081D0500081D0500081D05000888
:1000D0001D0500081D0500081D0500081D05000878
:1000E0001D0500081D0500081D0500081D05000868
:1000F0001D0500081D0500081D0500081D05000858
:100100000000000000000000000000001D050008C5
:100110001D0500081D0500081D0500081D05000837
:100120001D0500081D0500081D0500081D05000827
:100130001D0500081D05000800000000000000006B
:100140001D0500081D0500081D0500080000000031
:10015000000000000000000000000000000000009F
:1001600000000000000000001D0500081D0500083B
:100170001D05000800000000000000000000000055
:08018000000000001D0500084D
:1001880010B5054C237833B9044B13B10448AFF3C9
:1001980000800123237010BD18000020000000001B
:1001A800EC3F000808B5034B1BB103490348AFF304
:1001B800008008BD000000001C000020EC3F000883
:1001C80053B94AB9002908BF00281CBF4FF0FF31B6
:1001D8004FF0FF3000F074B9ADF1080C6DE904CEB2
:1001E80000F006F8DDF804E0DDE9022304B070470A
:1001F8002DE9F047089D04468E46002B4DD18A42D2
:10020800944669D9B2FA82F252B101FA02F3C2F104
:10021800200120FA01F10CFA02FC41EA030E944095
:100228004FEA1C48210CBEFBF8F61FFA8CF708FBB6
:1002380016E341EA034306FB07F199420AD91CEB8E
:10024800030306F1FF3080F01F81994240F21C81C0
:10025800023E63445B1AA4B2B3FBF8F008FB103308
:1002680044EA034400FB07F7A7420AD91CEB04043D
:1002780000F1FF3380F00A81A74240F2078164440D
:10028800023840EA0640E41B00261DB1D440002392
:10029800C5E900433146BDE8F0878B4209D9002DF6
:1002A80000F0EF800026C5E9000130463146BDE880
:1002B800F087B3FA83F6002E4AD18B4202D38242EA
:1002C80000F2F980841A61EB030301209E46002D99
:1002D800E0D0C5E9004EDDE702B9FFDEB2FA82F2EE
:1002E800002A40F09280A1EB0C014FEA1C471FFA4C
:1002F8008CFE0126200CB1FBF7F307FB131140EA33
:1003080001410EFB03F0884208D91CEB010103F1FF
:10031800FF3802D2884200F2CB804346091AA4B2C1
:10032800B1FBF7F007FB101144EA01440EFB00FE95
:10033800A64508D91CEB040400F1FF3102D2A645FA
:1003480000F2BB800846A4EB0E0440EA03409CE799
:10035800C6F12007B34022FA07FC4CEA030C20FA46
:1003680007F401FA06F31C43F9404FEA1C4900FA66
:1003780006F3B1FBF9F8200C1FFA8CFE09FB1811E3
:1003880040EA014108FB0EF0884202FA06F20BD956
:100398001CEB010108F1FF3A80F08880884240F2A6
:1003A8008580A8F102086144091AA4B2B1FBF9F0EA
:1003B80009FB101144EA014100FB0EFE8E4508D9E5
:1003C8001CEB010100F1FF346CD28E456AD902386A
:1003D800614440EA0840A0FB0294A1EB0E01A1424F
:1003E800C846A64656D353D05DB1B3EB080261EBBD
:1003F8000E0101FA07F722FA06F3F1401F43C5E997
:10040800007100263146BDE8F087C2F12003D840CC
:100418000CFA02FC21FA03F3914001434FEA1C470E
:100428001FFA8CFEB3FBF7F007FB10360B0C43EA00
:10043800064300FB0EF69E4204FA02F408D91CEBB0
:10044800030300F1FF382FD29E422DD902386344AE
:100458009B1B89B2B3FBF7F607FB163341EA03414E
:1004680006FB0EF38B4208D91CEB010106F1FF389D
:1004780016D28B4214D9023E6144C91A46EA004694
:1004880038E72E46284605E70646E3E61846F8E626
:100498004B45A9D2B9EB020864EB0C0E0138A3E76F
:1004A8004646EAE7204694E74046D1E7D0467BE750
:1004B800023B614432E7304609E76444023842E7C8
:1004C800704700BFDFF834D000F026F80C480D491B
:1004D8000D4A002302E0D458C4500433C4188C4297
:1004E800F9D30A4A0A4C002301E013600432A242FD
:1004F800FBD303F02DFD00F097FCFEE700A00020E1
:1005080000000020140000205042000818000020BD
:10051800280D0020FEE70000034AD2F8883043F493
:100528007003C2F88830704700ED00E02DE9F04F05
:10053800CDB00BAE05901BAF32464B780D78CC781A
:1005480088781B0443EA0563234343EA002342F8FF
:10055800043F974201F10401EFD13CAD0CAAB44627
:10056800976B134652F8040F5C6A1E684FEAF7430C
:1005780083EA77434FEAB04183EA9723344481EA18
:10058800F011234481EAD0010B449542D363E7D1AB
:10059800059B4BAA5F691968D8685D689C680497D1
:1005A80002929F691A69DB6903920B931A46304BD2
:1005B800019366462F4B0691DDE903C80795089419
:1005C80009900A9782468E4609E0019951F8043F3E
:1005D800019147462C46E0467546CC4686464FEA8A
:1005E800FC2127EA0C090CEA080081EABC1181EA1F
:1005F8007C6189EA000056F8049F084481444FEA68
:100608007E3185EA040081EABE0100EA0E0005EAAF
:10061800040B4A4481EABE5180EA0B0013440844A3
:1006280003EB0A091844029BB3423A46A246CCD1CE
:10063800079A069B049E0A9972449646089A2A4489
:100648001546099A224414460B9A03443A440398DF
:100658001746059A484466444144C2E9003EC2E947
:100668000254C2E90406C2E906174DB0BDE8F08F8E
:1006780034400008982F8A42B2B30A442DE9F84F53
:100688001A4F04464D1E02F1FF3AC1F1010B00F169
:1006980028094FF0000801E0554514D0A36EE21870
:1006A80001330BEB0506402B15F8011F82F82810C3
:1006B800A3660AD0C6F30B06002EEDD1384602F029
:1006C800E7FF5545EAD1BDE8F88F49462046FFF7D0
:1006D8002DFFD4E9083213F5007342F10002C4E992
:1006E8000832C4F86880E5E7704700BFB40400200A
:1006F800F8B5856E43198022372D04460E4683F8D7
:1007080028200BD85AD005F12900C5F1370220441A
:10071800002103F05FFC04F1280716E06B1C3F2B57
:1007280007D805F12900C5F13F022044002103F054
:1007380051FC04F1280739462046FFF7F7FE382216
:100748000021384603F046FCA56ED4E908230820AA
:10075800E5FB0023226212BA626623FA00F26362A2
:1007680084F8633084F862201A0C1B0E394684F82A
:10077800603084F861202046FFF7D8FE711E1823E8
:100788002268DA4001F8012F6268DA400A71A2682B
:10079800DA400A72E268DA400A732269DA400A74B7
:1007A8006269DA400A75A269DA400A76E269DA40D3
:1007B800083B13F1080F0A77E2D1F8BD00F12807CA
:1007C8003725C2E72DE9F0474FF00008D4B00C46B2
:1007D8000746154641463C2229A81E46CDF8A0806A
:1007E80003F0F8FB402C40F205813946854B864FD3
:1007F800DFF824C2DFF824E2CDF84881CDE9387368
:10080800824BCDE93AC3824BCDE93CE3814B3E9321
:1008180003F174532246A3F5230338AC2046A3F60C
:1008280092434FF000084FF00009CDE940893F930B
:10083800FFF722FF28A92046FFF75AFF0DF19F0C6A
:100848000DF11F010DF15F0E0DF1DF021CF8010F14
:1008580080F03603944580F05C0001F8013F0EF803
:10086800010FF3D100220023CDE94023654B664AEE
:1008780069496A48DFF8AC81CDE93823634BCDE993
:100888003A13634BCDE93C03624B3E9303F1745337
:10089800A3F52303A3F692433F9301279DF8203045
:1008A8008DF8083152970DF1200A4FF000090EE03B
:1008B800402F21D0529B1AF8011F03F5A8726A44F1
:1008C8000133402B02F8481C529306D00137012F00
:1008D800EED1404602F0DCFEECE742A92046FFF7E5
:1008E80025FEDDE9403213F5007342F10002CDE93F
:1008F8004032CDF84891E9E7324629462046FFF7CD
:10090800BBFE69462046FFF7F3FE3E49424B3E4A8E
:100918003892CDE939133D4A404B3D49CDE93B2357
:100928003C4B3F4A3F9200260027CDE93D13012565
:100938009DF860308DF80831CDE940675295394F00
:1009480018AE4FF000080EE0402D21D0529B16F84B
:10095800011F03F5A8726A440133402B02F8481CB2
:10096800529306D00135012DEED1384602F090FEA3
:10097800ECE742A92046FFF7D9FDDDE9403213F53F
:10098800007342F10002CDE94032CDF84881E9E731
:10099800244F0DF1FF3601254FF0000802E0202D0D
:1009A80021D00135529B16F8011F03F5A8726A443D
:1009B8000133402B02F8481C529305D0012DEED18B
:1009C800384602F065FEECE742A92046FFF7AEFD87
:1009D800DDE9403213F5007342F10002CDE94032FF
:1009E800CDF84881EAE75C992046FFF781FE54B0CC
:1009F800BDE8F0872246394628A803F0DDFA38AC6E
:100A08001CE700BF85AE67BB67E6096A3AF54FA5E4
:100A18008C68059BABD9831F72F36E3C7F520E51D5
:100A280019CDE05BB4040020AAB100F1FF3C00B589
:100A380001390CEB020E00201CF8013F11F8012FC0
:100A4800F44583EA020340EA0300F5D1B0FA80F0E6
:100A580040095DF804FB0120704700BFF0B51B4E4C
:100A6800337804460D46174683B167B3E919184E23
:100A78006A1E0139204612F8013F4340DBB28A4220
:100A880056F8233083EA1020F5D1F0BD1149DFF87C
:100A980048C09E4601F580607246082312F0010F97
:100AA80003F1FF3314BF8CEA5202520813F0FF031C
:100AB800F4D141F8042F81420EF1010EECD101234B
:100AC8003370002FD2D12046F0BD00BF340400207F
:100AD80034000020300000202083B8EDC043704768
:100AE80081B32DE9F0470026DFF85CA0DFF85C90C1
:100AF80084B005460F46B04606E0009B013319D185
:100B080002F0C6FDB74219D00123CDE90185039350
:100B180002F098F834236946CAF80C3001A802F0AC
:100B280029F90446013602F0A1F805F500654846A2
:100B3800002CE2D0002004B0BDE8F087012004B00A
:100B4800BDE8F0870120704700200240B40400206F
:100B58002DE9F843164680460F4602F073F82C4BF1
:100B68003422DA6016B3DFF8AC907D1C002401E073
:100B7800A6421BD9631C9E4215F8012C88BF2B780E
:100B880008EB04018CBF42EA032242F47F420023AF
:100B9800012002F09DF80235E3B2023480BB002B3D
:100BA800E6D1484602F074FDA642E3D802F05EF8AA
:100BB800BFF34F8F0EB3174D0137002401E0A64253
:100BC8001BD9631CB34217F8012C3CBF3B7842EA9F
:100BD800032238F8043028BF42F47F429BB29A427D
:100BE80007F10207E3B204F102040ED1002BE6D1AB
:100BF800284602F04DFDA642E3D80120BDE8F8835F
:100C080002F034F80020BDE8F8830020BDE8F8833E
:100C180000200240B40400202DE9F04F02F2FF7AD0
:100C28008BB05FEADA2ACDE90201049252D04FEA8A
:100C3800CA234FF00008DFF8A8B00593642445469E
:100C48001FE0069B013341D1FFF782FF0346584658
:100C5800002B3BD002F01CFD33465246204641464D
:100C6800FFF7AEFAC1B20846019100F0A3FD019961
:100C7800072000F0F3FF059B643448F10008AB42FD
:100C880028D0029B4FF40062EF18049BA946154434
:100C9800AB424FF0000138BFA3EB0902CDE90717BB
:100CA80001210192099101F0CDFF0C4B3421D9604B
:100CB80007A806A902F05EF8064601F0D7FF039BD5
:100CC800019A09EB03013846002EBAD000200BB078
:100CD800BDE8F08F01200BB0BDE8F08F0020024086
:100CE800B404002070B5124C124E05468446A64640
:100CF800BEE80F00B6450CF1100C04F110044CF8D6
:100D0800100C4CF80C1C4CF8082C4CF8043CEED198
:100D1800234607CBCCF80000CCF80410CCF8082008
:100D28002868054BC01AB0FA80F0400970BD00BFB2
:100D3800007800083078000841504155F0B5234C40
:100D4800234D06460FCC95B00DF1140CACE80F00FE
:100D58000FCCACE80F000FCCACE80F0094E807000C
:100D6800059BAB428CE8070005D13C22314605A81B
:100D780003F012F928B3154F012300250493CDE998
:100D8800025701F05FFF134B3422DA6001A902A871
:100D980001F0F0FF044601F069FF2CB9019B013313
:100DA80006D0204615B0F0BD2C46204615B0F0BD43
:100DB8003C2231463846FFF7CBFE0446204615B0A4
:100DC800F0BD0124204615B0F0BD00BF0078000832
:100DD800415041550020024030B591B000212022F9
:100DE80007A803F0F7F80122102300240225CDE913
:100DF8000A2306A84FF460130F93CDE90144CDE907
:100E08000344CDE905450D9502F0C0FC0F224FF4CF
:100E1800806301A82946CDE90125CDE9034305945E
:100E280002F0E4FF11B030BD2DE9F04F93B001F0AE
:100E3800B5FBFFF7D1FFA24BA24C5A69A24E42F470
:100E480000325A615A6902F400320192019ADA6951
:100E580042F00072DA61DB6903F0007302934FF429
:100E6800C05002230025032703A904930390029B83
:100E7800059509234FF090400697079301F0DCFF92
:100E8800924AA5830423C4E900234FF440234FF476
:100E98008011236120464FF00123C4E90513C4E9FA
:100EA800025501F0B3FB012308A92046CDE910350E
:100EB8000F93CDE90D55CDE90855CDE90A550C95A7
:100EC80001F026FC204601F09BFC00F05BF940F2A3
:100ED800E733B36030467E4B3360776002F0ACFB9B
:100EE80000F0A8FF804601F077FB7A4D074601F035
:100EF80073FBC01BB0F5167F37D2304602F0C8FB33
:100F08000021204601F0F0FDD0B103AB08AA002172
:100F1800204601F059FD98B9DDE90A321343E6D1BC
:100F2800089B40F2F172934200F0B780B3F5FF6F6F
:100F380000F0BF8040F2FB72934201D100F03EFF07
:100F480001F04AFB2B68C01AB0F57A7FCFD301F0C5
:100F580043FBFF21034601202B6000F07FFE01F0D8
:100F68003BFBC01BB0F5167FC7D3B8F1000F40F0AC
:100F7800A380012000F03CFE574EDFF86881DFF8BF
:100F88006891514F4F4CDFF864B1384602F080FB4E
:100F98000021204601F0A8FDB0B103AB08AA00214A
:100FA800204601F011FD78B9DDE90A321343ECD18E
:100FB800089B40F2F172934256D040F2F772934286
:100FC80043D10C9B082B70D001F006FB2B68C01A8C
:100FD800B0F57A7F1FD23378002BD6D098F800A0CE
:100FE800BAF1000FD1D101F0F7FAD9F80030C01AE0
:100FF80042F210739842C8D986F800A088F800A079
:1010080000F0B6FA5A460421022000F011FB012034
:1010180000F0EEFDB9E701F0DFFA337828608BB114
:1010280098F8003073B92D4A12685AB12C490968EA
:101038006420A1FB0001FFF7C3F8C1B2032000F050
:101048000DFEC8E70120FF21F9E740F2F272934252
:1010580017D040F2F47293420DD10C9B082BB3D1F8
:1010680003A801F03DF9AFE70C9B082BACD103A80E
:1010780000F0DCFFA8E7B3F5FF6F07D100F00EFE24
:10108800A2E70C9903A801F0AFF89DE740F2FB72C4
:10109800934299D100F092FE96E70C9B082B7FF4BF
:1010A8004FAF03A800F0C2FF63E703A801F078F888
:1010B8008AE700F0F3FD43E700F064FF59E700BF5B
:1010C8000010024038040020B404002000640040EE
:1010D8000030004004000020FA0C0020000D002021
:1010E800D00C0020F80C0020FC0C00203441000833
:1010F800044B4FF090416FF0A0504FF0FF32086062
:101108001A60FEE70004004801F05ABAF0B51B4D1A
:101118002B7885B00BB905B0F0BD503814270C46B4
:101128008DF80D00022303AA1548009700267821A0
:101138008DF80C6002F008F92A7804F00F03002AF1
:10114800E9D08DF80D30782102230D48009703AAC5
:101158008DF80C6002F0F8F82B7821091031002B7B
:10116800D9D08DF80D100097022303AA78210448DE
:101178008DF80C6002F0E8F805B0F0BDC40400205A
:1011880060040020F0B5224D224C6B6943F4003313
:101198006B616B698BB003F4003303934FF4C06346
:1011A80005931223012606930323CDE9076305A9B6
:1011B80004234FF09040039A099301F03DFEEB6938
:1011C800E66043F40013EB61EB69134A226003F411
:1011D8000013124A049320460023C4E90123C4E9FA
:1011E8000433C4E9073304990D4D02F037F832206F
:1011F80001F0F8F9142302227821204602F088F938
:10120800061E0CBF012300232B700BD00BB0F0BDC2
:101218000010024060040020005800402A231000FB
:10122800C4040020AE2314278DF81530009702233C
:101238000DEB0702782120468DF8146002F084F83F
:101248002B78002BE2D0D5238DF815300097022398
:101258000DEB0702782120468DF8146002F074F82F
:101268002B78002BD2D080238DF8153000970223DD
:101278000DEB0702782120468DF8146002F064F81F
:101288002B78002BC2D0A8238DF8153000970223A5
:101298000DEB0702782120468DF8146002F054F80F
:1012A8002B78002BB2D03F238DF8153000970223FE
:1012B8000DEB0702782120468DF8146002F044F8FF
:1012C8002B78002BA2D0D3238DF81530009702235A
:1012D8000DEB0702782120468DF8146002F034F8EF
:1012E8002B78002B92D0022300970DEB0702782170
:1012F80020468DF814608DF8156002F025F82B78DB
:10130800002B83D040238DF81530009702230DEB76
:101318000702782120468DF8146002F015F82B7822
:10132800002B3FF473AF8D2202238DF81520009710
:1013380020460DEB070278218DF8146002F004F8BE
:101348002B78002B3FF462AF0223884800970026D1
:101358000DEB070278218DF814608DF8157001F0F7
:10136800F3FF2B783C46002B3FF450AF20238DF839
:1013780015307E48009702230DEB070278218DF87F
:10138800146001F0E1FF2B78002B3FF43FAF0227F8
:101398003B46764800940DEB040278218DF81460E2
:1013A8008DF8157001F0D0FF2B78002B3FF42EAF8D
:1013B800A1238DF815306D4800943B460DEB0402CF
:1013C80078218DF8146001F0BFFF2B78002B3FF4D3
:1013D8001DAFC8238DF81530644800943B460DEBCB
:1013E800040278218DF8146001F0AEFF2B78002BF1
:1013F8003FF40CAFDA238DF815305C4800943B4677
:101408000DEB040278218DF8146001F09DFF2B7814
:10141800002B3FF4FBAE12238DF81530534800948F
:101428003B460DEB040278218DF8146001F08CFF27
:101438002B78002B3FF4EAAE81238DF815304B480A
:1014480000943B460DEB040278218DF8146001F0FE
:101458007BFF2B78002B3FF4D9AECF238DF81530C6
:10146800424800943B460DEB040278218DF8146045
:1014780001F06AFF2B78002B3FF4C8AED9213B4618
:101488008DF81510394800940DEB040278218DF879
:10149800146001F059FF2B78002B3FF4B7AE2646B5
:1014A800F1238DF81530314800963B4600240DEBAA
:1014B800060278218DF8144001F046FF2B78002BA6
:1014C8003FF4A4AEDB238DF81530284800963B4640
:1014D8000DEB060278218DF8144001F035FF2B78CA
:1014E800002B3FF493AE40238DF815301F4800962B
:1014F8003B460DEB060278218DF8144001F024FFDD
:101508002B78002B3FF482AEA4238DF815301748B2
:1015180000963B460DEB060278218DF8144001F049
:1015280013FF2B78002B3FF471AEA6238DF81530EE
:101538000E4800963B460DEB060278218DF81440C4
:1015480001F002FF2B78002B3FF460AEAF218DF83D
:10155800151000963B460DEB0602782103488DF8DE
:10156800144001F0F1FE0BB0F0BD00BF6004002094
:101578002DE9F0410026C4B07C22314604A8039628
:1015880002F028FD284D294FB0242B78002B43D09A
:101598004FF014080223CDF8008023AA782138469A
:1015A8008DF88C608DF88D4001F0CEFE2B789BB3C2
:1015B8000223CDF8008023AA782138468DF88C6064
:1015C8008DF88D6001F0C0FE2B782BB34FF0100C16
:1015D8000223CDF8008023AA782138468DF88C6044
:1015E8008DF88DC001F0B0FE2B78ABB140238DF89B
:1015F8008C3003A923AB43A8002201E011F8012F86
:1016080003F8012F8342F9D11423009323AA8123DD
:101618007821384601F098FE0134E4B2B82CB4D1F0
:1016280044B0BDE8F08100BFC4040020600400207D
:101638002DE9F04F2DED028BE7B00027924603907D
:101648007C2208EE101A0D4606A8394625AC0597E7
:1016580002F0C0FC39467C2226A8276002F0BAFCBA
:101668009AF8003005AE002B60D01FFA85F9B9F161
:10167800760F5BD809F10A08DFF834B1494D1FFA33
:1016880088F80327A3F16102192A9CBF203BDBB22B
:10169800253BDBB2302B00F28180EB5C03EB83024D
:1016A8004FEA830E1BF802009E440EF1010EDE4441
:1016B800CC4600231A4640FA03F111F0010F4FEA15
:1016C800430103F1010303D007FA01F11143CAB240
:1016D800042BF0D110F0100318BF0323810648BF74
:1016E80043F00C03410644BF43F03003DBB20CF176
:1016F800010106F80C2004F80C300CF1020C1FFA5A
:101708008CFCC4457254635402D01EF8010BD0E718
:101718001AF8013F09F10B091FFA89F933B108F1E9
:101728000B08B9F1760F1FFA88F8ABD91E4F03984A
:1017380018EE101AFFF7EAFC3B7883B140233146D4
:1017480080220DF215108DF8143102F035FC1423A7
:1017580000931648812345AA782101F0F5FD0398E6
:10176800013018EE101AC0B2FFF7D0FC3B7883B1F5
:101778004023802221460DF215108DF8143102F015
:101788001BFC142300930948812345AA782101F002
:10179800DBFD67B0BDEC028BBDE8F08F002003468F
:1017A800864681E7D0410008C40400206004002078
:1017B8003C4100082DE9F0476428054628BF642508
:1017C800C5EBC503C3EB03139F4A5E19A2FB06369C
:1017D800CAB00746C6F347160DAA012400237F2086
:1017E8004FF0410C08E06D2909D0B1426AD8107059
:1017F80001340133E4B20132D9B2002BF3D11070B5
:101808006E2CF5D1914E3378002B40F0D0804FF0FC
:10181800000E632F5DD90DF10C093023312489F8AE
:10182800004089F8013089F80230042103200023A0
:101838002522CDE90633CDE9083309F80020DFF881
:10184800188209F80130DFF814A20B9305ADADF842
:1018580030300A939C4605201F462B60A4F1610393
:10186800192B9CBF203CE4B2253CE4B2302C2CD888
:101878001AF8043003EB8302990018F802403A463C
:101888001944531CDBB201318342AC54414407D0A4
:101898001A46531CDBB211F8014BAC548342F7D102
:1018A8000CF1010C5FFA8CFC063719F80C40063075
:1018B800FFB2C0B2002CD1D1BEF1000F29D14AB07D
:1018C800BDE8F08782F800C09AE700242346214645
:1018D800D5E7092F13D95E4BA3FB0523DB0803F1DA
:1018E800300403EB8303A5EB430330330DF10C09FC
:1018F8000321022089F8004089F8013097E705F1B3
:1019080030040DF10C09E4B289F8004002210120ED
:101918008DE7B3234FF014088DF8A5304D48CDF866
:101928000080022329AA78218DF8A44001F00CFD3B
:101938003378002BC3D004238DF8A5304548CDF863
:101948000080022329AA78218DF8A44001F0FCFC2C
:101958003378002BB3D010238DF8A5303D48CDF84F
:101968000080022329AA78218DF8A44001F0ECFC1C
:101978003378BCB2002BA2D04023802C28BF80240F
:101988008DF8A4303FB1621E92B2013229460DF1A2
:10199800A50002F011FB631C142200929BB229AA35
:1019A80078212C4801F0D0FC4AB0BDE8F087B52377
:1019B8004FF014088DF8A5302648CDF80080022392
:1019C8004FF0000929AA78218DF8A49001F0BCFCF9
:1019D8003378002B3FF41BAF04238DF8A5301D4846
:1019E800CDF80080022329AA78218DF8A49001F06F
:1019F800ABFC3378002B3FF40AAF10238DF8A530E9
:101A08001448CDF80080022329AA78218DF8A490E3
:101A180001F09AFC96F800E0BEF1000F3FF4F9AE31
:101A2800402322460DA90DF1A5008DF8A43002F03F
:101A3800C3FA0848CDF800806F2329AA782101F05D
:101A480083FC96F800E0E4E61F85EB51C40400200F
:101A5800CDCCCCCC600400203C410008D04100082B
:101A6800F0B51A4E1A4D89B00746322408E001F045
:101A78000FFE012000F0B6FD631E13F0FF041DD019
:101A8800304600F08DFF03462846002BEFD0052393
:101A980040F2F570022100248DF800300290069182
:101AA80001AB6A4602A909488DF80170CDE90444E2
:101AB8008DF81C4000F01CFF09B0F0BD034800F091
:101AC8006FFF0028E3D109B0F0BD00BF3804002043
:101AD800B40400202DE9F047DFF80C81DFF80C9101
:101AE800D8F80000D9F8002000F580304830B2F569
:101AF800006F88B04FEAC02406D23648FF21104450
:101B0800C2F5006202F066FA32494FF400622046DC
:101B1800FFF71EF8054618B9284608B0BDE8F08753
:101B2800D8F800A02C4F2D4E322408E001F0B0FD6B
:101B3800012000F057FD631E13F0FF0443D0384620
:101B480000F02EFF03463046002BEFD04FEA1A6311
:101B58008DF800304FEA1A438DF801304FEA1A2306
:101B680040F2F37204218DF802300023CDE90433EA
:101B780002928DF81C30069117488DF803A001AB2E
:101B88006A4602A900F0B4FED8F8003013480133C1
:101B98000024C8F80030C9F8004001F079FD104B66
:101BA8001A6832B91046FFF705FE284608B0BDE8A6
:101BB800F0870C4B19686420A1FB00012346FEF74F
:101BC800FFFAC0B2EFE7044800F0EAFE0028DBD0D5
:101BD800BCE700BFCC04002038040020B404002077
:101BE800000D0020D00C0020C8040020CC0C0020E0
:101BF800F0B5184E184D89B00746322408E001F0B8
:101C080047FD012000F0EEFC631E13F0FF041AD01C
:101C1800304600F0C5FE03462846002BEFD040F2C0
:101C2800F572012000240292069001AB6A4602A9CF
:101C380008488DF80070CDE904448DF81C4000F088
:101C480057FE09B0F0BD034800F0AAFE0028E6D10F
:101C580009B0F0BD38040020B404002070B5054672
:101C680088B00D480C4600F09BFE98B1002140F268
:101C7800F672CDE90411022602928DF81C1006486E
:101C88008DF8005001AB6A4602A98DF8014006960E
:101C980000F02EFE08B070BD3804002070B5A0B06A
:101CA80011A8FFF71FF800286ED0DDE913319DF861
:101CB80054001E0EC3F30744C3F30722C1F30725DC
:101CC800DBB2C9B28DF8103008238DF80E408DF8BC
:101CD8000F2040F2F9740022099301238DF80D605A
:101CE80005948DF81150CDE90722314E314D8DF80C
:101CF80012108DF813008DF8282032248DF80C303E
:101D080008E001F0C5FC012000F06CFC631E13F034
:101D1800FF0440D0304600F043FE03462846002B1F
:101D2800EFD023480BAB03AA05A900F0E1FD204E34
:101D3800204D322408E001F0ABFC012000F052FCF9
:101D4800631E13F0FF042CD0304600F029FE034632
:101D58002846002BEFD0184B1B68ADF804301A0C3E
:101D680040F2FA70032100248DF806200B900F91A1
:101D780002AB01AA0BA90E488DF84040CDE90D44ED
:101D880000F0B6FD20B070BD014605460346024688
:101D98000446064696E7064800F002FE0028C6D02C
:101DA800BFE7034800F0FCFD0028D4D120B070BD87
:101DB80038040020B404002004420008F0B51B4D8C
:101DC8001B4E2B6889B09F69322408E001F060FC43
:101DD800012000F007FC631E13F0FF041ED0284604
:101DE80000F0DEFD03463046002BEFD000213B0C0F
:101DF80040F2FC72CDE904118DF8003002928DF8A2
:101E08001C103F0E022401AB6A4602A907488DF850
:101E18000170069400F06CFD09B0F0BD034800F0B5
:101E2800BFFD0028E2D109B0F0BD00BF3804002092
:101E3800B404002030B5A1B002A8FEF753FF002873
:101E480038D14B4B1B6803F16042A2F58072B2F5A2
:101E58001F4F27D82C22002115A802F0BBF84548AF
:101E680011904548424901234FF4E034CDE912303E
:101E780022464FF0FF3014931694FEF7EFFDFEF75D
:101E88002DFE18AD3A4A179023463C48009520216C
:101E9800FEF798FC11A8FEF751FF003818BF012083
:101EA80021B030BD03F17043A3F58073B3F5F85F3B
:101EB800D0D9F5E7304B049A9A4212D1079B5A1EA3
:101EC800B2F5E03F0DD2039A022A0DD01A462849EE
:101ED8004FF0FF30FEF7C2FDFEF700FE089B83427D
:101EE80035D0002021B030BD0720FFF781FE079ACA
:101EF80023491F48FEF790FE0028F2D00DF1080C88
:101F0800BCE80F0011AC0FC4BCE80F000FC4BCE85C
:101F18000F000FC49CE80700012584E8070011A8FA
:101F28001295FEF70BFF0028DBD011AC0FCC0DF19A
:101F3800080CACE80F000FCCACE80F000FCCACE8F5
:101F48000F0094E80700079B8CE80700BEE711AC78
:101F5800079B074A094800942021FEF733FC2022FA
:101F680009A92046FEF760FD003818BF012097E751
:101F7800008000084150415501CC0303144000087B
:101F880000400208254B70B51C685D6804F1604389
:101F9800A3F58073B3F51F4F06D904F17043A3F579
:101FA8008073B3F5F85F38D814F0030635D1EB0722
:101FB80033D505F17843A3F50043B3F5E03F2CD2C0
:101FC800142000F0F3FD164800F07CFC154801F0E1
:101FD800A1F901F063FB00F0ABFA4FF090436FF00A
:101FE800A0521A604FF0FF32C3F800244FF0E022ED
:101FF8000D4B1661566196615A6842F000725A603C
:1020080072B6064A9A60BFF34F8FBFF36F8F84F39F
:1020180008882B46BDE87040184770BD008000084E
:10202800380400206004002000ED00E070B503686B
:1020380042684A4C4A481BBA591E12BAB1F5E03FE9
:102048008AB02360026069D2464B9A422BD0464E32
:10205800464D322408E001F01BFB012000F0C2FAD3
:10206800631E13F0FF0471D0304600F099FC03465C
:102078002846002BEFD00522042340F2F5700221F8
:1020880000248DF808208DF809300490089103ABDE
:1020980002AA04A934488DF82440CDE9064400F08A
:1020A80027FC0AB070BDFFF763FA314A10210020FF
:1020B800FFF7BEFA0020FFF77DFB216801F2FF71F0
:1020C800C90A02200191FFF793FD01992948FEF7FB
:1020D80007FD044640B34FF40062FF212648274D10
:1020E800274C01F077FF27492748284A00230B602F
:1020F8002749037027482B6023600B7001244FF099
:10210800FF331360047000F067FA234B0246032084
:102118001A600AB0BDE87040FFF76ABDFF200AB038
:10212800BDE87040FFF764BDFF20FFF761FD184A66
:10213800184B012111701C70FFF71AFA174A042175
:1021480002200AB0BDE87040FFF772BA064800F0F6
:1021580027FC00288FD10AB070BD00BF000D0020F9
:10216800D40C002001CC030338040020B404002060
:102178000842000800400208CC040020D00C0020CF
:10218800CC0C0020C8040020F90C00200800002016
:10219800F80C0020FA0C0020FC0C00203441000848
:1021A80038B50C4B1A789AB10B4A127882B90B4D94
:1021B8002A78032A0CD80346094C5968006804EBAE
:1021C800C20303C301322A7000F006FA054B1860F7
:1021D80038BD00BFFA0C0020F80C0020F90C0020D4
:1021E800D80C0020FC0C00202DE9F04FDFF8E4A00B
:1021F8009AF8002083B0002A57D0304B1A78002A6A
:1022080053D108290E4650D82D4DDFF8CC902968B7
:10221800D9F80020914283464AD3002E3ED0DFF8F9
:10222800BC80284A0BF1FF37002402E00134A642A3
:1022380034D02868D9F80010884200F101032CD264
:10224800D8F8000017F801EF02F800E0411CB1F5DA
:10225800006FC8F800102B60E8D1FFF73BFC194A63
:102268000028E3D1621C184C019059462068FEF7FB
:10227800F5FB2060FF20FFF7BBFC019B8AF80030CC
:102288000E4B01221A70FFF773F9104A042102203D
:1022980003B0BDE8F04FFFF7CBB926460A4C3246EB
:1022A80020685946FEF7DAFB206003B0BDE8F08FDE
:1022B80000F092F9064A1060AFE700BFF80C002062
:1022C800D00C0020CC040020080000203441000875
:1022D800FC0C0020FA0C0020000D0020CC0C002083
:1022E8002DE9F04F7D4C2378BBB013B17C4D2B7892
:1022F80013B13BB0BDE8F08F814600F06DF9794B22
:102308001860794B1B68002B40F0AA80774B784EF9
:102318001A6833689A4203D1764B1F78042F10D07D
:102328000120FFF79DFB0022012322702B70FFF78D
:102338001FF9714A042102203BB0BDE8F04FFFF7B6
:1023480077B96E4BD9F800801868D9F80430039330
:10235800B9F804B0B9F806A0FEF7C0FB814606201C
:10236800FFF746FC98FA88F8FFF702F9644A10214B
:102378000020FFF75DF9C84578D10DF11408CDF8B4
:102388000080604A604833682021FEF71BFA5F49E5
:1023980020224046FEF748FB002869D09BFA9BFBA9
:1023A8009AFA9AFA0DA81FFA8BFB1FFA8AFAFEF717
:1023B80099FC10B10E9A012A63D0554BCDF888903C
:1023C8001B681E9333682193524B4FF00209CDE9E5
:1023D8001C39B8E80F0023AF0FC798E80F0087E84B
:1023E8000F001CA8CDE91FBAFEF7A8FC48B30720C8
:1023F800FFF7FEFBFFF7BCF8414A04210020FFF776
:1024080017F90020FFF7D6F932683E494248FEF72F
:1024180003FCB0B164201CAEFFF7CCF90FCE2BAF94
:102428000FC70FCE0FC70FCE0FC796E807004FF0A4
:10243800010C87E807002BA8CDF8B0C0FEF77EFC9A
:1024480080BBFF20FFF7D4FB0022012322702B70F2
:10245800FFF78EF8284A04210220FFF7E9F848E739
:10246800FFF738FB00287FF451AFEAE7022058E76E
:1024780003900320FFF7F4FA039B237001222A70CC
:10248800E6E7DDE91001039B41EA00411BBA9942E6
:1024980093D905200392FFF7E3FA039A2A700023E1
:1024A8002370D5E7FFF764F81C4A10214846FFF768
:1024B800BFF80420FFF79CFB4FF4167000F092F869
:1024C800BFF34F8F1649174BCA6802F4E0621343F3
:1024D800CB60BFF34F8F00BFFDE700BFFA0C0020B1
:1024E800F80C0020FC0C0020CC0C0020D00C0020A4
:1024F800000D0020F90C00203441000808000020DD
:10250800084200080040020814400008D80C0020C7
:10251800D40C0020415041550080000814420008A6
:1025280000ED00E00400FA05704700BF704700BFE7
:1025380010B5074B00244FF0FF321A611C61DA60B6
:10254800DC609A629C62FFF7F1FF204610BD00BF75
:102558000010024038B50E4A0E4B12781B6805462B
:102568004FF47A70B0FBF2F0B3FBF0F000F032FBFE
:1025780008B90F2D01D9012038BD04460246294665
:102588004FF0FF3000F0D4FA034B20461D6038BDF1
:102598000C0000200000002010000020074A08B5A9
:1025A800136843F010031360032000F0AFFA0F2004
:1025B800FFF7D0FFFFF7B8FF002008BD002002405A
:1025C800034A044B11681B780B441360704700BF23
:1025D800040D00200C000020014B1868704700BF54
:1025E800040D002038B50446FFF7F6FF631C0546C6
:1025F80002D0044B1B781C44FFF7EEFF431BA34299
:10260800FAD338BD0C000020704700BF00287BD0EB
:1026180038B590F820300446002B72D02268136831
:1026280043F001031360FFF7D7FF054604E0FFF707
:10263800D3FF431B0A2B5BD823685A68D107F6D50A
:102648001A6822F002021A60FFF7C6FF054604E086
:10265800FFF7C2FF401B0A284AD823685A68920726
:10266800F6D4227E012A1A680CBF42F0800222F0BA
:1026780080021A60627E012A1A680CBF42F040028A
:1026880022F040021A60A27E012A1A680CBF42F0AA
:10269800200222F020021A60E27E012A1A680CBF8A
:1026A80022F0100242F010021A60227F012A1A68F2
:1026B8000CBF42F0080222F008021A60627F012A69
:1026C8001A680CBF42F0040222F004021A60D4E92E
:1026D8000220216902430A436069616802430139A3
:1026E8000A4300200121DA61606284F8201038BDB5
:1026F800636A052243F40033636284F820200120D2
:1027080038BDFFF781FF89E701207047704700BF98
:1027180090F82020013A012A034605D9426A42F47A
:10272800802201205A6270470368486970B4D3F860
:10273800004244F00104C3F80042D3F81C420125CA
:1027480000F01F0205FA02F2CD6924EA0204C3F878
:102758001C42D443002D3DD1D3F80C52CE682540FD
:10276800C3F80C528D8803EBC00045EA0645C0F853
:1027780040528E680D8845EA0645C0F8445288697B
:1027880010BBD3F804022040C3F804020869A8B9B2
:10279800D3F814020440C3F81442096A012904D189
:1027A800D3F81C120A43C3F81C22D3F8002222F0E3
:1027B8000102002070BCC3F800227047D3F814024D
:1027C8001043C3F81402E8E7D3F804021043C3F82F
:1027D8000402DBE7012DD2D1D3F80C520E68154361
:1027E800C3F80C528D8803EBC00045EA0645C0F8D3
:1027F80040528E688D8945EA0645C0F84452BEE7C6
:1028080070B590F82030012B044606D0436A0126A3
:1028180043F400234362304670BD0268DEB20223EF
:1028280080F82030136823F001031360FFF7D4FE0B
:10283800054604E0FFF7D0FE431B0A2B08D823689F
:102848005B6813F00103F5D11E466362304670BD24
:10285800636A052243F40033636284F8202030461B
:1028680070BD00BF38B590F82030022B044605D063
:10287800436A43F480130120636238BD0268136819
:1028880043F001031360FFF7A7FE054604E0FFF7D6
:10289800A3FE431B0A2B0CD823685A68D207F6D527
:1028A8001A68012122F002021A6084F82010002020
:1028B80038BD636A052243F40033636284F820203C
:1028C800012038BD88B110B50446FFF7CBFF20467C
:1028D800FFF71CFF21680A68002342F400420A60DF
:1028E800636284F82030184610BD0120704700BF8D
:1028F80030B4844690F82000DCF8005001380128F4
:10290800AC683BD814F0E05F08D1DCF8243043F41D
:102918000013012030BCCCF824307047C4F30164A4
:102928000120A04018608B688BB3C86803434868CF
:1029380043EAC00304F1180000012B5005EB041C06
:102948000B69CCF88431097D01294FEA041305D1BC
:10295800DCF8841141F48071CCF884112B4451685F
:10296800C3F88C111268C3F88821DCF8803143F071
:102978000103002030BCCCF880317047DCF82430EB
:1029880043F48023012030BCCCF824307047CB6856
:10299800086843EA405004F118031B01E850CDE7EA
:1029A80090F82030013B012B01D9002070470368C3
:1029B80098689A689B681201C0F3806048BF01302C
:1029C800DB00F3D50130704770B590F820E00EF1C8
:1029D800FF3EBEF1010F844673D8006851B9C46840
:1029E800A4070AD1DCF8243043F400130120CCF802
:1029F800243070BD0469A607F4D000EB011E0C0159
:102A0800DEF8B05105F004059560002D60D0DEF8C1
:102A1800B051ED085560DEF8B05105F00205D560FB
:102A2800DEF8B4512D0758BFDEF8B451DEF8B461B2
:102A380054BF05F00F05082515612044DEF8B45190
:102A4800C6F3072696612D0CD0F8B86155611E7043
:102A5800DCF800202244D2F8B821120A5A70DCF8B7
:102A680000202244D2F8B821120C9A70DCF8002019
:102A78002244D2F8B821120EDA70DCF80020224481
:102A8800D2F8BC211A71DCF800202244D2F8BC210B
:102A9800120A5A71DCF800202244D2F8BC21120C28
:102AA8009A71DCF800202244D2F8BC21120EDA71A7
:102AB800DCF8002089B9D36843F020030846D360C6
:102AC80070BD436A43F480230120CCF8243070BDE4
:102AD800DEF8B0516D0D15609DE7136943F02003D2
:102AE8000020136170BD00BF90F82030013B012B1E
:102AF80001D900207047036819B9D86800F00300AD
:102B08007047186900F00300704700BF0749CA689A
:102B180003024FF6FF0003F4E0630240134343F05F
:102B2800BF6343F40033CB60704700BF00ED00E0A3
:102B38001C4BDB68C3F3022300B5C3F1070EBEF1DB
:102B4800040F03F1040C28BF4FF0040EBCF1060F6C
:102B58001BD9033B4FF0FF3C0CFA03FC22EA0C02A2
:102B68004FF0FF3C0CFA0EFC21EA0C0199400028BA
:102B780041EA02010CDB00F16040090100F5614007
:102B8800C9B280F800135DF804FB00221346E7E79A
:102B9800054B00F00F0009010344C9B219765DF82E
:102BA80004FB00BF00ED00E0FCEC00E000280DDBBA
:102BB800430907490122203300F01F0002FA00F000
:102BC80041F82300BFF34F8FBFF36F8F704700BFEB
:102BD80000E100E00138B0F1807F10D210B44FF06E
:102BE800E023084C58614FF0F00C84F823C0002211
:102BF800072110469A615DF8044B1961704701205E
:102C0800704700BF00ED00E00C4BDB6813F01003C9
:102C180005D00B49CA6942F002021023CA61074A6B
:102C2800D268520706D50649CA6942F0010243F044
:102C38000403CA61014AD360704700BF0020024004
:102C4800080D0020064B186910F0800006D00549D1
:102C5800054A59605A601869C0F3C010704700BF30
:102C68000020024023016745AB89EFCD034A136971
:102C780043F0800300201361704700BF002002402A
:102C880070B50446FFF7A8FC104D064601E0631C2A
:102C980010D1EB68D807FAD4EB68990644BF202313
:102CA800EB600A4BDA68D2060CD4D86810F004003E
:102CB80008D170BD24B1FFF78FFC801BA042E8D972
:102CC800032070BDFFF7A0FF012070BD0020024067
:102CD8002DE9F84F254E1C46337E012B43D005467F
:102CE80001234CF250308A4617463376FFF7C8FF67
:102CF800A8BB012D03D0022D0CBF022504254FF0DF
:102D08000009DFF86CB00AEB4505C846C9F1200395
:102D1800C6F81C80A9F1200227FA09F004FA03F387
:102D2800184324FA02F2DBF8103010431FFA80FC33
:102D380043F00103CBF810304CF25030AAF800C031
:102D4800FFF79EFFDBF8103023F001030AF1020AB7
:102D580009F11009CBF8103008B9AA45D6D10023DB
:102D68003376BDE8F88F0220BDE8F88F080D002003
:102D7800002002402DE9F8432D4E337E012B54D01C
:102D8800012333760368012B814631D04CF2503051
:102D98008846FFF775FF074678BB4FF0FF33C8F842
:102DA8000030D9E9015305EBC3239D4225D2214CBC
:102DB80007E0D9E9013205F5006503EBC223AB4210
:102DC8001CD9F761236943F0020323616561236914
:102DD80043F0400323614CF25030FFF751FF236961
:102DE80023F0020323610028E3D0C8F8005005E06F
:102DF8004CF25030FFF744FF20B101200023337616
:102E0800BDE8F8830B4CF061236943F004032361A8
:102E1800236943F0400323614CF25030FFF730FF41
:102E2800236923F004032361E8E70220BDE8F8835F
:102E3800080D0020002002402DE9F04F0C6885B0F5
:102E4800002C7ED04FF0000CDFF8BCA163464FF099
:102E5800010B89460BFA03F515EA04086BD0D9F87B
:102E6800047007F00302511E01296DD9032A40F0AE
:102E7800AC8002FA0CF2D143056829400A4317F4E2
:102E8800403F026057D0DAF8182042F00102CAF831
:102E98001820DAF8182002F001020392039A23F0AE
:102EA800030202F1804202F5803203F003019568C3
:102EB80089000F2606FA01FEB0F1904F25EA0E05AB
:102EC80015D04C4EB04200F08B804B4EB04200F013
:102ED8008B804A4EB0427DD0494EB0420BBF4FF076
:102EE800040E05260EFA01F106FA01F10D4395606C
:102EF800444A444992686FEA0805FE0254BF2A40D2
:102F080048EA02028A60CA68B9023E4954BF2A40A8
:102F180048EA0202CA6049683A4ABE0354BF2940D7
:102F280048EA010151601268F903364954BF2A4042
:102F380048EA02020A60013334FA03F20CF1020C87
:102F480088D105B0BDE8F08F8168D9F80C604FF0E2
:102F5800030E0EFA0CFE21EA0E0106FA0CF63143B6
:102F680081606FEA0E01D0F804E02EEA050EC7F37F
:102F780000159D4045EA0E054560C56805EA010E45
:102F8800D9F8085005FA0CF545EA0E05022AC5607D
:102F980002FA0CF27FF470AFDD0800EB85050195AD
:102FA8002E6AD9F81050009603F0070E4FEA8E0EDD
:102FB8000F2605FA0EF506FA0EFE009E26EA0E0EFC
:102FC800019E45EA0E05356256E7032101FA0CF128
:102FD800C943D2E74FF0030E0EFA01F10D4386E71D
:102FE8000BFA01F10D4382E74FF0020E0EFA01F1E0
:102FF8000D437CE70004004800080048000C004826
:10300800001000480004014000100240F8B50368B1
:103018009D6915F01005064640D0174610220C464B
:10302800DA619A69950604D4621C4DD19A699706AB
:10303800FCD52022DA6100259A69D40545F00405FB
:103048004FF001002ED4510539D54FF48061D96174
:1030580045F00805970504D54FF4007245F00205C0
:10306800DA619A69910744BF00229A629A69D20785
:1030780003D49A6942F001029A615A6826490A40C3
:103088005A60736C00221D432023756486F8402023
:1030980086F8413086F842200120F8BD9A69D405A7
:1030A8002846D0D54FF480715005D96145F0010507
:1030B800D0D54FF48061D96145F00805CAE7940579
:1030C800CAD40028CDD1F8BDFFF786FAC01BA042AC
:1030D800336801D8002CA4D1586896F84220996921
:1030E8000D04D2B20BD5410409D4202A07D05A685E
:1030F80042F480425A60FFF76FFA336807469969CD
:103108008A068ED4FFF768FAC31B192B3368F6D9E1
:103118009A69202590E700BF00E800FE70B50368B3
:1031280004460D46164605E0FFF770FF50B96A1CC5
:103138000AD123689B699B07324629462046F3D566
:10314800002070BD012070BDFFF746FA801BA84221
:10315800236801D8002DEDD19A6912F00202E9D155
:10316800636C84F8402020210B43636484F8411089
:1031780084F84220012070BD2DE9F041DDF8188067
:103188001D46044603680F46164605E0FFF73EFF56
:1031980080B96B1C11D123689B6937EA03030CBF04
:1031A80001230023B342424629462046EED00020A0
:1031B800BDE8F0810120BDE8F081FFF70DFAA0EB32
:1031C8000800A842236801D8002DE5D19A6937EA9A
:1031D80002020CBF01220022B242DDD1636C002240
:1031E80043F020032021636484F8402084F84110D0
:1031F800012084F84220DBE703689B699B0629D4F9
:1032080070B505460C4616460DE0FFF7E5F9801B3C
:10321800A042296800D81CB98B6913F020030DD08F
:103228008B699B0608D4324621462846FFF7EEFEF6
:103238000028EAD0012070BD002070BD6A6C85F8B6
:10324800403020210A436A6485F8411085F84230ED
:10325800012070BD00207047704700BF002854D07F
:1032680010B590F84130044603F0FF02002B47D018
:103278002368242284F841201968626821F001013A
:1032880022F0706219601A619A68E16822F40042BB
:1032980001299A60A26809D042F4044202299A607E
:1032A80007D15A6842F400625A6006E042F40042CC
:1032B8009A605A6822F400625A605968226941F09B
:1032C800007141F4004159606169D8680A43A169F5
:1032D80020F4004042EA0122E169D860206ADA60FD
:1032E80001431960196841F0010119600022202387
:1032F800626484F84130226384F84220104610BD8D
:1033080080F84020FFF7A8FFB2E70120704700BF10
:10331800704700BFB0B10268242310B580F841306F
:10332800136823F0010304461360FFF7F1FF00233D
:10333800636484F8403084F84130236384F8423071
:10334800184610BD012070472DE9F047994690F8BE
:10335800413082B0202B0A9E40F0958090F8403092
:10336800012B044600F08F804FF0010A80F840A03E
:1033780088461746FFF730F952460546009019234C
:103388004FF400412046FFF7F7FE002877D12123AC
:1033980084F84130102384F842306064A4F82A90FD
:1033A800638D67629BB2FF2B606370D8638D9BB29D
:1033B8002385002B40F09B802168514A4B681A40B6
:1033C800C8F30903134343F0007343F400534B60FD
:1033D800C8F30907638D9BB2002B3CD0DFF8288126
:1033E800DFF8289103E0638D9BB2002B33D02A4687
:1033F80031462046FFF792FE002840D1616A2368D3
:1034080011F8012B9A62638D228D6162013B9BB298
:103418006385638D013A92B29BB22285002BE2D07C
:10342800002AE0D10095334680212046FFF7A4FE0C
:1034380028BB638D9BB2FF2B4AD92268FF232385C3
:10344800536803EA08033B4343EA09035360638D67
:103458009BB2002BCBD12A4631462046FFF7CCFE43
:1034680068B92368274D2021D9615A682A405A60D3
:1034780084F8411084F8400084F8420000E00120FC
:1034880002B0BDE8F087022002B0BDE8F087FF2354
:1034980023854FF47F0EFE214FF0807C206817F8BB
:1034A800013B8362628D6762013A92B2628543682A
:1034B800134A21851A40C8F3090343EA0E0313434C
:1034C80043EA0C0343F400534360C8F3090781E758
:1034D800638D21689BB24A682385DBB247EA0343C0
:1034E80002EA0802134343F000734B607BE7013B99
:1034F80099B24B1CDBB24FEA034E4FF0007CCDE78C
:10350800009800FC00E800FE009C00FC0000FF01A1
:103518002DE9F04F85B004460020039094F841004F
:10352800202860D19A46236817469A6912F4004207
:1035380059D194F84000012855D0C1F30901012060
:1035480041F00078464684F84000242084F8410081
:1035580048F42058626446F400564FF01009E268B7
:10356800012A14BF424632465A60FFF735F805462D
:1035780020688269836902F0200203F01003134374
:1035880013D1BAF1FF3F08D0FFF726F8401B50458A
:103598003CD8BAF1000F39D020688369816903F0FB
:1035A800200301F010010B43EBD0826912F0100BDD
:1035B8001DD1009553465A4620212046FFF7DCFDD1
:1035C800002831D0636C042B04D123682022DA61EF
:1035D800C4F844B0039B01330393039B039BBB4292
:1035E80014D22368BBE7022005B0BDE8F08FC0F80D
:1035F8001C9053460095002220212046FFF7BCFD71
:103608000028E7D123682022DA61E3E7202384F841
:103618004130636C002243F020030120636484F886
:10362800402005B0BDE8F08F22682023D36184F8DC
:10363800413084F84000D7E740B338B5D0E90031CD
:10364800826804464CF6CC40186045F25550186024
:1036580059609A60FEF7C0FF23680546DA6851078B
:103668000AD0FEF7B9FF431B272B2368F6D9DA687F
:103678005207F3D0032038BDE268196991420ABFA6
:103688004AF6AA221A611A60002038BD0120704744
:1036980003684AF6AA2200201A60704770B5344CB5
:1036A800236843F001032360FEF796FF054604E014
:1036B800FEF792FF401B022828D823689B07F7D5FE
:1036C80023682C4A2A4D23F0F80343F08003236033
:1036D80063681A406260FEF77FFF41F2883604464D
:1036E80004E0FEF779FF001BB0420FD86B6813F0B7
:1036F8000C0FF6D12049214B214A08681A60FEF7C1
:1037080029FF044628B10124204670BD0324204621
:1037180070BD2B68164E23F0847323F480332B601E
:103728002B6823F480232B60FEF756FF054604E040
:10373800FEF752FF431B022BE8D8336813F00073DF
:10374800F6D17360F3623363B16841F41F014FF03F
:103758008072B16092FAA2F2B3603AB1094BB2FA40
:1037680082F213449B0001221A60D0E7064BFAE765
:10377800001002400CC0FFF81000002000000020DC
:1037880000127A002081901000054242002800F0C3
:1037980081822DE9F047036813F0010582B00446E1
:1037A8002AD0B0494A6802F00C02042A00F0448189
:1037B8004A6802F00C02082A00F03A816368B3F5FF
:1037C800803F00F05581002B00F09081B3F5A02FC9
:1037D80000F04B82A34B1A6822F480321A601A68F0
:1037E80022F480221A609F4AA168D36A23F00F034B
:1037F8000B43D36247E123689F075AD5994A51681A
:1038080011F00C0F35D0516801F00C0108292DD0AA
:103818002369002B00F0C081012393FAA3F3002B46
:1038280000F0B082B3FA83F303F1845303F58413F1
:103838009B0001221A60FEF7CFFE0225894F95FAF8
:10384800A5F50646B5FA85F80AE003FA08F31A4220
:1038580040F02682FEF7C0FE801B022800F240815D
:103868003A680123002DF0D10123F0E75268D6030E
:10387800CED47C490222086892FAA2F2002A00F00B
:103888000B82B2FA82F2012101FA02F2104203D04D
:103898002269012A40F0E280724D62692868F821A5
:1038A80091FAA1F1B1FA81F120F0F8008A400243BF
:1038B8002A601D0721D458074ED56A4BDA69D10012
:1038C80040F1AA804FF0000A674D2B68DA0540F1F5
:1038D800F780E368012B00F08781002B00F030812E
:1038E800052B604B1A6A00F0CD8122F001021A62A2
:1038F8001A6A22F004021A627BE1A369002B65D0E0
:10390800012393FAA3F3002B00F0FF81574AB3FA7F
:1039180083F31A44920001231360FEF75DFE02252B
:10392800504F95FAA5F50646B5FA85F80AE003FA68
:1039380008F31A4240F0D880FEF74EFE801B02289A
:1039480000F2CE807A6A0123002DF0D10123F0E73E
:10395800BAF1000F40F08381E06998B3414A536897
:1039680003F00C03082B00F0698102284FF08073E4
:1039780093FAA3F300F0A381002B00F00582B3FAB9
:1039880083F303F1845303F584139B0000221A6028
:10399800FEF722FE4FF00074324E94FAA4F4054666
:1039A800B4FA84F708E0BB401A420BD0FEF714FEC5
:1039B800401B022800F2948032680123002CF2D1C7
:1039C8000123F1E7002002B0BDE8F087012393FA54
:1039D800A3F3002B00F09B81244AB3FA83F31A4423
:1039E800920000231360FEF7F7FD02251D4F95FA9C
:1039F800A5F50646B5FA85F808E003FA08F31A4271
:103A080072D0FEF7E9FD801B022869D87A6A012383
:103A1800002DF2D10123F2E7DA6942F08052DA612F
:103A2800DB6903F080530193019B4FF0010A4BE7D8
:103A38004A68D2037FF5C2AE0A494FF400320968DA
:103A480092FAA2F21AB1B2FA82F2012595402942FD
:103A58003FF4D2AE6268002A7FF4CEAE012002B0F5
:103A6800BDE8F087001002400070004020819010EF
:103A7800A84A136843F480331360D36AA16823F01B
:103A88000F030B43D362FEF7A7FD4FF40036DFF8B0
:103A9800848296FAA6F60746B6FA86F909E003FA8A
:103AA80009F31A427FF4A7AEFEF796FDC01B6428FF
:103AB80016D8D8F800200123002EF0D12B46F0E7C5
:103AC8002B6843F480732B60FEF786FD06462B684F
:103AD800DB053FF5FEAEFEF77FFD801B6428F6D9B7
:103AE800032002B0BDE8F0872368E4E6894E336816
:103AF80023F480333360336823F480233360F36A1C
:103B0800A26823F00F031343F362FEF765FD4FF439
:103B18000037804697FAA7F7B7FA87F90AE003FA59
:103B280009F31A423FF467AEFEF756FDA0EB080012
:103B38006428D5D832680123002FF0D12B46F0E74E
:103B4800744D2B6A23F001032B622B6A23F00403C4
:103B58002B62FEF741FD4FF00208064698FAA8F7D7
:103B6800B7FA87F90EE02A6A01239FB103FA09F32D
:103B78001A423FF4EDAEFEF72FFD41F28833801B69
:103B88009842ADD898FAA8F3002BECD16A6A0123C1
:103B9800002FEBD10123EBE7012393FAA3F3002BCA
:103BA80000F0EE80B3FA83F303F1845303F5841332
:103BB8009B0000221A60FEF70FFD0225554F95FA6B
:103BC800A5F50646B5FA85F808E003FA08F31A429F
:103BD80064D0FEF701FD801B022881D83A680123D2
:103BE800002DF2D10123F2E74A4A136A43F0010398
:103BF8001362FEF7F1FC4FF00208464D98FAA8F759
:103C08000646B7FA87F90FE02A6A0123A7B103FA33
:103C180009F31A427FF49CAEFEF7DEFC41F28833CA
:103C2800801B98423FF65CAF98FAA8F3002BEBD1C3
:103C38006A6A0123002FEAD10123EAE701283FF449
:103C4800C2AE5368226A03F4803191427FF406AF12
:103C5800606A03F47013181A18BF0120B3E62D4ADE
:103C6800D36923F08053D36176E603F18043A3F54B
:103C78003C331A6842F480221A601A6842F480328F
:103C88001A60B0E542F004021A621A6A42F00102B0
:103C98001A62AEE7012070470122F7E5236808E6BB
:103CA8001C4863690168F82292FAA2F2B2FA82F219
:103CB80021F0F80193400B4303602368F9E5002BDA
:103CC80064D0B3FA83F303F1845303F584139B00A0
:103CD80000221A60FEF780FC4FF000750D4F95FA30
:103CE800A5F50646B5FA85F809E003FA08F31A427D
:103CF80014D0FEF771FC801B02283FF6F1AE3A683B
:103D08000123002DF1D10123F1E7034A03E6024A1A
:103D180067E600BF00100240000542421D49626A82
:103D28004B68206A23F4741302431A434A604FF025
:103D3800807393FAA3F35BB3B3FA83F303F1845369
:103D480003F584139B0001221A60FEF745FC4FF02F
:103D58000074104E94FAA4F40546B4FA84F709E006
:103D6800BB401A427FF42EAEFEF736FC401B0228F9
:103D78003FF6B6AE32680123002CF1D10123F0E7FB
:103D8800054B16E7044B54E5034BFFE5024B9FE751
:103D9800014BD8E700100240800042420E4A5368A7
:103DA80003F00C01082901D00C487047C3F3834085
:103DB80010B4D26A0A4C0B49205C5DF8044BDB0353
:103DC8004CBF064B084B02F00F028A5C48BFB3FB9E
:103DD800F2F303FB00F070470010024000127A0073
:103DE800204200083042000800093D00002800F089
:103DF8009180524A136803F007038B422DE9F04182
:103E08000D4604460CD2136823F007030B431360D6
:103E1800136803F007038B4202D00120BDE8F0814C
:103E28002368990706D54649A0684A6822F0F00237
:103E380002434A6013F0010328D062684049012A0E
:103E48006AD0022A08685ED0022191FAA1F119B15C
:103E5800B1FA81F101238B401842DED0384E7368E5
:103E680023F0030313437360FEF7B6FB41F288386F
:103E7800074604E0FEF7B0FBC01B404559D87368FD
:103E8800626803F00C03B3EB820FF3D12B4A13687B
:103E980003F00703AB4209D9136823F007032B4348
:103EA8001360136803F00703AB42B6D123685A07BF
:103EB80006D52349E0684A6822F4E06202434A6072
:103EC8001B0707D51E4A2169536823F4605343EA48
:103ED800C1035360FFF762FF194B1A495B68F02270
:103EE80003F0F00392FAA2F2B2FA82F2D340164A31
:103EF800D35C164A20FA03F308681360FEF72AFB1E
:103F08000020BDE8F0814FF0007191FAA1F100297D
:103F18009ED1A1E7012070474FF40033096893FA56
:103F2800A3F343B1B3FA83F302FA03F3194295D129
:103F380073E7032072E71346F8E700BF002002404A
:103F4800001002401000002004400008000000207B
:103F580070B50D4D0D4C641BA4100026A64209D166
:103F68000B4D0C4C00F03EF8641BA4100026A64232
:103F780005D170BD55F8043B98470136EEE755F872
:103F8800043B98470136F2E74842000848420008D7
:103F9800484200084C42000810B5013902449042DA
:103FA80001D1002005E0037811F8014FA34201D0A8
:103FB800181B10BD0130F2E70A44914200F1FF33AB
:103FC80000D1704710B511F8014B03F8014F914229
:103FD800F9D110BD02440346934200D1704703F85B
:103FE800011BF9E7F8B500BFF8BC08BC9E4670474E
:0C3FF800F8B500BFF8BC08BC9E4670473E
:104004000000000000000000010203040607080984
:10401400555254432D48594452412D554D432D3248
:104024003032362D4348414E47452D4D452D2121F3
:10403400982F8A4291443771CFFBC0B5A5DBB5E90F
:104044005BC25639F111F159A4823F92D55E1CAB83
:1040540098AA07D8015B8312BE853124C37D0C5511
:10406400745DBE72FEB1DE80A706DC9B74F19BC159
:10407400C1699BE48647BEEFC69DC10FCCA10C2449
:104084006F2CE92DAA84744ADCA9B05CDA88F9762D
:1040940052513E986DC631A8C82703B0C77F59BF97
:1040A400F30BE0C64791A7D55163CA0667292914C3
:1040B400850AB72738211B2EFC6D2C4D130D385360
:1040C40054730A65BB0A6A762EC9C281852C729222
:1040D400A1E8BFA24B661AA8708B4BC2A3516CC750
:1040E40019E892D1240699D685350EF470A06A1089
:1040F40016C1A419086C371E4C774827B5BCB034D8
:10410400B30C1C394AAAD84E4FCA9C5BF36F2E6875
:10411400EE828F746F63A5781478C8840802C78C04
:10412400FAFFBE90EB6C50A4F7A3F9BEF27871C607
:104134004552524F520000000000000000231308B3
:104144006462006060000000427F400000447E40E2
:1041540000006251494600224949361814127F1062
:104164000027454539003E494932006111090700DD
:1041740036494936002649493E7E1111117E7F4158
:1041840041221C7F494949417F090909013E4141B6
:10419400493A7F0808087F00417F41007F081422C4
:1041A400417F404040407F0408107F3E4141413EF2
:1041B4007F09090F007F0919294600264949320160
:1041C400017F01013F4040403F000000010000002A
:1041D40000000000000200030405060708090A0B9A
:1041E4000C000000000000000D00000E0F10111262
:1041F400130014150016171800191A1B1C000000D0
:10420400010103005550444154494E470000000049
:10421400464C415348204F4B000000000203040564
:10422400060708090A0B0C0D0E0F101001020304F7
:0C42340005060708090A0B0C0D0E0F1000
:08424000B8BFFF7F0100000080
:04424800AD010008BC
:04424C0089010008DC
:1042500000127A0018FCFFFFFFFFFFFF01000000C3
:04426000100000004A
:04000005080004CD1E
:00000001FF
