:020000040800F2
:1080000000A000205DAB0008ADAB000831D6000831
:10801000ADAB0008ADAB0008ADAB00080000000040
:10802000000000000000000000000000ADAB0008F0
:10803000ADAB000800000000ADAB000875D700082C
:10804000ADAB0008ADAB0008ADAB0008ADAB0008B0
:10805000ADAB0008ADAB0008ADAB0008ADAB0008A0
:10806000ADAB000865D70008ADAB0008ADAB0008AC
:10807000ADAB000881DC0008ADAB0008ADAB00087B
:10808000ADAB0008ADAB0008ADAB0008ADAB000870
:1080900025D60008ADAB0008ADAB00086DD70008D1
:1080A000ADAB0008ADAB0008ADAB0008ADAB000850
:1080B000ADAB000879D70008ADAB0008ADAB000848
:1080C000ADAB0008ADAB0008ADAB0008ADAB000830
:1080D000ADAB0008ADAB0008ADAB0008ADAB000820
:1080E000ADAB0008ADAB0008ADAB0008ADAB000810
:1080F000ADAB0008ADAB0008ADAB0008ADAB000800
:10810000000000000000000000000000ADAB00080F
:10811000ADAB0008ADAB0008ADAB0008ADAB0008DF
:10812000ADAB0008ADAB0008ADAB0008ADAB0008CF
:10813000ADAB0008ADAB000800000000000000007F
:10814000ADAB0008ADAB0008ADAB0008000000000F
:10815000000000000000000000000000000000001F
:108160000000000000000000ADAB0008ADAB00084F
:10817000ADAB00080000000000000000000000009F
:0881800000000000ADAB000897
:1081880010B5054C237833B9044B13B10448AFF349
:1081980000800123237010BD7C0000200000000037
:1081A8003C6C010808B5034B1BB103490348AFF306
:1081B800008008BD00000000800000203C6C010821
:1081C8002DE9F04F97B000F11E03039300F27E6390
:1081D80011930023099316ABC3F111060DF157074C
:1081E8001D460496039A049E32F8023F03920DF14D
:1081F8004701012203EA02007418204101F8010F27
:108208005200B94292B2F5D19DF948209DF9490032
:108218000496CDE9052082EA000A9DF950200292D1
:108228009DF94A209DF94C609DF94B4001960C92AE
:108238001646059A9DF94E109DF95290079182EACB
:108248000400484089EA000006999DF94DB09DF95F
:1082580051800A9432467040029E9DF94FE0614079
:10826800714089EA0101164651408BEA00009DF9E8
:1082780054200D9288EA00005040089086EA0B00CE
:10828800019E88EA000084EA060C079C019E504083
:10829800029A84EA0C0C7440544082EA0C0C88EA76
:1082A80001019DF955200E9289EA04048EEA000026
:1082B8008EEA01018BEA04045040514088EA040424
:1082C8009DF956200F928EEA0404504054409DF9BF
:1082D80053200B9289EA0C0C82EA0C0C9DF957206A
:1082E80010925040089A8AEA00008CEA00008AEA54
:1082F8000C0A42EA010C4AEA0C0C44EA0C0C50EA5B
:108308000C060FD0890001EB4201514401EBC40176
:1083180001EB001080B2A0F110010F290ED96FF007
:1083280009020992039AC3F30A031380119B9A4224
:108338007FF458AF099817B0BDE8F08F11380E28B0
:1083480079D8DFE800F0726C645E58524C46403BC6
:1083580035302A250800C9F101038DF85230099BF0
:10836800002B08BF6FF008030993DDE904620DF1E3
:1083780049000121002301E010F9012B12FB01F251
:108388001344490085429BB289B2F5D10496C9E7E6
:10839800C8F101038DF85130E1E7029BC3F10103F5
:1083A8008DF85030DBE7CEF1010E8DF84FE0D6E7BF
:1083B800079BC3F101038DF84E30D0E7CBF10103E1
:1083C8008DF84D30CBE7019BC3F101038DF84C309C
:1083D800C5E70F9BC3F101098DF85690BFE70A9BCB
:1083E800C3F101038DF84B30B9E70C9BC3F10103CE
:1083F8008DF84A30B3E7069BC3F101038DF8493085
:10840800ADE70E9BC3F101088DF85580A7E7059BE2
:10841800C3F1010253B205938DF848309FE70D9BD5
:10842800C3F101038DF8543099E70B9BC3F10103A5
:108438008DF8533093E7109BC3F101038DF8573043
:108448008DE700BF10B50B460C464FF450724FF441
:10845800105105F021FE00B110BD2046BDE81040C6
:10846800FFF7AEBE10B5302282B04FF4004104468B
:1084780005F054FE421C0CD00DF1060301224FF406
:108488000041204605F008FE18B9BDF806301B0764
:10849800F2D502B010BD00BF10B582B00DF10603D1
:1084A800012248F20D01044605F0F6FD08B102B0BC
:1084B80010BDBDF8062048F20D0142F400422046E6
:1084C800ADF8062005F02AFE0028F0D105F0CCFD15
:1084D8000028ECD10DF10603012248F20D012046D7
:1084E80005F0DAFD0028E2D1BDF90630002BB8BF4F
:1084F8006FF00A00DBE700BF002347F6FF7130F892
:1085080013208A4203F1100303D0C02BF7D10020B7
:1085180070476FF007007047038847F6FF718B427A
:108528002BD000F10E0300F1240C33F8022F8A42FD
:1085380023D06345F9D1038D8B421ED0438D8B42E6
:108548001BD0838D8B4218D000F12E0300F1400C14
:1085580047F6FF7133F8022F8A420ED06345F9D1EE
:1085680000F14E0347F6FF715E3033F8022F8A425E
:1085780003D09842F9D1002070476FF00700704788
:10858800F0B505469BB00E460DF1060301224FF4E7
:108598000041284605F080FD0446C8B9BDF80670BC
:1085A8003A07F1D530224FF40041284605F0B6FDD0
:1085B800431C07F0010704460AD03346202257B966
:1085C8004FF48061284605F067FD0446002871D005
:1085D80020461BB0F0BD4FF48461284605F05CFDD1
:1085E80004460028F4D106F1400320224FF48C61A0
:1085F800284605F051FD04460028E9D106F180031C
:1086080020224FF49461284605F046FD04460028D0
:10861800DED106F1C00320224FF49C61284605F004
:108628003BFD04460028D3D106F5807320224FF481
:10863800A461284605F030FD04460028C8D106F597
:10864800A07320224FF4AC61284605F025FD0446AE
:108658000028BDD102AB30224FF4B061284605F0A6
:108668001BFD04460028B3D101AB2846012248F27D
:108678000D0105F011FDBDF80430A6F8E031A6F8AB
:10868800E27104460028A3D102A8FFF745FF28B9E4
:10869800602202A906F5C0700EF0B6FA47F6FF721E
:1086A80036F81430934204F110043ED0C02CF7D1B0
:1086B8003C468DE706F1400320224FF488612846A6
:1086C80005F0EAFC0446002882D106F18003202246
:1086D8004FF49061284605F0DFFC044600287FF43B
:1086E80077AF06F1C00320224FF49861284605F0C1
:1086F800D3FC044600287FF46BAF06F58073202274
:108708004FF4A061284605F0C7FC044600287FF412
:108718005FAF06F5A07320224FF4A861284605F044
:10872800BBFC0446002895D052E76FF007044FE7DA
:1087380030B583B00C460DF10603012248F20D0155
:10874800054605F0A9FC08B103B030BDBDF8062008
:10875800A10222F4406201F4406192B20A43284621
:1087680048F20D0105F0DAFC03B030BD00B583B066
:108778000DF10603012248F20D0105F08DFC18B930
:10878800BDF80600C0F3812003B05DF804FB00BF0C
:1087980030B583B00C460DF10603012248F20D01F5
:1087A800054605F079FC08B103B030BDBDF80620D8
:1087B800E10122F4607201F4607192B20A43284622
:1087C80048F20D0105F0AAFC03B030BD00B583B036
:1087D8000DF10603012248F20D0105F05DFC18B900
:1087E800BDF80600C0F3C21003B05DF804FB00BF7B
:1087F800D0B5B0F8D431B0F8E0612DED028B07EEBA
:10880800903A1B04B8EE678A48BFDFED277A91F8E3
:10881800240048BF38EE678A0C4601F057FC9FEDEC
:108828001E0B41EC110B0DF07BF9C6F38126304687
:1088380057EC106B01F05AFC9FED170B41EC110B34
:108848000DF06EF9304653EC102B394601F0E2FD7D
:1088580001F0AEFFB4F9023007EE903A06EE900A46
:10886800B4F90030F8EEE77A07EE103AD8EE267A37
:10887800B8EEC77AC7EE877A17EE900A01F048FC7F
:1088880007A3D3E9002301F0E5FA01F091FFBDEC5D
:10889800028B00EE100AD0BD00000000000000406E
:1088A8006666666666660A40000080472DE9F843FA
:1088B80005460C46FFF79CFFB5F8C03194ED046AF5
:1088C80007EE903A1A04B8EE677AB5F8803144BFDB
:1088D800DFED2D7A37EE677A07EE903A1B0448BF32
:1088E800DFED296AF8EE677A10EE109A48BF77EE46
:1088F800E67ADFED266AE6EE077A87EE276A66EE05
:10890800267A17EE900A01F003FC064660680F46C7
:1089180001F0FEFB024648469046894601F0F8FB06
:1089280017A3D3E9002301F093FA02460B46404609
:10893800494601F045FC164B002201F08BFA02462D
:108948000B463046394601F065FD0646A0890F46BC
:1089580001F0CCFB02460B463046394601F078FA66
:1089680001F026FF94ED027A06EE900A86EE870A59
:10897800F3EE097A30EE270ABDE8F883AFF30080FA
:108988006666666666660A400000804700008048A2
:108998000000F03F2DE9F04F2DED108B8DB00C4607
:1089A80010EE907A83461546B0F8E2619FEDAEDA94
:1089B800B0EE40AAFFF71CFF5846214610EE108A79
:1089C800FFF774FF10EE100AF0EE409A01F0A0FBDA
:1089D8009DA3D3E9002301F03DFA01F0E9FE08EE7A
:1089E800100A384601F094FB97A3D3E9002301F05D
:1089F80031FA01F0DDFE08EE900A68EEA88A28EE4A
:108A0800088A68EEA88A94F89E05B0EE687AA8EEFF
:108A1800487A06EB4606B7EE008AC7EE0A7A78EE81
:108A2800E78A01F053FB9FED8A0B41EC110B0DF027
:108A380077F851EC100B01F0BBFE0BEE100A94F81E
:108A48005F0601F043FB9FED820B41EC110B0DF02B
:108A580067F851EC100B01F0ABFE0BEE900A94F89E
:108A6800DC0101F033FB9FED7A0B41EC110B0DF0AB
:108A780057F851EC100B01F09BFED4ED0B3A94ED36
:108A88000C6AB4F95230B4F95420D4ED0D4A94ED7F
:108A98000E5AD4ED0F5AF7EE007AB3EE047AF0EEE0
:108AA800676AB0EE674AA3EE874A07464046E6EE95
:108AB800076A07EE103AB8EEC77AD31AB0EE67EA3B
:108AC800A4EE87EA07EE103AB4F9563094ED106A2E
:108AD800B8EEC77A9A1AF0EE67EAE5EE07EA07EE0B
:108AE800102AB4F95820B8EEC77AD31AB0EE67FA4C
:108AF800A5EE87FA07EE103AB4F95A30B8EEC77AFD
:108B08009B1AF0EE67FAE6EE07FA07EE103AC7EEA0
:108B1800A6DABBF894311904D4ED116AB8EEC77A15
:108B28006EEE2EEAE6EE877A6EEE8F5ACDEE84CAA6
:108B380025EEAF6ACDED095A66EE277A8DED0A6A01
:108B4800CDED0B7A07EE903AB4F91430B8EE677AA7
:108B580044BFDFED457A37EE677A07EE903AF8EED4
:108B6800E77ABBF8903187EE87CA1A0407EE903A85
:108B7800B8EE679A44BFDFED3C7A39EE679AF3EEB8
:108B8800097A79EEE79AD4ED087AABF10203A7EEF9
:108B9800A98ACDE9013501F0BBFA04F15A03009323
:108BA80004F5ED7308932CA3D3E9002301F050F9E1
:108BB80069EE0C7A41EC1F0BCDE9040117EE900A1F
:108BC80001F0A6FAB4F9643607EE903AF8EEE77ABF
:108BD800824667EE887A8B4617EE900A01F098FA7B
:108BE8008046E069894601F093FA53EC1F2B01F0A7
:108BF800E7FA1E4B002201F02DF902460B464046CB
:108C0800494601F0DDFA02460B465046594601F046
:108C18001FF901F0CDFD0AEE900A384601F078FA06
:108C28000FA3D3E9002301F0CBFA04EBC61303F535
:108C3800EE73CDE906010FF2100BDBE900AB04F28D
:108C4800DD45039350E000BF6666666666127140B4
:108C580000000000000000406666666666660A401E
:108C68008DEDB5A0F7C6B03E000080470000F03F8C
:108C7800B4F94C3006EE903A6FEEACFAF8EEE66ACC
:108C8800002304EB830337EE667A93ED0B6AF7EE65
:108C9800006AE6EE076A66EEAF7A88EE270A70EE9B
:108CA800287AF5EE407AF1EE10FA00F18181B1EE02
:108CB800E70AB5EE400AF1EE10FA00F17481F1EE20
:108CC800C07A17EE900A01F023FA52465B4601F08B
:108CD800BFF801F06DFD029B009A43F8040B029364
:108CE800089B934200F04F81019A013532F8023F08
:108CF800019207EE903A1B0495F90030B8EE677AB6
:108D080007EE903AF8EEE77A95F9C13087EE8B6A6C
:108D180048BF37EE4D7A07EE903A27EE0C7AF8EE18
:108D2800E77AB7EE009A17EE100A87EEAB8AB0EE34
:108D380049FAA9EE86FA01F0EBF9039B33F9022F01
:108D4800039307EE902AF8EEE77A064667EE8F7AE5
:108D58000F4617EE900A01F0DBF9804618EE100A6C
:108D6800894601F0D5F9DDE9042301F029FA954B8C
:108D7800002201F06FF802460B464046494601F0D2
:108D88001FFA02460B463046394601F061F801F0F9
:108D98000FFD94ED067A009B07EE900AE7EE6A7ADB
:108DA80033F8020F009387EE8A8A01F09FF9024692
:108DB8000B46DDE9060101F02DFB01F0F9FCD4EDCD
:108DC8000A7AA9EEA79A07EE900A69EE27FAB0EE9A
:108DD800480AA8EEAF0A2FEEAF7A27EE2F7A27EED1
:108DE800007AB5EE407AF1EE10FA00F1D780B1EED4
:108DF800C70AB5EE400AF1EE10FA00F1DE80B1EED6
:108E0800C0FA18EE100A01F083F994ED0D9A06469F
:108E180019EE100A0F4601F07BF952465B4601F045
:108E2800CFF902460B460020664901F011F880464A
:108E38001FEE900A894601F06BF902460B46404640
:108E4800494601F0BDF969EE0F7A804617EE900A9F
:108E5800894601F05DF902460B464046494600F056
:108E6800F9FF02460B463046394601F0D3FA06466A
:108E780018EE900A0F4601F04BF902460B463046B1
:108E8800394600F0E7FF41EC100B0CF0C1FE0CF086
:108E9800BFFE5B4651EC100B524600F0D9FF01F0C3
:108EA80087FCB4F94E3006EE103A07EE100AB8EE19
:108EB800C66AB4EEC76AF1EE10FA3FF7D9AEB4F954
:108EC800503006EE903AF8EEE66AF4EEC76AF1EE34
:108ED80010FA05DD6FEEADFAF0EE466A0123D0E632
:108EE800B4F9523006EE103AB8EEC66AB4EEC76A64
:108EF800F1EE10FA10DCB4F9543006EE903AF8EEC0
:108F0800E66AF4EEC76AF1EE10FA07DD6FEE8EFA44
:108F1800F0EE466A0323B4E60223B2E6B4F956300B
:108F280006EE103AB8EEC66AB4EEC76AF1EE10FA69
:108F380003DD6FEEAEFA0423A3E6B4F9583005EE6C
:108F4800903AF8EEE55AF4EEC75AF1EE10FA07DD5A
:108F5800DDED097AF0EE466A6FEEA7FA052390E692
:108F6800B4F95A3006EE903AF8EEE66AF4EEC76ABB
:108F7800F1EE10FA0CDDDDED0A7AF0EE656A6FEEBF
:108F8800A7FA06237DE60DB0BDEC108BBDE8F08F87
:108F9800DDED0B7A07236FEEA7FA72E6B0EE470A0B
:108FA8000CF06AFE25E70CF067FE10EE100A8AE660
:108FB800B0EE670A0CF060FE7BE60CF05DFEB0EEEA
:108FC80040FA1EE70000F03F2DE9F04F2DED0E8B23
:108FD80085B08B4615460446B0F8E2619FED90BA1D
:108FE800FFF706FC2046594610EE107AFFF75EFCA4
:108FF8009BF89E05B0EE408A01F068F89FED840B5F
:1090080041EC110B0CF08CFD51EC100B01F0D0FB76
:1090180009EE100A9BF85F0601F058F89FED7C0BEB
:1090280041EC110B0CF07CFD51EC100B01F0C0FB76
:10903800B4F89431029507EE903A1904B8EE677ABD
:10904800BBF9143044BFDFED767A37EE677A07EE66
:10905800903AF8EEE77AB4F8903187EE87AA1A04C6
:1090680006EB46060BEBC61A0BF15A050AF5EE7A23
:1090780007EE903AF8EE678A44BFDFED697A78EE3A
:10908800E78AF3EE097A38EE678AF7EE00AADBED95
:10909800087A09EE900AF0EE6ABA3846E7EE88BA1E
:1090A80001F036F80BF5ED730BF5CC6201930392E2
:1090B80059A3D3E9002300F0CBFE68EE8A7A41EC8D
:1090C8001C0B41EC1E0B17EE900A01F021F841EC45
:1090D8001D0BBBF9641607EE901AF8EEE77AA71E87
:1090E80067EEAB7A0BF2DD4417EE900A01F010F848
:1090F8008046DBF81C00894601F00AF853EC1C2B6B
:1091080001F05EF8474B002200F0A4FE02460B4631
:109118004046494601F054F802460B4651EC1D0BF7
:1091280000F096FE01F044FBDDE9018608EE900AA6
:10913800DDF80C9037F8023F013407EE903A1B0433
:1091480094F9003007EE103AB8EEC77A94F9C130B6
:1091580087EE096AF8EE676A07EE903A48BF76EE3E
:10916800CB6AF8EEE77AB0EE6ACAC7EEA9BA66EE3D
:109178008A7AA8EE06CA17EE900A00F0C9FF3AF9F3
:10918800023F07EE903AF8EEE77A41EC1D0B67EEE6
:109198008C7A17EE900A00F0BBFF02460B461BEED6
:1091A800900A43EC1C2B00F0B3FF53EC1E2B01F08C
:1091B80007F81C4B002200F04DFE02460B4651EC0E
:1091C8001C0B00F0FDFF0B46024651EC1D0B00F096
:1091D8003FFE01F0EDFA35F8023FDBED066A99ED46
:1091E800006A07EE103A07EE900AB8EEC77AE6EE84
:1091F800E87AA845A6EEC67A67EE877AE6EC017AA1
:1092080098D105B0BDEC0E8BBDE8F08FAFF30080B0
:1092180000000000000000406666666666660A4058
:10922800000080470000F03FB0F8E201704700BF3F
:10923800BF282CD810F00F0307D1013080B201EB02
:1092480080010B6841F8043C7047012B20D00E2B9D
:109258001ED00F2B33D0013001EB8001D1ED006A15
:10926800D1ED017A11ED026A11ED037A76EEE77A13
:1092780036EE477AB0EEE75AF0EEC75AB4EEE55A42
:10928800F1EE10FA16DC76EEA77A41ED017A704716
:1092980000F18040013801EB8001D1ED027AD1ED77
:1092A800006A77EEA67AB6EE007A67EE877AC1EDA5
:1092B800017A704736EE077A01ED017A704700F1BE
:1092C8008040013801EB80010B684B60704700BF9C
:1092D800B0F94E20B0F84E30B0F94CC0B2F5806FFE
:1092E800A8BFA3F50063B0F84C20A8BF9BB2BCF59B
:1092F800806FA8BFA2F500624FEA4313A8BF92B2DD
:109308001BB252010B804A80704700BFB0F856303C
:10931800B0F8502007EE903AB3F5806FF8EE677A10
:1093280028BF9FED167AB0F8543028BF77EEC77A79
:109338009FED137A27EE877A07EE903AB3F5806FA0
:10934800F8EE677AB0F8583024BFDFED0C6A77EE94
:10935800E67A06EE903AB4EE006AB0F8523081ED43
:10936800017AFAEEEC6A67EE867A03EB4213C1EDF6
:10937800027A8B81C1ED046A704700BF0000004586
:1093880000008039B0F84820B0F84A3003EB4213A7
:109398008B827047B0F866309FED0B7AC3F30803F1
:1093A80007EE903AF8EEE77AF4EEC77AF1EE10FAA3
:1093B800C4BF9FED067A77EEC77A9FED057A67EE10
:1093C800877AC1ED067A704700007F4300000044A9
:1093D8000000803CB0F8463007EE903AB3F5806F55
:1093E800F8EE677A24BF9FED067A77EEC77A9FED8D
:1093F800057A67EE877A01F5CD61C1ED007A70478D
:10940800000000450000003BB0F86630C3F341237C
:1094180081F82430704700BFB0F8443007EE903A26
:10942800B3F5806FF8EE677A24BF9FED057A77EE83
:10943800C77A9FED047A67EE877AC1ED0A7A70479A
:10944800000000450000003810B43D4C9FED3D6A17
:10945800DFED3D5A4FF4A002C1E913427823A1F889
:109468005430B0F87430A1F85630B0F87830A1F81C
:109478005830B0F87C30A1F85A30B0F86A30B0F8FB
:10948800682007EE903AB0F86C3002EE903AB0F8E7
:109498006E3003EE103AB0F8703003EE903AB0F840
:1094A800723004EE103AB0F8763004EE903AB0F824
:1094B8007A3005EE103AB0F87E3007EE103A012304
:1094C800934006EE903AF8EE677AF8EE622AB8EE24
:1094D800433AF8EE633AB8EE444AF8EE644AB8EE16
:1094E800455AB8EE477AC1ED0B7AC1ED0C2A81EDE9
:1094F8000D3AC1ED0E3A81ED0F4AC1ED104A81EDEA
:10950800115A81ED127A01F12C0301F13002F8EEC3
:10951800E66A4C3101E0F2EC017AF4EEC67AF1EE3B
:1095280010FAC8BF77EEE57A87EEA67AC8BFC3ED12
:10953800007AA3EC017A8B42EDD15DF8044B7047B9
:10954800D8FFECFF00C07F44000000452DE9F04F34
:109558002DED048B438E9FED7C9AADF54D7D5D0915
:1095680003F01F031433ADF80E30838E01915A09AE
:10957800804603F01F031433ADF8123038F8363F35
:109588001432ADF810205A0903F01F0314350DF1F9
:10959800180B143214339FED668B8246ADF81420F5
:1095A800ADF8163003AF5E46A94601E037F8029FD2
:1095B80038F8020F00F09AFD044648460D4600F0C0
:1095C80085FDB0EE480AF0EE680A41EC110B0CF08C
:1095D800A7FA204653EC102B294600F01BFF01F098
:1095E800E7F807EE900AC7EE897A0CABE6EC017A49
:1095F8009E42DBD1019A02F5CC63D2ED067AD3ED17
:10960800008A4DA7D7E9006768EEE78A0AF23E2884
:109618000DF130090AF2BE3ABBEC018AA8F1400408
:109628004D4634F8023F07EE903AF8EEE77AB0EE8E
:10963800687AA7EE887A17EE100A00F069FD0246EC
:109648000B463046394600F0E5FE01F0B1F84445D6
:1096580045F8040BE5D104F14008C24509F1800939
:10966800DAD1DDF830A00DAC07EE90AA0DF54C78F4
:109678002346B3EC017AB4EE677AF1EE10FAC8BF6C
:10968800F0EE477A9845F4D19FED307AF4EEC77A38
:10969800F1EE10FA45D54FF0000977EEA77A09F1F7
:1096A8000109F4EEC77AF1EE10FA5FFA89F9F4D4F9
:1096B800484600F00BFD41EC180B019B244F9FED31
:1096C8001C9B03F15A05002601E054F804ABB0EEE8
:1096D800481AF0EE681AB0EE490AF0EE690A0CF082
:1096E8001FFA50465BEC10AB00F012FD52465B4689
:1096F80000F066FD01F05CF800F00AFD32463B46DA
:1097080000F0A8FB01F034F8A04525F8020FDCD1E1
:10971800019B83F8DC910DF54D7DBDEC048BBDE814
:10972800F08F9FED078B4FF00009C6E7AFF300807D
:1097380000000000000000408DEDB5A0F7C6B03E67
:10974800000000000000000000E0FF4400000047A7
:109758000000E03F038C428C10B5B0F824E05B09B0
:109768004FF0010C0EEB421E0CFA03FC1FFA8EFEA2
:109778001FFA8CFC00F17E0201F5EE7100F5FF7412
:1097880032F8023F18B2B0F5806FA4BFA3F50063AA
:109798009BB21CFB03E321F8023FB2F98004B2F844
:1097A8008034B0F5806FA4BFA3F500639BB21CFBA7
:1097B80003E3A242A1F88031E2D110BD2DE9F04FB8
:1097C800B0F92A30428DB0F82C902DED068BB3F508
:1097D800806FA4BFA2F500631BB2ADF5437D07EE11
:1097E800903A00F27E3809F01F00B8EEE7AA01911E
:1097F80000F06CFC9FED608B41EC190BC9F3471925
:1098080002ADC2AC38F8023FB0EE491AF0EE691A60
:10981800B3F5806F4FEA531628BF403EB0EE480AB2
:10982800F0EE680A28BFB6B20CF07AF948465BEC4D
:1098380010AB00F04BFCB0EE480AF0EE680A41ECC1
:10984800110B0CF06DF930B257EC106B00F04EFCB8
:1098580052465B4600F0B4FC00F0AAFF07EE900AFF
:1098680077EE8A7A17EE900A00F052FC32463B46B1
:1098780000F0D0FD00F09CFF45F8040BA542C1D1D3
:10988800DDF808B007EE90BA03ADB0EEE77A2B46E4
:10989800F3EC017AF0EEE77AF4EE477AF1EE10FA9B
:1098A800C8BFB0EE677AA342F2D1DFED377AB4EEE3
:1098B800E77AF1EE10FA5AD54FF0000937EE077A39
:1098C80009F10109B4EEE77AF1EE10FA5FFA89F9C5
:1098D800F4D4484600F0FAFB41EC180B019B2B4FDF
:1098E8009FED259B03F2DD4800260EE000F010FCFA
:1098F80032463B4600F0AEFA00F012FFA54240B2F5
:1099080008F8010F2AD055F804BBB0EE481AF0EE5B
:10991800681AB0EE490AF0EE690A0CF001F95846E7
:109928005BEC10AB00F0F4FB52465B4600F048FCE1
:1099380000F03EFF07EE900AF5EEC07AF1EE10FA5D
:10994800D4D500F0E5FB32463B4600F081FA00F042
:10995800E7FEA54240B208F8010FD4D1019B83F875
:109968009E950DF5437DBDEC068BBDE8F08F9FED10
:10997800048B4FF00009B1E7000000000000004030
:109988000000000000000000000080420000E03FEE
:109998002DE9F04FB0F92E30C28DB0F830902DED92
:1099A800068BB3F5806FA4BFA2F500631BB2ADF5BB
:1099B800437D07EE903A00F27E3809F01F00B8EEBA
:1099C800E7AA019100F082FB9FED5F8B41EC190B38
:1099D800C9F3471902ADC2AC38F9023FB0EE491AD3
:1099E800F0EE691A03F01F06B0EE480AF0EE680AB6
:1099F800DB0648BF203E0CF093F848465BEC10AB02
:109A080000F064FBB0EE480AF0EE680A41EC110B76
:109A18000CF086F8304657EC106B00F067FB5246A6
:109A28005B4600F0CDFB00F0C3FE07EE900A77EE30
:109A38008A7A17EE900A00F06BFB32463B4600F03C
:109A4800E9FC00F0B5FE45F8040BA542C4D1DDF8E9
:109A580008B007EE90BA03ADB0EEE77A2B46F3EC08
:109A6800017AF0EEE77AF4EE477AF1EE10FAC8BF21
:109A7800B0EE677AA342F2D1DFED377AB4EEE77A37
:109A8800F1EE10FA5AD54FF0000937EE077A09F1CE
:109A98000109B4EEE77AF1EE10FA5FFA89F9F4D425
:109AA800484600F013FB41EC180B019B2B4F9FED30
:109AB800269B03F29E5800260EE000F029FB324652
:109AC8003B4600F0C7F900F02BFEA54240B208F86B
:109AD800010F2AD055F804BBB0EE481AF0EE681A08
:109AE800B0EE490AF0EE690A0CF01AF858465BEC39
:109AF80010AB00F00DFB52465B4600F061FB00F036
:109B080057FE07EE900AF5EEC07AF1EE10FAD4D5BA
:109B180000F0FEFA32463B4600F09AF900F000FEEB
:109B2800A54240B208F8010FD4D1019B83F85F9693
:109B38000DF5437DBDEC068BBDE8F08F9FED048BE2
:109B48004FF00009B1E700BF00000000000000402E
:109B58000000000000000000000080420000E03F1C
:109B68002DE9F843B0F85A30B0F85E20B0F86060DC
:109B780007EE903AB3F5806F2DED028BB8EE678A49
:109B880028BFDFED437A044690F85C0028BF38EE22
:109B9800678A06EB42160D4600F098FA9FED3A0BDD
:109BA80041EC110B0BF0BCFF59EC108B18EE100AAE
:109BB80000F0AEFA42464B4600F02CFC00F0F8FDEF
:109BC800B4F8623003F03F0208EE102AB8EEC88AF3
:109BD800F3EE0F7AB4EEE78AF1EE10FAC8BFDFEDC4
:109BE8002D7A0746C3F38710C8BF38EE678A00F09E
:109BF8006DFA9FED250B41EC110B0BF091FF59EC21
:109C0800108B18EE100A00F083FA42464B4600F01B
:109C180001FC00F0CDFDB4F86430286203F03F0287
:109C280008EE102AB8EEC88AF3EE0F7AB4EEE78A87
:109C3800F1EE10FAC8BFDFED177AC3F38710C8BF7B
:109C480038EE678A00F042FA9FED0F0B41EC110BDA
:109C58000BF066FF59EC108B18EE100A00F058FA5A
:109C68004B46424600F0D6FB00F0A2FDBDEC028B4D
:109C780005F5CC6336B2E8611F60A5F86466BDE8F7
:109C8800F88300BFAFF30080000000000000004030
:109C9800000000450000804200F5CD6090ED000A0C
:109CA800704700BF4FF6FF7310B50024A1F86C365B
:109CB8007E30234630F8022F03F1010EBAB9B0F80E
:109CC80080215AB9B0F8002342B9B0F8802404F1D1
:109CD800010C1AB9A1F86C361FFA8CF41FFA8EF32E
:109CE800C02B08D0022CE5D16FF0020010BD1FFA7E
:109CF8008EF3C02BDED1022C0CBF6FF002000020C7
:109D080010BD00BF38B5838A5B0640F18680B0F984
:109D18004E20B0F84E300D46B2F5806FB0F94C10B9
:109D2800B0F84C20A4BFA3F500639BB2B1F5806FD7
:109D3800A4BFA2F5006292B25B011BB25201294690
:109D48002B806A80FFF7E2FAB0F84820B0F84A3072
:109D58009FED337A03EB4213AB82B0F86630C3F35E
:109D6800080207EE902AF8EEE77AB0F84620F4EEFB
:109D7800C77AF1EE10FAC4BF9FED2A7A77EEC77A58
:109D88009FED297A67EE877A07EE102AB2F5806F81
:109D9800C5ED067AB8EE477A24BFDFED247A37EEB0
:109DA800677ADFED237A27EE277A05F5CD62C3F3CC
:109DB800412382ED007A85F82430B0F8443007EE6C
:109DC800903AB3F5806F28BF9FED187AF8EE677A5E
:109DD800044628BF77EEC77A9FED167A67EE877A32
:109DE800C5ED0A7AFFF730FB2946FFF7B9FE294689
:109DF8002046FFF7ABFB29462046FFF7ABFC294678
:109E08002046FFF7DBFC29462046FFF7C1FD29461F
:109E18002046BDE83840FFF745BF6FF0060038BD63
:109E280000007F43000000440000803C0000004523
:109E38000000003B00000038838A13F0400F0CBF7D
:109E48006FF006000020704781F0004102E000BF7B
:109E580083F0004330B54FEA41044FEA430594EAE2
:109E6800050F08BF90EA020F1FBF54EA000C55EA1D
:109E7800020C7FEA645C7FEA655C00F0E2804FEAEE
:109E88005454D4EB5555B8BF6D420CDD2C4480EAD0
:109E9800020281EA030382EA000083EA010180EA00
:109EA800020281EA0303362D88BF30BD11F0004F4E
:109EB8004FEA01314FF4801C4CEA113102D0404284
:109EC80061EB410113F0004F4FEA03334CEA1333BF
:109ED80002D0524263EB430394EA050F00F0A780D7
:109EE800A4F10104D5F1200E0DDB02FA0EFC22FAD2
:109EF80005F2801841F1000103FA0EF2801843FAC6
:109F080005F359410EE0A5F120050EF1200E012AB6
:109F180003FA0EFC28BF4CF0020C43FA05F3C018F4
:109F280051EBE37101F0004507D54FF0000EDCF16D
:109F3800000C7EEB00006EEB0101B1F5801F1BD316
:109F4800B1F5001F0CD349085FEA30004FEA3C0C1A
:109F580004F101044FEA445212F5800F80F09A8010
:109F6800BCF1004F08BF5FEA500C50F1000041EB14
:109F7800045141EA050130BD5FEA4C0C404141EB18
:109F88000101013C28BFB1F5801FE9D291F0000F13
:109F980004BF01460020B1FA81F308BF2033A3F1C2
:109FA8000B03B3F120020CDA0C3208DD02F1140CB9
:109FB800C2F10C0201FA0CF021FA02F10CE002F1F4
:109FC8001402D8BFC2F1200C01FA02F120FA0CFCED
:109FD800DCBF41EA0C019040E41AA2BF01EB045136
:109FE800294330BD6FEA04041F3C1CDA0C340EDC34
:109FF80004F11404C4F1200220FA04F001FA02F377
:10A0080040EA030021FA04F345EA030130BDC4F134
:10A018000C04C4F1200220FA02F001FA04F340EA29
:10A028000300294630BD21FA04F0294630BD94F0DA
:10A03800000F83F4801306BF81F480110134013DC1
:10A048004EE77FEA645C18BF7FEA655C29D094EA32
:10A05800050F08BF90EA020F05D054EA000C04BFB0
:10A068001946104630BD91EA030F1EBF002100209B
:10A0780030BD5FEA545C05D14000494128BF41F03A
:10A08800004130BD14F580043CBF01F5801130BD9E
:10A0980001F0004545F0FE4141F470014FF0000029
:10A0A80030BD7FEA645C1ABF194610467FEA655CDA
:10A0B8001CBF0B46024650EA013406BF52EA03357C
:10A0C80091EA030F41F4002130BD00BF90F0000F6A
:10A0D80004BF0021704730B54FF4806404F13204A6
:10A0E8004FF000054FF0000150E700BF90F0000F5F
:10A0F80004BF0021704730B54FF4806404F1320486
:10A1080010F0004548BF40424FF000013EE700BF55
:10A1180042004FEAE2014FEA31014FEA02701FBFE5
:10A1280012F07F4393F07F4F81F06051704732F017
:10A138007F4208BF704793F07F4F04BF41F400216E
:10A14800704730B54FF4607401F0004521F00041CC
:10A158001CE700BF50EA010208BF704730B54FF056
:10A1680000050AE050EA010208BF704730B511F057
:10A17800004502D5404261EB41014FF4806404F18F
:10A1880032045FEA915C3FF4D8AE4FF003025FEA15
:10A19800DC0C18BF03325FEADC0C18BF033202EB99
:10A1A800DC02C2F1200300FA03FC20FA02F001FAF3
:10A1B80003FE40EA0E0021FA02F11444BDE600BF96
:10A1C80070B54FF0FF0C4CF4E06C1CEA11541DBF45
:10A1D8001CEA135594EA0C0F95EA0C0F00F0DEF810
:10A1E8002C4481EA030621EA4C5123EA4C5350EAF5
:10A1F800013518BF52EA033541F4801143F4801346
:10A2080038D0A0FB02CE4FF00005E1FB02E506F0D6
:10A218000042E0FB03E54FF00006E1FB03569CF02B
:10A22800000F18BF4EF0010EA4F1FF04B6F5007F31
:10A2380064F5407404D25FEA4E0E6D4146EB0606A3
:10A2480042EAC62141EA55514FEAC52040EA5E502C
:10A258004FEACE2EB4F1FD0C88BFBCF5E06F1ED8D6
:10A26800BEF1004F08BF5FEA500E50F1000041EB0D
:10A27800045170BD06F0004646EA010140EA0200BA
:10A2880081EA0301B4EB5C04C2BFD4EB0C0541EADC
:10A29800045170BD41F480114FF0000E013C00F3F1
:10A2A800AB8014F1360FDEBF002001F0004170BD15
:10A2B800C4F10004203C35DA0C341BDC04F114042E
:10A2C800C4F1200500FA05F320FA04F001FA05F2BA
:10A2D80040EA020001F0004221F0004110EBD37087
:10A2E80021FA04F642EB06015EEA430E08BF20EAB3
:10A2F800D37070BDC4F10C04C4F1200500FA04F356
:10A3080020FA05F001FA04F240EA020001F00041E7
:10A3180010EBD37041F100015EEA430E08BF20EA5A
:10A32800D37070BDC4F1200500FA05F24EEA020EA2
:10A3380020FA04F301FA05F243EA020321FA04F0D1
:10A3480001F0004121FA04F220EA020000EBD37088
:10A358005EEA430E08BF20EAD37070BD94F0000F88
:10A368000FD101F00046400041EB010111F4801FBC
:10A3780008BF013CF7D041EA060195F0000F18BF6D
:10A38800704703F00046520043EB030313F4801FA9
:10A3980008BF013DF7D043EA0603704794EA0C0F63
:10A3A8000CEA135518BF95EA0C0F0CD050EA410679
:10A3B80018BF52EA4306D1D181EA030101F00041F6
:10A3C8004FF0000070BD50EA410606BF104619461E
:10A3D80052EA430619D094EA0C0F02D150EA01362A
:10A3E80013D195EA0C0F05D152EA03361CBF10466B
:10A3F80019460AD181EA030101F0004141F0FE410A
:10A4080041F470014FF0000070BD41F0FE4141F48D
:10A41800780170BD70B54FF0FF0C4CF4E06C1CEA8D
:10A4280011541DBF1CEA135594EA0C0F95EA0C0F42
:10A4380000F0A7F8A4EB050481EA030E52EA0335FD
:10A448004FEA013100F088804FEA03334FF080551E
:10A4580045EA131343EA12634FEA022245EA11154B
:10A4680045EA10654FEA00260EF000419D4208BFFC
:10A47800964244F1FD0404F5407402D25B084FEAA9
:10A488003202B61A65EB03055B084FEA32024FF455
:10A4980080104FF4002CB6EB020E75EB030E22BFB2
:10A4A800B61A754640EA0C005B084FEA3202B6EB72
:10A4B800020E75EB030E22BFB61A754640EA5C0021
:10A4C8005B084FEA3202B6EB020E75EB030E22BFB1
:10A4D800B61A754640EA9C005B084FEA3202B6EBB2
:10A4E800020E75EB030E22BFB61A754640EADC0071
:10A4F80055EA060E18D04FEA051545EA16754FEAD3
:10A5080006164FEAC30343EA52734FEAC2025FEAF0
:10A518001C1CC0D111F4801F0BD141EA00014FF07F
:10A5280000004FF0004CB6E711F4801F04BF014350
:10A538000020B4F1FD0C88BFBCF5E06F3FF6AFAE6C
:10A54800B5EB030C04BFB6EB020C5FEA500C50F1FC
:10A55800000041EB045170BD0EF0004E4EEA11317F
:10A5680014EB5C04C2BFD4EB0C0541EA045170BD86
:10A5780041F480114FF0000E013C90E645EA060ECA
:10A588008DE60CEA135594EA0C0F08BF95EA0C0FF8
:10A598003FF43BAF94EA0C0F0AD150EA01347FF440
:10A5A80034AF95EA0C0F7FF425AF104619462CE717
:10A5B80095EA0C0F06D152EA03353FF4FDAE10467A
:10A5C800194622E750EA410618BF52EA43067FF4CB
:10A5D800C5AE50EA41047FF40DAF52EA43057FF45B
:10A5E800EBAE12E74FF0FF3C06E000BF4FF0010C66
:10A5F80002E000BF4FF0010C4DF804CD4FEA410CCA
:10A608007FEA6C5C4FEA430C18BF7FEA6C5C1BD096
:10A6180001B050EA410C0CBF52EA430C91EA030F17
:10A6280002BF90EA020F0020704710F1000F91EA74
:10A63800030F58BF994208BF90422CBFD8176FEA42
:10A64800E37040F0010070474FEA410C7FEA6C5C10
:10A6580002D150EA013C07D14FEA430C7FEA6C5C17
:10A66800D6D152EA033CD3D05DF8040B704700BF43
:10A678008446104662468C461946634600E000BF91
:10A6880001B5FFF7B7FF002848BF10F1000F01BD63
:10A698004DF808EDFFF7F4FF0CBF012000205DF82E
:10A6A80008FB00BF4DF808EDFFF7EAFF34BF0120B3
:10A6B80000205DF808FB00BF4DF808EDFFF7E0FF4C
:10A6C80094BF012000205DF808FB00BF4DF808ED9D
:10A6D800FFF7CEFF94BF012000205DF808FB00BF04
:10A6E8004DF808EDFFF7C4FF34BF012000205DF8E6
:10A6F80008FB00BF4FEA410C7FEA6C5C02D150EACC
:10A70800013C0AD14FEA430C7FEA6C5C02D152EA61
:10A71800033C02D14FF0000070474FF00100704732
:10A728004FEA410212F5001215D211D56FF4787371
:10A73800B3EB625212D94FEAC12343F0004343EA14
:10A74800505311F0004F23FA02F018BF40427047EF
:10A758004FF00000704750EA013005D111F0004079
:10A7680008BF6FF0004070474FF00000704700BF0F
:10A778004A0011D212F5001211D20DD56FF4787378
:10A78800B3EB62520ED44FEAC12343F0004343EACD
:10A79800505323FA02F070474FF00000704750EA18
:10A7A800013002D14FF0FF3070474FF00000704782
:10A7B8004FEA4102B2F1E04324BFB3F5001CDCF1DB
:10A7C800FE5C0DD901F0004C4FEAC0024CEA507013
:10A7D800B2F1004F40EB830008BF20F00100704742
:10A7E80011F0804F21D113F13872BCBF01F0004045
:10A7F800704741F480114FEA5252C2F11802C2F177
:10A80800200C10FA0CF320FA02F018BF40F00100F7
:10A818004FEAC1234FEAD32303FA0CFC40EA0C00A9
:10A8280023FA02F34FEA4303CCE77FEA625307D1E6
:10A8380050EA01331EBF4FF0FE4040F4400070471D
:10A8480001F0004040F0FE4040F40000704700BFB7
:10A8580053B94AB9002908BF00281CBF4FF0FF317F
:10A868004FF0FF3000F074B9ADF1080C6DE904CE7B
:10A8780000F006F8DDF804E0DDE9022304B07047D3
:10A888002DE9F047089D04468E46002B4DD18A429B
:10A89800944669D9B2FA82F252B101FA02F3C2F1CE
:10A8A800200120FA01F10CFA02FC41EA030E94405F
:10A8B8004FEA1C48210CBEFBF8F61FFA8CF708FB80
:10A8C80016E341EA034306FB07F199420AD91CEB58
:10A8D800030306F1FF3080F01F81994240F21C818A
:10A8E800023E63445B1AA4B2B3FBF8F008FB1033D2
:10A8F80044EA034400FB07F7A7420AD91CEB040407
:10A9080000F1FF3380F00A81A74240F207816444D6
:10A91800023840EA0640E41B00261DB1D44000235B
:10A92800C5E900433146BDE8F0878B4209D9002DBF
:10A9380000F0EF800026C5E9000130463146BDE849
:10A94800F087B3FA83F6002E4AD18B4202D38242B3
:10A9580000F2F980841A61EB030301209E46002D62
:10A96800E0D0C5E9004EDDE702B9FFDEB2FA82F2B7
:10A97800002A40F09280A1EB0C014FEA1C471FFA15
:10A988008CFE0126200CB1FBF7F307FB131140EAFC
:10A9980001410EFB03F0884208D91CEB010103F1C9
:10A9A800FF3802D2884200F2CB804346091AA4B28B
:10A9B800B1FBF7F007FB101144EA01440EFB00FE5F
:10A9C800A64508D91CEB040400F1FF3102D2A645C4
:10A9D80000F2BB800846A4EB0E0440EA03409CE763
:10A9E800C6F12007B34022FA07FC4CEA030C20FA10
:10A9F80007F401FA06F31C43F9404FEA1C4900FA30
:10AA080006F3B1FBF9F8200C1FFA8CFE09FB1811AC
:10AA180040EA014108FB0EF0884202FA06F20BD91F
:10AA28001CEB010108F1FF3A80F08880884240F26F
:10AA38008580A8F102086144091AA4B2B1FBF9F0B3
:10AA480009FB101144EA014100FB0EFE8E4508D9AE
:10AA58001CEB010100F1FF346CD28E456AD9023833
:10AA6800614440EA0840A0FB0294A1EB0E01A14218
:10AA7800C846A64656D353D05DB1B3EB080261EB86
:10AA88000E0101FA07F722FA06F3F1401F43C5E960
:10AA9800007100263146BDE8F087C2F12003D84096
:10AAA8000CFA02FC21FA03F3914001434FEA1C47D8
:10AAB8001FFA8CFEB3FBF7F007FB10360B0C43EACA
:10AAC800064300FB0EF69E4204FA02F408D91CEB7A
:10AAD800030300F1FF382FD29E422DD90238634478
:10AAE8009B1B89B2B3FBF7F607FB163341EA034118
:10AAF80006FB0EF38B4208D91CEB010106F1FF3867
:10AB080016D28B4214D9023E6144C91A46EA00465D
:10AB180038E72E46284605E70646E3E61846F8E6EF
:10AB28004B45A9D2B9EB020864EB0C0E0138A3E738
:10AB38004646EAE7204694E74046D1E7D0467BE719
:10AB4800023B614432E7304609E76444023842E791
:10AB5800704700BFDFF834D000F026F80C480D49E4
:10AB68000D4A002302E0D458C4500433C4188C4260
:10AB7800F9D30A4A0A4C002301E013600432A242C6
:10AB8800FBD30CF00DF806F01BFFFEE700A0002039
:10AB9800000000207C000020609101087C0000205B
:10ABA800C84E0020FEE70000034AD2F8883043F47C
:10ABB8007003C2F88830704700ED00E00A4B10B50A
:10ABC8001880044601F020FD902001F0CDFD012001
:10ABD80001F0CAFD200A01F0C7FDE0B201F0C4FD92
:10ABE800BDE8104001F06CBD040000200B4B10B50F
:10ABF8001C8801F009FD902001F0B6FD44F40044E2
:10AC0800012001F0B1FD200A01F0AEFDE0B201F033
:10AC1800ABFDBDE8104001F053BD00BF04000020AB
:10AC280038B501F0F1FC902001F09EFDB8B100208C
:10AC380001F09AFD98B101F0E7FC912001F094FD34
:10AC480068B1012001F042FE0546002001F03EFEF9
:10AC5800044601F035FD44EA052000B238BD01F094
:10AC68002FFD002038BD00BF274B1A68B2F5A87F1A
:10AC780000D070471B69022BFBD92449244AB1F83C
:10AC880001302448097811705BBA03801378012BCE
:10AC9800D9B214D01378022B14D000231E4A1946B7
:10ACA80003EB430C02EB0C000133082B02F80C10E9
:10ACB80041708170F4D1194B01221A707047184BFA
:10ACC8001970704700B572B61649174A174B91F8B4
:10ACD80000E092F800C018785FFA8EFE5FFA8CFCEC
:10ACE800C0B262B60C4A002101EB4103013102F8FF
:10ACF80003E01344082983F801C09870F4D1074B86
:10AD080001221A705DF804FB804E0020784E002066
:10AD18003B4B0020444B0020604E0020B54E0020E5
:10AD2800B44E00205C4E00205B4E00205A4E00209E
:10AD3800F8B5204B1A68B2F5F87F00D0F8BD1B694A
:10AD4800042BFBD91C4B1B7803F0FF05002BF5D116
:10AD580072B61A4E1A4834781A4F4FF4005108F058
:10AD680079FDA4F10104B4FA84F46409A0424FF413
:10AD78000051134818BF3D60224608F071FDD6F80F
:10AD8800013019BA13B9396062B6F8BD0E4A0F4BD3
:10AD9800116000243960224609481C704FF4805124
:10ADA80008F05EFD064822464FF4804108F058FD41
:10ADB800EAE700BF804E002008000020784E0020FF
:10ADC80000040048AC4E00200C000020A84E0020D3
:10ADD80038B5474C474B2246002108F033F900B1FB
:10ADE80038BD07F0AFF9444D444B186000F0AEFA97
:10ADF8002B781BB12368B3F5807FF1D100F058F9A7
:10AE080000F080FE2B78002BEAD13D4B1B78182BE5
:10AE1800E6D801A252F823F0B5AE000885AE0008C6
:10AE280085AE000885AE0008E9AD0008F1AE00085F
:10AE380085AE000885AE0008E9AE0008E1AE00085E
:10AE4800D9AE0008E9AD000885AE0008C1AE00081B
:10AE58008DAE0008E9AD000885AE0008D1AE000847
:10AE6800C9AE0008ADAE0008E9AD0008A5AE0008FF
:10AE78009DAE000895AE00088DAE0008BDE83840CC
:10AE880000F01ABDBDE8384001F040B9BDE83840CF
:10AE980000F070BDBDE8384000F0CCBFBDE83840D8
:10AEA800FFF746BFBDE8384000F084BC00F03AFF29
:10AEB800BDE8384000F000BDBDE8384000F072B889
:10AEC800BDE8384001F0F0B8BDE8384000F088B877
:10AED800BDE8384000F074BDBDE8384000F0A8BCBB
:10AEE800BDE83840FFF7C0BEBDE8384000F00AB8FA
:10AEF800804E0020784E0020B04E0020484B0020A5
:10AF0800384B002038B51F4B1A68B2F5A07F00D027
:10AF180038BD1B69012BFBD91B4B1B78002BF7D1C4
:10AF28001A4D1B4C2B78237007F00CF96A78194BD3
:10AF3800A2F10102B2FA82F21860520910214FF010
:10AF4800904008F08DFC23781349144A40F67F405E
:10AF580000FB03F312681248A1FB0313DB095363D8
:10AF6800237803F0FF0233B1BDE8384001224FF4E3
:10AF7800007108F075BCBDE838404FF4007108F066
:10AF88006FBC00BF804E002008000020784E0020D3
:10AF98005C4B0020544B002081808080044D0020B1
:10AFA800000400480B4B1A68B2F5D87F00D07047F0
:10AFB8001B69002BFBD0084B1B78002BF7D1074BE4
:10AFC8001A78003A4FF002014FF0904018BF012262
:10AFD80008F046BC804E002008000020784E002073
:10AFE8002E4A1368B3F5107F26D040F241229342CF
:10AFF80015D040F24222934221D110B5284B1B783C
:10B00800052B88B01CD002226946222001F082FD5F
:10B0180018B1244808F002F838BB08B010BD224B1C
:10B028001B7803F0FF0253B91D4B1B78052B2DD05D
:10B038001E49212001F03CBD1269022A09D070473F
:10B04800FFF7EEFDC0F307238DF800308DF80100FF
:10B05800DFE7154B1B78002BF1D1114B1B78052B23
:10B0680016D01249202001F023BD40F242200221CF
:10B0780000240290069101AB6A4602A909488DF89E
:10B088001C40CDE9044407F04BFFC6E7FFF7AEBD0F
:10B09800064B188840BA80B2FFF790BD804E00205A
:10B0A8005E4B0020B44B002008000020784E0020A2
:10B0B8002DE9F041914D2B68B3F5C07F92B03ED099
:10B0C800B3F5C17F74D0B3F5C97F09D0B3F5807FDC
:10B0D80003D12B69082B00F0A28012B0BDE8F081E3
:10B0E8002B69042BF9D1864B1A78E32AF5D15A78C3
:10B0F800A52AF2D19A78E02AEFD1DE78FF2EECD19A
:10B108002222314609A80BF08DFD222209A9002030
:10B1180001F006FE00247B4B7B481C70222221464E
:10B128000BF080FD7948222231460BF07BFD7848F0
:10B1380007F074FF002840F0CF802B68C6E72B6922
:10B14800012BCAD96E4A92F80080B8F1070F28BFC0
:10B158004FF00708013B984588BF5FFA83F8002243
:10B1680004214FF090408DF80C8008F079FBB8F17D
:10B17800000F0FD0674C08F1FF37631C0DF10D0667
:10B1880053FA87F714F8010B01F042FDBC4206F8A8
:10B19800010BF7D14FF090400122042108F060FB29
:10B1A8005B4807F03BFF30BB2B68B3F5C17F8AD102
:10B1B800574807F033FF08B92B6884E74FF400417C
:10B1C800554808F047FBA0F10100B0FA80F00021D3
:10B1D800400940F28313CDE90B1101248DF80400D6
:10B1E80009938DF8381003AB01AA09A948480D94B2
:10B1F80007F096FEE0E708F1010800215FFA88F2FF
:10B2080040F28110CDE90B1109900D928DF838109C
:10B2180001AB03AA09A93E4807F082FEC4E7384CEF
:10B228003E4B3F4A61782078187001255970A17803
:10B238009970157006F086FF3A4B3B49E2783B4F10
:10B248003B4E00F51C50103008601A70394A2379BB
:10B2580015703B70384D63793370A3792B70374B79
:10B268001B78082B1DD0E479354900230FE0387886
:10B27800C0B2885430780A44C0B2507028785A0056
:10B28800C0B21A440A440133082B907020D003EB53
:10B298004302002CEBD18C540A44204654705A00C7
:10B2A800EFE7284B1B78022B12D172B63B78347823
:10B2B8002878E4B2DDB2C0B262B62149002202EBBE
:10B2C80042030132CD540B44082A5C709870F6D1C1
:10B2D8001D4B01221A7000E740F2911108220391D8
:10B2E80007926B4601AA03A909488DF82040CDE9C9
:10B2F8000144CDE9054407F013FE1EE7804E002007
:10B30800784E0020604B0020384E0020F04D002081
:10B31800B44B0020794E0020000800482C4E002035
:10B32800244E0020324E0020284E00205C4E002083
:10B338005B4E0020304E00205A4E0020384B002033
:10B34800604E00203B4B0020B54E002030B5A04C8D
:10B358002368B3F5FE6F8BB070D0B3F5FF6F00F0C4
:10B36800E58040F2FB72934200F0C880B3F5887F15
:10B3780000F0D080B3F5C87F7FD0B3F5D07F61D11E
:10B3880023692BB1934B1B78062B01D8924A137073
:10B39800924807F043FE002840F06B812368B3F51C
:10B3A800D17F56D123692BB18A4B1B78192B01D831
:10B3B8008B4A1370894807F031FE002840F040811D
:10B3C8002368B3F5D27F4BD123691BB1814A854BE2
:10B3D80012781A70814807F021FE002840F0188181
:10B3E8002368B3F5D37F42D1236973B1794B1B78B6
:10B3F800032B0AD87C49784A0B701378032B00F08A
:10B40800B5811378042B00F0B181744807F006FE6B
:10B4180088B3754B002019788DF8041040F2A712F4
:10B42800CDE90600012404928DF8240002AB01AA9C
:10B4380004A96A48089407F073FD1CE02269042AED
:10B4480000F0818040F2A1129342A1D0B3F5D17FE0
:10B45800A8D040F2A3129342ACD0B3F5D27FB3D0B8
:10B4680040F2A5129342B5D0B3F5D37FBCD0A3F573
:10B47800D373012BC9D90BB030BD584807F0CEFDA6
:10B48800002835D0594B5A49DA88097858798DF807
:10B498000810197E8DF809008DF80A1002B91A896A
:10B4A800987A8DF80C20110A8DF80B1000B9187BCA
:10B4B800597BDD7A9A7B8DF80D0055EA01034FF030
:10B4C80000010CBF0B46012308208DF80E3040F216
:10B4D8009113CDE906118DF80F2004930DEB0002AE
:10B4E80008908DF824103D4801AB04A907F018FD19
:10B4F8002368B3F5D07F3FF443AFA3E7374D284621
:10B5080007F08CFD002840F0C9802368B3F5887FD8
:10B518007FF430AF314807F081FD002840F0FC800F
:10B528002368B3F5C87F7FF428AFA6E72B4807F058
:10B5380075FD002840F0CB80236840F2FB729342EF
:10B548007FF414AFDAE7234A1178B0297FF47AAF91
:10B55800517807297FF476AF91781D297FF479AF68
:10B56800D2785A2A7FF475AF224A234B12681B6897
:10B5780022480024546340215C63012208F070F9DA
:10B588001E4822464FF4007108F06AF9224602214B
:10B598004FF0904008F064F9194B1B78092B00F024
:10B5A800EC800023174A049302E0049B01330493C0
:10B5B800049B9342F9D9BFF34F8F1349134BCA68C1
:10B5C80002F4E0621343CB60BFF34F8F00BFFDE787
:10B5D800804E0020784E00205E4B0020B44B0020A7
:10B5E8005F4B00204E4B00202F4E0020384E00208D
:10B5F800604B0020044D0020504D002000040048FE
:10B60800384B0020FFE1040000ED00E00400FA05DB
:10B618005D4B032200211B788DF8042040F2A51011
:10B628000222CDE906118DF80530049008928DF8B4
:10B63800241002AB01AA04A9544807F071FCCFE614
:10B64800534A544B12781B788DF80420002140F29D
:10B65800A3100222CDE906118DF805300490089256
:10B668008DF8241002AB01AA04A9484807F058FC39
:10B67800A6E6494B00211A788DF8042040F2A11360
:10B688000120CDE90611049308908DF8241002AB2F
:10B6980001AA04A93D4807F043FC7FE62B689B6993
:10B6A800180C1B0E002140F2FC728DF805300223A5
:10B6B800CDE906118DF80400049208938DF8241042
:10B6C800284602AB01AA04A907F02AFC1DE70322B9
:10B6D800CC20002101238DF809208DF80A208DF84F
:10B6E8000B0040F2F9720820CDE906118DF8081018
:10B6F8008DF80C308DF80D108DF80E308DF80F3058
:10B70800049208900DEB00028DF8241001AB04A9F7
:10B718001E4807F005FC0FE720482149214A007818
:10B72800214B097812781B788DF80400003918BF6E
:10B738000121003A18BF0122003B18BF01238DF8F0
:10B74800051040F2111000218DF806200422CDE9E1
:10B7580006118DF80730049008928DF8241002AB7A
:10B768006A4404A9094807F0DBFBD9E60F4901221E
:10B77800142001F09DF9236879E60D4822464021FE
:10B7880008F06EF80DE700BF4E4B0020B44B0020C8
:10B79800090000205F4B00205E4B0020384B002042
:10B7A800B04E0020464B002008000020784E0020B4
:10B7B8000004004838B5154B1A68B2F5F07F00D080
:10B7C80038BD1B69022BFBD9114B1B78002BF7D115
:10B7D800104D114A2B88114C5BBA138006F0B2FC4D
:10B7E8000F4AAB781060237006F0ACFC0D4B0E4985
:10B7F800186023780D4A40F67F4000FB03F3126877
:10B80800A1FB0313DB09536338BD00BF804E002042
:10B8180008000020784E0020B24E0020844C002002
:10B82800A04E0020884C002081808080044D00209C
:10B83800194B1A68B2F5B07F00D070471B69012B0D
:10B84800FBD970B5154B1B7803F0FF0403B170BD2D
:10B85800134D144E2B78337006F074FC6A78124B33
:10B86800012A18600DD0114B11481B68A2F1010282
:10B87800B2FA82F25C635209BDE87040402107F0D9
:10B88800EFBF34780B4B40F67F4101FB04F4A3FB78
:10B898000434E409E7E700BF804E002008000020D8
:10B8A800784E0020EC4D0020E84D0020044D00208B
:10B8B8000004004881808080254B1A68B2F5907F8B
:10B8C80000D070471B69042BFBD92DE9F041214BAF
:10B8D8001B7803F0FF040BB1BDE8F08172B61E4D72
:10B8E8001E4895F800801E4F202107F0B3FFA8F1ED
:10B8F8000106B6FA86F67609B0423246174818BFEE
:10B908003C60202107F0ACFFD5F8012013BADAB16A
:10B918001449154A0B603B6012783AB91349B8F1DB
:10B92800010F0A6818BF5B4213440B600024104BD8
:10B938000A481C702246082107F092FF0748224651
:10B94800402107F08DFF00E03B6062B6C4E700BF0E
:10B95800804E002008000020784E00200004004897
:10B96800AC4E00200C000020384B0020A44E0020D4
:10B97800A84E00200F4B1A68B2F50C7F0FD040F28A
:10B9880031218A4200D070471A69032AFBD10A4B39
:10B998001B78002BF7D10949312001F089B81A69C1
:10B9A800032AF0D1044B1B78002BECD1034930203B
:10B9B80001F07EB8804E002008000020784E00205C
:10B9C800404AF8B51368B3F5B87F22D040F2731136
:10B9D8008B4206D0B3F5BC7F02D11369002B4AD144
:10B9E800F8BD1369002BFBD0374A384B12781A7010
:10B9F8001B783749374A03EB8300C3EB40231268AF
:10BA0800A1FB0313DB09536306F09CFB324B186060
:10BA1800F8BD1369052BE3D92B4C304A23885BBA50
:10BA2800138006F08FFB2E4A2E4B10601B7803F014
:10BA3800FF06002BD4D172B6A5782B482B4F2021B6
:10BA480007F008FFA5F10105B5FA85F56D09A842CB
:10BA58002A464FF02001244818BF3E6007F000FF37
:10BA68002379E17862791B0243EA0143134317D132
:10BA78003B6062B6F8BD144A1D4B12781A701B78E9
:10BA880013491C4A03EB8300C3EB40231268A1FB54
:10BA98000313DB09536306F055FB174B1860F8BD19
:10BAA800164A174D1360002422460F483B600821B0
:10BAB8002C7007F0D5FE0C482246402107F0D0FE36
:10BAC800D7E700BF804E0020784E0020184E002097
:10BAD80081808080044D00201C4E0020B24E002042
:10BAE8009C4C00200800002000040048AC4E0020B8
:10BAF800904C0020504D0020944C00200C00002059
:10BB0800A84E002070B5814B1C68B4F5047F8AB03C
:10BB18005DD040F21122944227D040F21222944282
:10BB280029D040F21322944240D0B4F5057F48D082
:10BB380040F21522944263D040F2162294427AD001
:10BB480040F2172294427ED040F21922944244D007
:10BB5800B4F5087F40F0A9801A69012A09D96C490F
:10BB6800013A11F8010CD2B226E01A69082A00F04D
:10BB7800C6800AB070BD1B69082BFAD1654C2378C2
:10BB8800032BF6D8644D654905EBC30201330868F9
:10BB98004968DBB2042B03C22370EAD1202229466C
:10BBA800022000F085FF00232370E2E71A69002ACB
:10BBB800DFD05A49D2B203200AB0BDE8704000F085
:10BBC80077BF1A69082AD4D154490420F4E71A69BE
:10BBD800042ACED151490220EEE701226946072006
:10BBE80000F098FF0028C4D04D4807F017FA002845
:10BBF800BFD0002440F21920012101AB6A4649E078
:10BC080001226946002000F085FF0028B1D0444891
:10BC180007F004FA0028ACD001210025089101ABF7
:10BC28006A4604A93E480494CDE906558DF8245087
:10BC380007F076F99DE701226946052000F06AFFC2
:10BC4800002896D0E3E70A2201A9062000F062FF47
:10BC580000288ED0324807F0E1F978B140F2172079
:10BC680008210024049008912D488DF824406B4643
:10BC780001AA04A9CDE9064407F052F9284807F0BB
:10BC8800CDF900283FF475AF00244FF40670022167
:10BC98006B4603AA0490089121488DF8244004A912
:10BCA800CDE9064407F03CF963E740F221229442CB
:10BCB8007FF45FAF1B69022B7FF45BAF174B5D7896
:10BCC8001878082D28BF08252A4601A900F022FF68
:10BCD80000283FF44EAF124807F0A0F900283FF4BF
:10BCE80048AF00266B4601AA04A90D480494CDE983
:10BCF800066608958DF8246007F012F939E7054BB8
:10BD08000649002401201C7056E700BF804E002021
:10BD1800794E0020B800002098000020784E0020BE
:10BD2800B44B002010B52A4C2368B3F5987F88B02F
:10BD38002FD040F23112934204D0B3F5997F04D04A
:10BD480008B010BD2369042B31D0224807F066F9EA
:10BD58000028F5D0204B1B688DF80330190E1A0CFB
:10BD68004FF499708DF800108DF8012004211A0AFB
:10BD780000248DF802200DEB0103029006916A461B
:10BD880002A914488DF81C40CDE9044407F0C8F80E
:10BD9800D6E72369012BD3D9104B114A1B885BBA0C
:10BDA800138006F0CFF90F4A23681060C1E70B4BE8
:10BDB8001A78522AC9D15A78532AC6D19A78502A61
:10BDC800C3D1DB78302BC0D1034B00221A60BCE70B
:10BDD800804E0020B44B0020A44E0020784E002056
:10BDE800B24E0020A04E00202DE9F047104E88B03A
:10BDF8000C46804601F1200A00254FF0080930461C
:10BE080007F00CF90746224601AB02A93046083470
:10BE18005FB1CDE90455CDF80880CDF818908DF8BC
:10BE28001C5007F07DF85445E9D108B0BDE8F0870B
:10BE3800B44B0020964A1368B3F5147F47D010B569
:10BE480040F251218B428AB027D040F252218B42D6
:10BE580053D0B3F5157F38D11369002B35D08D4BEE
:10BE68001A78062A00F003811A78062A00F0AF80B3
:10BE78001A78062A00F0BB801B78062B25D0864B43
:10BE880002AA19781320202300F080FEE8B102A945
:10BE980040F25520FFF7A8FF17E07E4B1A780021E3
:10BEA800062A8DF8031053D01A78062A59D01A7822
:10BEB800062A5FD01B78062B41D1FF238DF803306B
:10BEC800764807F0ABF800285DD10AB010BD744B76
:10BED8001B788BB96F4B1A78062A66D01A78062A0F
:10BEE80069D01A78062A6CD01B78062B04D06A49C8
:10BEF8000022102000F0DCBD70471369002BE4D04D
:10BF0800644B1A78062A00F082801A78062A00F014
:10BF18008E801A78062A00F09A801B78062BD4D0D7
:10BF28005D4B02AA19781220202300F02FFE00286A
:10BF3800CBD002A940F25320FFF756FFC5E70122F4
:10BF48000DF10301112000F0E5FD0028BDD0B7E791
:10BF5800544A1278012AA7D101F0D6FE8DF80300C1
:10BF6800AEE7504A1278022AA1D102F009F88DF8FA
:10BF78000300A5E74B4A1278032A9BD102F02EF959
:10BF88008DF803009CE740F2512001210024029023
:10BF9800069101AB0DF1030202A940488DF81C403F
:10BFA800CDE9044406F0BCFF8FE73E4A1278012A27
:10BFB80094D101F07BBE3B4A1278022A91D101F05C
:10BFC800B1BF384A1278032A8ED102F0F3B8354A45
:10BFD8001278022A7FF44CAF2F4B02A9187801F08F
:10BFE800F7FF02A940F25520FFF7FEFE6DE72D4A44
:10BFF8001278032A7FF440AF274B02A9187802F081
:10C0080033F902A940F25520FFF7EEFE5DE7254A15
:10C018001278012A7FF479AF1F4B02A9187801F032
:10C0280079FE02A940F25320FFF7DEFE4DE71D4AD4
:10C038001278022A7FF46DAF174B02A9187801F025
:10C04800A5FF02A940F25320FFF7CEFE3DE7154AAF
:10C058001278032A7FF461AF0F4B02A9187802F017
:10C06800E1F802A940F25320FFF7BEFE2DE70D4A82
:10C078001278012A7FF4F8AE074B02A9187801F06C
:10C088006BFE02A940F25520FFF7AEFE1DE700BF88
:10C09800804E00205E4B0020784E0020B44B0020DC
:10C0A800080000202F4E0020114B1A68B2F5E87FD7
:10C0B80000D070471B69002BFBD00E4B1B78002B60
:10C0C800F7D110B50C4B0D4C1B78237006F03AF8DD
:10C0D8000B4B0C49186023780B4A40F67F4000FB55
:10C0E80003F31268A1FB0313DB09536310BD00BF00
:10C0F800804E002008000020784E0020B64E002018
:10C10800B84E002081808080044D002070B5304CEE
:10C1180023788BB92F4B1A68B2F5E07F0DD0B2F5B2
:10C12800007F09D11B69022B06D92B4B1B781BB941
:10C138002A4B1B78182B2ED070BD1B69022BFBD9FC
:10C14800254B1B78002BF7D1244B1B780E2BF3D1F2
:10C15800234D2B78012BEFD12248082107F07AFBD9
:10C1680001280646E8D1B5F801301F4A5BBA9BB2F0
:10C17800B3F5FA6F28BF4FF4FA63138005F0E2FFB6
:10C188001A4B32461860022126704FF09040BDE8E5
:10C19800704007F065BB124B1D78012DCCD1B3F868
:10C1A8000130114A5BBA9BB2B3F5FA6F28BF4FF45E
:10C1B800FA63138005F0C6FF0C4B2A46186002216B
:10C1C80025704FF09040BDE8704007F049BB00BFB4
:10C1D800BC4E0020804E002008000020384B002074
:10C1E800784E002000040048BE4E0020C04E0020BB
:10C1F80010B50B4C237803B910BD05F0A3FF094A0D
:10C20800094B12681B88801A9BB29842F4D300220B
:10C2180002214FF0904007F023FB0023237010BD4C
:10C22800BC4E0020C04E0020BE4E002008B5124B68
:10C238001A78042A03D01B78112B00D008BD0F48A8
:10C2480006F0C4F90D48022106F07CFA60B10C4BE7
:10C2580001221A70094806F051FA0A48082107F025
:10C26800F9FA094B187008BD044806F00BFB074B98
:10C2780080B21880EEE700BF384B0020644B0020E6
:10C28800B04E0020000400489E4E00209C4E002026
:10C2980008B50D4B1A78052A06D01A78092A03D052
:10C2A8001B78082B00D008BD0848082107F0D2FAEF
:10C2B800074BB0FA80F01A784009824208BF054A55
:10C2C800187008BF107008BD384B002000040048E3
:10C2D800060000205D4B0020554B1A7812B11B78E0
:10C2E800132B49D12DE9F041002282B002214FF0F1
:10C2F800904007F0B5FA00230193019BB3F5207F26
:10C3080006D2019B01330193019BB3F5207FF8D33B
:10C31800484806F05BF94748022106F013FA00285E
:10C3280051D0454E01233370444D424806F0E6F99A
:10C338002B889BB2B3F5DF7F1FD2337803F0FF045D
:10C3480023BB3F4F3F4B97F80080B8F1000F1FD039
:10C358003D491C700A882B889BB292B2023B9A42D4
:10C368004CDA01243C70224602214FF0904002B082
:10C37800BDE8F04107F074BA7047012300222A8013
:10C388003370337803F0FF04002BDAD00022EBE798
:10C398001A78002A3CD005F0D5FE2C4B2A491B6898
:10C3A800C01A40F6B8339842D4D9294B0A881B885A
:10C3B80092B205339A42CDDD0123424602214FF065
:10C3C80090403370D3E71B4806F05CFA40F6E973F7
:10C3D800A0F110029A42A4D84FF4E17202FB00F0D7
:10C3E8001C4B1949144E00F2FF70A3FB0023C01A1E
:10C3F80003EB5000C0F3CF20088095E70A882B880C
:10C408009BB292B202339A420DDD00233B70AAE739
:10C4180001221A7005F096FE0C4B0B4918600C4B64
:10C428000A881A8096E73C78003C18BF01249AE7EE
:10C43800384B0020644B0020B04E0020B24E002044
:10C44800B9000020C20000204C4B0020C40000208E
:10C45800C800002001011000614B1B780A2B00D096
:10C4680070472DE9F0415F4806F0B0F85D480221B9
:10C4780006F068F90446002849D05B4E0123337062
:10C488005A4D584806F03AF92B889BB2B3F5967F77
:10C4980029D8337803F0FF04002B5ED1544F554B55
:10C4A80097F80080B8F1000F22D11A78002A5CD1E1
:10C4B80001221A7005F046FE4F4B50491860504B48
:10C4C8000A881A800A882B889BB292B2023B9A4249
:10C4D80011DA01243C7022460221BDE8F0414FF0F8
:10C4E800904007F0BDB9002201232A803370D0E7BD
:10C4F80042491C70E6E70A882B889BB292B2023345
:10C508009A424DDC3C78003C18BF0124E3E73548EB
:10C5180006F0B8F940F6E973A0F110029A42ACD8D7
:10C52800742840D940F6C673984212D801B2354DE6
:10C5380001238220742402E0044635F923005A1EA0
:10C548008C42D2B201DC884230DA0133212BF3D19C
:10C5580000242A49244E0C8092E7BDE8F0410022CD
:10C5680002214FF0904007F07BB905F0EBFD224B1C
:10C5780022491B68C01A40F6B8339842A2D9204B0A
:10C588000A881B8892B205339A429BDD01234246F2
:10C5980033700221BDE8F0414FF0904007F060B9D8
:10C5A80000233B7097E74FF4A074D2E7001B091BE8
:10C5B800144C04EB820204EB8303B2F90220B3F9B2
:10C5C80002309B1A01FB03F300EBD0746410002BBC
:10C5D800B8BF64421C4494FBF0F41444A4B2B8E716
:10C5E800384B0020644B0020B04E0020B24E002093
:10C5F800BA000020BB000020BC0000204C4B0020EB
:10C60800C00000206C6E010870B52B4E2B482B4DD6
:10C61800002384B001224FF40061337007F020F941
:10C62800264801224FF4806107F01AF94FF4FA64A2
:10C6380001E0002C3DD04FF48061284607F00AF94C
:10C64800013C0128A4B2F4D100230393039BB3F562
:10C65800A07F06D2039B01330393039BB3F5A07F0E
:10C66800F8D3164800224FF4006107F0F9F80023C8
:10C678000293029BB3F5A07F06D2029B013302937B
:10C68800029BB3F5A07FF8D30C4800224FF48061D9
:10C6980007F0E6F800230193019BB3F5A07F06D2CB
:10C6A800019B01330193019BB3F5A07FF8D304B03C
:10C6B80070BD01233370C7E7CA000020000400489A
:10C6C80030B5274885B000224FF4006107F0C8F85C
:10C6D80000230393039BB3F5A07F06D2039B01338A
:10C6E8000393039BB3F5A07FF8D31D481C4D01228B
:10C6F8004FF4806107F0B4F84FF4FA6400E054B3E3
:10C708004FF48061284607F0A5F8013C0128A4B23F
:10C71800F5D100230293029BB3F5A07F06D2029BBA
:10C7280001330293029BB3F5A07FF8D30C48012292
:10C738004FF4006107F094F800230193019BB3F5CF
:10C74800A07F06D2019B01330193019BB3F5A07F23
:10C75800F8D305B030BD034B01221A70D9E700BFEA
:10C7680000040048CA0000202DE9F041554D86B06C
:10C7780080460726002748FA06F202F001024FF425
:10C788000061284607F06CF80297029BB3F5A07F7A
:10C7980006D2029B01330293029BB3F5A07FF8D324
:10C7A80001224FF48061284607F05AF84FF4FA64E2
:10C7B80001E0002C7ED04FF48061284607F04AF84B
:10C7C800013C0128A4B2F4D10197019BB3F5A07FE5
:10C7D80006D2019B01330193019BB3F5A07FF8D3E7
:10C7E80000224FF48061284607F03AF80097009B32
:10C7F800B3F5A07F06D2009B01330093009BB3F5ED
:10C80800A07FF8D3013EB6D22E4801224FF4006132
:10C8180007F026F800230593059BB3F5A07F06D201
:10C82800059B01330593059BB3F5A07FF8D32548F5
:10C83800244D01224FF4806107F012F84FF4FA6496
:10C8480001E0002C3AD04FF48061284607F002F846
:10C85800013C0128A4B2F4D100230493049BB3F54E
:10C86800A07F06D2049B01330493049BB3F5A07FF9
:10C87800F8D34FF40061134806F0ECFF0446013C7E
:10C8880010484FF000024FF4806118BF012406F0F1
:10C89800E7FF00230393039BB3F5A07F06D2039B16
:10C8A80001330393039BB3F5A07FF8D3204606B06A
:10C8B800BDE8F081044B01221A7085E7024B012282
:10C8C8001A70C9E700040048CA0000202DE9F043A7
:10C8D800012287B081464FF400615348524D06F05B
:10C8E800BFFF00270826B846CDF80880029BB3F59D
:10C8F800A07F06D2029B01330293029BB3F5A07F6F
:10C90800F8D301224FF48061284606F0A9FF4FF4BE
:10C91800FA6401E0002C7FD04FF48061284606F0CD
:10C9280099FF013C0128A4B2F4D1CDF80480019B01
:10C93800B3F5A07F06D2019B01330193019BB3F5A8
:10C94800A07FF8D34FF40061284606F083FFA0F1DA
:10C958000100B0FA80F0400940EA470700224FF48E
:10C9680080612846013E06F07BFF16F0FF06FFB205
:10C97800BAD1B9FA89F22C4852094FF4006106F08D
:10C988006FFF0596059BB3F5A07F06D2059B013383
:10C998000593059BB3F5A07FF8D32348224D0122C8
:10C9A8004FF4806106F05CFF4FF4FA6401E0002C5C
:10C9B80036D04FF48061284606F04CFF013C012830
:10C9C800A4B2F4D100230493049BB3F5A07F06D24C
:10C9D800049B01330493049BB3F5A07FF8D312485A
:10C9E80000224FF4806106F03BFF0F4801224FF40C
:10C9F800006106F035FF00230393039BB3F5A07F86
:10CA080006D2039B01330393039BB3F5A07FF8D3AE
:10CA1800384607B0BDE8F083044B01221A7084E75A
:10CA2800024B01221A70CDE700040048CA0000201A
:10CA38001C4B1D485A6930B542F480225A615B6923
:10CA4800194D87B003F4802300220093009B0392C2
:10CA5800032301A94FF4406405921122CDE9014254
:10CA6800049306F00DFE104801224FF4806106F091
:10CA7800F7FE4FF4FA6400E084B14FF48061284671
:10CA880006F0E8FE013C0128A4B2F5D106480122CF
:10CA98004FF4006106F0E4FE07B030BD034B0122FD
:10CAA8001A70F3E70010024000040048CA00002092
:10CAB80070B505460E461446FFF7A6FD8420FFF71D
:10CAC80053FE20B9FFF7FCFD0025284670BD284617
:10CAD800FFF74AFE05467CB10028F3D0621E741E9B
:10CAE80056FA82F601E00028ECD014F8010FFFF79F
:10CAF8003BFEA6420546F6D1FFF7E2FD002DE4D045
:10CB0800034B1D78B5FA85F56D09284670BD00BF41
:10CB1800CA000020F8B504460E461546FFF774FD16
:10CB28008420FFF721FE20B90024FFF7C9FD204625
:10CB3800F8BD2046FFF718FE0028F5D0FFF764FD82
:10CB48008520FFF711FE0446D0B185B1013D741E62
:10CB580056FA85F7C6F1010630198542D4BF002080
:10CB68000120FFF7B3FE04F8010FA742F4D1FFF745
:10CB7800A7FD054B1878B0FA80F464092046F8BD83
:10CB8800FFF79EFD2046F8BDCA000020F8B507460D
:10CB98000C4616461D46FFF737FD8420FFF7E4FDD7
:10CBA80020B90024FFF78CFD2046F8BD3846FFF772
:10CBB800DBFD0028F5D02046FFF7D6FD0028F0D091
:10CBC800FFF722FD8520FFF7CFFD0446D0B185B1E0
:10CBD800013D741E56FA85F7C6F101063019A842C0
:10CBE800ACBF00200120FFF771FE04F8010FA74237
:10CBF800F4D1FFF765FD054B1878B0FA80F46409A5
:10CC08002046F8BDFFF75CFD2046F8BDCA000020AD
:10CC18002DE9F04100241F4E82B0804607252746A3
:10CC280048FA05F212F0010218BF01224FF4004140
:10CC3800304606F015FE00220421304606F010FEAC
:10CC48000097009B132B05D8009B01330093009B92
:10CC5800132BF9D901220421304606F001FE4FF4C6
:10CC68008071304606F0F6FD64000128E4B201D177
:10CC780044F001040197019B132B05D8019B013354
:10CC88000193019B132BF9D9013DC9D2204602B06B
:10CC9800BDE8F08100040048F0B51F4D87B00024BE
:10CCA800012204214FF090400426CDE90144CDE94A
:10CCB8000344059406F0D4FD01222846042106F019
:10CCC800CFFD012703230DEB06014FF0904004939D
:10CCD8000196CDE9027406F0D3FC0DEB0601284657
:10CCE800019606F0CDFC4FF4004601A928460196AE
:10CCF80006F0C6FC4FF4807301A9284601930397F8
:10CD0800029406F0BDFC0548019601A9039406F0BB
:10CD1800B7FC07B0F0BD00BF000400480008004899
:10CD28005AB32DE9F043DFF8588085B081460E46A6
:10CD38001546322703E01FFA89F92644CDB109F0D8
:10CD48001F04C4F12004A4B2AC4228BF2C464A46B2
:10CD5800CDE9014700960223A021404607F01EF8BE
:10CD68002D1BA144ADB20028E5D0002005B0BDE8D8
:10CD7800F083012005B0BDE8F0830120704700BFB3
:10CD8800204C002000B585B084463223CDE901232C
:10CD9800009102236246A021044807F0FFF8B0FA88
:10CDA80080F0400905B05DF804FB00BF204C00206E
:10CDB8002DE9F047DFF86C81554FDFF86CA18AB098
:10CDC8000A254FF0FF0900260121404606F042FDE2
:10CDD80002210446404606F03DFDB4FA84F4640995
:10CDE80008B944F002041021384606F033FD08B9AA
:10CDF80044F004048021384606F02CFD08B944F0BC
:10CE080008044FF40051504606F024FD08B944F0D8
:10CE180010044C4509D00220013D05F099F915F0A0
:10CE2800FF050DD0A1460126CEE70136F6B2032E46
:10CE380006D00220013D05F08BF915F0FF05C3D19E
:10CE4800344B182C1C7004D8334B1C700AB0BDE846
:10CE5800F0871F2C1DD03049304B2D4819240C70F9
:10CE6800012240211A7006F0FBFC294800224FF4E9
:10CE7800007106F0F5FC26480022402106F0F0FC7F
:10CE8800002202214FF090400AB0BDE8F04706F0BA
:10CE9800E7BC222201A90020FFF774FF18B1204B3C
:10CEA800019A9A421DD01C491C4B19200870012276
:10CEB80017481A70402106F0D3FC154800224FF499
:10CEC800007106F0CDFC12480022402106F0C8FC93
:10CED800002202214FF0904006F0C2FC0AB0BDE8E3
:10CEE800F0879DF80830072BDDD101A801F04AFC36
:10CEF8009DF825308342D6D19DF81E30013BDBB228
:10CF0800182BD0D8044A13700AB0BDE8F08700BFC8
:10CF18000004004809000020384B0020B04E0020D3
:10CF28004354525500140048000800480E4A0F4860
:10CF3800D16930B441F48001D161D2690C4C0D49FA
:10CF480082B002F480020192019D00230122C0E90F
:10CF58000041C0E90232C0E90433C0E90633036284
:10CF680002B030BC06F0C0BD00100240204C0020CA
:10CF7800005800402A231000144B15495A6930B54F
:10CF880042F001025A615B69124C83B003F001035D
:10CF9800019300258023019810222046C4E90253FA
:10CFA800C4E90012C4E90455C4E9065506F090FA2C
:10CFB8002A4603210D2006F025FA0D2006F060FA16
:10CFC800054B63625C6503B030BD00BF00100240D2
:10CFD80030000240DC4B0020A04C0020134A1448CB
:10CFE800916930B441F4805191619269114982B0DC
:10CFF80002F4805201924FF48272C0E90012019D3E
:10D008004FF4007200234FF4E0642021826107226C
:10D01800C0E90234C0E90433C0E90713C0E90933A1
:10D02800C26202B030BC07F09DBF00BF00100240D2
:10D03800A04C0020003001402F4BF0B5DA692F4C8E
:10D0480042F00072DA61DB6991B003F000730126E7
:10D0580000930323CDE90363009801A902274FF445
:10D06800C05209234FF09040CDE90127059306F0FF
:10D0780007FB234A0423C4E9002300254FF08073EB
:10D08800C4E902534FF440214FF48013C4E9041358
:10D098004FF00123A36120464FF48073A38305F06A
:10D0A80015FE06A92046CDE90B55CDE90655CDE973
:10D0B80008550D960A950E9605F088FE204605F04F
:10D0C800FDFE3946204606F04DF84FF4044120464F
:10D0D80006F048F82A463146142006F093F9142041
:10D0E80006F0CEF92A463146162006F08BF91620AE
:10D0F80006F0C6F911B0F0BD00100240B44B002094
:10D108000064004030B500249FB02146202206A8C4
:10D1180009F088FD3C220DEB02002146CDE90044D0
:10D12800CDE90244049409F07DFD012309931023FD
:10D1380002250A9305A84FF460130E9305950C95E4
:10D1480007F0FEF80F23009329464FF480636846E2
:10D15800CDE902430195049407F022FC60230FA84F
:10D16800CDE916440F9307F0CDFC1FB030BD00BFCA
:10D1780070B500258CB0CDE90755CDE90955324C7D
:10D188000B95A36943F00103A361A36903F00103AD
:10D198000193019B636943F400336361636903F49A
:10D1A80000330293029B636943F4802363616369DC
:10D1B80003F480230393039B636943F4800363614F
:10D1C800636903F480032A4604934FF400414FF047
:10D1D8009040049B012606F043FB07A94FF4004347
:10D1E8004FF09040CDE90736CDE9095506F048FAE9
:10D1F800032307A915480793CDE9085606F040FA16
:10D2080007A913489023079306F03AFAE36943F015
:10D218008053E361E36903F080530593059B07F0AE
:10D2280087F863690B4843F400236361636903F477
:10D2380000234FF40052069307A9069B079206F0B5
:10D248001FFA0CB070BD00BF001002400014004867
:10D25800000400480008004870B5002486B0784DE6
:10D268007848059422462021CDE90144CDE90344BC
:10D2780006F0F6FA2B78092B00F0B5802B78052BF1
:10D2880000F0D7802B78192B00F0A1806D4801227F
:10D29800402106F0E5FA4FF418720123CDE9012385
:10D2A80068480323002201A9CDE9032306F0E8F921
:10D2B8002B78012B16D02B78022B13D02B78032B2D
:10D2C80010D02B78062B0DD02B78072B0AD02B7873
:10D2D8000A2B07D02B780C2B04D02B78102B01D0DD
:10D2E8002B7883B957480821002206F0B9FA08219B
:10D2F8000123CDE9011300220323524801A9CDE9F6
:10D30800032306F0BDF92B78152B72D000224D4867
:10D31800022106F0A5FA022501A94A48019506F05E
:10D32800AFF9002229464FF0904006F099FA01A97A
:10D338004FF09040019506F0A3F9802300240326BE
:10D34800019301A905234FF09040CDE90254CDE99E
:10D35800046306F095F94FF48073019301A906233D
:10D368004FF090400593CDE902540496012506F04C
:10D3780087F9224610214FF09040CDE90254CDE9BB
:10D38800044406F06DFA102301A94FF09040019370
:10D3980006F076F9082301A901934FF090404FF465
:10D3A80004130293039506F06BF9224621460920DF
:10D3B80006F028F8092006F063F8224631461720BF
:10D3C80006F020F8172006F05BF806B070BD22467C
:10D3D8001C48402106F044FA1A4822464FF40071CE
:10D3E80006F03EFA57E717482246402106F038FA79
:10D3F80051E7144801224FF4804106F031FA1148F0
:10D4080000224FF4805106F02BFA0E484FF40051D9
:10D41800002206F025FA4FF4E0400121CDE9010190
:10D4280000220323074801A9CDE9032306F028F9C0
:10D438006CE7044822464FF4007106F011FA2AE717
:10D44800384B002000040048134B1449DA6930B502
:10D4580042F00202DA61DB69114C83B003F0020387
:10D46800019300254FF47A73019825613F222046E5
:10D47800C4E90012C4E9025308F016FA2A46022148
:10D488001D2005F0BFFF1D2005F0FAFF204603B060
:10D49800BDE8304008F022B8001002400004004007
:10D4A8009C4D002030B5002489B0CDE90144CDE978
:10D4B8000344CDE90544174B07949A69164D42F485
:10D4C80000629A619B696C6103F4006301460093F2
:10D4D8002846124B009A2B60C5E90314C5E901449C
:10D4E80008F014FA2246602301A928460193CDE9E1
:10D4F8000244CDE90444CDE9064408F079FA21460E
:10D50800284608F0B9F82A68536C43F4004353647A
:10D5180009B030BD00100240044D0020002C01402D
:10D5280030B5002489B0CDE90144CDE90344CDE903
:10D538000544144B0794DA69134D42F00102DA618D
:10D54800DB696C6003F0010300934FF0804240F602
:10D55800FF132846C5E9024300992A602C6108F0A8
:10D56800D5F96023224601A92846CDE90134039460
:10D57800059408F03DFA2146284608F07DF809B0E0
:10D5880030BD00BF00100240504D0020F0B500240F
:10D5980089B0CDE90244CDE90444CDE906441A4BEB
:10D5A8001A4D5A6942F080525A615B692C8303F024
:10D5B800805301934FF0A0432B604FF400330126B2
:10D5C80007466B6028460423019AEE61C5E90443C7
:10D5D800C5E9024485F82040AE6285F830406C63A6
:10D5E80004F0B0FE052302A92846CDE90363CDE97E
:10D5F80005440297079405F093F92146284605F05B
:10D6080045F909B0F0BD00BF00100240644B00208E
:10D61800014B01221A707047464B0020014805F063
:10D62800C9BD00BFB44B0020044B4FF090416FF0D0
:10D63800A0504FF0FF3208601A60FEE7000400486F
:10D6480030B5082889B014D0402801D009B030BDC1
:10D65800384B1B780A2BF9D104F074FD364A13684D
:10D66800C31A012BF2D9354910600B6801330B60DE
:10D67800ECE7304B1A780B2A12D01A78052A31D0E9
:10D688001B780A2BE2D104F05DFD2D4A1368C31AFA
:10D69800012BDBD92B4910600B6801330B60D5E7F0
:10D6A80004F050FD284A1368C31A012BCED9002371
:10D6B80001249521106025488DF80040CDE90433F8
:10D6C800029106948DF81C3005F0A8FCB8B101ABA6
:10D6D8006A461E4802A905F023FC1D4A1368013357
:10D6E8001360B3E704F02EFD1A4A1368C31A012B1E
:10D6F800ACD9194910600B6801330B60A6E72146C5
:10D708001248124D05F064FC0221104805F060FC37
:10D718000E48042105F05CFC4FF47A7401E0002CFB
:10D72800D5D0284605F07AFC013CA4B20028F6D0F2
:10D73800CDE700BF384B0020D0000020984C0020D7
:10D74800D4000020204E0020D8000020B44B002038
:10D75800344E0020CC000020584B0020082006F052
:10D768008FB800BF402006F08BB800BF04F0DEBCC5
:10D77800014807F08BBF00BF9C4D0020374B026863
:10D788009A4200D070472DE9F041354C354B22784C
:10D798002178227822781B7815290CBF4FF4805104
:10D7A8000821152A0CBF4FF48047402703F0FF06D5
:10D7B80083B92D4D2B685BB1DFF8B8802B4898F8FA
:10D7C80000300BBB012206F04BF8012388F800302B
:10D7D800BDE8F081244B25480025394601221D600B
:10D7E80006F03EF8224B1B6803B15D632378092BD2
:10D7F8002DD02378052BEBD1BDE8F0411B48002242
:10D808004FF4007106F02CB8324606F029F888F873
:10D81800006072B62B68013B2B6062B62B68002B48
:10D82800D6D12B68002BD3D12378072BD0D02378DF
:10D83800062BCDD023780A2BCAD02378102BC7D03B
:10D8480039460A48BDE8F041012206F009B8074800
:10D858000022402106F004F8CBE700BF0004004096
:10D86800384B0020B04E0020AC4E00200004004889
:10D87800044D0020A84E00202DE9F843244C254BE8
:10D8880025786178A2781B78EDB2CEB2D7B273B1A1
:10D89800FF23214A237000236370A3701370237839
:10D8A800AB4226D01D4B01221A70BDE8F883DFF881
:10D8B800689099F8003033B104F044FC184B1B68A9
:10D8C800C01A0028EBDB4FF0000889F8008004F04C
:10D8D80039FC144B1B68C01A40F2DB5398420FD82E
:10D8E800FF2384F8008084F80180A3702378AB427A
:10D8F800D8D16378B342D5D1A378BB42D2D1D4E78B
:10D90800FF2384F80080637084F80280C7E700BFB3
:10D918002C4E0020B04E0020244E0020B54E002092
:10D92800284E0020484B002038B51A4807F0B4FCB0
:10D93800012802D00024204638BD174A174B184D3D
:10D94800044650781178927800EB400003EB000C05
:10D95800185A288001EB41019CF80200A870581859
:10D9680002EB4202595AA5F8031081786971981898
:10D97800995AE98083782B726422002105F1090005
:10D9880009F050F96D222946024807F09BFB204612
:10D9980038BD00BFA04C00202C4E0020307001087C
:10D9A800DC00002070B582B072B6824D824A002435
:10D9B800022304EB440C05EB0C000721467815F80C
:10D9C8000CE090F802C0F6B25FFA8EFE5FFA8CFCAB
:10D9D80046FA01F0C007936119D500BF00BF00BF28
:10D9E80000BF00BF00BF00BF00BF00BF00BF00BF37
:10D9F80000BF00BF00BF00BF00BF00BF00BF00BF27
:10DA080000BF00BF00BF00BF00BF00BF00BF00BF16
:10DA180000BF00BF00BF00BF00BF00BF00BF00BF06
:10DA280000BF00BF00BF00BF00BF00BF00BF00BFF6
:10DA380000BF00BF00BF936200BF00BF00BF00BFB0
:10DA480000BF00BF00BF00BF00BF00BF00BF00BFD6
:10DA580000BF00BF00BF00BF00BF00BF00BF00BFC6
:10DA680000BF00BF00BF00BF00BF00BF00BF00BFB6
:10DA780000BF00BF00BF00BF00BF00BF00BF00BFA6
:10DA880000BF00BF00BF00BF00BF00BF00BF00BF96
:10DA980000BF00BF00BF00BF00BF00BF013997D261
:10DAA80007214EFA01F0C607936119D500BF00BFE0
:10DAB80000BF00BF00BF00BF00BF00BF00BF00BF66
:10DAC80000BF00BF00BF00BF00BF00BF00BF00BF56
