:020000040800F2
:1080000000A000205DAB0008ADAB0008D9F500086A
:10801000ADAB0008ADAB0008ADAB00080000000040
:10802000000000000000000000000000ADAB0008F0
:10803000ADAB000800000000ADAB00081DF7000864
:10804000ADAB0008ADAB0008ADAB0008ADAB0008B0
:10805000ADAB0008ADAB0008ADAB0008ADAB0008A0
:10806000ADAB00080DF70008ADAB0008ADAB0008E4
:10807000ADAB000829FC0008ADAB0008ADAB0008B3
:10808000ADAB0008ADAB0008ADAB0008ADAB000870
:10809000CDF50008ADAB0008ADAB000815F7000842
:1080A000ADAB0008ADAB0008ADAB0008ADAB000850
:1080B000ADAB000821F70008ADAB0008ADAB000880
:1080C000ADAB0008ADAB0008ADAB0008ADAB000830
:1080D000ADAB0008ADAB0008ADAB0008ADAB000820
:1080E000ADAB0008ADAB0008ADAB0008ADAB000810
:1080F000ADAB0008ADAB0008ADAB0008ADAB000800
:10810000000000000000000000000000ADAB00080F
:10811000ADAB0008ADAB0008ADAB0008ADAB0008DF
:10812000ADAB0008ADAB0008ADAB0008ADAB0008CF
:10813000ADAB0008ADAB000800000000000000007F
:10814000ADAB0008ADAB0008ADAB0008000000000F
:10815000000000000000000000000000000000001F
:108160000000000000000000ADAB0008ADAB00084F
:10817000ADAB00080000000000000000000000009F
:0881800000000000ADAB000897
:1081880010B5054C237833B9044B13B10448AFF349
:1081980000800123237010BD7C0000200000000037
:1081A800DC6B010808B5034B1BB103490348AFF367
:1081B800008008BD0000000080000020DC6B010882
:1081C8002DE9F04F97B000F11E03039300F27E6390
:1081D80011930023099316ABC3F111060DF157074C
:1081E8001D460496039A049E32F8023F03920DF14D
:1081F8004701012203EA02007418204101F8010F27
:108208005200B94292B2F5D19DF948209DF9490032
:108218000496CDE9052082EA000A9DF950200292D1
:108228009DF94A209DF94C609DF94B4001960C92AE
:108238001646059A9DF94E109DF95290079182EACB
:108248000400484089EA000006999DF94DB09DF95F
:1082580051800A9432467040029E9DF94FE0614079
:10826800714089EA0101164651408BEA00009DF9E8
:1082780054200D9288EA00005040089086EA0B00CE
:10828800019E88EA000084EA060C079C019E504083
:10829800029A84EA0C0C7440544082EA0C0C88EA76
:1082A80001019DF955200E9289EA04048EEA000026
:1082B8008EEA01018BEA04045040514088EA040424
:1082C8009DF956200F928EEA0404504054409DF9BF
:1082D80053200B9289EA0C0C82EA0C0C9DF957206A
:1082E80010925040089A8AEA00008CEA00008AEA54
:1082F8000C0A42EA010C4AEA0C0C44EA0C0C50EA5B
:108308000C060FD0890001EB4201514401EBC40176
:1083180001EB001080B2A0F110010F290ED96FF007
:1083280009020992039AC3F30A031380119B9A4224
:108338007FF458AF099817B0BDE8F08F11380E28B0
:1083480079D8DFE800F0726C645E58524C46403BC6
:1083580035302A250800C9F101038DF85230099BF0
:10836800002B08BF6FF008030993DDE904620DF1E3
:1083780049000121002301E010F9012B12FB01F251
:108388001344490085429BB289B2F5D10496C9E7E6
:10839800C8F101038DF85130E1E7029BC3F10103F5
:1083A8008DF85030DBE7CEF1010E8DF84FE0D6E7BF
:1083B800079BC3F101038DF84E30D0E7CBF10103E1
:1083C8008DF84D30CBE7019BC3F101038DF84C309C
:1083D800C5E70F9BC3F101098DF85690BFE70A9BCB
:1083E800C3F101038DF84B30B9E70C9BC3F10103CE
:1083F8008DF84A30B3E7069BC3F101038DF8493085
:10840800ADE70E9BC3F101088DF85580A7E7059BE2
:10841800C3F1010253B205938DF848309FE70D9BD5
:10842800C3F101038DF8543099E70B9BC3F10103A5
:108438008DF8533093E7109BC3F101038DF8573043
:108448008DE700BF10B50B460C464FF450724FF441
:10845800105107F0F5FD00B110BD2046BDE81040F1
:10846800FFF7AEBE10B5302282B04FF4004104468B
:1084780007F028FE421C0CD00DF1060301224FF430
:108488000041204607F0DCFD18B9BDF806301B078F
:10849800F2D502B010BD00BF10B582B00DF10603D1
:1084A800012248F20D01044607F0CAFD08B102B0E6
:1084B80010BDBDF8062048F20D0142F400422046E6
:1084C800ADF8062007F0FEFD0028F0D107F0A0FD6A
:1084D8000028ECD10DF10603012248F20D012046D7
:1084E80007F0AEFD0028E2D1BDF90630002BB8BF79
:1084F8006FF00A00DBE700BF002347F6FF7130F892
:1085080013208A4203F1100303D0C02BF7D10020B7
:1085180070476FF007007047038847F6FF718B427A
:108528002BD000F10E0300F1240C33F8022F8A42FD
:1085380023D06345F9D1038D8B421ED0438D8B42E6
:108548001BD0838D8B4218D000F12E0300F1400C14
:1085580047F6FF7133F8022F8A420ED06345F9D1EE
:1085680000F14E0347F6FF715E3033F8022F8A425E
:1085780003D09842F9D1002070476FF00700704788
:10858800F0B505469BB00E460DF1060301224FF4E7
:108598000041284607F054FD0446C8B9BDF80670E6
:1085A8003A07F1D530224FF40041284607F08AFDFA
:1085B800431C07F0010704460AD03346202257B966
:1085C8004FF48061284607F03BFD0446002871D02F
:1085D80020461BB0F0BD4FF48461284607F030FDFB
:1085E80004460028F4D106F1400320224FF48C61A0
:1085F800284607F025FD04460028E9D106F1800346
:1086080020224FF49461284607F01AFD04460028FA
:10861800DED106F1C00320224FF49C61284607F002
:108628000FFD04460028D3D106F5807320224FF4AD
:10863800A461284607F004FD04460028C8D106F5C1
:10864800A07320224FF4AC61284607F0F9FC0446D9
:108658000028BDD102AB30224FF4B061284607F0A4
:10866800EFFC04460028B3D101AB2846012248F2AA
:108678000D0107F0E5FCBDF80430A6F8E031A6F8D6
:10868800E27104460028A3D102A8FFF745FF28B9E4
:10869800602202A906F5C0700EF086FA47F6FF724E
:1086A80036F81430934204F110043ED0C02CF7D1B0
:1086B8003C468DE706F1400320224FF488612846A6
:1086C80007F0BEFC0446002882D106F18003202270
:1086D8004FF49061284607F0B3FC044600287FF465
:1086E80077AF06F1C00320224FF49861284607F0BF
:1086F800A7FC044600287FF46BAF06F580732022A0
:108708004FF4A061284607F09BFC044600287FF43C
:108718005FAF06F5A07320224FF4A861284607F042
:108728008FFC0446002895D052E76FF007044FE706
:1087380030B583B00C460DF10603012248F20D0155
:10874800054607F07DFC08B103B030BDBDF8062032
:10875800A10222F4406201F4406192B20A43284621
:1087680048F20D0107F0AEFC03B030BD00B583B090
:108778000DF10603012248F20D0107F061FC18B95A
:10878800BDF80600C0F3812003B05DF804FB00BF0C
:1087980030B583B00C460DF10603012248F20D01F5
:1087A800054607F04DFC08B103B030BDBDF8062002
:1087B800E10122F4607201F4607192B20A43284622
:1087C80048F20D0107F07EFC03B030BD00B583B060
:1087D8000DF10603012248F20D0107F031FC18B92A
:1087E800BDF80600C0F3C21003B05DF804FB00BF7B
:1087F800D0B5B0F8D431B0F8E0612DED028B07EEBA
:10880800903A1B04B8EE678A48BFDFED277A91F8E3
:10881800240048BF38EE678A0C4601F057FC9FEDEC
:108828001E0B41EC110B0DF04BF9C6F381263046B7
:1088380057EC106B01F05AFC9FED170B41EC110B34
:108848000DF03EF9304653EC102B394601F0E2FDAD
:1088580001F0AEFFB4F9023007EE903A06EE900A46
:10886800B4F90030F8EEE77A07EE103AD8EE267A37
:10887800B8EEC77AC7EE877A17EE900A01F048FC7F
:1088880007A3D3E9002301F0E5FA01F091FFBDEC5D
:10889800028B00EE100AD0BD00000000000000406E
:1088A8006666666666660A40000080472DE9F843FA
:1088B80005460C46FFF79CFFB5F8C03194ED046AF5
:1088C80007EE903A1A04B8EE677AB5F8803144BFDB
:1088D800DFED2D7A37EE677A07EE903A1B0448BF32
:1088E800DFED296AF8EE677A10EE109A48BF77EE46
:1088F800E67ADFED266AE6EE077A87EE276A66EE05
:10890800267A17EE900A01F003FC064660680F46C7
:1089180001F0FEFB024648469046894601F0F8FB06
:1089280017A3D3E9002301F093FA02460B46404609
:10893800494601F045FC164B002201F08BFA02462D
:108948000B463046394601F065FD0646A0890F46BC
:1089580001F0CCFB02460B463046394601F078FA66
:1089680001F026FF94ED027A06EE900A86EE870A59
:10897800F3EE097A30EE270ABDE8F883AFF30080FA
:108988006666666666660A400000804700008048A2
:108998000000F03F2DE9F04F2DED108B8DB00C4607
:1089A80010EE907A83461546B0F8E2619FEDAEDA94
:1089B800B0EE40AAFFF71CFF5846214610EE108A79
:1089C800FFF774FF10EE100AF0EE409A01F0A0FBDA
:1089D8009DA3D3E9002301F03DFA01F0E9FE08EE7A
:1089E800100A384601F094FB97A3D3E9002301F05D
:1089F80031FA01F0DDFE08EE900A68EEA88A28EE4A
:108A0800088A68EEA88A94F89E05B0EE687AA8EEFF
:108A1800487A06EB4606B7EE008AC7EE0A7A78EE81
:108A2800E78A01F053FB9FED8A0B41EC110B0DF027
:108A380047F851EC100B01F0BBFE0BEE100A94F84E
:108A48005F0601F043FB9FED820B41EC110B0DF02B
:108A580037F851EC100B01F0ABFE0BEE900A94F8CE
:108A6800DC0101F033FB9FED7A0B41EC110B0DF0AB
:108A780027F851EC100B01F09BFED4ED0B3A94ED66
:108A88000C6AB4F95230B4F95420D4ED0D4A94ED7F
:108A98000E5AD4ED0F5AF7EE007AB3EE047AF0EEE0
:108AA800676AB0EE674AA3EE874A07464046E6EE95
:108AB800076A07EE103AB8EEC77AD31AB0EE67EA3B
:108AC800A4EE87EA07EE103AB4F9563094ED106A2E
:108AD800B8EEC77A9A1AF0EE67EAE5EE07EA07EE0B
:108AE800102AB4F95820B8EEC77AD31AB0EE67FA4C
:108AF800A5EE87FA07EE103AB4F95A30B8EEC77AFD
:108B08009B1AF0EE67FAE6EE07FA07EE103AC7EEA0
:108B1800A6DABBF894311904D4ED116AB8EEC77A15
:108B28006EEE2EEAE6EE877A6EEE8F5ACDEE84CAA6
:108B380025EEAF6ACDED095A66EE277A8DED0A6A01
:108B4800CDED0B7A07EE903AB4F91430B8EE677AA7
:108B580044BFDFED457A37EE677A07EE903AF8EED4
:108B6800E77ABBF8903187EE87CA1A0407EE903A85
:108B7800B8EE679A44BFDFED3C7A39EE679AF3EEB8
:108B8800097A79EEE79AD4ED087AABF10203A7EEF9
:108B9800A98ACDE9013501F0BBFA04F15A03009323
:108BA80004F5ED7308932CA3D3E9002301F050F9E1
:108BB80069EE0C7A41EC1F0BCDE9040117EE900A1F
:108BC80001F0A6FAB4F9643607EE903AF8EEE77ABF
:108BD800824667EE887A8B4617EE900A01F098FA7B
:108BE8008046E069894601F093FA53EC1F2B01F0A7
:108BF800E7FA1E4B002201F02DF902460B464046CB
:108C0800494601F0DDFA02460B465046594601F046
:108C18001FF901F0CDFD0AEE900A384601F078FA06
:108C28000FA3D3E9002301F0CBFA04EBC61303F535
:108C3800EE73CDE906010FF2100BDBE900AB04F28D
:108C4800DD45039350E000BF6666666666127140B4
:108C580000000000000000406666666666660A401E
:108C68008DEDB5A0F7C6B03E000080470000F03F8C
:108C7800B4F94C3006EE903A6FEEACFAF8EEE66ACC
:108C8800002304EB830337EE667A93ED0B6AF7EE65
:108C9800006AE6EE076A66EEAF7A88EE270A70EE9B
:108CA800287AF5EE407AF1EE10FA00F18181B1EE02
:108CB800E70AB5EE400AF1EE10FA00F17481F1EE20
:108CC800C07A17EE900A01F023FA52465B4601F08B
:108CD800BFF801F06DFD029B009A43F8040B029364
:108CE800089B934200F04F81019A013532F8023F08
:108CF800019207EE903A1B0495F90030B8EE677AB6
:108D080007EE903AF8EEE77A95F9C13087EE8B6A6C
:108D180048BF37EE4D7A07EE903A27EE0C7AF8EE18
:108D2800E77AB7EE009A17EE100A87EEAB8AB0EE34
:108D380049FAA9EE86FA01F0EBF9039B33F9022F01
:108D4800039307EE902AF8EEE77A064667EE8F7AE5
:108D58000F4617EE900A01F0DBF9804618EE100A6C
:108D6800894601F0D5F9DDE9042301F029FA954B8C
:108D7800002201F06FF802460B464046494601F0D2
:108D88001FFA02460B463046394601F061F801F0F9
:108D98000FFD94ED067A009B07EE900AE7EE6A7ADB
:108DA80033F8020F009387EE8A8A01F09FF9024692
:108DB8000B46DDE9060101F02DFB01F0F9FCD4EDCD
:108DC8000A7AA9EEA79A07EE900A69EE27FAB0EE9A
:108DD800480AA8EEAF0A2FEEAF7A27EE2F7A27EED1
:108DE800007AB5EE407AF1EE10FA00F1D780B1EED4
:108DF800C70AB5EE400AF1EE10FA00F1DE80B1EED6
:108E0800C0FA18EE100A01F083F994ED0D9A06469F
:108E180019EE100A0F4601F07BF952465B4601F045
:108E2800CFF902460B460020664901F011F880464A
:108E38001FEE900A894601F06BF902460B46404640
:108E4800494601F0BDF969EE0F7A804617EE900A9F
:108E5800894601F05DF902460B464046494600F056
:108E6800F9FF02460B463046394601F0D3FA06466A
:108E780018EE900A0F4601F04BF902460B463046B1
:108E8800394600F0E7FF41EC100B0CF091FE0CF0B6
:108E98008FFE5B4651EC100B524600F0D9FF01F0F3
:108EA80087FCB4F94E3006EE103A07EE100AB8EE19
:108EB800C66AB4EEC76AF1EE10FA3FF7D9AEB4F954
:108EC800503006EE903AF8EEE66AF4EEC76AF1EE34
:108ED80010FA05DD6FEEADFAF0EE466A0123D0E632
:108EE800B4F9523006EE103AB8EEC66AB4EEC76A64
:108EF800F1EE10FA10DCB4F9543006EE903AF8EEC0
:108F0800E66AF4EEC76AF1EE10FA07DD6FEE8EFA44
:108F1800F0EE466A0323B4E60223B2E6B4F956300B
:108F280006EE103AB8EEC66AB4EEC76AF1EE10FA69
:108F380003DD6FEEAEFA0423A3E6B4F9583005EE6C
:108F4800903AF8EEE55AF4EEC75AF1EE10FA07DD5A
:108F5800DDED097AF0EE466A6FEEA7FA052390E692
:108F6800B4F95A3006EE903AF8EEE66AF4EEC76ABB
:108F7800F1EE10FA0CDDDDED0A7AF0EE656A6FEEBF
:108F8800A7FA06237DE60DB0BDEC108BBDE8F08F87
:108F9800DDED0B7A07236FEEA7FA72E6B0EE470A0B
:108FA8000CF03AFE25E70CF037FE10EE100A8AE6C0
:108FB800B0EE670A0CF030FE7BE60CF02DFEB0EE4A
:108FC80040FA1EE70000F03F2DE9F04F2DED0E8B23
:108FD80085B08B4615460446B0F8E2619FED90BA1D
:108FE800FFF706FC2046594610EE107AFFF75EFCA4
:108FF8009BF89E05B0EE408A01F068F89FED840B5F
:1090080041EC110B0CF05CFD51EC100B01F0D0FBA6
:1090180009EE100A9BF85F0601F058F89FED7C0BEB
:1090280041EC110B0CF04CFD51EC100B01F0C0FBA6
:10903800B4F89431029507EE903A1904B8EE677ABD
:10904800BBF9143044BFDFED767A37EE677A07EE66
:10905800903AF8EEE77AB4F8903187EE87AA1A04C6
:1090680006EB46060BEBC61A0BF15A050AF5EE7A23
:1090780007EE903AF8EE678A44BFDFED697A78EE3A
:10908800E78AF3EE097A38EE678AF7EE00AADBED95
:10909800087A09EE900AF0EE6ABA3846E7EE88BA1E
:1090A80001F036F80BF5ED730BF5CC6201930392E2
:1090B80059A3D3E9002300F0CBFE68EE8A7A41EC8D
:1090C8001C0B41EC1E0B17EE900A01F021F841EC45
:1090D8001D0BBBF9641607EE901AF8EEE77AA71E87
:1090E80067EEAB7A0BF2DD4417EE900A01F010F848
:1090F8008046DBF81C00894601F00AF853EC1C2B6B
:1091080001F05EF8474B002200F0A4FE02460B4631
:109118004046494601F054F802460B4651EC1D0BF7
:1091280000F096FE01F044FBDDE9018608EE900AA6
:10913800DDF80C9037F8023F013407EE903A1B0433
:1091480094F9003007EE103AB8EEC77A94F9C130B6
:1091580087EE096AF8EE676A07EE903A48BF76EE3E
:10916800CB6AF8EEE77AB0EE6ACAC7EEA9BA66EE3D
:109178008A7AA8EE06CA17EE900A00F0C9FF3AF9F3
:10918800023F07EE903AF8EEE77A41EC1D0B67EEE6
:109198008C7A17EE900A00F0BBFF02460B461BEED6
:1091A800900A43EC1C2B00F0B3FF53EC1E2B01F08C
:1091B80007F81C4B002200F04DFE02460B4651EC0E
:1091C8001C0B00F0FDFF0B46024651EC1D0B00F096
:1091D8003FFE01F0EDFA35F8023FDBED066A99ED46
:1091E800006A07EE103A07EE900AB8EEC77AE6EE84
:1091F800E87AA845A6EEC67A67EE877AE6EC017AA1
:1092080098D105B0BDEC0E8BBDE8F08FAFF30080B0
:1092180000000000000000406666666666660A4058
:10922800000080470000F03FB0F8E201704700BF3F
:10923800BF282CD810F00F0307D1013080B201EB02
:1092480080010B6841F8043C7047012B20D00E2B9D
:109258001ED00F2B33D0013001EB8001D1ED006A15
:10926800D1ED017A11ED026A11ED037A76EEE77A13
:1092780036EE477AB0EEE75AF0EEC75AB4EEE55A42
:10928800F1EE10FA16DC76EEA77A41ED017A704716
:1092980000F18040013801EB8001D1ED027AD1ED77
:1092A800006A77EEA67AB6EE007A67EE877AC1EDA5
:1092B800017A704736EE077A01ED017A704700F1BE
:1092C8008040013801EB80010B684B60704700BF9C
:1092D800B0F94E20B0F84E30B0F94CC0B2F5806FFE
:1092E800A8BFA3F50063B0F84C20A8BF9BB2BCF59B
:1092F800806FA8BFA2F500624FEA4313A8BF92B2DD
:109308001BB252010B804A80704700BFB0F856303C
:10931800B0F8502007EE903AB3F5806FF8EE677A10
:1093280028BF9FED167AB0F8543028BF77EEC77A79
:109338009FED137A27EE877A07EE903AB3F5806FA0
:10934800F8EE677AB0F8583024BFDFED0C6A77EE94
:10935800E67A06EE903AB4EE006AB0F8523081ED43
:10936800017AFAEEEC6A67EE867A03EB4213C1EDF6
:10937800027A8B81C1ED046A704700BF0000004586
:1093880000008039B0F84820B0F84A3003EB4213A7
:109398008B827047B0F866309FED0B7AC3F30803F1
:1093A80007EE903AF8EEE77AF4EEC77AF1EE10FAA3
:1093B800C4BF9FED067A77EEC77A9FED057A67EE10
:1093C800877AC1ED067A704700007F4300000044A9
:1093D8000000803CB0F8463007EE903AB3F5806F55
:1093E800F8EE677A24BF9FED067A77EEC77A9FED8D
:1093F800057A67EE877A01F5CD61C1ED007A70478D
:10940800000000450000003BB0F86630C3F341237C
:1094180081F82430704700BFB0F8443007EE903A26
:10942800B3F5806FF8EE677A24BF9FED057A77EE83
:10943800C77A9FED047A67EE877AC1ED0A7A70479A
:10944800000000450000003810B43D4C9FED3D6A17
:10945800DFED3D5A4FF4A002C1E913427823A1F889
:109468005430B0F87430A1F85630B0F87830A1F81C
:109478005830B0F87C30A1F85A30B0F86A30B0F8FB
:10948800682007EE903AB0F86C3002EE903AB0F8E7
:109498006E3003EE103AB0F8703003EE903AB0F840
:1094A800723004EE103AB0F8763004EE903AB0F824
:1094B8007A3005EE103AB0F87E3007EE103A012304
:1094C800934006EE903AF8EE677AF8EE622AB8EE24
:1094D800433AF8EE633AB8EE444AF8EE644AB8EE16
:1094E800455AB8EE477AC1ED0B7AC1ED0C2A81EDE9
:1094F8000D3AC1ED0E3A81ED0F4AC1ED104A81EDEA
:10950800115A81ED127A01F12C0301F13002F8EEC3
:10951800E66A4C3101E0F2EC017AF4EEC67AF1EE3B
:1095280010FAC8BF77EEE57A87EEA67AC8BFC3ED12
:10953800007AA3EC017A8B42EDD15DF8044B7047B9
:10954800D8FFECFF00C07F44000000452DE9F04F34
:109558002DED048B438E9FED7C9AADF54D7D5D0915
:1095680003F01F031433ADF80E30838E01915A09AE
:10957800804603F01F031433ADF8123038F8363F35
:109588001432ADF810205A0903F01F0314350DF1F9
:10959800180B143214339FED668B8246ADF81420F5
:1095A800ADF8163003AF5E46A94601E037F8029FD2
:1095B80038F8020F00F09AFD044648460D4600F0C0
:1095C80085FDB0EE480AF0EE680A41EC110B0CF08C
:1095D80077FA204653EC102B294600F01BFF01F0C8
:1095E800E7F807EE900AC7EE897A0CABE6EC017A49
:1095F8009E42DBD1019A02F5CC63D2ED067AD3ED17
:10960800008A4DA7D7E9006768EEE78A0AF23E2884
:109618000DF130090AF2BE3ABBEC018AA8F1400408
:109628004D4634F8023F07EE903AF8EEE77AB0EE8E
:10963800687AA7EE887A17EE100A00F069FD0246EC
:109648000B463046394600F0E5FE01F0B1F84445D6
:1096580045F8040BE5D104F14008C24509F1800939
:10966800DAD1DDF830A00DAC07EE90AA0DF54C78F4
:109678002346B3EC017AB4EE677AF1EE10FAC8BF6C
:10968800F0EE477A9845F4D19FED307AF4EEC77A38
:10969800F1EE10FA45D54FF0000977EEA77A09F1F7
:1096A8000109F4EEC77AF1EE10FA5FFA89F9F4D4F9
:1096B800484600F00BFD41EC180B019B244F9FED31
:1096C8001C9B03F15A05002601E054F804ABB0EEE8
:1096D800481AF0EE681AB0EE490AF0EE690A0CF082
:1096E800EFF950465BEC10AB00F012FD52465B46BA
:1096F80000F066FD01F05CF800F00AFD32463B46DA
:1097080000F0A8FB01F034F8A04525F8020FDCD1E1
:10971800019B83F8DC910DF54D7DBDEC048BBDE814
:10972800F08F9FED078B4FF00009C6E7AFF300807D
:1097380000000000000000408DEDB5A0F7C6B03E67
:10974800000000000000000000E0FF4400000047A7
:109758000000E03F038C428C10B5B0F824E05B09B0
:109768004FF0010C0EEB421E0CFA03FC1FFA8EFEA2
:109778001FFA8CFC00F17E0201F5EE7100F5FF7412
:1097880032F8023F18B2B0F5806FA4BFA3F50063AA
:109798009BB21CFB03E321F8023FB2F98004B2F844
:1097A8008034B0F5806FA4BFA3F500639BB21CFBA7
:1097B80003E3A242A1F88031E2D110BD2DE9F04FB8
:1097C800B0F92A30428DB0F82C902DED068BB3F508
:1097D800806FA4BFA2F500631BB2ADF5437D07EE11
:1097E800903A00F27E3809F01F00B8EEE7AA01911E
:1097F80000F06CFC9FED608B41EC190BC9F3471925
:1098080002ADC2AC38F8023FB0EE491AF0EE691A60
:10981800B3F5806F4FEA531628BF403EB0EE480AB2
:10982800F0EE680A28BFB6B20CF04AF948465BEC7D
:1098380010AB00F04BFCB0EE480AF0EE680A41ECC1
:10984800110B0CF03DF930B257EC106B00F04EFCE8
:1098580052465B4600F0B4FC00F0AAFF07EE900AFF
:1098680077EE8A7A17EE900A00F052FC32463B46B1
:1098780000F0D0FD00F09CFF45F8040BA542C1D1D3
:10988800DDF808B007EE90BA03ADB0EEE77A2B46E4
:10989800F3EC017AF0EEE77AF4EE477AF1EE10FA9B
:1098A800C8BFB0EE677AA342F2D1DFED377AB4EEE3
:1098B800E77AF1EE10FA5AD54FF0000937EE077A39
:1098C80009F10109B4EEE77AF1EE10FA5FFA89F9C5
:1098D800F4D4484600F0FAFB41EC180B019B2B4FDF
:1098E8009FED259B03F2DD4800260EE000F010FCFA
:1098F80032463B4600F0AEFA00F012FFA54240B2F5
:1099080008F8010F2AD055F804BBB0EE481AF0EE5B
:10991800681AB0EE490AF0EE690A0CF0D1F8584618
:109928005BEC10AB00F0F4FB52465B4600F048FCE1
:1099380000F03EFF07EE900AF5EEC07AF1EE10FA5D
:10994800D4D500F0E5FB32463B4600F081FA00F042
:10995800E7FEA54240B208F8010FD4D1019B83F875
:109968009E950DF5437DBDEC068BBDE8F08F9FED10
:10997800048B4FF00009B1E7000000000000004030
:109988000000000000000000000080420000E03FEE
:109998002DE9F04FB0F92E30C28DB0F830902DED92
:1099A800068BB3F5806FA4BFA2F500631BB2ADF5BB
:1099B800437D07EE903A00F27E3809F01F00B8EEBA
:1099C800E7AA019100F082FB9FED5F8B41EC190B38
:1099D800C9F3471902ADC2AC38F9023FB0EE491AD3
:1099E800F0EE691A03F01F06B0EE480AF0EE680AB6
:1099F800DB0648BF203E0CF063F848465BEC10AB32
:109A080000F064FBB0EE480AF0EE680A41EC110B76
:109A18000CF056F8304657EC106B00F067FB5246D6
:109A28005B4600F0CDFB00F0C3FE07EE900A77EE30
:109A38008A7A17EE900A00F06BFB32463B4600F03C
:109A4800E9FC00F0B5FE45F8040BA542C4D1DDF8E9
:109A580008B007EE90BA03ADB0EEE77A2B46F3EC08
:109A6800017AF0EEE77AF4EE477AF1EE10FAC8BF21
:109A7800B0EE677AA342F2D1DFED377AB4EEE77A37
:109A8800F1EE10FA5AD54FF0000937EE077A09F1CE
:109A98000109B4EEE77AF1EE10FA5FFA89F9F4D425
:109AA800484600F013FB41EC180B019B2B4F9FED30
:109AB800269B03F29E5800260EE000F029FB324652
:109AC8003B4600F0C7F900F02BFEA54240B208F86B
:109AD800010F2AD055F804BBB0EE481AF0EE681A08
:109AE800B0EE490AF0EE690A0BF0EAFF58465BEC63
:109AF80010AB00F00DFB52465B4600F061FB00F036
:109B080057FE07EE900AF5EEC07AF1EE10FAD4D5BA
:109B180000F0FEFA32463B4600F09AF900F000FEEB
:109B2800A54240B208F8010FD4D1019B83F85F9693
:109B38000DF5437DBDEC068BBDE8F08F9FED048BE2
:109B48004FF00009B1E700BF00000000000000402E
:109B58000000000000000000000080420000E03F1C
:109B68002DE9F843B0F85A30B0F85E20B0F86060DC
:109B780007EE903AB3F5806F2DED028BB8EE678A49
:109B880028BFDFED437A044690F85C0028BF38EE22
:109B9800678A06EB42160D4600F098FA9FED3A0BDD
:109BA80041EC110B0BF08CFF59EC108B18EE100ADE
:109BB80000F0AEFA42464B4600F02CFC00F0F8FDEF
:109BC800B4F8623003F03F0208EE102AB8EEC88AF3
:109BD800F3EE0F7AB4EEE78AF1EE10FAC8BFDFEDC4
:109BE8002D7A0746C3F38710C8BF38EE678A00F09E
:109BF8006DFA9FED250B41EC110B0BF061FF59EC51
:109C0800108B18EE100A00F083FA42464B4600F01B
:109C180001FC00F0CDFDB4F86430286203F03F0287
:109C280008EE102AB8EEC88AF3EE0F7AB4EEE78A87
:109C3800F1EE10FAC8BFDFED177AC3F38710C8BF7B
:109C480038EE678A00F042FA9FED0F0B41EC110BDA
:109C58000BF036FF59EC108B18EE100A00F058FA8A
:109C68004B46424600F0D6FB00F0A2FDBDEC028B4D
:109C780005F5CC6336B2E8611F60A5F86466BDE8F7
:109C8800F88300BFAFF30080000000000000004030
:109C9800000000450000804200F5CD6090ED000A0C
:109CA800704700BF4FF6FF7310B50024A1F86C365B
:109CB8007E30234630F8022F03F1010EBAB9B0F80E
:109CC80080215AB9B0F8002342B9B0F8802404F1D1
:109CD800010C1AB9A1F86C361FFA8CF41FFA8EF32E
:109CE800C02B08D0022CE5D16FF0020010BD1FFA7E
:109CF8008EF3C02BDED1022C0CBF6FF002000020C7
:109D080010BD00BF38B5838A5B0640F18680B0F984
:109D18004E20B0F84E300D46B2F5806FB0F94C10B9
:109D2800B0F84C20A4BFA3F500639BB2B1F5806FD7
:109D3800A4BFA2F5006292B25B011BB25201294690
:109D48002B806A80FFF7E2FAB0F84820B0F84A3072
:109D58009FED337A03EB4213AB82B0F86630C3F35E
:109D6800080207EE902AF8EEE77AB0F84620F4EEFB
:109D7800C77AF1EE10FAC4BF9FED2A7A77EEC77A58
:109D88009FED297A67EE877A07EE102AB2F5806F81
:109D9800C5ED067AB8EE477A24BFDFED247A37EEB0
:109DA800677ADFED237A27EE277A05F5CD62C3F3CC
:109DB800412382ED007A85F82430B0F8443007EE6C
:109DC800903AB3F5806F28BF9FED187AF8EE677A5E
:109DD800044628BF77EEC77A9FED167A67EE877A32
:109DE800C5ED0A7AFFF730FB2946FFF7B9FE294689
:109DF8002046FFF7ABFB29462046FFF7ABFC294678
:109E08002046FFF7DBFC29462046FFF7C1FD29461F
:109E18002046BDE83840FFF745BF6FF0060038BD63
:109E280000007F43000000440000803C0000004523
:109E38000000003B00000038838A13F0400F0CBF7D
:109E48006FF006000020704781F0004102E000BF7B
:109E580083F0004330B54FEA41044FEA430594EAE2
:109E6800050F08BF90EA020F1FBF54EA000C55EA1D
:109E7800020C7FEA645C7FEA655C00F0E2804FEAEE
:109E88005454D4EB5555B8BF6D420CDD2C4480EAD0
:109E9800020281EA030382EA000083EA010180EA00
:109EA800020281EA0303362D88BF30BD11F0004F4E
:109EB8004FEA01314FF4801C4CEA113102D0404284
:109EC80061EB410113F0004F4FEA03334CEA1333BF
:109ED80002D0524263EB430394EA050F00F0A780D7
:109EE800A4F10104D5F1200E0DDB02FA0EFC22FAD2
:109EF80005F2801841F1000103FA0EF2801843FAC6
:109F080005F359410EE0A5F120050EF1200E012AB6
:109F180003FA0EFC28BF4CF0020C43FA05F3C018F4
:109F280051EBE37101F0004507D54FF0000EDCF16D
:109F3800000C7EEB00006EEB0101B1F5801F1BD316
:109F4800B1F5001F0CD349085FEA30004FEA3C0C1A
:109F580004F101044FEA445212F5800F80F09A8010
:109F6800BCF1004F08BF5FEA500C50F1000041EB14
:109F7800045141EA050130BD5FEA4C0C404141EB18
:109F88000101013C28BFB1F5801FE9D291F0000F13
:109F980004BF01460020B1FA81F308BF2033A3F1C2
:109FA8000B03B3F120020CDA0C3208DD02F1140CB9
:109FB800C2F10C0201FA0CF021FA02F10CE002F1F4
:109FC8001402D8BFC2F1200C01FA02F120FA0CFCED
:109FD800DCBF41EA0C019040E41AA2BF01EB045136
:109FE800294330BD6FEA04041F3C1CDA0C340EDC34
:109FF80004F11404C4F1200220FA04F001FA02F377
:10A0080040EA030021FA04F345EA030130BDC4F134
:10A018000C04C4F1200220FA02F001FA04F340EA29
:10A028000300294630BD21FA04F0294630BD94F0DA
:10A03800000F83F4801306BF81F480110134013DC1
:10A048004EE77FEA645C18BF7FEA655C29D094EA32
:10A05800050F08BF90EA020F05D054EA000C04BFB0
:10A068001946104630BD91EA030F1EBF002100209B
:10A0780030BD5FEA545C05D14000494128BF41F03A
:10A08800004130BD14F580043CBF01F5801130BD9E
:10A0980001F0004545F0FE4141F470014FF0000029
:10A0A80030BD7FEA645C1ABF194610467FEA655CDA
:10A0B8001CBF0B46024650EA013406BF52EA03357C
:10A0C80091EA030F41F4002130BD00BF90F0000F6A
:10A0D80004BF0021704730B54FF4806404F13204A6
:10A0E8004FF000054FF0000150E700BF90F0000F5F
:10A0F80004BF0021704730B54FF4806404F1320486
:10A1080010F0004548BF40424FF000013EE700BF55
:10A1180042004FEAE2014FEA31014FEA02701FBFE5
:10A1280012F07F4393F07F4F81F06051704732F017
:10A138007F4208BF704793F07F4F04BF41F400216E
:10A14800704730B54FF4607401F0004521F00041CC
:10A158001CE700BF50EA010208BF704730B54FF056
:10A1680000050AE050EA010208BF704730B511F057
:10A17800004502D5404261EB41014FF4806404F18F
:10A1880032045FEA915C3FF4D8AE4FF003025FEA15
:10A19800DC0C18BF03325FEADC0C18BF033202EB99
:10A1A800DC02C2F1200300FA03FC20FA02F001FAF3
:10A1B80003FE40EA0E0021FA02F11444BDE600BF96
:10A1C80070B54FF0FF0C4CF4E06C1CEA11541DBF45
:10A1D8001CEA135594EA0C0F95EA0C0F00F0DEF810
:10A1E8002C4481EA030621EA4C5123EA4C5350EAF5
:10A1F800013518BF52EA033541F4801143F4801346
:10A2080038D0A0FB02CE4FF00005E1FB02E506F0D6
:10A218000042E0FB03E54FF00006E1FB03569CF02B
:10A22800000F18BF4EF0010EA4F1FF04B6F5007F31
:10A2380064F5407404D25FEA4E0E6D4146EB0606A3
:10A2480042EAC62141EA55514FEAC52040EA5E502C
:10A258004FEACE2EB4F1FD0C88BFBCF5E06F1ED8D6
:10A26800BEF1004F08BF5FEA500E50F1000041EB0D
:10A27800045170BD06F0004646EA010140EA0200BA
:10A2880081EA0301B4EB5C04C2BFD4EB0C0541EADC
:10A29800045170BD41F480114FF0000E013C00F3F1
:10A2A800AB8014F1360FDEBF002001F0004170BD15
:10A2B800C4F10004203C35DA0C341BDC04F114042E
:10A2C800C4F1200500FA05F320FA04F001FA05F2BA
:10A2D80040EA020001F0004221F0004110EBD37087
:10A2E80021FA04F642EB06015EEA430E08BF20EAB3
:10A2F800D37070BDC4F10C04C4F1200500FA04F356
:10A3080020FA05F001FA04F240EA020001F00041E7
:10A3180010EBD37041F100015EEA430E08BF20EA5A
:10A32800D37070BDC4F1200500FA05F24EEA020EA2
:10A3380020FA04F301FA05F243EA020321FA04F0D1
:10A3480001F0004121FA04F220EA020000EBD37088
:10A358005EEA430E08BF20EAD37070BD94F0000F88
:10A368000FD101F00046400041EB010111F4801FBC
:10A3780008BF013CF7D041EA060195F0000F18BF6D
:10A38800704703F00046520043EB030313F4801FA9
:10A3980008BF013DF7D043EA0603704794EA0C0F63
:10A3A8000CEA135518BF95EA0C0F0CD050EA410679
:10A3B80018BF52EA4306D1D181EA030101F00041F6
:10A3C8004FF0000070BD50EA410606BF104619461E
:10A3D80052EA430619D094EA0C0F02D150EA01362A
:10A3E80013D195EA0C0F05D152EA03361CBF10466B
:10A3F80019460AD181EA030101F0004141F0FE410A
:10A4080041F470014FF0000070BD41F0FE4141F48D
:10A41800780170BD70B54FF0FF0C4CF4E06C1CEA8D
:10A4280011541DBF1CEA135594EA0C0F95EA0C0F42
:10A4380000F0A7F8A4EB050481EA030E52EA0335FD
:10A448004FEA013100F088804FEA03334FF080551E
:10A4580045EA131343EA12634FEA022245EA11154B
:10A4680045EA10654FEA00260EF000419D4208BFFC
:10A47800964244F1FD0404F5407402D25B084FEAA9
:10A488003202B61A65EB03055B084FEA32024FF455
:10A4980080104FF4002CB6EB020E75EB030E22BFB2
:10A4A800B61A754640EA0C005B084FEA3202B6EB72
:10A4B800020E75EB030E22BFB61A754640EA5C0021
:10A4C8005B084FEA3202B6EB020E75EB030E22BFB1
:10A4D800B61A754640EA9C005B084FEA3202B6EBB2
:10A4E800020E75EB030E22BFB61A754640EADC0071
:10A4F80055EA060E18D04FEA051545EA16754FEAD3
:10A5080006164FEAC30343EA52734FEAC2025FEAF0
:10A518001C1CC0D111F4801F0BD141EA00014FF07F
:10A5280000004FF0004CB6E711F4801F04BF014350
:10A538000020B4F1FD0C88BFBCF5E06F3FF6AFAE6C
:10A54800B5EB030C04BFB6EB020C5FEA500C50F1FC
:10A55800000041EB045170BD0EF0004E4EEA11317F
:10A5680014EB5C04C2BFD4EB0C0541EA045170BD86
:10A5780041F480114FF0000E013C90E645EA060ECA
:10A588008DE60CEA135594EA0C0F08BF95EA0C0FF8
:10A598003FF43BAF94EA0C0F0AD150EA01347FF440
:10A5A80034AF95EA0C0F7FF425AF104619462CE717
:10A5B80095EA0C0F06D152EA03353FF4FDAE10467A
:10A5C800194622E750EA410618BF52EA43067FF4CB
:10A5D800C5AE50EA41047FF40DAF52EA43057FF45B
:10A5E800EBAE12E74FF0FF3C06E000BF4FF0010C66
:10A5F80002E000BF4FF0010C4DF804CD4FEA410CCA
:10A608007FEA6C5C4FEA430C18BF7FEA6C5C1BD096
:10A6180001B050EA410C0CBF52EA430C91EA030F17
:10A6280002BF90EA020F0020704710F1000F91EA74
:10A63800030F58BF994208BF90422CBFD8176FEA42
:10A64800E37040F0010070474FEA410C7FEA6C5C10
:10A6580002D150EA013C07D14FEA430C7FEA6C5C17
:10A66800D6D152EA033CD3D05DF8040B704700BF43
:10A678008446104662468C461946634600E000BF91
:10A6880001B5FFF7B7FF002848BF10F1000F01BD63
:10A698004DF808EDFFF7F4FF0CBF012000205DF82E
:10A6A80008FB00BF4DF808EDFFF7EAFF34BF0120B3
:10A6B80000205DF808FB00BF4DF808EDFFF7E0FF4C
:10A6C80094BF012000205DF808FB00BF4DF808ED9D
:10A6D800FFF7CEFF94BF012000205DF808FB00BF04
:10A6E8004DF808EDFFF7C4FF34BF012000205DF8E6
:10A6F80008FB00BF4FEA410C7FEA6C5C02D150EACC
:10A70800013C0AD14FEA430C7FEA6C5C02D152EA61
:10A71800033C02D14FF0000070474FF00100704732
:10A728004FEA410212F5001215D211D56FF4787371
:10A73800B3EB625212D94FEAC12343F0004343EA14
:10A74800505311F0004F23FA02F018BF40427047EF
:10A758004FF00000704750EA013005D111F0004079
:10A7680008BF6FF0004070474FF00000704700BF0F
:10A778004A0011D212F5001211D20DD56FF4787378
:10A78800B3EB62520ED44FEAC12343F0004343EACD
:10A79800505323FA02F070474FF00000704750EA18
:10A7A800013002D14FF0FF3070474FF00000704782
:10A7B8004FEA4102B2F1E04324BFB3F5001CDCF1DB
:10A7C800FE5C0DD901F0004C4FEAC0024CEA507013
:10A7D800B2F1004F40EB830008BF20F00100704742
:10A7E80011F0804F21D113F13872BCBF01F0004045
:10A7F800704741F480114FEA5252C2F11802C2F177
:10A80800200C10FA0CF320FA02F018BF40F00100F7
:10A818004FEAC1234FEAD32303FA0CFC40EA0C00A9
:10A8280023FA02F34FEA4303CCE77FEA625307D1E6
:10A8380050EA01331EBF4FF0FE4040F4400070471D
:10A8480001F0004040F0FE4040F40000704700BFB7
:10A8580053B94AB9002908BF00281CBF4FF0FF317F
:10A868004FF0FF3000F074B9ADF1080C6DE904CE7B
:10A8780000F006F8DDF804E0DDE9022304B07047D3
:10A888002DE9F047089D04468E46002B4DD18A429B
:10A89800944669D9B2FA82F252B101FA02F3C2F1CE
:10A8A800200120FA01F10CFA02FC41EA030E94405F
:10A8B8004FEA1C48210CBEFBF8F61FFA8CF708FB80
:10A8C80016E341EA034306FB07F199420AD91CEB58
:10A8D800030306F1FF3080F01F81994240F21C818A
:10A8E800023E63445B1AA4B2B3FBF8F008FB1033D2
:10A8F80044EA034400FB07F7A7420AD91CEB040407
:10A9080000F1FF3380F00A81A74240F207816444D6
:10A91800023840EA0640E41B00261DB1D44000235B
:10A92800C5E900433146BDE8F0878B4209D9002DBF
:10A9380000F0EF800026C5E9000130463146BDE849
:10A94800F087B3FA83F6002E4AD18B4202D38242B3
:10A9580000F2F980841A61EB030301209E46002D62
:10A96800E0D0C5E9004EDDE702B9FFDEB2FA82F2B7
:10A97800002A40F09280A1EB0C014FEA1C471FFA15
:10A988008CFE0126200CB1FBF7F307FB131140EAFC
:10A9980001410EFB03F0884208D91CEB010103F1C9
:10A9A800FF3802D2884200F2CB804346091AA4B28B
:10A9B800B1FBF7F007FB101144EA01440EFB00FE5F
:10A9C800A64508D91CEB040400F1FF3102D2A645C4
:10A9D80000F2BB800846A4EB0E0440EA03409CE763
:10A9E800C6F12007B34022FA07FC4CEA030C20FA10
:10A9F80007F401FA06F31C43F9404FEA1C4900FA30
:10AA080006F3B1FBF9F8200C1FFA8CFE09FB1811AC
:10AA180040EA014108FB0EF0884202FA06F20BD91F
:10AA28001CEB010108F1FF3A80F08880884240F26F
:10AA38008580A8F102086144091AA4B2B1FBF9F0B3
:10AA480009FB101144EA014100FB0EFE8E4508D9AE
:10AA58001CEB010100F1FF346CD28E456AD9023833
:10AA6800614440EA0840A0FB0294A1EB0E01A14218
:10AA7800C846A64656D353D05DB1B3EB080261EB86
:10AA88000E0101FA07F722FA06F3F1401F43C5E960
:10AA9800007100263146BDE8F087C2F12003D84096
:10AAA8000CFA02FC21FA03F3914001434FEA1C47D8
:10AAB8001FFA8CFEB3FBF7F007FB10360B0C43EACA
:10AAC800064300FB0EF69E4204FA02F408D91CEB7A
:10AAD800030300F1FF382FD29E422DD90238634478
:10AAE8009B1B89B2B3FBF7F607FB163341EA034118
:10AAF80006FB0EF38B4208D91CEB010106F1FF3867
:10AB080016D28B4214D9023E6144C91A46EA00465D
:10AB180038E72E46284605E70646E3E61846F8E6EF
:10AB28004B45A9D2B9EB020864EB0C0E0138A3E738
:10AB38004646EAE7204694E74046D1E7D0467BE719
:10AB4800023B614432E7304609E76444023842E791
:10AB5800704700BFDFF834D000F026F80C480D49E4
:10AB68000D4A002302E0D458C4500433C4188C4260
:10AB7800F9D30A4A0A4C002301E013600432A242C6
:10AB8800FBD30BF0DDFF01F09FFCFEE700A00020E7
:10AB9800000000207C000020009101087C000020BB
:10ABA800C84E0020FEE70000034AD2F8883043F47C
:10ABB8007003C2F88830704700ED00E00000000024
:10ABC8002DE9F04F2DED088BB0F84030ADF6045D5F
:10ABD800064604468946180B03F00F01C3F3031B0E
:10ABE800C3F30323059336F8423F06931E3004F15E
:10ABF8004E0508AA36F8023F103203F00F0742F854
:10AC0800107CC3F3031742F80C7CB542C3F3032747
:10AC18004FEA133342F8087C42F8043CEAD11FAEED
:10AC280007AB0796049353F8042F072AC4BF103ABA
:10AC38001A609E42F7D104F15E0620AA35F8023F59
:10AC4800103203F00F0742F8107CC3F3031742F8E1
:10AC58000C7CAE42C3F303274FEA133342F8087C57
:10AC680042F8043CEAD11FAB3FAD53F8042F072A42
:10AC7800C4BF103A1A609D42F7D104F17E030393D2
:10AC880001238B4007EE903AF8EEE78AFFF71EFAA9
:10AC98009FED75AB00239FED7CBA029341EC190B35
:10ACA80009F580570DF5807A049A039E52F8043FFF
:10ACB8000492059A03FA02F8069B9844029B40AA5C
:10ACC80002EB830520AC36F8023FB0EE491AF0EEED
:10ACD800691AC3F3051307EE903AB0EE4A0AF0EE8C
:10ACE8006A0A54F8043BF8EEE77A03FA0BF3434494
:10ACF800B3EE0F7AF4EEC77A07EE103AF1EE10FAD7
:10AD0800C8BF77EECB7AB8EEC78AC5ED007AA8EE51
:10AD1800A78A0AF0D5FED7ED956A97ED947AD9ED12
:10AD2800067A37EE267A18EE100A8DED000B27EE1C
:10AD3800C78AFFF7EDF9DDE90023FFF76BFBFFF7A3
:10AD480037FD07EE100AF6EE007AA8EE277A17EE1E
:10AD5800100AFFF7DDF902460B4645A1D1E90001CB
:10AD6800FFF758FBFFF724FDA24545F8040BAAD1CD
:10AD7800039B079A40330393029B20330293049B5F
:10AD8800934291D1DDF8008141AC08EE108A0DF5AF
:10AD980050652346F3EC017AF4EE487AF1EE10FAA6
:10ADA800C8BFB0EE678A9D42F4D118EE100AFFF7CB
:10ADB800AFF931A3D3E90023FFF774FC00284FD083
:10ADC8002DA7D7E900674FF0000A38EE088A0AF184
:10ADD800010A18EE100AFFF79BF932463B465FFA64
:10ADE8008AFAFFF75FFC0028EFD15046FFF76EF9AB
:10ADF80041EC180B9FED1C9B244FCDF8009009F1F6
:10AE0800480B002601E054F8048BB0EE481AF0EE27
:10AE1800681AB0EE490AF0EE690A0AF051FE404697
:10AE280059EC108BFFF774F942464B46FFF7C8F907
:10AE3800FFF7BEFCFFF76CF932463B46FFF70AF80E
:10AE4800FFF796FCA5422BF8020FDCD1DDF8009045
:10AE580089F84AA60DF6045DBDEC088BBDE8F08FB5
:10AE68009FED078B8246C5E7000000000000004008
:10AE78008DEDB5A0F7C6B03E9A999999D9FFDF40F4
:10AE88000000000000000000000080420000E03FD9
:10AE98002DE9F04F2DED088BB0F86E20ADF61C4D66
:10AEA8000746130A8DF81530B7F87030B0F86C0003
:10AEB8008DF8172003F00F02C3F303138DF8160063
:10AEC80003F108000123934007EE903A97F96D20AB
:10AED8008DF814200392B8EEE7BA0291FFF7F6F85E
:10AEE8009FED77AB06AB41EC190B039A01930DF17B
:10AEF8001408F2EE00BABE374FF00009019EA7F120
:10AF0800400509F10104F0EE088A02E018F903206F
:10AF1800013435F8023FB0EE491AF0EE691AC3F36E
:10AF2800420307EE903AB0EE4A0AF0EE6A0AF8EEEB
:10AF3800E77A07EE102AF4EEE87AF1EE10FAC8BFC5
:10AF480077EEEB7AB8EEC78AC6ED007AABEE278AC1
:10AF58000AF0B6FD5BEC10AB18EE100AFFF7D8F854
:10AF680052465B46FFF756FAFFF722FCC4F340123D
:10AF780004F00103AF4246F8040B03EB4203C5D1CA
:10AF8800019B09F120098033B9F5407F07F140079B
:10AF9800019308D009F00102C9F3401302EB4303FF
:10AFA80018F90320AAE7DDF8188007EE908A07ACA5
:10AFB800B0EEE78A0DF618452346F3EC017AF0EE79
:10AFC800E77AF4EE487AF1EE10FAC8BFB0EE678A75
:10AFD8009D42F2D118EE100AFFF79AF83DA3D3E983
:10AFE8000023FFF75FFB002864D03AA7D7E9006782
:10AFF8004FF0000A38EE088A0AF1010A18EE100A22
:10B00800FFF786F832463B465FFA8AFAFFF74AFBB3
:10B018000028EFD15046FFF759F841EC180B029B76
:10B028002B4F9FED279B03F64B4B002640460EE027
:10B03800FFF76EF832463B46FEF70CFFFFF770FB52
:10B04800A54240B20BF8010F2BD054F8040BB0EE18
:10B05800481AF0EE681AB0EE490AF0EE690A019053
:10B068000AF02EFD59EC108B0198FFF751F8424673
:10B078004B46FFF7A5F8FFF79BFB07EE900AF5EEA6
:10B08800C07AF1EE10FAD3D5FFF742F832463B46C4
:10B09800FEF7DEFEFFF744FBA54240B20BF8010FB6
:10B0A800D3D1029B83F84CAF0DF61C4DBDEC088B39
:10B0B800BDE8F08F9FED048B8246B0E7AFF30080C8
:10B0C8000000000000000040000000000000000038
:10B0D8000000E03F3333333333B34F400000000008
:10B0E8002DE9F04F2DED048BB0F86830B0F8700002
:10B0F800ADF61C4D4FEA133BB3F5004FC3F30322E3
:10B1080005AF28BFABF1100B1C0548BF103A8A46A3
:10B11800BA701906C3F3031248BF103A7A7003F0E5
:10B128000F021B0748BF103A4FFA8BFB87F800B095
:10B13800FA70C0F30320FEF7C9FF9FED699B41EC4D
:10B14800180B26AE0DF698494FF00008A6F18005B9
:10B1580008F1010402E017F903B00134B0EE481A0F
:10B16800F0EE681AB0EE490AF0EE690A0AF0A8FC97
:10B1780007EE90BAF8EEE77A8DED000B17EE900A1D
:10B18800FEF7C6FFDDE90023FFF744F9FFF710FBE0
:10B1980045F8040BC4F3401204F00103AE4203EB7C
:10B1A8004203D8D18036B14508F1200808D0C8F349
:10B1B800401308F0010202EB430317F903B0C5E797
:10B1C800DDF8188007EE908A07ACB0EEE78A0DF636
:10B1D80018452346F3EC017AF0EEE77AF4EE487A64
:10B1E800F1EE10FAC8BFB0EE678A9D42F2D118EEB0
:10B1F800100AFEF78DFF3FA3D3E90023FFF752FAA9
:10B208000090002867D03BA7D7E90067002399463C
:10B2180038EE088A09F1010918EE100AFEF778FFDE
:10B2280032463B465FFA89F9FFF73CFA0028EFD12E
:10B238004846CDF80C90FEF749FF41EC180B9FEDFE
:10B24800289B2B4F0AF64C7B002640460EE0FEF763
:10B258005FFF32463B46FEF7FDFDFFF761FAA54268
:10B2680040B20BF8010F2BD054F8040BB0EE481A7B
:10B27800F0EE681AB0EE490AF0EE690A00900AF09A
:10B288001FFC59EC108B0098FEF742FF42464B46D4
:10B29800FEF796FFFFF78CFA07EE900AF5EEC07AF4
:10B2A800F1EE10FAD3D5FEF733FF32463B46FEF7F0
:10B2B800CFFDFFF735FAA54240B20BF8010FD3D105
:10B2C800039B0AF5805A8AF84D320DF61C4DBDECE9
:10B2D800048BBDE8F08F9FED048B0390AFE700BFB0
:10B2E8000000000000000040000000000000000016
:10B2F8000000E03F3333333333B34F400B464FF452
:10B3080050724FF4105104F05FBD00BF10B582B009
:10B318000DF10603012248F20D01044604F054FD24
:10B3280008B102B010BDBDF8062048F20D0142F484
:10B3380000422046ADF8062004F088FD0028F0D130
:10B3480004F02AFD0028ECD10DF10603012248F291
:10B358000D01204604F038FD0028E2D1BDF9063081
:10B36800002BB8BF6FF00800DBE700BF30B505461B
:10B37800A3B00C460DF1060301224FF40041284604
:10B3880004F022FDA0B9BDF806201207F2D530223C
:10B398004FF40041284604F059FD431C08D02346C9
:10B3A8004FF440724FF48061284604F00DFD08B157
:10B3B80023B030BD02AB40224FF4E061284604F0D0
:10B3C80003FD0028F4D101AB2846012248F20D0103
:10B3D80004F0FAFCBDF80650BDF80430A4F8803635
:10B3E80005F00105A4F882560028E1D1BDF808202F
:10B3F80047F6FF70824253D00DF116030DF12C0C65
:10B4080033F8021F81424BD06345F9D1BDF8303083
:10B41800834245D0BDF83230834241D0BDF8343044
:10B4280083423DD00DF136030DF1480C47F6FF700D
:10B4380033F8021F814233D06345F9D10DF1560329
:10B448000DF16C0C47F6FF7033F8021F814227D0CC
:10B458006345F9D1BDF87030834221D0BDF8723010
:10B4680083421DD0BDF87430834219D00DF17603A4
:10B478000DF1860C47F6FF7033F8021F81420FD09A
:10B488009C45F9D104F2FE510DF10A0322A801E00E
:10B4980033F8022B21F8022F8342F9D1B4F88256EF
:10B4A800002347F6FF7001E0182B0DD09901DAB29E
:10B4B800615A814203F10103F6D102F00102AA4266
:10B4C800F2D16FF0070073E7284671E7000000002B
:10B4D8002DE9F04FB0F86630DFEDE56A63F0FF0262
:10B4E800520143F30723A2F500525B012DED028BB5
:10B4F8004A800B80B0F864309A0A07EE902AF8EE7A
:10B50800E77AB3EE0F7AF4EEC77AF1EE10FAC8BF15
:10B518009FEDDF7AC3F30903C8BF77EEC77A07EE5A
:10B52800103AB8EEC78A9FEDD37AB4EEC78A0546BB
:10B53800F1EE10FA008CC8BF9FEDCF7AB5F86260C3
:10B54800BFB000F470400C4667EEA68AC8BF38EE5C
:10B55800478AFEF7CBFDC94B0022FEF731FEC84BE8
:10B568000022FEF777FCFFF723F9A681B5F86030D3
:10B57800A38295F97820B5F8783006EE902AB5F8C8
:10B588007020B4EE007A43F3072328EE078A07EE0B
:10B59800103AC2F3013384F824304FF6D873B5F863
:10B5A8007E202364B5F87E30C4ED018AC3F303130B
:10B5B800C2F30132A4F8443002EB8202B5F87E10DF
:10B5C80084ED028A520013FB02F39BB2C1F30321FC
:10B5D800A4F8443001FB02334FF4C872A4F8463093
:10B5E800A4F84820B5F87E3095F97A10B5F87A2095
:10B5F8002061FAEEED6A03F00F03C4ED066A06EE69
:10B60800901A03F1080101238B4007EE903AF8EEF7
:10B61800E66AF8EEE77ABAEEE97AC6EEA75A42F396
:10B628000722B5F87C3043F3072384ED0A7A07EE46
:10B63800102AB8EEC77AC4ED0B5AC7EE276A914AAA
:10B64800B5F84000000B1B3007EE103A95F97C3036
:10B65800C4ED0C6AB8EEC77A87EE276A07EE103A8F
:10B66800B5F97430E263B8EEC77AC3F30907B5F8E1
:10B67800742084ED0E6A9B05C7EE276A48BFA7F5BC
:10B6880080674FEA92234ABFBEB2BEB23FB2B2F55C
:10B69800004F24BF403B9BB233441EB2B5F8723012
:10B6A800C3F3090307EE103ADFED727AC4ED0D6AB1
:10B6B800B8EEC78AB4EEE78AF1EE10FAC4BFDFED40
:10B6C8006E7A38EE678AFEF701FD9FED670B41EC55
:10B6D800110B0AF0F5F959EC108B18EE100AFEF769
:10B6E80017FD42464B46FEF795FEFFF761F8B5F8A1
:10B6F80072309B0A07EE903AF8EEE77AB3EE0F7ACB
:10B7080008EE900A95F97600F4EEC77AF1EE10FA91
:10B7180006EE900AC8BF9FED5E7AF8EEE66AC8BFEB
:10B7280077EEC77A9FED587A16EE900AB7EE008A40
:10B73800A7EE878AFEF7ECFC8046B5F87000C0F3E8
:10B74800031008308946FEF7C1FC9FED470B41EC1A
:10B75800110B0AF0B5F9404653EC102B4946FEF799
:10B7680059FEFFF725F8206295F9770007EE900A51
:10B77800F8EEE77A17EE900AFEF7CAFC8046B5F8AD
:10B788007000C0F303208946FEF7A0FC9FED360B3E
:10B7980041EC110B0AF094F9494653EC102B404642
:10B7A800FEF738FEFFF704F828EE888A04F5805380
:10B7B800E0612146A3F85872C3ED948A83ED958A17
:10B7C800A3F85A6228460393FFF7FAF9288C29460A
:10B7D80000F00F03019331F8229FC0F30313029383
:10B7E800C0F3032005F12E0706AA31F8023F1032F4
:10B7F80003F00F0642F8106CC3F3031642F80C6C02
:10B808008F42C3F303264FEA133342F8086C42F819
:10B81800043CEAD105AA1DA9134653F8046F072E64
:10B82800C4BF103E1E609942F7D105F13E0C1EAE12
:10B83800964637F8023F103603F00F0246F8102CF0
:10B84800C3F3031246F80C2CBC45C3F303224FEA9A
:10B85800133346F8082C46F8043CEAD172461DAB6F
:10B868003DAF19E0AFF30080000000000000004089
:10B87800000080390080FF43000080440000103F32
:10B888000000204017B751B90000003C0000803D7F
:10B89800000080420000004253F8046F072EC4BF26
:10B8A800103E1E609F42F7D105F17E0A3EABCDE9FE
:10B8B800043A04F24A6ED44652F8043F83404B449B
:10B8C8009BB276461EAFE046009338F802AF019B64
:10B8D8004FEA9A2BBAF5004F0FFA8BFA24BFABF157
:10B8E800400B0FFA8BFA0AFA03FBA6F802A0029B98
:10B8F80057F804AB0AFA03FA009B9A44049BDA440B
:10B90800BB4226F802AFE0D191420CF1400C0EF197
:10B91800400ED1D128462146DDF814A0FFF7B8FA29
:10B9280021462846FFF7DCFBB5F86A305FED296A47
:10B93800AA8A03F03F0107EE901AF8EEE77AB3EE11
:10B948000F7AF4EEC77AF1EE10FAC8BF1FED307A1D
:10B95800C3F38411C8BF77EEC77A07EE101AB8EEA2
:10B96800C77AB2EE0E6AB4EEC67AF1EE10FA67EE56
:10B97800A66AC8BF5FED397A4FEAD323C8BF37EE4E
:10B98800677A07EE903AF8EEE77AB2EE0E6AF4EECE
:10B99800C67AF1EE10FAC8BF1FED426A039BC8BF12
:10B9A80077EEC67AF6EE005AB4EE006A41F26821E4
:10B9B80027EE257A67EE867A6FEA1212661802F089
:10B9C800800284F825200025C3ED976A83ED987AD4
:10B9D800C3ED997A4FF0FF3363502A467360B36022
:10B9E800F36033612B460BE024F8173082B2013341
:10B9F8009BB2B3F5407F19D0052A77D0052D7CD0AE
:10BA08003AF8021F02F63417501C0029ECD011F046
:10BA1800010F05F63811EAD004EB410101354B80DE
:10BA280001339BB2B3F5407FADB2E5D1052A5DD0B5
:10BA3800052D62D05319042B00F39C80002A63D093
:10BA480002F1010904F593581FFA89F908F106086B
:10BA58004FF0010E724571461ADD38F81E704FEA34
:10BA6800571C07F01F0736F811304FEA531AACEB92
:10BA78005310A3EB4A1301309BB2FB1A022801F1C1
:10BA8800010103F1010301D8022B70D98A42EADCD3
:10BA98000EF1010EF145DDD1BDBB04F593510C4605
:10BAA800531E9BB20A31123401EB430104EB450CDF
:10BAB800BDB1308827464FEA501E00F01F0037F806
:10BAC800022B5309A2EB4313AEEB52129BB2013285
:10BAD800C31A022A03F1010301D8022B47D967458B
:10BAE800EDD10236B142E3D1002001E06FF002004F
:10BAF8003FB0BDEC028BBDE8F08F6FF003003FB0A4
:10BB0800BDEC028BBDE8F08FBDB305F1010904F56A
:10BB1800935804F5935E1FFA89F908F110080EF19D
:10BB2800120E0127BD4239461BDD38F817C04FEA0F
:10BB38005C1A0CF01F0C3EF811304FEA531BAAEBAD
:10BB48005310A3EB4B1301309BB2ACEB0303022859
:10BB580001F1010103F1010301D8022B07D98D423C
:10BB6800E9DC0137B945DDD1002A96D1BCE76FF091
:10BB78000500BDE76FF00400BAE72846B8E700BF44
:10BB8800F8B52DED028BB0F88066054691F82400D3
:10BB98009FED258B0C46FEF799FAB0EE480AF0EEB9
:10BBA800680A41EC110B09F08BFFC6F38126304679
:10BBB80057EC106BFEF78AFAB0EE480AF0EE680A06
:10BBC80041EC110B09F07CFFB5F9541653EC102B1E
:10BBD80008EE101A30463946FEF71CFCFEF7E8FD61
:10BBE800B4F9023007EE903A06EE900AB4F9003044
:10BBF800B8EEC88AF8EEE77A07EE103AD8EE267A59
:10BC0800B8EEC77AC7EE877A17EE900AFEF780FA81
:10BC180007A3D3E90023FEF71DF9FEF7C9FDBDEC24
:10BC2800028B00EE100AF8BD000000000000004082
:10BC38006666666666660A402DE9F84305460C4660
:10BC4800FFF79EFFB5F9403694ED046ADFED2A6AE6
:10BC580007EE103AB5F9003607EE903AB8EEC77A13
:10BC6800F8EEE77A10EE105AE7EE067A87EE276AC2
:10BC780066EE267A17EE900AFEF74AFA06466068DC
:10BC88000F46FEF745FA804628468946FEF740FAF1
:10BC980017A3D3E90023FEF7DBF802460B4640461C
:10BCA8004946FEF78DFA154B0022FEF7D3F80246F7
:10BCB8000B4630463946FEF7ADFB0646A0890F46CF
:10BCC800FEF714FA02460B4630463946FEF7C0F82E
:10BCD800FEF76EFD94ED027A06EE900A86EE870A6C
:10BCE800F3EE097A30EE270ABDE8F883AFF3008057
:10BCF8006666666666660A40000080480000F03F97
:10BD08002DE9F04F2DED108B8DB0B0F882360893E9
:10BD18008B4610EE905A044617460390F0EE409A70
:10BD2800FFF72EFF20465946A04610EE104AFFF7AF
:10BD380083FF10EE100AB0EE409AFEF7E9F994A3DB
:10BD4800D3E90023FEF786F8FEF732FD08EE100A65
:10BD58002846FEF7DDF98EA3D3E90023FEF77AF82B
:10BD6800FEF726FD08EE900A68EEA88A28EE088AF3
:10BD780068EEA88A9BF84C0FB0EE687AA8EE487A6D
:10BD88000BF58056B7EE00CAC7EE297AB0EE4C8A9A
:10BD980078EEE78AFEF79AF99FED770B41EC110BE5
:10BDA80009F08EFE51EC100BFEF702FD0AEE100AA8
:10BDB80096F84D020996FEF789F99FED6F0B41EC55
:10BDC800110B09F07DFE51EC100BFEF7F1FC0AEEA9
:10BDD800900A9BF84A06FEF779F99FED670B41EC4C
:10BDE800110B09F06DFE51EC100BFEF7E1FCDBEDD9
:10BDF8000B5A9FED657ABBF914209BED0C6ADBEDBD
:10BE08000D6AB8F88066F0EE4C7AE5EE877A03465C
:10BE18007609B3EE097A39EE479A9BED087AA7EED0
:10BE2800098A2046444607EE102AB8F91426CCEEB3
:10BE380027BA07EE902AB8EEC77AF8EEE77ABBF988
:10BE4800442087EE27BA07EE902A0DEE903ABBF908
:10BE58004630F8EEE77A9B1AF0EE4CCAE6EE27CAAF
:10BE6800B8F9502607EE903AF8EEE77AA6EEA7CA98
:10BE780007EE902AF8EEE77A2CEE8CCA27EE8BDADA
:10BE8800FEF746F906F0800207923DA3D3E90023A6
:10BE9800FDF7DEFF80468946DBF81C00FEF738F91F
:10BEA80042464B46FEF78CF90022384BFDF7D2FF8D
:10BEB80049EC1F8B8946B4F9101607EE901AF8EE74
:10BEC800E77A804667EE8B7A17EE900AFEF720F93C
:10BED800099BB3F9583207EE903AF8EEE77A044630
:10BEE80067EE887A0D4617EE900AFEF711F942467A
:10BEF8004B46FEF765F902460B4620462946FDF7F4
:10BF0800A7FFFEF755FC9BF82530079A0A90934245
:10BF18001DEE100A00F0E781FEF7FAF8099B93ED91
:10BF2800977AB3F95A3207EE903AF8EEE77A044670
:10BF380077EE877A0D4667EE887A4FF0000A17EE9B
:10BF4800900AFEF7E5F842464B46FEF739F90B46EC
:10BF5800024629462046FDF77BFFFEF729FC73B20F
:10BF680001970BF64C460BF14A070B900693029685
:10BF780000971FE0AFF300800000000000000040C1
:10BF88006666666666660A40000020420000F03F6A
:10BF98006666666666127140019B04330193009BD6
:10BFA80002330093029BBAF5407F03F10103029329
:10BFB80000F09481069A002A039ACAF34018D146E1
:10BFC8004346B2F88226BCBF09F0010388EA03039E
:10BFD8009A4254460AF1010ADED1029B93F90020E5
:10BFE80093F9013307EE902AF8EEE77AB7EE008A64
:10BFF80087EE8A7AA9EE078A07EE103A039B33F98F
:10C00800193007EE903AF8EEE77AB8EEC77A67EE9D
:10C018008B7A87EE2ADA17EE900AFEF779F8009BFA
:10C02800B3F9023607EE903AF8EEE77A41EC1E0BC8
:10C0380067EE887A17EE900AFEF76AF806461DEE54
:10C04800100A0F46FEF764F853EC1F2BFEF7B8F8FA
:10C05800AF4B0022FDF7FEFE02460B46304639463E
:10C06800FEF7AEF802460B4651EC1E0BFDF7F0FE4C
:10C07800FEF79EFB9BF82530079A934207EE900A3D
:10C0880007EE100A2FD0099B4FEA4808D3ED995ABA
:10C09800D3ED986A08F1FF3306EE103AE21C04F17A
:10C0A800020348BFA21DB8EEC66A9B10B9F1000F83
:10C0B800A3EBA203E5EE867A03EBAA03B8BF09F166
:10C0C8000309A3EBA909C8F1010819FB08F84FFAFD
:10C0D80088F8B0EE677A07EE908AF8EEE77AF1EE24
:10C0E800666AA6EEA77A089B0CAA02EB8303DBED2F
:10C0F800066A53ED027AA6EEE77A1DEE900A87EEFD
:10C1080029DAFEF705F87EA3D3E90023FEF758F8ED
:10C11800009B044618880D46FDF7E8FF02460B46CB
:10C1280020462946FEF776F9FEF742FBB7EE008A6D
:10C138009BED0A7AF0EE487AE9EE077A07EE100AE4
:10C1480027EE878AB0EE4D7AA8EE887A68EE087AEC
:10C1580067EE887A67EE877A17EE900AFDF7D8FFC0
:10C1680041EC100B09F024FD09F022FDDBF830004A
:10C178008DED040BFDF7CCFF04461DEE100A0D46AD
:10C18800FDF7C6FF60A3D3E9002380468946204611
:10C198002946FEF715F802460B4600205C49FDF7D4
:10C1A80057FE064618EE100A0F46FDF7B1FF024685
:10C1B8000B4630463946FEF703F822462B4606461C
:10C1C8000F46DDE90401FDF7FBFFFEF7F1FAFDF785
:10C1D8009FFF02460B4630463946FDF73BFE0246B6
:10C1E8000B4640464946FEF715F9044618EE900AF4
:10C1F8000D46FDF78DFF02460B4620462946FDF702
:10C2080029FE41EC100B09F0D3FC09F0D1FC3EA348
:10C21800D3E9002351EC100BFDF71AFEFEF7C8FA1C
:10C22800BBF9423007EE103A07EE900AB8EEC77A2B
:10C23800B4EEE77AF1EE10FA2EDDBBF9403007EEE6
:10C24800103A28EE2B8AB8EEC77A00230BEB83034B
:10C25800D3ED0B6A77EEC77AB7EE007AA6EEA77A27
:10C2680027EE088ACDEE087A77EEA87A17EE900ABC
:10C27800FDF74EFF41EC100B09F09AFC09F098FC11
:10C2880021A3D3E9002351EC100BFDF7E1FDFEF7E4
:10C298008FFA019B18607FE6BBF9443006EE903AAE
:10C2A800F8EEE66AF4EEE76AF1EE10FA10DCBBF994
:10C2B800463007EE103AB8EEC77AB4EEE77AF1EEF8
:10C2C80010FA07DD28EE2C8AB0EE667A0223BDE765
:10C2D8000123BBE728EE0C8A0323B7E70DB0BDECBA
:10C2E800108BBDE8F08FFDF713FF099BB3F95A32A5
:10C2F80007EE903A0446F8EEE77A0D461BE600BFD3
:10C308008DEDB5A0F7C6B03E6666666666127140EA
:10C318000000F03F70B521F4006384B023B16FF0E2
:10C328000105284604B070BD0C460DF10603012234
:10C3380041F2F411064603F0A3FF051EF1DBBDF838
:10C34800061021F400610C432E22A4B28DF80920B6
:10C358001121F422230A8DF80A108DF80B2002A966
:10C3680006223A2530468DF808508DF80C30ADF885
:10C3780006408DF80D4003F0C5FF05460F2003F079
:10C38800E9FF284604B070BD70B521F4807384B00D
:10C3980023B16FF00105284604B070BD0C460DF1BD
:10C3A8000603012241F2F411064603F069FF051E57
:10C3B800F1DBBDF8061021F480710C432E22A4B2E3
:10C3C8008DF809201121F422230A8DF80A108DF81E
:10C3D8000B2002A906223A2530468DF808508DF820
:10C3E8000C30ADF806408DF80D4003F08BFF054684
:10C3F8000F2003F0AFFF284604B070BD00B583B02E
:10C408000DF10603012243F6144103F039FF002819
:10C41800A4BFBDF80600C0F3002003B05DF804FB1C
:10C4280010B582B001AB012243F22C41044603F05F
:10C4380027FF00280DDB0DF10603012243F6144106
:10C44800204603F01DFF0028A4BFBDF80600C0F376
:10C45800002002B010BD00BF00B583B00422002147
:10C4680001234FF0800C8DF806100DEB02018DF8BA
:10C4780004308DF805C08DF8073003F043FF03B092
:10C488005DF804FB70B51E4615460B46142242F6AD
:10C498000261044603F0F4FE002813DB2B464FF438
:10C4A800407242F62A61204603F0EAFE002809DBC2
:10C4B8003346204640F20132BDE8704043F22C4139
:10C4C80003F0DEBE70BD00BF2DE9F04F2DED028BED
:10C4D800864B874A874E9A60B1B005F0E7FD02F0B7
:10C4E800E5FD02F019FE03F0A9FF02F035FC02F0A9
:10C4F80087FE02F075FD02F07BFF02F011FD02F0ED
:10C5080041FD327800230321CDE9083306930A93CD
:10C5180007917AB13378042B02D033780A2B09D1EA
:10C5280001237548069306A907F07CF80B2003F051
:10C5380001F809E001244FF0904006A9069407F09D
:10C5480071F8204602F0F6FF33780A2B00F0FE82DD
:10C558003378052B08D03378092B05D03378122B84
:10C5680002D03378132B03D140F67F4002F06EFFE0
:10C578000BAB08EE903A13AC0DF1400A33780B2B55
:10C5880000F0D5823378012B22D03378022B1FD0CC
:10C598003378032B1CD03378062B19D03378072B2C
:10C5A80016D033780A2B13D033780C2B10D033786D
:10C5B800102B0DD033785BB10023CDE913331193E1
:10C5C800082201234C4810925146129307F02AF88A
:10C5D8004A4A4B484B4C0323C0E9002340F2E73357
:10C5E800836007F045FE03F04DFF04F0B9F802F050
:10C5F800F3F92378062B444B00F084822278062A2C
:10C6080000F087822278062A00F08A822378032B9A
:10C6180000F072822378042B00F06E8202F010FB87
:10C62800002004F023FEDFF8E490DFF8D480012531
:10C6380000271DE0630739D005F0C6FB05F0EEFBC7
:10C6480005F05AFC05F0E4FC05F07CFC05F09EFCC6
:10C6580005F010FC05F030FC01F012FE01F0D0FEF0
:10C66800642005F047FD322D52D001350137EDB277
:10C678004046FCB207F028FE002FDBD105F0A4FBF2
:10C6880005F0CCFB05F038FC05F0C2FC05F05AFCBF
:10C6980005F07CFC05F0EEFB05F00EFC01F0F0FD6A
:10C6A80001F0AEFE642005F025FDDEE7C4F3C10409
:10C6B80004EB840409EBC4144FF0020B80222146DA
:10C6C80050460AF071FA584600210BF1010B03F0AD
:10C6D80095FE5FFA8BFB8021504603F071FEBBF19B
:10C6E800070F04F18004E9D1A6E700BF00ED00E0E0
:10C6F8000080000898000020000400480030004036
:10C70800D4010020BE0000208F030020D07901084A
:10C71800A24B00241C70E0B2013404F081FA082C0A
:10C72800F9D10027CDE901779D4DDFF8B082DFF818
:10C73800B092DFF8B0B208EE10AA3C46BA464846B6
:10C7480007F0C2FD974B1B78002B4ED105F0CCFCAF
:10C75800019BC01A944B1B78002B14BF64234FF421
:10C76800FA73984280F0FA8005F0BEFCC01B1328CB
:10C7780000F2DA8005F0B8FCA0EB0A00B0F5FA7F09
:10C7880080F0CC8005F0B0FC029BC01A95286ED8CA
:10C79800864B1B78002B67D103F042F8844B1B783B
:10C7A800002B59D13378082B25D098F80030002B6E
:10C7B800C5D005F099FC7F4B1B68C01A0028BEDB6A
:10C7C80088F80040002202EB42030132EC542B446B
:10C7D800082A5C709C70F6D103F0B8F8484607F058
:10C7E80073FD704B1B78002BB0D06E4B58461C70F5
:10C7F80006F036FBAAE7704B1B78002BD5D06E4BA2
:10C808001C706E4B198889B2012938BF0121B1F516
:10C81800FA7F28BF4FF4FA710022694B187802EBAF
:10C828004203C0B2E854674800782B44C0B258703D
:10C83800654800780132C0B2082A9870EDD103919A
:10C8480003F084F805F050FC03995A4B084418602B
:10C85800012388F80030A8E703F03AF808B1544BF0
:10C868001C7003F073F89DE704F050FD94E705F0A1
:10C878003BFC029001F0AEFC01F0DEFC05F06AFA28
:10C8880005F086FA05F0A8FB504A13780133DBB2AD
:10C89800022B06D94D4B4E4A1C701378013303F016
:10C8A8000303137004F062FD33788DF85440CDE92A
:10C8B8001244002B5CD03378132B59D033780A2BD1
:10C8C80000F092803378042B00F0BE803378112B6F
:10C8D80000F0D3803378052B00F0DB803378092B08
:10C8E80000F0F1803378082B7FF452AF394B1B7876
:10C8F8008DF8143040F255131093584601231493C1
:10C9080006F05EFB00283FF443AF18EE903A18EEAD
:10C91800101A05AA584606F0D5FA39E705F0E4FBDF
:10C92800824603F0C7FF2DE705F0DEFB074601F05E
:10C93800A7FC01F065FD05F047FA05F06FFA05F070
:10C94800DBFA05F065FB05F0FDFA05F01FFB05F0C5
:10C9580091FA05F0B1FA01F01FFC0BE705F0C4FBF2
:10C968004FF4004101904FF0904006F051FFFBE674
:10C97800194A1388C3F307238DF8143013888DF8E8
:10C98800153040F23513109358460223149306F0DD
:10C9980017FB00283FF4FCAEB7E700BF04000020F7
:10C9A800C0030020A60000201004002090030020EF
:10C9B80015040020A000002014040020A40000207A
:10C9C800BC030020BB030020BA030020990000200C
:10C9D8009A000020BD000020AC0000209C00002030
:10C9E800D4010020140100206D4A1388C3F30723E3
:10C9F8008DF8143013888DF8153040F275131093A4
:10CA080058460223149306F0DBFA00286BD1654AD6
:10CA180013681B0A8DF8143013688DF8153040F22E
:10CA28007713109358460223149306F0C9FA002886
:10CA380050D15D4A13681B0A8DF8143013688DF8BD
:10CA4800153040F279139EE7584A1388C3F3072339
:10CA58008DF8143013888DF81530554B1B788DF8E8
:10CA6800163040F24513109358460323149306F0EA
:10CA7800A7FA00283FF48CAE47E74C4A1388C3F363
:10CA880007238DF8143013888DF8153040F24323AE
:10CA980079E740F2471310930323149372B6454B7A
:10CAA8001B6862B68DF81530C3F307238DF8143070
:10CAB800414B58461B788DF8163006F081FA00284D
:10CAC8003FF466AE21E73C4B1B788DF8143040F2FA
:10CAD800651311E718EE903A18EE101A05AA584691
:10CAE80006F0F0F9A5E718EE903A18EE101A05AA24
:10CAF800584606F0E7F98AE730490122142001F088
:10CB0800ABFF8BE51A78012A7FF478AD03F08EF835
:10CB18007CE51A78022A7FF475AD03F0C3F975E550
:10CB28001B78032B7FF472AD03F008FB6EE500233E
:10CB38001393082263604FF40413CDE910232048AF
:10CB480001235146129306F06DFD41E50BAB40F60B
:10CB5800FF101C4608EE903A02F078FC202321468C
:10CB68000B9313AC0223002501274FF090400C9340
:10CB78000DF1400A03230E930D950F9706F052FD11
:10CB880002F0A2FC13954FF404136560514640254A
:10CB98004FF09040CDE91053129706F043FDEDE4B5
:10CBA800AC00002074030020EC010020FC030020EE
:10CBB800FE030020B0000020BD0000208F030020ED
:10CBC800000400480A4B10B51880044601F0F0FC38
:10CBD800902001F09DFD012001F09AFD200A01F04E
:10CBE80097FDE0B201F094FDBDE8104001F03CBDB6
:10CBF8000C0000200B4B10B51C8801F0D9FC9020CC
:10CC080001F086FD44F40044012001F081FD200A72
:10CC180001F07EFDE0B201F07BFDBDE8104001F0BF
:10CC280023BD00BF0C00002038B501F0C1FC9020E6
:10CC380001F06EFDB8B1002001F06AFD98B101F075
:10CC4800B7FC912001F064FD68B1012001F012FEEB
:10CC58000546002001F00EFE044601F005FD44EAF9
:10CC6800052000B238BD01F0FFFC002038BD00BF30
:10CC7800274B1A68B2F5A87F00D070471B69022BB2
:10CC8800FBD92449244AB1F80130244809781170A5
:10CC98005BBA03801378012BD9B214D01378022B16
:10CCA80014D000231E4A194603EB430C02EB0C0078
:10CCB8000133082B02F80C1041708170F4D1194B24
:10CCC80001221A707047184B1970704700B572B678
:10CCD8001649174A174B91F800E092F800C01878E7
:10CCE8005FFA8EFE5FFA8CFCC0B262B60C4A002175
:10CCF80001EB4103013102F803E01344082983F8EA
:10CD080001C09870F4D1074B01221A705DF804FB3A
:10CD1800E0030020D80300209B000020A40000208E
:10CD2800C00300201504002014040020BC030020C8
:10CD3800BB030020BA030020F8B5204B1A68B2F5EF
:10CD4800F87F00D0F8BD1B69042BFBD91C4B1B785E
:10CD580003F0FF05002BF5D172B61A4E1A48347845
:10CD68001A4F4FF4005106F047FDA4F10104B4FA3C
:10CD780084F46409A0424FF40051134818BF3D6081
:10CD8800224606F03FFDD6F8013019BA13B93960CA
:10CD980062B6F8BD0E4A0F4B116000243960224676
:10CDA80009481C704FF4805106F02CFD06482246B5
:10CDB8004FF4804106F026FDEAE700BFE0030020BB
:10CDC80004000020D8030020000400480C040020C0
:10CDD800080000200804002038B5474C474B22467D
:10CDE800002106F001F900B138BD05F07DF9444D88
:10CDF800444B186000F0AEFA2B781BB12368B3F5EA
:10CE0800807FF1D100F058F900F050FE2B78002B0C
:10CE1800EAD13D4B1B78182BE6D801A252F823F033
:10CE2800BDCE00088DCE00088DCE00088DCE00083E
:10CE3800F1CD0008F9CE00088DCE00088DCE00088F
:10CE4800F1CE0008E9CE0008E1CE0008F1CD0008D7
:10CE58008DCE0008C9CE000895CE0008F1CD000897
:10CE68008DCE0008D9CE0008D1CE0008B5CE000876
:10CE7800F1CD0008ADCE0008A5CE00089DCE000873
:10CE880095CE0008BDE8384000F0EABCBDE838405F
:10CE980001F010B9BDE8384000F040BDBDE83840A9
:10CEA80000F09CBFBDE83840FFF746BFBDE83840FA
:10CEB80000F054BC00F00AFFBDE8384000F0D0BCD8
:10CEC800BDE8384000F072B8BDE8384001F0C0B89D
:10CED800BDE8384000F088B8BDE8384000F044BDEF
:10CEE800BDE8384000F078BCBDE83840FFF7C0BE68
:10CEF800BDE8384000F00AB8E0030020D80300205D
:10CF080010040020A80000209800002038B51F4B0E
:10CF18001A68B2F5A07F00D038BD1B69012BFBD978
:10CF28001B4B1B78002BF7D11A4D1B4C2B78237009
:10CF380005F0DAF86A78194BA2F10102B2FA82F226
:10CF48001860520910214FF0904006F05BFC2378DE
:10CF58001349144A40F67F4000FB03F31268124855
:10CF6800A1FB0313DB095363237803F0FF0233B1FA
:10CF7800BDE8384001224FF4007106F043BCBDE81B
:10CF880038404FF4007106F03DBC00BFE0030020BC
:10CF980004000020D8030020BC000020B4000020BA
:10CFA8008180808064020020000400480B4B1A68CE
:10CFB800B2F5D87F00D070471B69002BFBD0084B17
:10CFC8001B78002BF7D1074B1A78003A4FF0020173
:10CFD8004FF0904018BF012206F014BCE003002077
:10CFE80004000020D80300202E4A1368B3F5107FF0
:10CFF80026D040F24122934215D040F24222934279
:10D0080021D110B5284B1B78052B88B01CD00222E3
:10D018006946222001F052FD18B1244805F0D0FFDE
:10D0280038BB08B010BD224B1B7803F0FF0253B980
:10D038001D4B1B78052B2DD01E49212001F00CBD5E
:10D048001269022A09D07047FFF7EEFDC0F30723E3
:10D058008DF800308DF80100DFE7154B1B78002BA9
:10D06800F1D1114B1B78052B16D01249202001F065
:10D07800F3BC40F24220022100240290069101AB49
:10D088006A4602A909488DF81C40CDE9044405F018
:10D0980019FFC6E7FFF7AEBD064B188840BA80B245
:10D0A800FFF790BDE0030020BE000020140100201F
:10D0B80004000020D80300202DE9F041914D2B6891
:10D0C800B3F5C07F92B03ED0B3F5C17F74D0B3F54D
:10D0D800C97F09D0B3F5807F03D12B69082B00F0F5
:10D0E800A28012B0BDE8F0812B69042BF9D1864BE0
:10D0F8001A78E32AF5D15A78A52AF2D19A78E02A43
:10D10800EFD1DE78FF2EECD12222314609A809F0B2
:10D1180059FD222209A9002001F0D6FD00247B4BED
:10D128007B481C702222214609F04CFD79482222B6
:10D13800314609F047FD784805F042FF002840F0E5
:10D14800CF802B68C6E72B69012BCAD96E4A92F8A3
:10D158000080B8F1070F28BF4FF00708013B98453A
:10D1680088BF5FFA83F8002204214FF090408DF8C1
:10D178000C8006F047FBB8F1000F0FD0674C08F1A0
:10D18800FF37631C0DF10D0653FA87F714F8010BEE
:10D1980001F012FDBC4206F8010BF7D14FF09040A8
:10D1A8000122042106F02EFB5B4805F009FF30BB85
:10D1B8002B68B3F5C17F8AD1574805F001FF08B93C
:10D1C8002B6884E74FF40041554806F015FBA0F1A1
:10D1D8000100B0FA80F00021400940F28313CDE944
:10D1E8000B1101248DF8040009938DF8381003AB56
:10D1F80001AA09A948480D9405F064FEE0E708F182
:10D20800010800215FFA88F240F28110CDE90B1184
:10D2180009900D928DF8381001AB03AA09A93E4870
:10D2280005F050FEC4E7384C3E4B3F4A6178207801
:10D23800187001255970A1789970157004F054FF81
:10D248003A4B3B49E2783B4F3B4E00F51C501030BF
:10D2580008601A70394A237915703B70384D637924
:10D268003370A3792B70374B1B78082B1DD0E479CA
:10D27800354900230FE03878C0B2885430780A4422
:10D28800C0B2507028785A00C0B21A440A44013318
:10D29800082B907020D003EB4302002CEBD18C5468
:10D2A8000A44204654705A00EFE7284B1B78022B9B
:10D2B80012D172B63B7834782878E4B2DDB2C0B2C5
:10D2C80062B62149002202EB42030132CD540B44DD
:10D2D800082A5C709870F6D11D4B01221A7000E77D
:10D2E80040F291110822039107926B4601AA03A903
:10D2F80009488DF82040CDE90144CDE9054405F001
:10D30800E1FD1EE7E0030020D8030020C000002054
:10D31800980300205003002014010020D9030020A6
:10D32800000800488C03002084030020920300209A
:10D3380088030020BC030020BB03002090030020CA
:10D34800BA03002098000020C00300209B000020A2
:10D358001504002010B5A24C2368B3F5FE6F8AB0FF
:10D3680000F0E180B3F5FF6F00F0D180B3F5887F5E
:10D3780000F0C180B3F5C87F7BD0B3F5D07F5DD115
:10D3880023692BB1974B1B78062B01D8964A13704B
:10D39800964805F015FE002840F05C812368B3F537
:10D3A800D17F52D123692BB18E4B1B78192B01D811
:10D3B8008F4A13708D4805F003FE002840F0F7806F
:10D3C8002368B3F5D27F47D123691BB1854A894BBE
:10D3D80012781A70854805F0F3FD002840F0228184
:10D3E8002368B3F5D37F3ED1236973B17D4B1B7896
:10D3F800032B0AD880497C4A0B701378032B00F062
:10D408008D811378042B00F08981784805F0D8FDC8
:10D4180068B3794B002019788DF8041040F2A712F0
:10D42800CDE90600012404928DF8240002AB01AA7C
:10D4380004A96E48089405F045FD18E040F2A112D1
:10D448009342A5D0B3F5D17FACD040F2A31293425A
:10D45800B0D0B3F5D27FB7D040F2A5129342B9D07D
:10D46800B3F5D37FC0D0A3F5D373012BCDD90AB0C0
:10D4780010BD5E4805F0A4FD002836D05F4B60491A
:10D48800DA88097858798DF80810197E8DF809001E
:10D498008DF80A1002B91A89987A8DF80C20110AA9
:10D4A8008DF80B1000B9187B597B93F80BC09A7B49
:10D4B8008DF80D005CEA01034FF000010CBF0B462C
:10D4C800012308208DF80E3040F29113CDE90611A2
:10D4D8008DF80F2004930DEB000208908DF82410AE
:10D4E800424801AB04A905F0EDFC2368B3F5D07FF1
:10D4F8003FF446AFA2E73D4805F062FD002840F042
:10D50800BE802368B3F5C87F7FF437AFB1E73748EB
:10D5180005F056FD002840F0DC802368B3F5887FCD
:10D528007FF428AFE7E72269042A8ED12D4A1178C3
:10D53800B0298AD15178072987D191781D298BD1B3
:10D54800D2785A2A88D12F4A2F4B12681B682F4845
:10D558000024546340215C63012206F053F92B48F0
:10D5680022464FF4007106F04DF9224602214FF091
:10D57800904006F047F9264B1B78092B00F0D58020
:10D588000023244A049302E0049B01330493049B80
:10D598009342F9D9BFF34F8F1F49204BCA6802F451
:10D5A800E0621343CB60BFF34F8F00BFFDE71C4A17
:10D5B8000F4B12781B788DF80420002140F2A3103D
:10D5C8000222CDE906118DF80530049008928DF8F5
:10D5D800241002AB01AA04A9044805F073FCEFE685
:10D5E800E0030020D8030020BE0000201401002022
:10D5F800BF000020AE0000208F0300209803002009
:10D60800C000002064020020B0020020000400488E
:10D6180098000020FFE1040000ED00E00400FA0596
:10D6280005000020444B032200211B788DF80420BC
:10D6380040F2A5100222CDE906118DF805300490BC
:10D6480008928DF8241002AB01AA04A93B4805F002
:10D6580039FCC5E63A4B00211A788DF8042040F2CF
:10D66800A1130120CDE90611049308908DF8241028
:10D6780002AB01AA04A9314805F024FC8EE6314822
:10D688003149324A0078324B097812781B788DF884
:10D698000400003918BF0121003A18BF0122003BDD
:10D6A80018BF01238DF8051040F2111000218DF8E4
:10D6B80006200422CDE906118DF80730049008925F
:10D6C8008DF8241002AB6A4404A91C4805F0FAFB43
:10D6D80017E70322CC20002101238DF809208DF8BB
:10D6E8000A208DF80B0040F2F9720820CDE90611E6
:10D6F8008DF808108DF80C308DF80D108DF80E305F
:10D708008DF80F30049208900DEB00028DF824106C
:10D7180001AB04A9094805F0D5FBFEE60D49012235
:10D72800142001F099F923689DE60B482246402110
:10D7380006F068F824E700BFAE00002014010020BE
:10D74800BE0000209800002010040020A600002041
:10D7580004000020D80300200004004838B5154B09
:10D768001A68B2F5F07F00D038BD1B69022BFBD9CF
:10D77800114B1B78002BF7D1104D114A2B88114CF7
:10D788005BBA138004F0B0FC0F4AAB7810602370CA
:10D7980004F0AAFC0D4B0E49186023780D4A40F698
:10D7A8007F4000FB03F31268A1FB0313DB095363FB
:10D7B80038BD00BFE003002004000020D80300208B
:10D7C80012040020E401002000040020E8010020E9
:10D7D8008180808064020020194B1A68B2F5B07FFE
:10D7E80000D070471B69012BFBD970B5154B1B780E
:10D7F80003F0FF0403B170BD134D144E2B78337042
:10D8080004F072FC6A78124B012A18600DD0114B93
:10D8180011481B68A2F10102B2FA82F25C63520954
:10D82800BDE87040402105F0EDBF34780B4B40F661
:10D838007F4101FB04F4A3FB0434E409E7E700BFDC
:10D84800E003002004000020D80300204C0300203F
:10D858004803002064020020000400488180808082
:10D86800254B1A68B2F5907F00D070471B69042BCE
:10D87800FBD92DE9F041214B1B7803F0FF040BB1D4
:10D88800BDE8F08172B61E4D1E4895F800801E4F07
:10D89800202105F0B1FFA8F10106B6FA86F676094F
:10D8A800B0423246174818BF3C60202105F0AAFF55
:10D8B800D5F8012013BADAB11449154A0B603B6058
:10D8C80012783AB91349B8F1010F0A6818BF5B42D8
:10D8D80013440B600024104B0A481C702246082190
:10D8E80005F090FF07482246402105F08BFF00E035
:10D8F8003B6062B6C4E700BFE003002004000020DC
:10D90800D8030020000400480C0400200800002070
:10D918009800002004040020080400200F4B1A6817
:10D92800B2F50C7F0FD040F231218A4200D0704707
:10D938001A69032AFBD10A4B1B78002BF7D1094936
:10D94800312001F089B81A69032AF0D1044B1B78F9
:10D95800002BECD10349302001F07EB8E003002011
:10D9680004000020D8030020404AF8B51368B3F536
:10D97800B87F22D040F273118B4206D0B3F5BC7F3A
:10D9880002D11369002B4AD1F8BD1369002BFBD0D3
:10D99800374A384B12781A701B783749374A03EBE5
:10D9A8008300C3EB40231268A1FB0313DB09536315
:10D9B80004F09AFB324B1860F8BD1369052BE3D9C4
:10D9C8002B4C304A23885BBA138004F08DFB2E4A17
:10D9D8002E4B10601B7803F0FF06002BD4D172B6D3
:10D9E800A5782B482B4F202105F006FFA5F101054E
:10D9F800B5FA85F56D09A8422A464FF0200124485A
:10DA080018BF3E6005F0FEFE2379E17862791B02BB
:10DA180043EA0143134317D13B6062B6F8BD144A89
:10DA28001D4B12781A701B7813491C4A03EB8300AC
:10DA3800C3EB40231268A1FB0313DB09536304F013
:10DA480053FB174B1860F8BD164A174D1360002496
:10DA580022460F483B6008212C7005F0D3FE0C4885
:10DA68002246402105F0CEFED7E700BFE0030020A4
:10DA7800D803002078030020818080806402002081
:10DA88007C03002012040020FC0100200400002078
:10DA9800000400480C040020F0010020B00200201F
:10DAA800F4010020080000200804002070B5814B14
:10DAB8001C68B4F5047F8AB05DD040F2112294420C
:10DAC80027D040F21222944229D040F213229442E5
