:020000040800F2
:1080000000A0002085870008D587000805B5000876
:10801000D5870008D5870008D58700080000000034
:10802000000000000000000000000000D5870008EC
:10803000D587000800000000D587000859B6000861
:10804000D5870008D5870008D5870008D5870008A0
:10805000D5870008D5870008D5870008D587000890
:10806000D587000849B60008D5870008D5870008DD
:10807000D587000865BB0008D5870008D5870008AC
:10808000D5870008D5870008D5870008D587000860
:10809000F9B40008D5870008D587000851B6000854
:1080A000D5870008D5870008D5870008D587000840
:1080B000D58700085DB60008D5870008D587000879
:1080C000D5870008D5870008D5870008D587000820
:1080D000D5870008D5870008D5870008D587000810
:1080E000D5870008D5870008D5870008D587000800
:1080F000D5870008D5870008D5870008D5870008F0
:10810000000000000000000000000000D58700080B
:10811000D5870008D5870008D5870008D5870008CF
:10812000D5870008D5870008D5870008D5870008BF
:10813000D5870008D5870008000000000000000077
:10814000D5870008D5870008D58700080000000003
:10815000000000000000000000000000000000001F
:108160000000000000000000D5870008D587000847
:10817000D58700080000000000000000000000009B
:0881800000000000D587000893
:108188000348044B834202D0034B03B1184770479E
:108198001800002018000020000000000548064BC9
:1081A8001B1AD90F01EBA301491002D0034B03B1ED
:1081B8001847704718000020180000200000000031
:1081C80010B5064C237843B9FFF7DAFF044B13B117
:1081D8000448AFF300800123237010BD180000206D
:1081E800000000006410010808B5044B1BB10449E5
:1081F8000448AFF30080BDE80840CFE70000000066
:108208001C0000206410010853B94AB9002908BFAE
:1082180000281CBF4FF0FF314FF0FF3000F06AB963
:10822800ADF1080C6DE904CE00F006F8DDF804E0C5
:10823800DDE9022304B070472DE9F047089D0E469A
:1082480004460F46002B4AD194468C45B2FA82F276
:1082580060D942B1C2F12003974020FA03F30CFA27
:1082680002FC1F4394404FEA1C4E1FFA8CF6B7FBE2
:10827800FEF1230C0EFB117743EA074301FB06F0DE
:1082880098420AD91CEB030301F1FF3780F01581EE
:10829800984240F21281023963441B1AA4B2B3FB1C
:1082A800FEF00EFB103344EA034400FB06F6A64238
:1082B8000AD91CEB040400F1FF3380F00081A642C8
:1082C80040F2FD806444023840EA0140A41B0021CA
:1082D8001DB1D4400023C5E90043BDE8F0878B42B7
:1082E80005D90DB1C5E9000100210846F5E7B3FA43
:1082F80083F1002946D1B34202D3824200F2F580CD
:10830800841A66EB030201201746002DE5D0C5E963
:108318000047E2E7002A40F09380A1EB0C034FEA04
:108328001C471FFA8CFE0121B3FBF7F607FB16303A
:10833800230C43EA00430EFB06F0984208D91CEBD5
:10834800030306F1FF3802D2984200F2D080464675
:108358001B1AA4B2B3FBF7F007FB103344EA03443B
:108368000EFB00FEA64508D91CEB040400F1FF3300
:1083780002D2A64500F2B6801846A4EB0E0440EAE5
:108388000640A5E7C1F120078B4022FA07FC4CEA1A
:10839800030C06FA01FE20FA07F426FA07F344EA6A
:1083A8000E0400FA01F84FEA1C404FEA1449B3FBE7
:1083B800F0FE1FFA8CF600FB1E3349EA03430EFB5E
:1083C80006F9994502FA01F20BD91CEB03030EF1E9
:1083D800FF3A80F08580994540F28280AEF1020E26
:1083E8006344A3EB0909A4B2B9FBF0F300FB1399AA
:1083F80044EA094403FB06F6A64208D91CEB040428
:1084080003F1FF3068D2A64266D9023B644443EACE
:108418000E40A41BA0FB02E6B4427346B14652D3F9
:108428004FD05DB1B8EB030264EB090404FA07F717
:1084380022FA01F31F43CC40C5E9007400214CE740
:10844800C2F1200120FA01F30CFA02FC26FA01F12C
:10845800964033434FEA1C471FFA8CFEB1FBF7F0F6
:1084680007FB1016190C41EA064100FB0EF68E4276
:1084780004FA02F408D91CEB010100F1FF382DD2EF
:108488008E422BD902386144891B9BB2B1FBF7F6A7
:1084980007FB161143EA014306FB0EF1994208D97E
:1084A8001CEB030306F1FF3814D2994212D9023E9D
:1084B80063445B1A46EA004136E73946EDE618465A
:1084C80002E7F045ADD2BEEB020366EB0C060138BD
:1084D800B146A6E74646ECE7034698E74046D3E7A9
:1084E800D6467EE76444023847E708460DE7023E71
:1084F80063442DE7704700BF70B50F4B0F4DAB427B
:10850800A3EB050607D0B610002455F8043B013448
:108518009847A642F9D808F0A1FD094D094B5E1B02
:10852800AB424FEAA60606D0002455F8043B0134B6
:108538009847A642F9D870BD8C3501088C350108DA
:108548008C35010890350108830730B547D0541E93
:10855800002A3ED0CAB2034601E0013C39D303F8F1
:10856800012B9D07F9D1032C2CD9CDB205EB05259C
:108578000F2C05EB054535D9A4F1100222F00F0C9C
:1085880003F1100EE6444FEA121C1A46C2E90055E0
:10859800C2E9025510327245F8D10CF1010214F00B
:1085A8000C0F03EB021204F00F0C13D0ACF1040310
:1085B80023F003030433134442F8045B9342FBD1D2
:1085C8000CF003042CB1C9B21C4403F8011BA342EC
:1085D800FBD130BD64461346002CF4D1F9E70346BD
:1085E8001446C0E71A46A446E0E700BF844641EABD
:1085F800000313F003036DD1403A41D351F8043B13
:1086080040F8043B51F8043B40F8043B51F8043B64
:1086180040F8043B51F8043B40F8043B51F8043B54
:1086280040F8043B51F8043B40F8043B51F8043B44
:1086380040F8043B51F8043B40F8043B51F8043B34
:1086480040F8043B51F8043B40F8043B51F8043B24
:1086580040F8043B51F8043B40F8043B51F8043B14
:1086680040F8043B51F8043B40F8043B51F8043B04
:1086780040F8043B51F8043B40F8043B403ABDD273
:10868800303211D351F8043B40F8043B51F8043B15
:1086980040F8043B51F8043B40F8043B51F8043BD4
:1086A80040F8043B103AEDD20C3205D351F8043BA4
:1086B80040F8043B043AF9D2043208D0D2071CBF70
:1086C80011F8013B00F8013B01D30B880380604699
:1086D800704700BF082A13D38B078DD010F003030F
:1086E8008AD0C3F10403D21ADB071CBF11F8013B7F
:1086F80000F8013B80D331F8023B20F8023B7BE7CE
:10870800043AD9D3013A11F8013B00F8013BF9D2F8
:108718000B7803704B7843708B7883706046704792
:10872800032A30B415D941EA0004A40784460B464D
:1087380004D0541E0FE0043A032A08D919466046AB
:1087480053F8044B5CF8045BA542F4D0F1E76046AB
:108758001946541E7AB1431E0139021901E09A42A2
:1087680009D013F8010F11F801CF6045F7D0A0EB3D
:108778000C0030BC7047002030BC7047DFF834D0A4
:1087880000F026F80C480D490D4A002302E0D458A1
:10879800C4500433C4188C42F9D30A4A0A4C002343
:1087A80001E013600432A242FBD3FFF7A5FE00F0FC
:1087B8001BF8FEE700A000200000002018000020A1
:1087C8009435010818000020C0040020FEE70000CE
:1087D800034AD2F8883043F47003C2F888307047EF
:1087E80000ED00E0000000002DE9F04F2DED028BB8
:1087F800AF4BB04AB04D9A60B1B004F0A9FF02F097
:10880800EDFB02F01FFC03F021FA02F045FA02F03A
:108818008DFC02F07DFB02F07FFD02F019FB02F0F7
:1088280049FB2A7800230321CDE90B31CDE90D332B
:108838000F937AB12B78042B02D02B780A2B09D10D
:1088480001239E480B930BA906F01EFA0B2002F099
:1088580007FE09E001244FF090400BA90B9406F0A5
:1088680013FA204602F0FCFD2B780A2B00F0C08298
:108878002B78052B08D02B78092B05D02B78122BB9
:1088880002D02B78132B03D140F67F4002F072FD03
:1088980006AB039310AB13AC02932B780B2B00F0B1
:1088A8007F822B78012B20D02B78022B1DD02B78A0
:1088B800032B1AD02B78062B17D02B78072B14D024
:1088C8002B780A2B11D02B780C2B0ED02B78102B51
:1088D8000BD00023CDE913331193082201237748E5
:1088E80002991092129306F0CFF9754F754EDFF882
:1088F80008820323C7E90063384640F2E733BB60C8
:1089080006F0F4FF03F0C4F903F016FB02F00AF8CE
:1089180002F038F9002004F059F8DDF808A0002624
:10892800384607F011F8002E00F072817407F3B290
:1089380000F09A8104F0E4FD013604F00BFE04F027
:1089480077FE04F033FE04F053FE01F041FC01F021
:10895800FFFC642004F020FF322EE1D15A4B0024A2
:108968001C70E0B2013403F017FD082CF9D19FED1B
:108978004E8B0026DFF884B1544CDFF884A1B14651
:10898800B04637464E4806F0DFFF9BF80030002B14
:1089980052D104F0FBFE4E4B1B78002BA0EB0700D6
:1089A8000CBF4FF4FA736423984280F0278104F0D7
:1089B800EDFEA0EB0900132800F20A8104F0E6FEA0
:1089C800801BB0F5FA7F80F0FD8004F0DFFEA0EB9D
:1089D8000800952800F2A2803E4B1B78002B40F03F
:1089E8009A8002F0BBFE3C4B1B78002B40F08A803B
:1089F8002B78082B27D09AF80030002BC2D004F02F
:108A0800C5FE364B1B68C01A0028BBDB00228AF85B
:108A18000020114602EB42030132E1542344082AA4
:108A280059709970F6D102F02FFF254806F08CFF97
:108A38009BF80030002BACD0002329488BF800307D
:108A480005F034FDA5E7274B1B78002BD3D0254B29
:108A580000221A70244B198889B2012938BF0121D4
:108A6800B1F5FA7F28BF4FF4FA71204B187802EB62
:108A78004203C0B2E0541E4800782344C0B2587084
:108A88001C4800780132C0B2082A9870EDD10191D3
:108A980002F0FAFE04F07AFE0199104B01441960C5
:108AA80001238AF80030A6E700000000000000005B
:108AB80000ED00E000800008A50300200004004845
:108AC800D80000200030004004000020B80000203A
:108AD8009200002052000020500000205400002086
:108AE8003C0300204C0000205A0000204F000020CA
:108AF8004E0000204D000020641C01089100002059
:108B08005800002002F082FE10B1AD4A0023137015
:108B180002F0BAFE6CE703F0A9FF62E704F036FE44
:108B2800804601F003FB01F02DFB04F0AFFC04F0DC
:108B3800CBFC04F0A3FDA34A13780133DBB2022B6C
:108B480007D9A14A1378013303F0030313709D4A30
:108B58000023137003F0BAFF2B7800228DED128BDF
:108B68008DF85420002B66D02B780A2B00F09780C4
:108B78002B78042B00F0CC802B78112B00F0D880B8
:108B88002B78052B00F0E0802B78092B00F0F38080
:108B98002B78082B7FF420AF8C4B1B788DF8143082
:108BA80040F2551310938A480123149305F022FDCF
:108BB80000283FF411AF039B0299854805AA05F0E8
:108BC800A3FC09E704F0E2FD064603F04FFAFCE6D1
:108BD80004F0DCFD814601F0FBFA01F0B9FB04F07A
:108BE8008FFC04F0B7FC04F023FD04F063FD04F0EF
:108BF800DDFC04F0FDFC01F07BFADFE604F0C6FDC5
:108C08004FF4004107464FF0904006F041F9CEE698
:108C180004F076FC04F09EFC04F00AFD04F0C6FCA7
:108C280004F0E6FC01F0D4FA01F092FB642004F0B1
:108C3800B3FD012674E6674A1388C3F307238DF84A
:108C4800143013888DF81530604B1B788DF816306A
:108C580040F2351310935E480323149305F0CAFCC1
:108C680000283FF4B9AEA6E7C3F3C10303EB8303BF
:108C780008EBC3190224802249465046FFF7B6FC88
:108C880020460021013402F0C1FFE4B280215046A1
:108C980002F09EFF072C09F18009ECD14AE64D4A03
:108CA8004B481388C3F307238DF8143013888DF8C5
:108CB800153040F2751310930223149305F09AFCB3
:108CC800002866D1444A424813681B0A8DF81430BC
:108CD80013688DF8153040F277131093022314931C
:108CE80005F088FC00284DD13C4A13681B0A8DF812
:108CF800143013688DF8153040F279131093344806
:108D08000223149305F076FC00283FF465AE52E781
:108D1800334A1388C3F307238DF8143013888DF86A
:108D28001530304B1B788DF8163040F2451391E71B
:108D38002B4A1388C3F307238DF8143013888DF852
:108D4800153040F24323D9E740F247131093032329
:108D5800149372B6244B1B6862B65BBAADF8143034
:108D68001A4B1B481B788DF8163005F043FC002879
:108D78003FF432AE1FE7154B1B788DF8143040F2E4
:108D880065130FE7039B0299114805AA05F0BCFB80
:108D9800AAE7039B02990E4805AA05F0B5FB91E7DF
:108DA80000231393082263604FF40413CDE91023C2
:108DB8000E4802990123129305F066FF95E500BF5E
:108DC800500000203400002035000020440000201E
:108DD8003C030020AE000020940000206C0000201E
:108DE800AA000020A9000020A000002000040048DC
:108DF80040F6FF1002F0BEFA06A803210026202242
:108E08000223039009910127014613AC4FF09040CB
:108E1800CDE9062308960A9705F036FF02F0EAFA2C
:108E280010AB139602936660194640224FF4041360
:108E38004FF09040CDE91023129705F025FF2CE55F
:108E48000A4B10B51880044601F058FB902001F039
:108E580005FC012001F002FC200A01F0FFFBE0B252
:108E680001F0FCFBBDE8104001F0A4BB0E0000209F
:108E78000B4B10B51C8801F041FB902001F0EEFB74
:108E880044F40044012001F0E9FB200A01F0E6FB6C
:108E9800E0B201F0E3FBBDE8104001F08BBB00BF7E
:108EA8000E00002038B501F029FB902001F0D6FB18
:108EB800C8B1002001F0D2FBA8B101F01FFB91203E
:108EC80001F0CCFB78B1012001F07AFC05460020C6
:108ED80001F076FC0446EDB201F06CFBE0B240EA2A
:108EE800052000B238BD01F065FB002038BD00BF89
:108EF800274B1A68B2F5A87F00D070471B69022B70
:108F0800FBD92449244AB1F8013024480978117062
:108F18005BBA03801378012BD9B214D01378022BD3
:108F280014D000231E4A194603EB430C02EB0C0035
:108F38000133082B02F80C1041708170F4D1194BE1
:108F480001221A707047184B1970704700B572B635
:108F58001649174A174B91F800E092F800C01878A4
:108F68005FFA8EFE5FFA8CFCC0B262B60C4A002132
:108F780001EB4103013102F803E01344082983F8A7
:108F880001C09870F4D1074B01221A705DF804FBF8
:108F980020030020180300205C0000205A00002055
:108FA800B8000020500000204C0000204F00002096
:108FB8004E0000204D000020F8B5204B1A68B2F58D
:108FC800F87F00D0F8BD1B69042BFBD91C4B1B781C
:108FD80003F0FF05002BF5D172B61A4E1A48347803
:108FE8001A4F4FF4005105F047FFA4F10104B4FAF9
:108FF80084F46409A0422246134818BF3D604FF428
:10900800005105F03FFFD6F8013013B93B6062B656
:10901800F8BD0F4A0F4D0C4800241BBA13604FF4DB
:10902800805122463B602C7005F02CFF06482246F2
:109038004FF4804105F026FFE9E700BF2003002038
:10904800040000201803002000040048B400002099
:1090580008000020B000002038B5464C464B224698
:10906800002105F0DBFA00B138BD04F08FFB434D59
:10907800434B186000F0BCFA2B781BB12368B3F59A
:10908800807FF1D100F058F900F0ECFD2B78002B2F
:10909800EAD13C4B1B78182BE6D801A252F823F0F2
:1090A8003D9100080D9100080D9100080D910008F0
:1090B80071900008759100080D9100080D91000845
:1090C8006D910008659100085D9100087190000895
:1090D8000D9100084591000815910008719000084D
:1090E8000D910008559100084D9100083591000830
:1090F800719000082D910008259100081D91000825
:1091080015910008BDE8384000F098BCBDE838402B
:1091180000F088BFBDE8384000F0DCBCBDE838404E
:1091280000F0E6BEBDE83840FFF746BFBDE838406E
:1091380000F00EBCBDE8384000F096BEBDE83840EF
:1091480000F072B8BDE8384000F046BFBDE83840CE
:1091580000F088B8BDE8384000F0E2BCBDE838400F
:1091680000F028BCBDE83840FFF7C2BEBDE8384073
:1091780000F00AB820030020180300209200002005
:1091880040000020A503002038B51F4B1A68B2F52F
:10919800A07F00D038BD1B69012BFBD91B4B1B7866
:1091A800002BF7D11A4D1B4C2B78237004F0EEFAE4
:1091B8006A78194BA2F10102B2FA82F218605209D8
:1091C80010214FF0904005F05DFE2378134A1449B2
:1091D80040F67F4000FB03F3A2FB03230968114814
:1091E800DB094B63237803F0FF0233B1BDE8384055
:1091F80001224FF4007105F045BEBDE838404FF438
:10920800007105F03FBE00BF2003002004000020CD
:1092180018030020A80000207C00002081808080A6
:1092280080020020000400480B4B1A68B2F5D87F72
:1092380000D070471B69002BFBD0084B1B78002B14
:10924800F7D1074B1A78003A4FF002014FF09040DF
:1092580018BF012205F016BE2003002004000020DC
:10926800180300202F4A1368B3F5107F28D040F266
:109278004122934217D040F24222934223D100B5B3
:10928800294B1B78052B89B01ED002226946222063
:1092980001F0B4FBC0B218B1244805F0ABF930BBFB
:1092A80009B05DF804FB224B1B7803F0FF0253B9A9
:1092B8001D4B1B78052B2ED01E49212001F072BBB7
:1092C8001269022A06D07047FFF7ECFD40BAADF8E4
:1092D8000000E1E7164B1B78002BF4D1124B15491F
:1092E8001B780888052B18D0202001F05BBB40F2C2
:1092F8004222002000210223CDE904014FF0000C96
:10930800029206936A4601AB02A908488DF81CC070
:1093180005F0FAF8C4E7FFF7ABBD40BA80B2FFF733
:109328008FBD00BF20030020830300203C030020E2
:1093380004000020180300202DE9F041994D2B6806
:10934800B3F5C07F92B03ED0B3F5C17F6FD0B3F50F
:10935800C97F09D0B3F5807F03D12B69082B00F0B2
:10936800AC8012B0BDE8F0812B69042BF9D18E4B8B
:109378001A78E32AF5D15A78A52AF2D19A78E02A00
:10938800EFD1DE78FF2EECD11D2231460AA8FFF777
:10939800DBF81D220AA9002001F036FC0024834BCB
:1093A80083481C701D222146FFF7CEF881481D22F4
:1093B8003146FFF7C9F8804805F01CF9002840F04D
:1093C800DC802B68C6E72B69012BCAD9764A14784A
:1093D800072CA04603F1FF3328BF4FF00708984534
:1093E8002BD8002204214FF090408DF8108005F012
:1093F80049FD002C00F09C806B4F04AE002417F848
:10940800010F01F07BFB0134E4B2444506F8010F7B
:10941800F5D34FF090400122042105F033FD664852
:1094280005F0E8F898BB2B68B3F5C17F8FD1624887
:1094380005F0E0F860B92B6889E75FFA83F8002245
:1094480004214FF090408DF8108005F01BFDD3E704
:109458004FF40041594805F00FFDA0F10100B0FAA2
:1094680080F0400940F283120123002100260027E2
:109478008DF808000A920E938DF83C1004AB02AAEE
:109488000AA94D48CDE90C6705F03EF8D3E708F185
:1094980001085FFA88F240F28110002100260027B7
:1094A8000A900E928DF83C1002AB04AA0AA9424811
:1094B800CDE90C6705F028F8B5E73B4F404B414A2A
:1094C80079783878187001245970B97899701470BF
:1094D80004F05CF93C4B3D49FA783D4E3D4D00F5B2
:1094E8001C50103008601A703B4A3B791470337076
:1094F8003A4C7B792B703A4ABB7923701278FB7906
:10950800082A17D037496BB30022307802EB4203A0
:10951800C0B2C85428780B44C0B2587020780132C1
:10952800C0B2082A9870F0D12F4B01221A7018E7A0
:10953800A0466EE72D4B1B78022BF5D172B6327818
:109548002B782078D5B2DCB2C0B262B625490022A9
:1095580002EB42030132CD540B44082A5C70987028
:10956800F6D1E1E71A4603EB430408190133082B47
:109578000A5542708270F6D1D6E740F291130493EF
:1095880000220023CDE906230822089201AB6A4491
:1095980004A9094802948DF82440039404F0B4FF08
:1095A8000FE700BF200300201803002084030020D9
:1095B80088030020640300203C03002000080048C2
:1095C800D00000203C00002051000020380000207E
:1095D8004F0000204E000020520000204D000020C7
:1095E800A5030020B8000020500000205C000020E7
:1095F80010B59C4C2368B3F5FE6F8AB000F0BA80B2
:10960800B3F5FF6F1CD0B3F5887F23D0B3F5C87FBF
:109618002AD0B3F5D07F66D040F2A11293426AD027
:10962800B3F5D17F71D040F2A312934275D0B3F550
:10963800D27F7BD040F2A51293427DD00AB010BDF4
:10964800894804F0D7FF002840F056812368B3F515
:10965800887FDBD1844804F0CDFF002840F02281C8
:109668002368B3F5C87FD4D17F4804F0C3FF00282E
:1096780035D07E4B7E49DA88097858798DF80810FC
:10968800197E8DF809008DF80A1002B91A89987A9E
:109698008DF80C20110A8DF80B1000B9187BDA7AB6
:1096A800597B93F80EC08DF80D000A434FF0000166
:1096B8000CBF0B46012308208DF80E3040F29113A1
:1096C800CDE9061104930DEB000208908DF82410E3
:1096D80065488DF80FC001AB04A904F015FF236895
:1096E800B3F5D07F98D123692BB1624B1B78062B39
:1096F80001D8614A13705C4804F07CFF002840F0F0
:109708009B802368B3F5D17F8DD123692BB1594B49
:109718001B780C2B01D8594A1370534804F06AFF80
:10972800002870D12368B3F5D27F83D123691BB198
:10973800504A534B12781A704B4804F05BFF0028CC
:109748003FF47CAF4E4B00211B788DF80530032089
:1097580040F2A512CDE9061102248DF80400049206
:109768008DF8241002AB01AA04A93F48089404F01C
:10977800CBFE63E72269042A7FF45CAF3D4A117887
:10978800B0297FF450AF517807297FF445AF91781D
:109798001D297FF441AFD2785A2A7FF43DAF394A68
:1097A800394B12681B6839480024546340215C63B4
:1097B800012205F067FB354822464FF4007105F099
:1097C80061FB224602214FF0904005F05BFB304BD5
:1097D8001B78092B00F0A58000232E4A049302E091
:1097E800049B01330493049B9342F9D9BFF34F8F31
:1097F80029492A4BCA6802F4E0621343CB60BFF3DD
:109808004F8F00BFFDE7264A1C4B12781B788DF856
:109818000420002140F2A3100222CDE906118DF8A0
:109828000530049008928DF8241002AB01AA04A90F
:109838000D4804F069FE75E70F4B00211A788DF882
:10984800042040F2A1130120CDE9061104930890E9
:109858008DF8241002AB01AA04A9034804F054FEB1
:109868004FE700BF200300203C03002088030020AE
:1098780084030020180300208303002082030020B3
:1098880081030020800200203402002000040048E8
:10989800A5030020FFE1040000ED00E00400FA0544
:1098A8000C00002022482349234A0078234B0978DA
:1098B80012781B788DF80400003918BF0121003A8E
:1098C80018BF0122003B18BF01238DF8051040F294
:1098D800111000218DF806200422CDE906118DF81B
:1098E8000730049008928DF8241002AB6A4404A94A
:1098F800134804F009FEB3E6124A134B0021CDE9E0
:10990800022340F2F9700822CDE90611049008926A
:109918008DF8241001AB6A4404A9094804F0F4FD49
:1099280094E60A482246402105F0ACFA54E700BF05
:10993800A5030020920000209100002004000020D0
:109948003C030020000303CC01000101000400488F
:10995800114B1A68B2F5F07F00D070471B69022BD3
:10996800FBD90E4B1B78002BF7D110B50C4C0D4AC8
:1099780023885BBA138003F009FFA3780A4A0B4CCB
:1099880040F67F4101FB03F3A2FB03230849226849
:109998000860DB09536310BD200300200400002089
:1099A80018030020AC000020818080808002002005
:1099B80064000020194B1A68B2F5B07F00D07047D8
:1099C8001B69012BFBD970B5154B1B7803F0FF04FD
:1099D80003B170BD134D144E2B78337003F0D6FECF
:1099E8006A78124B012A18600DD0114B11481B6878
:1099F800A2F10102B2FA82F25C635209BDE870403A
:109A0800402105F03FBA34780B4B40F67F4101FB0B
:109A180004F4A3FB0434E409E7E700BF20030020B3
:109A28000400002018030020900000208C00002073
:109A3800800200200004004881808080F8B51E4B19
:109A48001A68B2F5907F00D0F8BD1B69042BFBD9CA
:109A58001A4B1B7803F0FF05002BF5D172B6184E90
:109A680018483478184F202105F006FAA4F10104AB
:109A7800B4FA84F46409A0422246124818BF3D6033
:109A8800202105F0FFF9D6F8013013B93B6062B622
:109A9800F8BD0E4A0E4D0B4800241BBA136008216E
:109AA80022463B602C7005F0EDF90648224640211D
:109AB80005F0E8F9EBE700BF2003002004000020D0
:109AC8001803002000040048B4000020080000200B
:109AD800B00000200F4B1A68B2F50C7F07D040F297
:109AE80031218A4202D11A69032A0BD070471A69B8
:109AF800032AFBD1084B1B78002BF7D107493020EC
:109B080000F050BF044B1B78002BEFD103493120E4
:109B180000F048BF200300200400002018030020A4
:109B2800404AF8B51368B3F5B87F22D040F27311F4
:109B38008B4203D11369002B4DD1F8BDB3F5BC7F1F
:109B4800FBD11369002BF8D0374A384B12781A70BA
:109B58001B78374A374903EB8300C3EB4023096876
:109B6800A2FB0323DB094B6303F010FE324B1860A2
:109B7800F8BD1369052BE0D92B4C304A23885BBA12
:109B8800138003F003FE2E4A2E4B10601B7803F05F
:109B9800FF06002BD1D172B6A5782B482B4F202178
:109BA80005F06AF9A5F10105B5FA85F56D09A84230
:109BB8002A464FF02001244818BF3E6005F062F99C
:109BC8002379E17862791B0243EA0143134317D1F1
:109BD8003B6062B6F8BD144A1D4B12781A701B78A8
:109BE800134A1C4903EB8300C3EB40230968A2FB1B
:109BF8000323DB094B6303F0C9FD174B1860F8BD5D
:109C0800164A174D1360002422460F483B6008216E
:109C18002C7005F037F90C482246402105F032F93E
:109C2800D7E700BF2003002018030020740000209D
:109C3800818080803402002068000020AC00002071
:109C4800600000200400002000040048B400002048
:109C58009C000020800200207800002008000020DE
:109C6800B000002030B57A4B1C68B4F5047F8BB087
:109C780034D040F21122944204D11A69082A3ED005
:109C88000BB030BD40F2122294421AD11B69082B46
:109C9800F6D1704C2378032BF2D86F4D6F4905EB42
:109CA800C302013308684968DBB2042B03C223707E
:109CB800E6D120222946022000F074FE00232370FA
:109CC800DEE740F21322944212D0B4F5057F19D191
:109CD8001A69082AD4D16149042004E01A69042ABF
:109CE800CED15E4902200BB0BDE8304000F05ABE2C
:109CF8001A69002AC4D05949D2B20320F3E7574958
:109D08000120F0E76FF40572A2180B2A07D8DFE8E4
:109D180002F08E6E3806060606060606062F40F284
:109D280021229442ACD11B69022BA9D14B4B5D78FF
:109D38001878082D28BF08252A4601A900F05EFEDC
:109D480000289DD0464804F055FC002898D00020F3
:109D58000021CDE906014FF0000C01AA6B4604A9C9
:109D68003F48049408958DF824C004F0CDFB87E79C
:109D78001A69012A84D93B49013A11F8010CD2B277
:109D8800B1E70A2201A9062000F038FE00283FF4B6
:109D980077AF334804F02EFC80B140F21720082139
:109DA80000240025049008912D488DF8244001AA2C
:109DB8006B4604A9CDE9064504F0A6FB284804F043
:109DC80019FC00283FF45CAF4FF406720020002114
:109DD8000223CDE9060100240492089303AA6B46E6
:109DE80004A91F488DF8244004F08EFB48E701229F
:109DF8006946052000F002FE00283FF441AF1848EC
:109E080004F0F8FB00283FF43BAF40F21620012194
:109E180000240025049008916A4601AB04A9104863
:109E28008DF82440CDE9064504F06EFB28E70122B1
:109E38006946002000F0E2FD00283FF421AF084801
:109E480004F0D8FB00283FF41BAF40F21520DEE7F2
:109E580020030020A6030020A803002018030020E8
:109E68003C0300201903002008B5094B1A68B2F515
:109E7800987F00D008BD1B69012BFBD9054B064A0A
:109E88001B885BBA138003F081FC044B186008BD83
:109E98002003002018030020AC00002064000020EC
:109EA8002DE9F04D114D88B00C46064601F1200809
:109EB8004FF0000A4FF0000B0827284604F09AFBE1
:109EC8004FF0000C01AB224602A958B128460834CD
:109ED800CDE904AB029606978DF81CC004F014FB7C
:109EE8004445EAD108B0BDE8F08D00BF3C0300202E
:109EF80010B5354B1C68B4F5147F8AB00CD040F20D
:109F0800512294422AD040F25222944211D11B6924
:109F1800002B43D10AB010BD2C4B1B7803F0FF0275
:109F2800002BF7D12A4910200AB0BDE8104000F0F4
:109F380039BDB4F5157FEDD11B69002BEAD0244B50
:109F480002AA19781320202300F094FD0028E1D0FC
:109F580002A940F25520FFF7A3FFDBE701220DF12C
:109F68000301112000F04AFD0028D3D0194804F05D
:109F780041FB0028CED09FED127B01214FF0000C51
:109F880006910DF1030201AB02A9124802948DED6E
:109F9800047B8DF81CC004F0B7FABBE70C4B02AA8F
:109FA80019781220202300F065FD0028B2D002A9FC
:109FB80040F25320FFF774FFACE700BFAFF3008017
:109FC8000000000000000000200300200400002022
:109FD800180300203C0300200D4B1A68B2F5E87FF7
:109FE80000D070471B69002BFBD00A4B1B78002B55
:109FF800F7D1094B094A1B78094940F67F4000FB15
:10A0080003F30968A2FB0323DB094B63E9E700BFFD
:10A018002003002004000020180300208180808095
:10A028008002002070B52A4C23788BB9294B1A6816
:10A03800B2F5E07F0DD0B2F5007F09D11B69022B84
:10A0480006D9254B1B781BB9244B1B78182B28D015
:10A0580070BD1B69022BFBD91F4B1B78002BF7D156
:10A068001E4B1B780E2BF3D11D4D2B78012BEFD1F6
:10A078001C48082104F000FF01280646E8D1B5F87D
:10A088000130194A5BBA138003F080FB174B186044
:10A09800267032460221BDE870404FF0904004F02F
:10A0A800F1BE0F4B1D78012DD2D1B3F801300E4A05
:10A0B8005BBA138003F06AFB0C4B186025702A46C4
:10A0C8000221BDE870404FF0904004F0DBBE00BFB5
:10A0D800880000202003002004000020A5030020A1
:10A0E800180300200004004880000020840000209D
:10A0F80010B50B4C237803B910BD03F047FB094A90
:10A10800094B12681B88801A9BB29842F4D300222C
:10A1180002214FF0904004F0B5FE0023237010BDDB
:10A1280088000020840000208000002008B5104B23
:10A138001A78042A03D01B78112B00D008BD0D48CB
:10A1480003F060FD0B48022103F010FE48B10948F6
:10A1580003F0E8FD0848082104F08EFE074B18704C
:10A1680008BD044803F09AFE054B80B21880EEE75C
:10A17800A5030020E800002000040048A9000020F2
:10A18800AA00002008B50E4B1A784AB11A78052A99
:10A1980006D01A78092A03D01B78082B00D008BDEE
:10A1A8000848082104F068FE074BB0FA80F01A78D6
:10A1B8004009824208BF054A187008BF107008BDE0
:10A1C800A5030020000400481000002044000020DF
:10A1D800564B1A7812B11B78132B49D12DE9F0434D
:10A1E800002283B002214FF0904004F04BFE002380
:10A1F8000193019BB3F5207F06D2019B01330193A4
:10A20800019BB3F5207FF8D3494803F0FBFC48488D
:10A21800022103F0ABFD002854D0464E01233370D1
:10A22800454D434803F07EFD2B889BB2B3F5DF7F95
:10A238001FD2337803F0FF0423BB404F97F8008008
:10A24800B8F1000F20D03E4B3E491C600A882B888D
:10A258009BB292B2023B9A424FDA01243C702246EA
:10A2680002214FF0904003B0BDE8F04304F00ABE6D
:10A278007047012300222A803370337803F0FF04EB
:10A28800002BDAD00022EBE7DFF8B490D9F80030E1
:10A29800002B3CD003F07AFAD9F800302949C01ACB
:10A2A80040F6B8339842D1D9274B0A881B8892B216
:10A2B80005339A42CADD0123424602214FF09040FD
:10A2C8003370D0E71A4803F0E9FD40F6E973A0F1CE
:10A2D80010029A42A1D84FF4E17202FB00F01B4B26
:10A2E8001849144E00F2FF70A3FB0023C01A03EBB9
:10A2F8005003C3F3CF230B8092E70A882B889BB2C5
:10A3080092B202339A420BDD00233B70A7E703F0B9
:10A318003DFA0C490C4B0A88C9F800001A8095E7E9
:10A328003C78003C18BF012499E700BFA503002032
:10A33800E800002092000020AC000020D803002094
:10A34800D4030020AE000020D20300200101100039
:10A358002DE9F843604B1B780A2B01D0BDE8F88340
:10A368005E4803F04FFC5D48022103F0FFFC044601
:10A3780000284AD05A4E012333705A4D574803F0EB
:10A38800D1FC2B889BB2B3F5967F29D8337803F09C
:10A39800FF04002B5FD1544F97F80090B9F1000FDC
:10A3A80023D1DFF85081D8F80030002B5BD103F0BF
:10A3B800EDF94E494E4B0A88C8F800001A800A8801
:10A3C8002B889BB292B2023B9A4212DA01243C706B
:10A3D80022460221BDE8F8434FF0904004F052BDF8
:10A3E800002201232A803370D0E7424B3F491C608A
:10A3F800E5E70A882B889BB292B202339A424DDC79
:10A408003C78003C18BF0124E2E7344803F046FDDD
:10A4180040F6E973A0F110029A42ABD883B2742BCC
:10A428003FD940F6C67293423ED8334A05B2234616
:10A43800171D32F92310A94202EB830603DC37F912
:10A448002340AC4232DA0133202BF2D100232749D2
:10A45800234E0B8091E7BDE8F843002202214FF01C
:10A46800904004F00FBD03F091F9D8F800301F496F
:10A47800C01A40F6B8339842A1D91D4B0A881B88E8
:10A4880092B205339A429ADD012333704A4602217B
:10A49800BDE8F8434FF0904004F0F4BC00233B7053
:10A4A80096E74FF4A073D2E72346D0E7B6F90250F7
:10A4B800B6F90630641A5B1B401A03FB00F004EB84
:10A4C800D4735B100028B8BF5B42034493FBF4F3DA
:10A4D8002B449BB2BBE700BFA5030020E800002087
:10A4E80092000020AC000020D0030020AE00002025
:10A4F800C8030020CC0300209412010870B52B4E2D
:10A508002B482B4D002384B001224FF40061337097
:10A5180004F0B8FC264801224FF4806104F0B2FC34
:10A528004FF4FA6401E0002C3DD04FF480612846D6
:10A5380004F0A2FC013C0128A4B2F4D10023039347
:10A54800039BB3F5A07F06D2039B01330393039BC0
:10A55800B3F5A07FF8D3164800224FF4006104F049
:10A5680091FC00230293029BB3F5A07F06D2029BC5
:10A5780001330293029BB3F5A07FF8D30C48002265
:10A588004FF4806104F07EFC00230193019BB3F536
:10A59800A07F06D2019B01330193019BB3F5A07FF5
:10A5A800F8D304B070BD01233370C7E7D903002086
:10A5B8000004004830B5274885B000224FF40061F8
:10A5C80004F060FC00230393039BB3F5A07F06D23D
:10A5D800039B01330393039BB3F5A07FF8D31D4876
:10A5E8001C4D01224FF4806104F04CFC4FF4FA64D6
:10A5F80000E054B34FF48061284604F03DFC013C70
:10A608000128A4B2F5D100230293029BB3F5A07FE1
:10A6180006D2029B01330293029BB3F5A07FF8D3C5
:10A628000C4801224FF4006104F02CFC0023019334
:10A63800019BB3F5A07F06D2019B01330193019BD7
:10A64800B3F5A07FF8D305B030BD034B01221A70D3
:10A65800D9E700BF00040048D90300202DE9F041E4
:10A66800554D86B080460726002748FA06F202F0C4
:10A6780001024FF40061284604F004FC0297029B93
:10A68800B3F5A07F06D2029B01330293029BB3F578
:10A69800A07FF8D301224FF48061284604F0F2FB32
:10A6A8004FF4FA6401E0002C7ED04FF48061284614
:10A6B80004F0E2FB013C0128A4B2F4D10197019B0C
:10A6C800B3F5A07F06D2019B01330193019BB3F53B
:10A6D800A07FF8D300224FF48061284604F0D2FB13
:10A6E8000097009BB3F5A07F06D2009B013300932F
:10A6F800009BB3F5A07FF8D3013EB6D22E480122C5
:10A708004FF4006104F0BEFB00230593059BB3F5ED
:10A71800A07F06D2059B01330593059BB3F5A07F67
:10A72800F8D32548244D01224FF4806104F0AAFB98
:10A738004FF4FA6401E0002C3AD04FF480612846C7
:10A7480004F09AFB013C0128A4B2F4D1002304933D
:10A75800049BB3F5A07F06D2049B01330493049BAA
:10A76800B3F5A07FF8D34FF40061134804F084FBDD
:10A778000446013C10484FF000024FF4806118BFB6
:10A78800012404F07FFB00230393039BB3F5A07F10
:10A7980006D2039B01330393039BB3F5A07FF8D341
:10A7A800204606B0BDE8F081044B01221A7085E707
:10A7B800024B01221A70C9E700040048D90300209F
:10A7C8002DE9F043012287B081464FF400615348D8
:10A7D800524D04F057FB00270826B846CDF80880EC
:10A7E800029BB3F5A07F06D2029B01330293029B22
:10A7F800B3F5A07FF8D301224FF48061284604F016
:10A8080041FB4FF4FA6401E0002C7FD04FF48061E3
:10A81800284604F031FB013C0128A4B2F4D1CDF85C
:10A828000480019BB3F5A07F06D2019B01330193FD
:10A83800019BB3F5A07FF8D34FF40061284604F0DC
:10A848001BFBA0F10103B3FA83F35B0943EA470357
:10A8580000224FF480612846013EDFB204F012FB6B
:10A8680016F0FF06BAD1B9FA89F22C4852094FF40A
:10A87800006104F007FB0596059BB3F5A07F06D29F
:10A88800059B01330593059BB3F5A07FF8D32348B7
:10A89800224D01224FF4806104F0F4FA4FF4FA6477
:10A8A80001E0002C36D04FF48061284604F0E4FA29
:10A8B800013C0128A4B2F4D100230493049BB3F50E
:10A8C800A07F06D2049B01330493049BB3F5A07FB9
:10A8D800F8D3124800224FF4806104F0D3FA0F48ED
:10A8E80001224FF4006104F0CDFA00230393039B87
:10A8F800B3F5A07F06D2039B01330393039BB3F503
:10A90800A07FF8D3384607B0BDE8F083044B012296
:10A918001A7084E7024B01221A70CDE70004004840
:10A92800D90300201C4B30B55A691C4D42F48022D3
:10A938005A615B6989B003F480234FF440601121A8
:10A94800CDE90201002401931448019A04940323D9
:10A9580002A9CDE9053404F097F9104801224FF413
:10A96800806104F08FFA4FF4FA6400E084B14FF488
:10A978008061284604F080FA013C0128A4B2F5D190
:10A98800064801224FF4006104F07CFA09B030BD9A
:10A99800034B01221A70F3E700100240000400483C
:10A9A800D903002070B506460C461546FFF7A6FDEC
:10A9B8008420FFF753FE18B9FFF7FCFD002070BD97
:10A9C8003046FFF74BFE06465DB1254410B9F3E764
:10A9D8000028F1D014F8010BFFF740FEAC42064600
:10A9E800F6D1FFF7E7FD002EE8D0034B1878B0FA50
:10A9F80080F0400970BD00BFD9030020F0B583B0D6
:10AA080004460E461546FFF779FD8420FFF726FE1B
:10AA180018B12046FFF722FE20B9FFF7CBFD002032
:10AA280003B0F0BDFFF76AFD8520FFF717FEC8B138
:10AA38007DB1741E6F1EC6F1010625443019B84257
:10AA4800ACBF00200120FFF7BBFE04F8010FAC42A9
:10AA5800F4D1FFF7AFFD064B1878B0FA80F0400943
:10AA680003B0F0BD0190FFF7A5FD019803B0F0BD5C
:10AA7800D9030020F0B583B004460F4616461D469C
:10AA8800FFF73CFD8420FFF7E9FD20B9FFF792FDB1
:10AA9800002003B0F0BD2046FFF7E0FD0028F5D008
:10AAA8003846FFF7DBFD0028F0D0FFF727FD8520AB
:10AAB800FFF7D4FDC8B17DB1741E6F1EC6F1010643
:10AAC80025443019B842ACBF00200120FFF778FEBA
:10AAD80004F8010FAC42F4D1FFF76CFD064B18786F
:10AAE800B0FA80F0400903B0F0BD0190FFF762FDB5
:10AAF800019803B0F0BD00BFD90300202DE9F04153
:10AB080000241F4E82B080460725274648FA05F2E2
:10AB180012F0010218BF01224FF40041304604F040
:10AB2800B1F900220421304604F0ACF90097009BEB
:10AB3800132B05D8009B01330093009B132BF9D9E5
:10AB480001220421304604F09DF94FF4807130460B
:10AB580004F092F964000128E4B201D144F0010440
:10AB68000197019B132B05D8019B01330193019B8E
:10AB7800132BF9D9013DC9D2204602B0BDE8F081B6
:10AB880000040048F0B51E4D87B0002401220421BE
:10AB98004FF09040CDE90044CDE90244049404F01C
:10ABA80071F901222846042104F06CF901270323D6
:10ABB800042669464FF0904003930096CDE901744E
:10ABC80004F062F869462846009604F05DF84FF4F0
:10ABD800004669462846009604F056F84FF48072FD
:10ABE800002369462846CDE90023029704F04CF873
:10ABF800044800966946029404F046F807B0F0BD90
:10AC080000040048000800485AB32DE9F043DFF873
:10AC1800588085B081460E461546322706E02D1B22
:10AC2800A144ADB21FFA89F92644B5B109F01F0451
:10AC3800C4F12004A4B2AC4228BF2C46CDE9014798
:10AC4800009602234A46A021404604F0AFFB0028A4
:10AC5800E5D0002005B0BDE8F083012005B0BDE8CF
:10AC6800F0830120704700BF3801002000B585B08F
:10AC780084463223CDE90123009102236246A021B4
:10AC8800044804F093FCB0FA80F0400905B05DF880
:10AC980004FB00BF380100202DE9F047DFF85C8194
:10ACA800514FDFF85C9188B00A254FF0FF0A002663
:10ACB8000121404604F0E0F80221B0FA80F4404651
:10ACC800640904F0D9F808B944F0020410213846A0
:10ACD80004F0D2F808B944F004048021384604F09E
:10ACE800CBF808B944F008044FF40051484604F082
:10ACF800C3F808B944F0100454450CD10136F6B233
:10AD0800032E0AD0022002F047FD6B1E13F0FF0548
:10AD180003D0A246CCE70126F4E7344B182C1C706C
:10AD280004D8334B1C7008B0BDE8F0871F2C1DD029
:10AD38002F49304B2C4819240C70012240211A70DD
:10AD480004F0A0F8284800224FF4007104F09AF8A3
:10AD580025480022402104F095F8002202214FF0F6
:10AD6800904008B0BDE8F04704F08CB81D22694651
:10AD78000020FFF77BFF18B11F4B009A9A421DD0A5
:10AD88001B491C4B184819240C70012240211A70C9
:10AD980004F078F8144800224FF4007104F072F8B7
:10ADA80011480022402104F06DF8002202214FF0E2
:10ADB800904004F067F808B0BDE8F0879DF80430CB
:10ADC800052BDDD1684601F09BF89DF81C308342C5
:10ADD800D6D19DF81A20013AD2B2182AD0D8044BFD
:10ADE8001A7008B0BDE8F087000400480C00002085
:10ADF800A503002092000020435452550014004837
:10AE0800000800480E4A0F48D16930B441F4800167
:10AE1800D161D2690C4C0D4982B002F480020192D2
:10AE2800019D00230122C0E90041C0E90232C0E9C6
:10AE38000433C0E90633036202B030BC04F068B9D9
:10AE48000010024038010020005800402A2310005A
:10AE5800144B15495A6930B542F001025A615B69D1
:10AE6800124C83B003F0010301930025802301985D
:10AE780010222046C4E90253C4E90012C4E904556B
:10AE8800C4E9065503F034FE2A4603210D2003F0D9
:10AE9800CBFD0D2003F004FE054B63625C6503B037
:10AEA80030BD00BF00100240300002408C0100207D
:10AEB800D0010020134A1448916930B441F48051FC
:10AEC80091619269114982B002F4805201924FF463
:10AED8008272C0E90012019D4FF4007200234FF402
:10AEE800E064202182610722C0E90234C0E904330A
:10AEF800C0E90713C0E90933C26202B030BC05F0EB
:10AF0800E9BA00BF00100240D00100200030014023
:10AF18002F4BF0B5DA692F4C42F00072DA61DB6929
:10AF280091B003F00073009302274FF4C05101263B
:10AF3800CDE90117009801A9032209234FF0904099
:10AF4800CDE90362059303F09FFE234A04230025FD
:10AF5800C4E900234FF080734FF44022C4E9025340
:10AF68004FF48013C4E904234FF00123A361204662
:10AF78004FF48073A38303F0A1F906A92046CDE915
:10AF88000B55CDE90655CDE908550D960A950E964F
:10AF980003F014FA204603F089FA3946204603F0F4
:10AFA800C1FB4FF40441204603F0BCFB2A4631465E
:10AFB800142003F039FD142003F072FD2A463146AF
:10AFC800162003F031FD162003F06AFD11B0F0BD24
:10AFD800001002403C0300200064004030B5A1B0DE
:10AFE80000242022002107A8FDF7AEFA21463C22C2
:10AFF80010A8CDE90144CDE903440594FDF7A4FA6E
:10B0080001221023CDE90A2302254FF4601306A874
:10B018000F9306950D9504F0A5FC0F23019329467F
:10B028004FF4806301A8CDE903430295059404F029
:10B0380083FF602310A8CDE91744109305F02AF880
:10B0480021B030BD70B500258CB0CDE90655CDE9ED
:10B058000855324C0A95A36943F00103A361A3691B
:10B0680003F001030093009B636943F400336361B9
:10B07800636903F400330193019B636943F48023FC
:10B088006361636903F480230293029B636943F459
:10B0980080036361636903F480032A4603934FF4D2
:10B0A80000414FF09040039B012603F0EBFE4FF464
:10B0B800004306A94FF09040CDE90636CDE9085582
:10B0C80003F0E2FD0322002306A915480896CDE9FE
:10B0D800062303F0D9FD06A912489023069303F02E
:10B0E800D3FDE36943F08053E361E36903F08053E0
:10B0F8000493049B04F02EFC63690B4843F400237B
:10B108006361636903F400234FF40052059306A9B1
:10B11800059B069203F0B8FD0CB070BD001002400C
:10B1280000140048000400480008004870B50024D6
:10B1380086B0774D7748049422462021CDE9004413
:10B14800CDE9024403F09EFE2B78092B00F0B38072
:10B158002B78052B00F0D5802B78192B00F09F80D9
:10B168006C480122402103F08DFE4FF41871012331
:10B17800CDE900130022032366486946CDE902237E
:10B1880003F082FD2B78012B14D02B78022B11D0E1
:10B198002B78032B0ED02B78062B0BD02B78072B74
:10B1A80008D02B780A2B05D02B780C2B02D02B78C3
:10B1B800102B10D157480022082103F063FE082104
:10B1C8000123CDE900130022032352486946CDE943
:10B1D800022303F059FD2B78152B72D000224D481D
:10B1E800022103F04FFE022569464A48009503F004
:10B1F8004BFD002229464FF0904003F043FE69467C
:10B208004FF09040009503F03FFD80230024CDE9E6
:10B2180000350326052369464FF090400493CDE995
:10B22800024603F031FD4FF480730093694606230C
:10B238004FF09040CDE90363CDE9015403F024FDBC
:10B248000125224610214FF09040CDE90154CDE967
:10B25800034403F017FE102369464FF09040009313
:10B2680003F012FD4FF40413694608224FF0904092
:10B27800CDE90023029503F007FD22462146092067
:10B2880003F0D2FB092003F00BFC224631461720BD
:10B2980003F0CAFB172003F003FC06B070BD22467A
:10B2A8001C48402103F0EEFD1A4822464FF4007175
:10B2B80003F0E8FD59E717482246402103F0E2FD74
:10B2C80053E7144801224FF4804103F0DBFD114895
:10B2D80000224FF4805103F0D5FD0E4800224FF4B0
:10B2E800005103F0CFFD4FF4E0400121CDE900010A
:10B2F8000022032307486946CDE9022303F0C4FC72
:10B308006CE7044822464FF4007103F0BBFD2CE7BC
:10B31800A503002000040048134B1449DA6930B52E
:10B3280042F00202DA61DB69114C83B003F00203D8
:10B33800019300254FF47A73019825613F22204636
:10B34800C4E90012C4E9025305F058FD2A46022157
:10B358001D2003F069FB1D2003F0A2FB204603B06B
:10B36800BDE8304005F062BB001002400004004018
:10B37800CC02002030B500248BB0CDE90244CDE9E1
:10B388000444CDE90644184B08949A69174D42F4D1
:10B3980000629A619B696C6103F400630146019342
:10B3A8002846134B019A2B60C5E90314C5E90144EB
:10B3B80005F056FD6023029300220023CDE9062301
:10B3C80002A922462846CDE903440594089405F0CD
:10B3D800BBFD2146284605F0F7FB2A68536C43F469
:10B3E800004353640BB030BD0010024080020020BF
:10B3F800002C014030B500248BB0CDE90244CDE9E2
:10B408000444CDE90644144B0894DA69134D42F01C
:10B418000102DA61DB696C6003F0010301934FF00C
:10B42800804240F6FF132846C5E9024301992A6085
:10B438002C6105F015FD00236022CDE9022302A945
:10B44800224628460494069405F07EFD21462846A7
:10B4580005F0BAFB0BB030BD0010024034020020EA
:10B46800F0B5002489B0CDE90244CDE90444CDE922
:10B4780006441A4B1A4D5A6942F080525A615B6968
:10B488002C8303F0805301934FF0A0432B604FF4BB
:10B498000033012607466B6028460423019AEE61B3
:10B4A800C5E90443C5E9024485F82040AE6285F841
:10B4B80030406C6302F060FA052302A92846CDE902
:10B4C8000363CDE905440297079402F035FD214650
:10B4D800284602F0E7FC09B0F0BD00BF00100240AA
:10B4E800E8000020014B01221A70704791000020EB
:10B4F800014803F03FB900BF3C030020044B4FF064
:10B5080090416FF0A0504FF0FF3208601A60FEE7DC
:10B51800000400480000000030B5082889B014D0A5
:10B52800402801D009B030BD3B4B1B780A2BF9D11C
:10B5380002F02CF9394A1368C31A012BF2D9384999
:10B5480010600B6801330B60ECE7334B1A780B2A59
:10B5580012D01A78052A33D01B780A2BE2D102F0D0
:10B5680015F9304A1368C31A012BDBD92E4910602C
:10B578000B6801330B60D5E702F008F92B4A136812
:10B58800C31A012BCED99FED227B9523012410608D
:10B59800029327488DF8004000238DED047B069424
:10B5A8008DF81C3003F026F8B8B101AB6A46204884
:10B5B80002A902F0A9FF1F4A136801331360B1E71B
:10B5C80002F0E4F81C4A1368C31A012BAAD91B49D4
:10B5D80010600B6801330B60A4E721461448144D32
:10B5E80002F0E4FF0221124802F0E0FF10480421B3
:10B5F80002F0DCFF4FF47A7403E0013CA4B2002CA3
:10B60800D3D0284602F0F6FF0028F6D0CDE700BFD9
:10B618000000000000000000A5030020DC0300205B
:10B6280070000020E003002098000020E8030020BC
:10B638003C03002048000020E4030020A400002070
:10B64800082003F02FBC00BF402003F02BBC00BF34
:10B6580002F090B8014805F0C1BA00BFCC02002042
:10B66800374B02689A4200D070472DE9F041354CBB
:10B67800354B22782178227822781B78152914BF37
:10B6880008214FF48051152A14BF40274FF48047F2
:10B6980003F0FF0683B92D4D2B685BB1DFF8B88046
:10B6A8002B4898F800300BBB012203F0EBFB012379
:10B6B80088F80030BDE8F081244B25480025012298
:10B6C80039461D6003F0DEFB224B1B6803B15D6346
:10B6D8002378092B2DD02378052BEBD1BDE8F04139
:10B6E8001B4800224FF4007103F0CCBB324603F034
:10B6F800C9FB88F8006072B62B68013B2B6062B604
:10B708002B68002BD6D12B68002BD3D12378072B9D
:10B71800D0D02378062BCDD023780A2BCAD0237813
:10B72800102BC7D039460A48BDE8F041012203F082
:10B73800A9BB07480022402103F0A4FBCBE700BFC8
:10B7480000040040A503002092000020B40000205F
:10B758000004004880020020B00000202DE9F843D2
:10B76800244C254B25786178A2781B78EDB2CEB2AF
:10B77800D7B273B1FF23214A237000236370A370EB
:10B7880013702378AB4226D01D4B01221A70BDE8F6
:10B79800F883DFF8689099F8003033B101F0F6FFCC
:10B7A800184B1B68C01A0028EBDB4FF0000889F81B
:10B7B800008001F0EBFF144B1B68C01A40F2DB530A
:10B7C80098420FD8FF2384F8008084F80180A37082
:10B7D8002378AB42D8D16378B342D5D1A378BB42A2
:10B7E800D2D1D4E7FF2384F80080637084F8028004
:10B7F800C7E700BFD0000020920000203C000020D6
:10B8080050000020380000204000002038B51A48B9
:10B8180004F0EAFF012802D00024204638BD174A68
:10B82800174B184D044650781178927800EB400079
:10B8380000EB030C185A288001EB41019CF8020028
:10B84800A870C81802EB4202595AA5F8031081786B
:10B858006971D018995AE98083782B726422002183
:10B8680005F10900FCF770FE6D222946024804F034
:10B87800D1FE204638BD00BFD0010020D0000020F6
:10B8880058140108EC03002070B582B072B6824DDE
:10B89800824A0024022304EB440C05EB0C00072128
:10B8A800467815F80CE090F802C0F6B25FFA8EFE02
:10B8B8005FFA8CFC46FA01F0C007936119D500BF06
:10B8C80000BF00BF00BF00BF00BF00BF00BF00BF78
:10B8D80000BF00BF00BF00BF00BF00BF00BF00BF68
:10B8E80000BF00BF00BF00BF00BF00BF00BF00BF58
:10B8F80000BF00BF00BF00BF00BF00BF00BF00BF48
:10B9080000BF00BF00BF00BF00BF00BF00BF00BF37
:10B9180000BF00BF00BF00BF00BF936200BF00BFF1
:10B9280000BF00BF00BF00BF00BF00BF00BF00BF17
:10B9380000BF00BF00BF00BF00BF00BF00BF00BF07
:10B9480000BF00BF00BF00BF00BF00BF00BF00BFF7
:10B9580000BF00BF00BF00BF00BF00BF00BF00BFE7
:10B9680000BF00BF00BF00BF00BF00BF00BF00BFD7
:10B9780000BF00BF00BF00BF00BF00BF00BF00BFC7
:10B98800013997D207214EFA01F0C607936119D5FC
:10B9980000BF00BF00BF00BF00BF00BF00BF00BFA7
:10B9A80000BF00BF00BF00BF00BF00BF00BF00BF97
:10B9B80000BF00BF00BF00BF00BF00BF00BF00BF87
:10B9C80000BF00BF00BF00BF00BF00BF00BF00BF77
:10B9D80000BF00BF00BF00BF00BF00BF00BF00BF67
:10B9E80000BF00BF00BF00BF00BF00BF936200BF21
:10B9F80000BF00BF00BF00BF00BF00BF00BF00BF47
:10BA080000BF00BF00BF00BF00BF00BF00BF00BF36
:10BA180000BF00BF00BF00BF00BF00BF00BF00BF26
:10BA280000BF00BF00BF00BF00BF00BF00BF00BF16
:10BA380000BF00BF00BF00BF00BF00BF00BF00BF06
:10BA480000BF00BF00BF00BF00BF00BF00BF00BFF6
:10BA580000BF013997D207214CFA01F0C007936162
:10BA68001ED500BF00BF00BF00BF00BF00BF00BFA2
:10BA780000BF00BF00BF00BF00BF00BF00BF00BFC6
:10BA880000BF00BF00BF00BF00BF00BF00BF00BFB6
:10BA980000BF00BF00BF03E0B8000020000400485A
:10BAA80000BF00BF00BF00BF00BF00BF00BF00BF96
:10BAB80000BF00BF00BF00BF00BF00BF00BF00BF86
:10BAC80000BF00BF00BF00BF936200BF00BF00BF40
:10BAD80000BF00BF00BF00BF00BF00BF00BF00BF66
:10BAE80000BF00BF00BF00BF00BF00BF00BF00BF56
:10BAF80000BF00BF00BF00BF00BF00BF00BF00BF46
:10BB080000BF00BF00BF00BF00BF00BF00BF00BF35
:10BB180000BF00BF00BF00BF00BF00BF00BF00BF25
:10BB280000BF00BF00BF00BF00BF00BF00BF01399A
:10BB380092D20134082C7FF4AEAE62B60023019392
:10BB4800019BB3F57A6F06D2019B01330193019BE8
:10BB5800B3F57A6FF8D302B070BD00BF014803F0A7
:10BB680049B800BF8C01002070B582B03226044667
:10BB78000D460B46024600960948782103F03EFB25
:10BB880058B1074803F020FBFFF73CF9044800963A
:10BB980078212B46224603F031FB02B070BD00BF6E
:10BBA80038010020094B1A7802B9704700B583B0F4
:10BBB80003460022022101A88DF804208DF80530E3
:10BBC800FFF7D2FF03B05DF804FB00BF11000020AF
:10BBD8000D4B1B7803B101B9704710B58029A2B08D
:10BBE80028BF802140230A460C4601460DF1050076
:10BBF8008DF80430FCF7FAFC611C89B201A8FFF744
:10BC0800B3FF22B010BD00BF110000200E4B1B78FF
:10BC180003B9704700B583B001F00F030A09503823
:10BC280004214FF0000C10328DF805000DEB0100D7
:10BC38008DF804C08DF806308DF80720FFF794FFC3
:10BC480003B05DF804FB00BF110000200F4B10B5D6
:10BC58005A6942F400325A615B6988B04FF4C06097
:10BC6800122103F40033CDE902010193012202A954
:10BC78004FF0904004240323CDE904230694019B4C
:10BC880003F002F8FFF7BEF808B010BD001002403C
:10BC980030B583B0FFF7DAFF322001F07DFD0523D0
:10BCA8009548964C0222782103F084FD051E0CBFAE
:10BCB80001230023237001D003B030BD4FF42E437D
:10BCC800022101A8ADF80430FFF74EFF2378002BBE
:10BCD800F2D04FF45543022101A8ADF80430FFF724
:10BCE80043FF2378002BE7D04FF40043022101A83B
:10BCF800ADF80430FFF738FF2378002BDCD04FF481
:10BD08002843022101A8ADF80430FFF72DFF23785E
:10BD1800002BD1D04FF47C53022101A8ADF8043098
:10BD2800FFF722FF2378002BC6D04FF4534302219C
:10BD380001A8ADF80430FFF717FF2378002BBBD01C
:10BD4800022101A8ADF80450FFF70EFF2378002B5D
:10BD5800B2D04FF48043022101A8ADF80430FFF7B8
:10BD680003FF2378002BA7D04FF40D43022101A82D
:10BD7800ADF80430FFF7F8FE2378002B9CD04FF481
:10BD8800A053022101A8ADF80430FFF7EDFE237897
:10BD9800002B91D04FF40053022101A8ADF80430D4
:10BDA800FFF7E2FE2378002B86D04FF400730221C0
:10BDB80001A8ADF80430FFF7D7FE2378002B3FF435
:10BDC8007BAF4FF42143022101A8ADF80430FFF7FF
:10BDD800CBFE2378002B3FF46FAF4FF4484302218A
:10BDE80001A8ADF80430FFF7BFFE2378002B3FF41D
:10BDF80063AF4FF45A43022101A8ADF80430FFF7AE
:10BE0800B3FE2378002B3FF457AF4FF49053022131
:10BE180001A8ADF80430FFF7A7FE2378002B3FF404
:10BE28004BAF4FF40143022101A8ADF80430FFF7EE
:10BE38009BFE2378002B3FF43FAF4FF44F43022182
:10BE480001A8ADF80430FFF78FFE2378002B3FF4EC
:10BE580033AF4FF45943022101A8ADF80430FFF77E
:10BE680083FE2378002B3FF427AF4FF47143022160
:10BE780001A8ADF80430FFF777FE2378002B3FF4D4
:10BE88001BAF4FF45B43022101A8ADF80430FFF764
:10BE98006BFE2378002B3FF40FAF4FF48043022151
:10BEA80001A8ADF80430FFF75FFE2378002B3FF4BC
:10BEB80003AF4FF42443022101A8ADF80430FFF783
:10BEC80053FE2378002B3FF4F7AE4FF426430221AC
:10BED80001A8ADF80430FFF747FE2378002B3FF4A4
:10BEE800EBAE4FF42F43022101A8ADF80430FFF761
:10BEF8003BFE03B030BD00BF380100201100002018
:10BF0800411E00F11B0C002011F8012F082350409E
:10BF180042B2002AB8BF52004FEA4000B8BF82F0D0
:10BF2800070203F1FF33ACBFC0B2D0B213F0FF0376
:10BF3800EED18C45E8D170472DE9F041002488B056
:10BF4800404D1D22694620462C70FEF78FFE18B121
:10BF58003D4B009A9A4202D008B0BDE8F0819DF8A6
:10BF68000430052BF8D10DF1FF300DF11B0C2246E2
:10BF780010F8011F08234A4051B20029B8BF4900F0
:10BF88004FEA4202B8BF81F0070103F1FF33ACBFAB
:10BF9800D2B2CAB213F0FF03EED18445E8D19DF8BE
:10BFA8001C109142D8D16C469C4601232B70A646A2
:10BFB8000FCC264F264E38607960BA6007CCFB60FC
:10BFC800237838617961BA613B773377BEE80F002F
:10BFD80030607160B260BEE80700DFF88C80F36003
:10BFE80030617161B2619DF810209DF8113088F8B8
:10BFF8000020184D88F801309DF813009DF8123084
:10C008009DF814109DF8152088F802300CEB4C03AD
:10C018000CF1010CE8542B44BCF1080F59709A70CC
:10C02800F4D10D480D4A9DF8174004700C490D4B8A
:10C038009DF8194014709DF81A009DF81B2008708F
:10C048001A7089E78403002043545255880300205E
:10C0580064030020B8000020530000208303002060
:10C068008203002081030020D0000020F0B589B0B1
:10C078001D2200216846FCF767FA72B6734C7449B2
:10C0880022782378009105208DF804008DF805208A
:10C09800002B40F09E806F4B1B889BB22278ADF836
:10C0A80006300A2A04BF6B4B1B8822780CBF9BB250
:10C0B8000023052AADF8083004BF674B1B782278A7
:10C0C8000CBFDBB20023052A8DF80A3000F0B280DD
:10C0D800002322788DF80B30092A04BF5F4B1B78A8
:10C0E80022780CBFDBB20023092A8DF80C3000F04F
:10C0F8009780002322788DF80D300A2A04BF584B08
:10C108001B7822780CBFDBB200230A2A8DF80E3088
:10C1180008BF544B544A08BF1978544B14785078C8
:10C128008DF811000CBFC9B200218DF80F1091785D
:10C138001A788DF8121058788DF8132099781A7893
:10C148008DF810408DF814008DF8151012B95A7832
:10C15800002A40D00123464A8DF8163012788DF80F
:10C16800172044484449454A454B007809781278D5
:10C178001B788DF818008DF819108DF81A208DF895
:10C188001B3062B600210DF1FF320DF11B0012F8D1
:10C19800013F082459404BB2002BBCBF5B0083F021
:10C1A80007034FEA4101B8BFD9B204F1FF33A8BF72
:10C1B800C9B213F0FF04EED18242E8D1314D8DF8B7
:10C1C8001C101C2229466846FCF7AAFA40B909B097
:10C1D800F0BD002362E79B78003B18BF0123BAE754
:10C1E800294F01F0D3FA3B6840F6B732C31A93429D
:10C1F8000646ECD920461D226946FEF705FD0028B3
:10C20800E5D06C460FCC28606960AA6007CCEB606B
:10C2180023783E6028616961AA612B7709B0F0BD77
:10C228001A48402102F028FEA0F10103B3FA83F373
:10C238005B095FE710214FF0904002F01DFEA0F16E
:10C248000103B3FA83F35B0943E700BFA5030020AA
:10C2580043545255AC000020A80000209000002054
:10C268009C00002074000020D0000020B8000020AE
:10C278005300002092000020830300208203002046
:10C288008103002064030020B40400200004004857
:10C29800F0B5152A1C4F85B0054628BF1522002683
:10C2A800A7FB0103DB0806F1100003EB830CA1EBED
:10C2B8004C0C0DEB000E084634460CF1300C0136E0
:10C2C80009280EF80CCCF6B21946E9D8B24211D8B2
:10C2D80000206EB101AA01341444034614F801CDBC
:10C2E80005F803C0591CA242CBB2F7D13044C0B202
:10C2F80005B0F0BD921B02F0FF073A462021284600
:10C30800FCF722F93846E4E7CDCCCCCC70B514461E
:10C31800A0B0FFF77BFC2178684681B34FF0000C92
:10C328001C4E8646654613E03F2B2CD9CEF80050AC
:10C338008EF8045014F8011F8EF805500CF1010C0A
:10C348000EF1060E5FFA8CFCA9B1BCF1150F1CD0DA
:10C35800A1F16102A1F12003192ADBB2E4D8203B44
:10C3680003EB83039BB29919F2580B798EF80430CA
:10C37800CEF80020DEE70CEB4C0C4FEA4C01FFF73F
:10C3880027FC20B070BD0B46E9E77E21FFF720FCB3
:10C3980020B070BD1813010808B50021FFF736FC5E
:10C3A800BDE8084001488021FFF712BCE41B0108E2
:10C3B800F0B5642B28BF6423802A144628BF802444
:10C3C8000D06A1B002D40D19802D2CDC1D4D14FBD7
:10C3D80003F3A5FB0335C5F347157AB36E46B44698
:10C3E8000023671E0CE0BB420DD001335FFA83FEC9
:10C3F800AA4294BF5E224222A6450CF8012B0AD21B
:10C40800DAB2002BEFD101335FFA83FE7E22A64514
:10C418000CF8012BF4D3FFF7F9FB21463046FFF760
:10C42800D7FB21B0F0BDC1F18004064AE4B214FB89
:10C4380003F3A2FB0325C5F34715CFE714466E4661
:10C44800E9E700BF1F85EB51F0B5154F154E3B7856
:10C45800192828BF002003EB800306EB4313840050
:10C468000FCB85B06D4685E80F006C210520FFF7DE
:10C47800CDFB28461021FFF7ABFB3B78E01806EB15
:10C48800401310330FCB85E80F006C210620FFF70F
:10C49800BDFB10212846FFF79BFB05B0F0BD00BF90
:10C4A80035000020E4280108F0B589B001F06EF9E4
:10C4B800A14B1B68C01AC72825D8A04B93E80300D6
:10C4C8006C4684E8030000210846FFF79FFB2046DE
:10C4D8009B4C0821FFF77CFB2378102B00F2DC81B2
:10C4E800DFE813F015026A006A002402EF01F70181
:10C4F80016001600DC01E701FF012C020D02DA012B
:10C50800DA01DA0116006C46002300936360DAE76B
:10C518008C4B8D4A19688D4B002908BF1A460A2191
:10C528000020FFF7F3FE2478E4B20B2C0DD8DFE8E7
:10C5380014F088010C000C000C005C0131010C00A7
:10C548000C00D600A20076004B0000268049532438
:10C558003346721C20336B44D6B203F8184C8C5DFA
:10C568003346002CF5D1774B7A491A687A4F8A42BC
:10C5780002AD98BF1968A8190522FFF789FE304453
:10C588002022C0B2811800230DEB0106611C334440
:10C59800CCB203F8182C3A5D2346002AF6D1204481
:10C5A80008AB53FA80F000F8182C2A460021012025
:10C5B800FFF7ACFE09B0F0BD624B684A1968634BDF
:10C5C800002908BF1A46AAE70026654948243346C9
:10C5D800721C20336B44D6B203F8184C8C5D33467A
:10C5E800002CF5D15F4B5B491A685F4F8A4202AD58
:10C5F80098BF1968A8190522FFF74AFE304420227F
:10C60800C0B2811800230DEB0106611C3344CCB283
:10C6180003F8182C3A5D2346002AF6D1BFE7002616
:10C62800524948243346721C20336B44D6B203F86F
:10C63800184C8C5D3346002CF5D14D4B4D4F198865
:10C6480002AD0322A81989B2FFF722FE3044202345
:10C65800C0B2C2180DEB0206621C3119D4B201F83F
:10C66800183C3B5D002BF7D1204408AA52FA80F011
:10C6780000F8183C99E700263F494C243346721CC1
:10C6880020336B44D6B203F8184C8C5D3346002C2B
:10C69800F5D13A4B3A4A1B783A4F03EB830303EB45
:10C6A80083018900A2FB012102AD0322A819C9094F
:10C6B800FFF7EEFD30442023C0B2C2180DEB02068E
:10C6C800621C3119D4B201F8183C3B5D002BF7D13C
:10C6D800204408AA52FA80F000F8183C65E70026C2
:10C6E800294953243346721C20336B44D6B203F8CD
:10C6F800184C8C5D3346002CF5D1244B244F1988F7
:10C7080002AD0422A81989B2FFF7C2FD3044C0B2B5
:10C718002023C2180DEB0206621C3119D4B201F8AD
:10C72800183C3B5D002BF7D1204408AA52FA80F050
:10C7380000F8183C39E700BF400000207C100108D1
:10C74800A5030020B4000020481801085817010864
:10C75800E01801089F860100E81801087817010809
:10C76800CC18010848000020D418010894180108C2
:10C77800AE000020A01801088018010890000020D1
:10C78800818080808C180108C01801085A00002098
:10C79800B81801080026704952243346721C203309
:10C7A8006B44D6B203F8184C8C5D3346002CF5D197
:10C7B8006A4B6B4F196802AD0522A819FFF768FD8F
:10C7C80030442023C0B2C2180DEB0206621C311996
:10C7D800D4B201F8183C3B5D002BF7D1204408AADD
:10C7E80052FA80F000F8183CDFE600265D4956242E
:10C7F8003346721C20336B44D6B203F8184C8C5D58
:10C808003346002CF5D1584B584F198802AD0422F5
:10C81800A81989B2FFF73CFD30442023C0B2C218E2
:10C828000DEB0206621C3119D4B201F8183C3B5DCD
:10C83800002BF7D1204408AA52FA80F000F8183CDF
:10C84800B3E64B4A54260023013420336B44E4B248
:10C8580003F8186C165D2346002EF5D1454B464F5C
:10C86800198802AD0322281989B2FFF711FD204467
:10C878002023C0B2C2180DEB0204721CA119D6B253
:10C8880001F8183CBB5D002BF7D1304408AA52FAD6
:10C8980080F000F8183C88E6384A40E6384B1A78A9
:10C8A800022A57D01978374A344B012918BF1A463B
:10C8B80035E6354B354A1978304B002908BF1A46FA
:10C8C8002DE6334B334A1978334B002918BF1A46E3
:10C8D80025E6324B324A1978324B002918BF1A46DE
:10C8E8001DE6314A13889BB2002B29D0214B1988A9
:10C8F80013888AB29BB29A4222D22C4A0FE62C4B5A
:10C908002C4A19682C4B002908BF1A4607E6264905
:10C918000B889BB2E3B1174B244A18880B88264D25
:10C9280081B29BB2994228BF2A46F8E5204B234A98
:10C938001968214B002908BF1A46F0E5204AEEE5A0
:10C948001B4B204A19681C4B002908BF1A46E6E50C
:10C95800194AE4E51C4AE2E56C180108A000002029
:10C9680074180108AC180108AA000020B8180108BA
:10C9780058180108AE00002060180108D8170108EF
:10C988005C00002068170108900000203818010892
:10C99800A90000209817010818180108A80000200D
:10C9A800A817010808180108AC000020E8170108BA
:10C9B800B4000020B81701085817010888170108A3
:10C9C800F817010828180108C817010870B5234D81
:10C9D800A0B006460024E0B20021FFF717F90134A1
:10C9E80080212846FFF7F4F8082CF4D180221C494E
:10C9F8001C4D6846FBF7FAFD00210846FFF706F9CB
:10CA080080216846FFF7E4F8802217496846FBF75B
:10CA1800EDFD00210120FFF7F9F880216846FFF7B6
:10CA2800D7F8042E28BF002606EB8606022405EB5D
:10CA3800C615802229466846FBF7D8FD2046002106
:10CA48000134FFF7E3F8E4B280216846FFF7C0F845
:10CA5800072C05F18005ECD120B070BDE41B01085E
:10CA680084100108641C01080411010808B5144A5F
:10CA7800144B002111701B78134ADBB21370137822
:10CA8800012B11D013780F2B4FF0AE0008D0FFF711
:10CA980089F88120FFF786F8CF20FFF783F8AF20C9
:10CAA800BDE80840FFF77EB8AF20FFF77BF881208C
:10CAB800FFF778F8BDE808400F20FFF773B800BF0C
:10CAC8005200002051000020530000202DE9F041C1
:10CAD800A84D2B78192BA0B048D0FFF7E5FCA64B42
:10CAE8001B7803F0FF04002B40F0AC822B78182B46
:10CAF8001FD8DFE813F01900CE0362045B04540466
:10CB08004D0446043F04D40331040404FE03F8032F
:10CB1800F203EC03E603E003DA031C041604100432
:10CB28000A042A0423043804944A10210220FFF737
:10CB3800EDFB934A00210320FFF7E8FB2E78F6B2BD
:10CB4800102E00F2A680DFE816F0A800640064004A
:10CB5800640055030203640064004102BD024301FE
:10CB680016026400A400A400A40064006D4680229C
:10CB78008449854E2846FBF739FD00210846FFF712
:10CB880045F880212846FFF723F880227F49284668
:10CB9800FBF72CFD00210120FFF738F880212846FB
:10CBA800FFF716F80224204600210134FFF72EF87B
:10CBB800E4B280213046FFF70BF8082CF3D1DFF8F8
:10CBC8000882734F02240CE0FBF710FD0021304669
:10CBD800FFF71CF8013480212846FEF7F9FF072CDF
:10CBE8000FD098F8003013F0010FE6B24FF0800232
:10CBF80007EBC4112846E7D080220021FBF7A4FCEC
:10CC0800E4E7644A0421204620B0BDE8F041FFF77C
:10CC18007DBB72B6604A614B1768D3F8008062B674
:10CC2800002F00F025845E495E4BB94228BF394683
:10CC380053260022013480326A44E4B202F8806C40
:10CC48001E5D2246002EF5D105220DEB0400FFF7EC
:10CC58001FFB20AA031952FA83F3052103F8806CFD
:10CC68006A460846FFF752FBB8F1000F09D0642066
:10CC78003346A7FB00014246FBF7C6FAC0F164063B
:10CC8800F6B23346552205210720FFF791FB287895
:10CC98006BE0454A0A210520B6E7444A13889BB24F
:10CCA800B3F57A7F38BFB2F80080414A34BF1FFA23
:10CCB80088F840F2E73854240023013680336B4467
:10CCC800F6B203F8804C945D3346002CF5D1394F09
:10CCD80039886D4689B20322A819FFF7D9FA831952
:10CCE800DBB25E1C80336B44F6B22F2203F8802C33
:10CCF8004146A8190322FFF7CBFA0644F1B201F125
:10CD08008003DFF8C8C020260DEB0300631C02195E
:10CD1800DCB202F8806C1CF80460002EF6D12144C5
:10CD280020AB53FA81F3052108462A4603F8806CA4
:10CD3800FFF7ECFA204B214A1978214B06200029ED
:10CD480018BF1A460521FFF7E1FA3B881D49642000
:10CD58009BB200FB03F3A1FB031307205522C3F387
:10CD680007230521FFF724FB304620B0BDE8F0413A
:10CD7800FFF76ABBA5030020920000208C19010868
:10CD88001C1B010884110108E41B01080412010896
:10CD98006425010850190108B4000020080000208B
:10CDA8009F860100381B0108D41B0108AC00002035
:10CDB80058180108AE00002044000020041901089A
:10CDC800F4180108C5B3A29135000020341B0108EE
:10CDD800A34A13889BB2B3F57A7F38BF1788A14A54
:10CDE80034BFBFB240F2E7374E2600230134803308
:10CDF8006B44E4B203F8806C165D2346002EF5D12F
:10CE0800994B19886D4689B203222819FFF740FA11
:10CE18000444E4B204F180036B440134E4B22F22E9
:10CE2800394603F8802C28190322FFF731FA044405
:10CE3800E4B204F1800320A901346B4451FA84F46C
:10CE48004322052103F8802C08462A4604F8806C02
:10CE5800FFF75CFA854A4C2706F1800301366B44DC
:10CE6800F6B203F8807C975D002FF5D1804B814A9C
:10CE78001B78DFF84C8203EB830303EB8301890003
:10CE8800A2FB0121C9090322A819FFF701FA0644E8
:10CE9800F6B206F180036B44252203F8802C013694
:10CEA800754BF6B219680422A819FFF7F1F9064480
:10CEB800F6B206F1800352240DEB03027B1C1744E3
:10CEC80007F8804CDFB218F80740002CF6D120ABE9
:10CED8003E4453FA86F62A4606F8804C0521062079
:10CEE800FFF714FA654A482604F18001631C0DEB2C
:10CEF800010404F8806CDCB2165D002EF4D1604B9E
:10CF08001B7803EB830303EB83015A4B8900A3FBD4
:10CF18000131C90903222819FFF7BAF90444E4B218
:10CF2800584A04F180036B4401341168E4B22522A5
:10CF380003F8802C28190422FFF7AAF90444E4B264
:10CF480004F1800252230DEB0201721C0E4406F814
:10CF5800803CD6B218F80630002BF6D120AA34440B
:10CF680052FA84F407202A46052104F8803CFFF78A
:10CF7800CDF90A20F9E60521434A0846FFF7C6F924
:10CF8800424949220023013480336B44E4B203F858
:10CF9800802C0A5D2346002AF5D13D4B3D491A688D
:10CFA8006D468A4298BF196805222819FFF770F95B
:10CFB80020AA031952FA83F3002607202A460521DE
:10CFC80003F8806CFFF7A2F90B20CEE6324B1A78F3
:10CFD800012A00F0F9811978304A314B022908BF3B
:10CFE8001A4605210846FFF791F92E4B2E4A187864
:10CFF8002E4B0521002818BF1A460620FFF786F990
:10D008002B4A50250023013480336B44E4B203F8E3
:10D01800805C155D2346002DF5D1264B1988042226
:10D0280089B20DEB0400FFF733F920AA031952FA6D
:10D0380083F3072005216A4603F8805CFFF766F949
:10D04800082092E61C4A0A210220FFF75FF91B4AD2
:10D058000A21032020B0BDE8F041FFF757B900BF0F
:10D06800AC000020901B0108AE000020981B0108AE
:10D078009C0000208180808094000020A41B01086F
:10D08800740000206C000020B81B0108C81B0108B0
:10D09800480000209F8601005C000020201901083C
:10D0A800401901084400002004190108F418010877
:10D0B800AC1B01085A0000206419010878190108FE
:10D0C800A01B0108C14A50250023013480336B445A
:10D0D800E4B203F8805C155D2346002DF5D1BC4E03
:10D0E800032231780DEB0400FFF7D2F80319DBB205
:10D0F80003F180020DEB0200013320AA52FA83F3F8
:10D108000521252400F8804C6A46084603F8805C0F
:10D11800FFF7FCF8AF4BB04A1878B04B0521002850
:10D1280018BF1A460620FFF7F1F83378AC4803EB2E
:10D13800830303EB83039B00A0FB03035522072013
:10D148000521C3F3C713FFF733F909200DE6A54AF4
:10D1580052260023013480336B44E4B203F8806C18
:10D16800165D2346002EF5D19F4B6D4619680522A2
:10D178002819FFF78DF820AA031952FA83F305211D
:10D1880008462A4603F8806CFFF7C0F8914B924A8C
:10D198001978924B0620002918BF1A460521FFF777
:10D1A800B5F8924953243346721C80336B44D6B287
:10D1B80003F8804C8C5D3346002CF5D18C4B032250
:10D1C8001978A819FFF764F88319DBB203F1800214
:10D1D8000DEB0201013320AA52FA83F3252701F847
:10D1E800807C07202A46052103F8804CFFF78EF83B
:10D1F8000520BAE57F4B56260022013480326A4466
:10D20800E4B202F8806C1E5D2246002EF5D17A4BFE
:10D2180019886D46032289B22819FFF739F820AA20
:10D22800031952FA83F3052103F8806C08462A464D
:10D23800FFF76CF871494F2306F1800201366A4402
:10D24800F6B202F8803C8B5D002BF5D16C4A6D4933
:10D258001278002A6C4A06F180000ABF11464F2452
:10D2680046241A46684401330244DBB202F8804C73
:10D27800CC5C1A46002CF6D120AA334452FA83F328
:10D2880007202A46052103F8804CFFF73FF80420C1
:10D298006BE55E4A10210220FFF738F849E45C4A42
:10D2A80010210220FFF732F843E45A4A10210220E5
:10D2B800FFF72CF83DE4584A10210220FFF726F822
:10D2C80037E4564A10210220FFF720F831E4544A87
:10D2D80010210220FFF71AF82BE4524A10210220ED
:10D2E800FFF714F825E4504A10210220FFF70EF842
:10D2F8001FE44E4A10210220FFF708F819E44C4AAF
:10D3080010210220FFF702F813E44A4A10210220F4
:10D31800FEF7FCFF0DE4484A10210220FEF7F6FF55
:10D3280007E4464A10210220FEF7F0FF01E4444AD0
:10D3380010210220FEF7EAFFFFF7FBBB414A10214C
:10D348000220FEF7E3FFFFF7F4BB3F4A102102205B
:10D35800FEF7DCFFFFF7EDBB3C4A10210220FEF789
:10D36800D5FFFFF7E6BB3A4A10210220FEF7CEFFB1
:10D37800FFF7DFBB374A10210220FEF7C7FFFFF790
:10D38800D8BB354A10210220FEF7C0FFFFF7D1BBFA
:10D39800324A10210220FEF7B9FFFFF7CABB304A14
:10D3A80010210220FEF7B2FFFFF7C3BB2D4A102160
:10D3B8000220FEF7ABFFFFF7BCBB2B4A102102206F
:10D3C800FEF7A4FFFFF7B5BB284A0AE6841B01084D
:10D3D800900000204400002004190108F4180108F6
:10D3E800818080806C1B0108A0000020781B010848
:10D3F800A8000020541B0108AA000020641B010893
:10D40800A90000201C190108141901089C19010819
:10D418002C1A01089C1A01080C1A01088C1A010818
:10D428007C1A01086C1A01081C1A01085C1A010808
:10D438004C1A0108DC1A0108CC1A0108BC1A0108A8
:10D44800AC1A0108FC1A0108EC1A01083C1A010878
:10D458000C1B0108FC190108EC190108DC1901086A
:10D46800CC190108BC190108AC19010830190108C8
:10D4780005210846044AFEF749FF64235522052181
:10D488000720FEF795FF02E4441B01080B4B1B78AD
:10D49800052B11D172B60A4A00211368116062B6D1
:10D4A800084A4FF4C87101FB03F31360116842F294
:10D4B8000F73994288BF1360704700BFA50300200F
:10D4C800A4000020A00000200A4B1B780A2B10D1D2
:10D4D80072B6094A00211368116062B6074AC8216A
:10D4E80001FB03F31360116842F20F73994288BF7E
:10D4F80013607047A50300209800002094000020C6
:10D508000E4B1B78092B04D110B50D4C23780BB9A1
:10D5180010BD704700F03AF90A4B1B68C01AFA2888
:10D52800F6D9094B09481B680022227040215A632A
:10D5380001F0A8FC064B01221A7010BDA5030020BB
:10D54800900000208C000020800200200004004889
:10D55800920000200F4B1B78052B04D110B50E4C00
:10D5680023780BB910BD704700F010F90B4B1B68FE
:10D57800C01AFA28F6D90A4B0A481B6800222270FA
:10D588004FF400715A6301F07DFC074B01221A70B9
:10D5980010BD00BFA5030020A80000207C000020CB
:10D5A8008002002000040048920000200C4B1A78EA
:10D5B8001AB11B78132B00D0704710B5094C23887B
:10D5C8009BB203B910BD00F0E1F8074B1B68C01A05
:10D5D800FA28F7D9054B0021012221801A7010BDC5
:10D5E800A5030020AC000020640000209200002069
:10D5F8000B4B1B780A2B05D110B50A4C23889BB21C
:10D608000BB910BD704700F0C1F8074B1B68C01A72
:10D61800FA28F6D9054B0021012221801A7010BD85
:10D62800A5030020AC00002060000020920000202C
:10D638000D4B1B780A2B04D110B50C4C23780BB971
:10D6480010BD704700F0A2F8094B1B68C01AB0F56E
:10D658007A7FF5D9074B084A1868012100232370FF
:10D668004363117010BD00BFA50300209C0000207B
:10D678007800002080020020920000200A4B1B78CE
:10D688000A2B10D172B6094A00211368116062B6DC
:10D69800074AC82101FB03F31360116842F20F73B4
:10D6A800994288BF13607047A503002070000020CE
:10D6B8006C00002008B50E4B1B780A2B12D10D4BBD
:10D6C8001B780A2B0FD90C4B1B6863B900F05EF866
:10D6D8000A4A126840F6B833801A984202D9084BB1
:10D6E80001221A7008BD00F051F8044B186008BDFB
:10D6F800A5030020740000206C000020B80400205E
:10D7080092000020704700BF38B50E4A0E4B1278C1
:10D71800054618684FF47A73B3FBF2F3B0FBF3F0E5
:10D7280001F0CCF908B90F2D01D9012038BD044604
:10D73800024629464FF0FF3001F076F9034B2046A8
:10D748001D6038BD120000200000002014000020D9
:10D75800074A08B5136843F010031360032001F06B
:10D7680051F90F20FFF7D0FFFFF7CCFF002008BDCD
:10D7780000200240034A044B11681B780B441360D5
:10D78800704700BFBC04002012000020014B18683D
:10D79800704700BFBC04002038B50446FFF7F6FF09
:10D7A800631C054602D0044B1B781C44FFF7EEFFB0
:10D7B800401BA042FAD338BD12000020704700BFBA
:10D7C800026838B5936803F00303012B01D00020E9
:10D7D80038BD1368DC07FAD5936803F00D03012BF5
:10D7E800044609D0236C43F010032364636C43F0B0
:10D7F80001036364012038BD9368032143F00203E9
:10D8080093601160FFF7C2FF23689B68D90705463C
:10D81800DDD5FFF7BBFF401B0228236802D99A68B1
:10D82800D207DFD49B68DB07F3D4D0E703689A6894
:10D8380012F00C0F01D100207047DA6870B595011D
:10D84800044604D5008B40F20112904234D060297E
:10D858009A6844D0500706D59A68920703D49A6804
:10D8680042F010029A600C2935D09A68100706D544
:10D878009A68920703D49A6842F020029A606C2949
:10D8880029D10C25FFF782FF236806469B681D42B5
:10D8980023D0FFF77BFF831B0B2B2368F6D99A68ED
:10D8A8002A42F3D0236C43F010032364636C43F0E3
:10D8B80001036364012070BD1A68500606D4124A39
:10D8C80001E0013AEED019684906FAD540221A60FB
:10D8D8009A6856070FD40425D4E7002070BD1607B0
:10D8E80001D40825CEE79A689507FAD49A6842F0D9
:10D8F80020029A60F5E79A689507ECD49A6842F096
:10D9080010029A60E7E700BF00940900026838B582
:10D91800936803F00303012B044626D09168154B46
:10D92800194209D0236C43F010032364636C43F05D
:10D9380001036364012038BD936843F001039360D9
:10D94800FFF724FF236805461B68D9070BD4FFF7A8
:10D958001DFF431B022B2368F6D91A68D207E1D5AD
:10D968001B68D907F3D5002038BD1368D807D5D56B
:10D978000020F9E73F00008030B597B000230193FD
:10D98800D0B1036C13F01003044618D1056C002DB8
:10D9980000F0998002689168CD0040F1828091681A
:10D9A80088007ED4216CC90600D463B1236C23F0AF
:10D9B800120343F010032364012017B030BD036C39
:10D9C800DA06F3D4026893685B07EFD4236C23F478
:10D9D800817343F00203B2F1A04F2364814B00F03E
:10D9E800DE809A4200F0E28003F540739A4277D0D5
:10D9F8007D498A4200F0EC80936803F00303012B11
:10DA080000F0E88079488368616823F440330B4369
:10DA18008360D4E902130B43616B607E013918BF40
:10DA2800012143EA403343EA013394F820100129E5
:10DA380000F09980A16A01290CD06D48824200F05B
:10DA4800A28000F58070824200F09D80E06A184351
:10DA580040EA0103916811F00C0F0CD1D16821F450
:10DA6800804121F00201D16094F83010207E4900F5
:10DA780041EA80310B43D0685E490140206919436F
:10DA88000128D16077D0136B23F00F0313630020B4
:10DA98006064236C23F0030343F00103236417B08D
:10DAA80030BD236C23F0120343F010032364636C2E
:10DAB80043F001036364236C236C23F0120343F0E7
:10DAC8001003236478E7C0E91255456480F83C5098
